:020000040800F2
:1000000000010020C10000089D1C0008156B0008BD
:10001000D1170008D1170008D1170008D117000820
:10002000D1170008D1170008D1170008D117000810
:10003000D1170008D1170008D1170008D117000800
:10004000D1170008D1170008D1170008D1170008F0
:10005000D117000819E8000839E80008D11700088E
:10006000D1170008D1170008D1170008F9E70008D8
:1000700031E50008D1170008D1170008712B0008DE
:10008000D1170008D1170008D1170008D1170008B0
:10009000D1170008D1170008D1170008D1170008A0
:1000A000D1170008D1170008D1170008E92B000864
:1000B000D1170008D1170008D1170008C92F000870
:1000C00072B6224880F30988022080F31488BFF3B7
:1000D0006F8F01F047FB03F0DFF81D481D491E4AF2
:1000E000914202DA08600431FAE71C49174A91424A
:1000F00002DA08600431FAE719491A4A1A4B9A429F
:1001000004DA0868106004310432F8E70020174967
:10011000174A914202DA08600431FAE701F028FB3D
:1001200001F022FB134C144DAC4203DA21688847DE
:100130000434F9E706F07AFB104C114DAC4203DAB7
:10014000216888470434F9E70E4908470003002076
:1001500055555555000000200001002000010020E9
:10016000E835010800030020F8030020F803002010
:10017000FC3E0020C0000008C0000008C0000008CD
:10018000C00000086D170008F0B544464D465646BD
:100190005F46F0B46B46CB60C3689D46F0BCA0469A
:1001A000A946B246BB46F0BD62B6281CA047002057
:1001B00001F036FD01F0D4FC014A024B1360FEE76A
:1001C00004ED00E00000008002B4714649084900D7
:1001D000095C49008E4402BC7047C04600224308B7
:1001E0008B4274D303098B425FD3030A8B4244D3FF
:1001F000030B8B4228D3030C8B420DD3FF22090241
:1002000012BA030C8B4202D31212090265D0030BFF
:100210008B4219D300E0090AC30B8B4201D3CB03F5
:10022000C01A5241830B8B4201D38B03C01A524137
:10023000430B8B4201D34B03C01A5241030B8B4239
:1002400001D30B03C01A5241C30A8B4201D3CB0224
:10025000C01A5241830A8B4201D38B02C01A524109
:10026000430A8B4201D34B02C01A5241030A8B420C
:1002700001D30B02C01A5241CDD2C3098B4201D324
:10028000CB01C01A524183098B4201D38B01C01AA2
:10029000524143098B4201D34B01C01A5241030919
:1002A0008B4201D30B01C01A5241C3088B4201D3C8
:1002B000CB00C01A524183088B4201D38B00C01A75
:1002C000524143088B4201D34B00C01A5241411A9C
:1002D00000D20146524110467047FFE701B50020A9
:1002E00000F0F0F802BDC0460029F7D076E770476D
:1002F00003460B437FD4002243088B4274D3030987
:100300008B425FD3030A8B4244D3030B8B4228D327
:10031000030C8B420DD3FF22090212BA030C8B424D
:1003200002D31212090265D0030B8B4219D300E0ED
:10033000090AC30B8B4201D3CB03C01A5241830B72
:100340008B4201D38B03C01A5241430B8B4201D322
:100350004B03C01A5241030B8B4201D30B03C01A4B
:100360005241C30A8B4201D3CB02C01A5241830AC5
:100370008B4201D38B02C01A5241430A8B4201D3F4
:100380004B02C01A5241030A8B4201D30B02C01A1E
:100390005241CDD2C3098B4201D3CB01C01A524185
:1003A00083098B4201D38B01C01A524143098B420E
:1003B00001D34B01C01A524103098B4201D30B01F7
:1003C000C01A5241C3088B4201D3CB00C01A52411C
:1003D00083088B4201D38B00C01A524143088B42E1
:1003E00001D34B00C01A5241411A00D2014652417A
:1003F000104670475DE0CA0F00D04942031000D399
:100400004042534000229C4603098B422DD3030AED
:100410008B4212D3FC22890112BA030A8B420CD3FD
:10042000890192118B4208D3890192118B4204D326
:1004300089013AD0921100E08909C3098B4201D3A6
:10044000CB01C01A524183098B4201D38B01C01AE0
:10045000524143098B4201D34B01C01A5241030957
:100460008B4201D30B01C01A5241C3088B4201D306
:10047000CB00C01A524183088B4201D38B00C01AB3
:100480005241D9D243088B4201D34B00C01A52418A
:10049000411A00D20146634652415B10104601D317
:1004A0004042002B00D54942704763465B1000D3A1
:1004B000404201B5002000F005F802BD0029F8D047
:1004C00016E770477047C0468446081C6146FFE740
:1004D0001FB500F071FC002801D40021C8421FBDE7
:1004E00010B500F0F3FB4042013010BD10B500F034
:1004F00063FC002801DB002010BD012010BDC046B8
:1005000010B500F059FC002801DD002010BD0120CD
:1005100010BDC04610B500F001FC002801DC002031
:1005200010BD012010BDC04610B500F0F7FB00283B
:1005300001DA002010BD012010BDC046002B11D1F2
:10054000002A0FD1002900D1002802D00021C94380
:10055000081C07B4024802A14018029003BDC0461F
:1005600065FFFFFF03B4684601B5029800F048F844
:10057000019B9E4602B00CBC7047C046F0B5CE460B
:10058000474615042D0C2E0080B50704140C3F0CB3
:100590009946030C7E435D43674363437F19340CE4
:1005A000E4199C46A54203D980235B029846C444C3
:1005B0004B4643435143250C36046544360C240412
:1005C000A4195B19591820000CBC90469946F0BD3F
:1005D0009E2110B5C905041CFFF7A6FF002803D112
:1005E000201C00F009FF10BD9E21201CC90500F051
:1005F00047FD00F001FF80231B069C466044F2E7A4
:10060000F0B557464E464546DE46E0B5040083B099
:100610000D00924699468B4230D82DD0494650461F
:1006200001F08CF829000600200001F087F8331A49
:100630009846203B9B4633D45A4653469340424605
:100640001F00534693401E00AF423AD8AF4200D13C
:100650007BE05B46A41BBD41002B00DA78E0002262
:1006600000230092019301235A46934001930123F2
:1006700042469340009328E08242CFD900220023D3
:10068000009201930C9B002B01D01C605D600098D0
:10069000019903B03CBC90469946A246AB46F0BDDA
:1006A000424620239B1A5246DA40414613004A46EE
:1006B0008A40170042461F43534693401E00AF42F4
:1006C000C4D900220023009201934346002BD9D0C5
:1006D000FB079C46614672080A437B0846460EE0CB
:1006E000AB4201D1A2420CD8A41A9D410120241989
:1006F0006D410021013E24184D41002E06D0AB4231
:10070000EED9013E24196D41002EF8D100980199CF
:100710005B4600196941002B25DB2B005A464446F5
:10072000D3402A00E2401C005B461500002B2BDB67
:1007300026005F46BE40330026004746BE403200DA
:10074000801A9941009001919CE7A342B9D880E7B3
:100750004246202300219B1A00220091019201228F
:10076000DA40019283E7424620239B1A2A0046463C
:100770009A402300F340444613432A00E2401C0001
:100780005B461500002BD3DA2023424626009B1A35
:10079000DE402F00B4464646B74066463B00334332
:1007A000CAE7C046F8B54C02640A4746A0464C006A
:1007B000C90FCE4689464146430246005B0A360EC3
:1007C000240E80B5C50F9C463200D800C900371BE7
:1007D0004D4560D0002F48DD002C00D17CE0FF2E7D
:1007E00000D183E08023DB04194301231B2F07DCA6
:1007F0000B002022FB40D71BB9404A1E91410B43FE
:10080000C31A5A0100D4A8E09B019C09200000F003
:1008100077FF05388440864200DDADE0861B22006C
:1008200020200136F240861BB44023005C1EA34109
:10083000002613435A0704D00F221A40042A00D07E
:1008400004335A0100D48BE00136F2B2FF2E00D1FE
:100850008FE09B015B0A5B02D205580AED0710434B
:1008600028430CBC90469946F8BD002F49D1FE2480
:10087000771C3C4200D086E0002E00D0DEE000284D
:1008800000D1D1E00029E6D0431A5C0100D4F1E0A8
:100890000B1A4D46CEE7002F4ADD002C3FD0FF2E2D
:1008A00024D08023DB04194301231B2F07DC0B001A
:1008B0002022FB40D71BB9404A1E91410B431B1815
:1008C0005A014AD50136FF2E53D0012271491A40F0
:1008D0005B080B401343ADE7002943D0013F431AA7
:1008E000002F00D18DE7FF2E00D07EE76346002B5E
:1008F0003FD080236246DB0313435B025B0AFF2287
:10090000A9E7A21B002E60D1002878D0013A002A66
:1009100000D1B5E0FF2C5DD14D46C446E6E7002985
:1009200020D0013F4318002FCAD0FF2EBCD1DDE7F5
:10093000002F32D1FE24013634427AD1002A62D10E
:10094000002800D1A0E0002900D184E74318002648
:100950005A0102D5504A013613405A0700D06BE7BE
:10096000DB089C46FF2EC1D063465B025B0AF2B2F5
:1009700071E7FF2200236EE7474B361A23405A07E0
:1009800000D059E7ECE7441A630161D4002C00D091
:100990003CE70025002200235DE7A21B002E28D1A2
:1009A00000282DD0013A002A70D0FF2CB5D00123A9
:1009B0001B2A07DC03002026D340B21A9040421EB7
:1009C000904103435B1826007AE7FF2CA4D08023D4
:1009D000DB04184301231B2A07DC03002025D34036
:1009E000AA1A9040421E90410343CB1A4D4626005E
:1009F00007E7FF2C91D08023DB041843D7E74D464F
:100A0000C4462600AEE7002887D0002900D16DE754
:100A100080236246DB031A4200D167E742461A424E
:100A200000D063E7C44661E7002926D04D4643461F
:100A300011E7FF2E9DD043185B088EE700280AD1EE
:100A4000002900D068E780230025DB03FF2202E7AE
:100A50000C1A4D46DAE6002900D147E780236246AA
:100A6000DB031A4200D141E742461A4200D03DE77B
:100A70004D4652E7002B00D06FE700250023EAE641
:100A80000B1A4D462600BCE64346E4E64318260012
:100A900016E7C046FFFFFF7DFFFFFFFBF0B54F46A7
:100AA0004646D64644024500C0B5640A0F1C2D0ECA
:100AB000C60F002D4FD0FF2D55D08023E400DB045E
:100AC0001C43002399469A467F3D7B0278005B0ACF
:100AD0009846000EFF0F002831D0FF2810D080224A
:100AE000DB00D2041A43904600217F382D1A4B4672
:100AF00032000B4371489B00C3587A40D2B29F46E4
:100B0000FF3D002B54D102234946194332000B000C
:100B10007A40033BD2B20C2B04D869499B00CB58D6
:100B20009F463A00002000246402C305600AD207F1
:100B3000184310431CBC90469946A246F0BD002BBA
:100B40002BD101234946320019438B005D497A407D
:100B5000CB58D2B29F46002C13D104239946033BB5
:100B600000259A46B1E7002C05D108239946063B9B
:100B7000FF259A46A9E70C239946093BFF259A468B
:100B8000A3E7200000F0BCFD7625431F9C40002316
:100B90006D422D1A99469A4697E7180000F0B0FD6D
:100BA0004246431F9A402D189046763500219EE715
:100BB00003219CE717003A00FF200024B4E78024BB
:100BC0000022E403FF20AFE732005346022BF1D0AE
:100BD000032B6CD0012BA5D028007F30002846DDE8
:100BE000630704D00F232340042B00D004342301D7
:100BF00003D52800344B80301C40FE28DCDCA401E7
:100C0000640AC0B290E78023DB031C4227D042462F
:100C10001A4224D144461C436402640A3A00FF206D
:100C200082E73A0044468A46CFE7414663014C01D9
:100C3000A34235D21B200021013D01271E0049009F
:100C40005B00002E01DB9C4201D81B1B394301389D
:100C50000028F3D11C00631E9C410C43BCE7802399
:100C6000DB031C436402640A3200FF205CE70123BB
:100C7000181A1B2800DD55E79E352300AC40C34001
:100C8000611E8C411C43630704D00F232340042BB7
:100C900000D00434630107D4A401640A002043E7B0
:100CA0001B1B1A200121C8E7012000243CE78023F8
:100CB000DB031C436402640AFF2035E720F00008D0
:100CC00060F0000894F00008FFFFFFF770B54200E5
:100CD0004E024C0045026D0A120EC30F760A240E16
:100CE000C90FFF2A0FD0FF2C11D00120A24200D043
:100CF00070BDB542FCD18B420DD0002AF8D128003E
:100D0000451EA841F4E70120002DF1D1EBE70120B9
:100D1000002EEDD1E9E70020EAE7C04670B54A00B1
:100D20004E02450244006D0A240EC30F760A120ECD
:100D3000C90FFF2C15D0FF2A0ED0002C15D1002A88
:100D400001D1002E1CD0002D14D08B4227D00220C0
:100D5000013B1840013870BD002EEED00220404209
:100D6000F9E7002DFAD1FF2A0ED0002A0ED1002E6D
:100D7000EDD00BE001230139994308000130EAE787
:100D80000020002DE7D0E2E7002EE7D18B42DED134
:100D9000944205DD0221581E08400138DBE700249B
:100DA000A24204DCB542D2D80020B542D3D2581EAC
:100DB000012398430130CEE730B5420044024D0292
:100DC000C30F4800640A120E6D0A000EC90FFF2AF5
:100DD00017D0FF2808D0002A17D1002808D1002DED
:100DE00006D1002C23D007E0002DF4D002201EE015
:100DF000002C17D08B421FD00220013B1840013835
:100E000015E0002CF2D1FF2812D0002801D1002DCE
:100E1000F2D08B42F0D182420FDD0221581E0840F1
:100E2000013804E00123013999430800013030BD45
:100E3000002DEED00220FAE70022904204DCAC4202
:100E4000DAD80020AC42F2D2581E01239843013078
:100E5000EDE7C046F0B54F464646D646440245004B
:100E6000C0B58846640A2D0EC70F002D49D0FF2D4E
:100E70004FD08023E400DB041C43002399469A46AC
:100E80007F3D434642465E02D20F5B00760A1B0E50
:100E9000904646D0FF2B12D080220020F600D204CC
:100EA0007F3B1643ED186A1C434694464A467B40F6
:100EB0000F2A00D974E0704992008A589746FF358E
:100EC000002E54D14A4602231A4391460220EAE7F3
:100ED0004346340082465246022A2AD0032A00D1D1
:100EE000C3E0012A00D082E0002200246402D2057F
:100EF000600ADB07104318431CBC90469946A24683
:100F0000F0BD002C27D104239946033B00259A46C7
:100F1000B7E7002C19D108239946063BFF259A46CE
:100F2000AFE7002E08D14A4601231A43914601201B
:100F3000B9E7FF220024D9E7300000F0E1FB431FAE
:100F40002D1A9E40763D0020ADE70C239946093BC3
:100F5000FF259A4695E7200000F0D2FB7625431F37
:100F60009C4000236D422D1A99469A4689E74A46CD
:100F700003231A439146032095E73B00ABE7802407
:100F80000023E403FF22B1E78023DB031C4245D0AA
:100F90001E4243D133435C02640A4346FF22A5E765
:100FA000200C2404210C0F00320C3604360C77433D
:100FB00051434643504389193A0C5218964203D97B
:100FC00080214902884640443F0411043F0CC9195E
:100FD0008C01661EB441890E2143140C2418A4010F
:100FE0000C4322013CD50122610814400C436046A9
:100FF0007F3000281ADD620704D00F222240042A25
:1010000000D00434220103D560461C4A80301440CD
:10101000FE288EDCA401640AC2B267E78020C00308
:1010200004436402640A3B00FF225FE70122101AB6
:101030001B2800DD58E762469E3221009440C140E3
:10104000621E94410C43620704D00F222240042AFE
:1010500000D00434620105D4A401640A002245E7EB
:10106000AC46C4E70122002440E78022D2031443A7
:101070006402640AFF2239E7CCF00008FFFFFFF7A3
:10108000F8B543025B0ADA00DE4693464A02520A8A
:10109000454690464E4657464446E0B54A0047000E
:1010A0003F0EE400120EA1469C463E00C50FC90F3C
:1010B000BC1AFF2A00D177E0012082465046414009
:1010C0008D4200D180E0002C51DD002A00D073E079
:1010D0004B46002B00D1DDE0013C002C0FD0FF2F50
:1010E00000D1A5E001231B2C09DC20224946121B5C
:1010F00091404B460A00E340511E8A4113435A4631
:10110000D31A5A0100D4C0E09B019C09200000F0D2
:10111000F7FA230005388340864200DDC4E0861BD1
:101120001A0020200136F240861BB3405C1EA3410A
:10113000002613435A0704D00F221A40042A00D075
:1011400004335A0100D4A3E00136F7B2FF2E00D1D8
:10115000A7E09B015B0A5802FF05400AED073843F0
:1011600028433CBC90469946A246AB46F8BD002CAD
:101170004FD1FE247A1C144200D09CE05A46002F26
:1011800000D003E1002A00D1F4E04A46002AE2D070
:101190004B465A46D31A5A0100D405E14B465A46EB
:1011A0000D009B1A0026C5E74846002800D183E7BA
:1011B0008D4251D0002CDADDFF2F39D080234A46F2
:1011C000DB041A4391468DE7002C45DD002A3AD016
:1011D000FF2F2DD080234A46DB041A43914601237A
:1011E0001B2C09DC20224946121B91404B460A0069
:1011F000E340511E8A4113435B445A0145D50136F1
:10120000FF2E4ED001226F491A405B080B4013435A
:1012100090E7D41B0D00002F72D15B46002B00D14C
:1012200092E0013C002C00D1C5E0FF2A6FD1C446FA
:101230006346002B35D080236246DB0313435B02F9
:101240005B0AFF2787E74B46002B23D0013C002C8D
:1012500077D0FF2FC3D1EBE7002C38D1FE227E1CC4
:10126000324200D08CE05A46002F70D1002A00D1C3
:10127000A6E04A46002A00D16DE75B464B440026B3
:101280005A0102D5504A013613405A0700D053E79D
:10129000DB089C46FF2ECBD063465B025B0AF7B2AD
:1012A00059E7FF27002356E7474A361A13405A07E3
:1012B00000D041E7ECE74B465A46D41A63016FD49D
:1012C000002C00D022E700250027002343E7D11B94
:1012D000002F2CD0FF2AAAD080235846DB041843C5
:1012E000834601231B2908DC5B4620245846CB405B
:1012F000611A8840411E884103434B4416007CE735
:10130000FF2A94D080235946DB0419438B460123DE
:101310001B2C08DC20215B465846E3400C1BA040F8
:10132000411E8841034349461600CB1AE9E65B4655
:10133000002B09D001390029DFD0FF2AD1D1C446C2
:1013400076E75B464B4458E7C4461600A2E7002AFE
:1013500000D16CE74A46002A00D169E78022D20317
:10136000134200D164E74346134200D060E70D000A
:10137000C4465DE74B46002B1AD00D004346EAE613
:10138000FF2E8ED05B464B445B087EE7002AE1D1FE
:101390004B46002BEBD180230025DB03FF27DAE649
:1013A0004B460D009C1AB1E60026002B00D06CE7DE
:1013B00000250023CFE64B46594616005B1AA0E6EF
:1013C0004346C8E6FFFFFF7DFFFFFFFB42024B02E3
:1013D00040004900520A5B0A090E000EFF2806D0A1
:1013E0000020FF2902D11800431E98417047FE38A3
:1013F000002AFBD1F4E7C04641024200C30F490A6C
:10140000120E00207E2A03D99D2A02D9094A981873
:101410007047802000040143952A07DC9620821A39
:10142000D1404842002BF3D10800F1E7963A9140B1
:10143000F7E7C046FFFFFF7F70B5002812D0C31743
:10144000C5185D40C40F280000F05AF99E22121AF8
:10145000962A11DCD2B2082833DD083885406802AC
:10146000400A02E00024002200204002D205400A87
:10147000E4071043204370BD992A0BDD05232900A2
:101480001B1AD94003001B339D402B005D1EAB414E
:1014900019430D00052801DD431F9D402B000A491B
:1014A0000B406E0709D00F263540042D05D00433BC
:1014B0005D0102D59F220B40121A9B01580AD2B23D
:1014C000D3E76802400AD0E7FFFFFFFB70B5041EB8
:1014D0000DD000F015F99E22121A962A0EDCD2B217
:1014E00008282EDD083884406002400A01E000220E
:1014F00000204002D205400A104370BD992A09DD40
:10150000030021001B3399404B1E994105231B1AF0
:10151000DC400C43052801DD431F9C4023000A49A1
:101520000B40650709D00F252C40042C05D004334F
:101530005C0102D59F220B40121A9B01580AD2B2BD
:10154000D7E76002400AD4E7FFFFFFFB70B5410018
:101550004602C40FFE20090E4B1C750A184214D017
:10156000E0239B006D07360BCB1800210A0D2800E5
:1015700012051C4D32435B052A405B0813435B0098
:10158000E4075B082343190070BD002914D1002D26
:101590001ED0280000F0B4F80A281CDC0B232A0017
:1015A0001B1ADA40030015339D400F4B12031B1A20
:1015B0005B05160B5B0DD8E7002D06D0320B80269D
:1015C00036036D071643094BCFE7084B0026CCE7DF
:1015D00000230026C9E703002A000B3B9A400025A0
:1015E000E3E7C046FFFF0F8089030000FF0700000C
:1015F0004A00F0B50B03520D3D4D5B0A470F561CD8
:10160000C90F1F43C4002E4228D03A4BD518FE2DD7
:1016100008DDFF2200204002D205400AC90710431E
:101620000843F0BD002D2DDD80010200501E8241D7
:10163000FB00640F134323435A0757D00F221A406D
:10164000042A00D004338022D2041A404ED001353F
:10165000EAB2FF2DDDD09B01580ADCE73C43002AAB
:1016600006D1002C0BD005239B01580AD2B2D2E739
:10167000002CCED08020C0033843FF22CBE70022CD
:101680000020C8E72B00173322DB80231E261B0413
:101690003B43761B1F2E1DDD02204042451B1800D8
:1016A000E8400500202E04D013488446624493404D
:1016B0001C4323005C1EA3412B4300255A07BDD1C8
:1016C0008020C00418400122A842C4D10200CBE708
:1016D0000022C8E7094810182200844025008340F2
:1016E0006C1EA541F2402B431343E6E72A00BBE7FB
:1016F000FE07000080FCFFFFA2FCFFFF82FCFFFF53
:101700001C2101231B04984201D3000C10391B0A31
:10171000984201D3000A08391B09984201D30009F5
:10172000043902A2105C40187047C046040302024C
:1017300001010101000000000000000010B50029B7
:1017400003D1FFF7DDFF203002E0081CFFF7D8FFD0
:1017500010BDC0460023C25C0133002AFBD1581ED5
:10176000704700007047C0467047C046FEE7C0465D
:1017700080229446F0B50025104E114C1149124BB1
:101780001248B44499420DD91A0080C880C29142CF
:10179000FBD80139C91A8908013189005B189C42BC
:1017A00002D920C39C42FCD81036664504D030686C
:1017B0007368B168F468E5E7F0BDC0460CF1000855
:1017C000FC3E0020FC3E0020FC3E0020E0360108EC
:1017D000FEE7C046FEE7C04610B500F0EFF800F0A7
:1017E00069F80B4C80220B49200000F0BDF90A4B30
:1017F000283C206103610123084A0375136A0849E4
:101800000B40136262B6074800F0CAF910BDC0462B
:10181000D00400208CF100080001002000ED00E061
:10182000FFFF00FF94F1000872B6014B5862FEE71B
:10183000A8040020F8B58026CE4647461B4DF60585
:101840006C69726A286AA36880B5111A99421DD31F
:101850002F000022143790460AE062B62069C8477C
:1018600072B66C69726A286AA368111A8B420DD825
:10187000E268C318914642462B6223685F606B6141
:10188000E260BB42E9D100F049FAE6E708498C4240
:1018900006D01818801A022806D3801800F044FADF
:1018A0000CBC90469946F8BD0220F6E7A80400203B
:1018B000BC040020054B1A0014325A619A610122BF
:1018C0005242DA6100221A627047C046A804002022
:1018D00070B503618023DB050500C260586A0229E8
:1018E00000D20221164E32007369143293421DD089
:1018F000326A0818841A9A68A24203D911E01B6858
:10190000A41A9A68A242FAD35A682B606A601560DA
:101910005D60AC609A68141B9C6001235B42F361BC
:1019200070BD00F001FA73699A68EBE73062756187
:10193000B56108182B606B60A96000F0E7F9EFE76C
:10194000A80400201C4B10B55969026881420ED0D2
:10195000416814330A60026851600021C1609A42F4
:1019600004D0916883688C466344936010BD18006E
:10197000002414305A615060CC60824218D08868CC
:1019800091681B6A8C46604490608022D205526A3E
:10199000D11A8842EAD99B1A1818022803D3801852
:1019A00000F0C2F9E2E70220801800F0BDF9DDE79F
:1019B00000F0B4F9DAE7C046A80400200022024B88
:1019C0001B605B609A607047A80400200023826857
:1019D0000375054B1B6899689142FBD25A680360F6
:1019E0004260106058607047A804002010B572B6BD
:1019F000037D032B0AD0042B0CD0002B04D0012331
:101A00005B428361FFF7E2FF62B610BD002283698B
:101A10001A60F4E74268036813605A60EFE7C04653
:101A2000002382680375054B1B6899689142FBD8B7
:101A30005A6803604260106058607047A804002034
:101A400070B50C4C25692875206803685C602360BC
:101A5000012320610375EFF309832A69243B9A422D
:101A600003D82900FEF790FB70BD0348FFF7DCFEAA
:101A70002069F6E7A8040020B4F1000830B505009D
:101A800087B04B1C12D00B4C0B4A236901A8FFF7FF
:101A90001FFF2800FFF7D4FF049B002B02D001A8F2
:101AA000FFF750FF2369986907B030BDFFF7C8FF03
:101AB000004CF7E7A8040020ED19000870B50400F9
:101AC0000F4DA3682869A1618268934203D8200062
:101AD000FFF77CFF70BDFFF779FF012306002C6143
:101AE0002375EFF309830269243B9A4204D831003D
:101AF0002000FEF749FBEDE70248FFF795FEF6E709
:101B0000A8040020B4F10008044B1A691968906811
:101B10008B689842804140427047C046A80400202C
:101B200070B50D4C236820691A6854602260012248
:101B30001A752361FFF774FF0500EFF3098302694B
:101B4000243B9A4204D829002069FEF71DFB70BD92
:101B50000248FFF769FEF6E7A8040020B4F1000888
:101B600010B5FFF7DDFF10BD02238260838270474E
:101B7000836841681A00203A11610169443BD360CF
:101B800019614169596105491962C3681000936080
:101B900002231375002353757047C046A90100083E
:101BA0004368826810B5934204D2552119700133FD
:101BB0009A42FBD172B6FFF7DBFF00210400FFF76A
:101BC0007DFF62B6200010BD70B54518A84205D251
:101BD0000400552626700134A542FBD172B6203987
:101BE0004418210024392061E1600B61049B20002E
:101BF0004B61054B0B620223A260A3820021FFF719
:101C00005DFF62B6200070BDA901000810B5034B4E
:101C10001B6998610F20FFF713FF10BDA804002077
:101C200010B572B6FFF7F2FF10BDC04610B5010047
:101C300072B60820FFF722FF62B610BD10B500296A
:101C40000AD0074B42681B6918605A6013604360F2
:101C50000420FFF713FF10BD01204042FBE7C04600
:101C6000A8040020036810B5984206D01A680260E4
:101C7000506099611800FFF7A9FE10BD70B504000F
:101C800000680D00844208D0036823605C608561B1
:101C9000FFF79CFE20688442F6D170BD80B500AF8E
:101CA000EFF30983203383F3098862B6BD4680BD14
:101CB000B0B500AF0F300ED072B6EFF30984203C00
:101CC00084F3098880235B04E361FFF71DFF00288C
:101CD00003D0034BA361BD46B0BD024BA361FAE73D
:101CE000B5010008B801000810B500F0DBFE00F0F7
:101CF000F3FA00F0B1FC00F097FB01F00BFB00F0F1
:101D000001F810BD10B500F045FF10BD8023002282
:101D1000DB0558631A610232DA60704780230022C3
:101D2000DB05DA607047C0468023DB0558637047E7
:101D3000C368196082680132826082699446426990
:101D40006344C360934201D3036AC3607047C046D3
:101D500030B51D00002404325543C361039B4D1967
:101D6000C362049B45610060406084600161C160A2
:101D70008261016244628462036330BD00230221F8
:101D800010B5026A83600261C260436283624942A5
:101D9000FFF774FF10BDC04610B50400FFF7C8FF81
:101DA00000212000FFF75EFF10BDC046836810B51C
:101DB0000400002B07D000202269131D1268636203
:101DC0009B18A36210BDFFF739FF0028FAD1F2E794
:101DD000826983689446013B836003694269634476
:101DE00010B50361934201D3036A03610023436288
:101DF000C36A002B00D0984710BDC04670B50400E0
:101E000072B6436A002B0CD0A26A1D78013363625C
:101E1000934202D262B6280070BD2000FFF7D8FFBF
:101E2000F8E7FFF7C3FF051EF4D1636AECE7C0468D
:101E3000F8B5CE464746040080B589461700984657
:101E400072B6002515E0A36A7E1B5B1A9E4200D97C
:101E50001E00320048460DF0ABF8636AA26A9B1977
:101E60006362AD19934202D32000FFF7B1FFAF4286
:101E70000AD9616A0029E6D141462000FFF796FFA2
:101E8000002801D1616ADEE762B628000CBC9046EA
:101E90009946F8BDC3680269934201D0181D704786
:101EA00082680020002AFAD1F8E7C0468368002B38
:101EB00003D0006908C80B6070470020FCE7C046EB
:101EC000826983689446013B836003694269634485
:101ED00010B50361934201D3036A03610021FFF748
:101EE000C1FE10BDC368026910B50400934207D05B
:101EF0001A1D6262A269002094466344A36210BD69
:101F00008268002AF4D0FFF799FE0028F7D1E36831
:101F1000EEE7C04610B50400FFF70AFF0023636236
:101F2000E36A002B01D02000984710BD70B5040073
:101F30000D0072B6436A002B0FD01D70636AA26A4F
:101F400001336362934202D262B6002070BDA3697E
:101F50002000191FFFF7DEFFF6E71100FFF7C2FFB1
:101F6000002801D1636AE8E762B6EFE7F8B5CE462C
:101F70004746040080B589461700984672B600258A
:101F800018E0A36A7E1B1B1A9E4200D91E004B4616
:101F9000320059190DF00CF8636AA26A9B1963624A
:101FA000AD19934204D3A3692000191FFFF7B2FFB4
:101FB000AF420AD9606A0028E3D141462000FFF70A
:101FC00091FF002801D1606ADBE762B628000CBCF3
:101FD00090469946F8BDC046836870B50400002558
:101FE000002B06D1416A002903D0C3680439C91AFD
:101FF00001D1280070BDFFF79BFE65620135F8E74F
:1020000003000269C169013A02614A1CC261C068E9
:10201000405C59698A4201D30022DA617047C046A8
:1020200003690133036183695A1C8261C268D15418
:1020300083694269934201D3002383617047C0469C
:1020400010B50024006040600461C160C461846117
:102050004261836010BDC0460023022110B5C361F8
:10206000836103614942FFF709FE10BD03694269BC
:1020700010B50400934207D2FFF7D2FF20000021E1
:10208000FFF7F0FD002010BD01204042FBE7C046F5
:1020900070B5040072B60369002B0BD02000FFF767
:1020A000AFFFA3680500002B01D02000984762B65F
:1020B000280070BDFFF7C2FD051EF8D1EEE7C0464F
:1020C000F0B54E46DE4657464546E0B583B00400BF
:1020D00000919146019372B6002711E02A00404614
:1020E0000CF066FFE369EE182369E6615B1B236170
:1020F0007F19A368002B01D020009847B9452DD93E
:102100002369002B22D04A46D51B9D4200D91D00D1
:10211000002DEED0009B9846B844012D27D063696E
:10212000E6699B469B1B9A46E36899195545D5D3AA
:10213000524640460CF03CFF5B464046F61A761984
:1021400050443200E1680CF033FFCDE701992000E4
:10215000FFF774FD002801D12369D4E762B6380087
:1021600003B03CBC90469946A246AB46F0BD200069
:10217000FFF746FF434601371870BAE770B5040011
:102180000D0072B6036941698B420BD22900200011
:10219000FFF746FFA368002B01D0200098470020DE
:1021A00062B670BD1100FFF749FD0028F8D1EDE7D8
:1021B000036970B50400002B08D0FFF721FF002150
:1021C00005002000FFF74EFD280070BD01256D427F
:1021D000FAE7C046F0B55746DE464E464546E0B5FE
:1021E00083B0040000919246019372B60027B8466E
:1021F00011E02A0049460CF0DBFEA369EE182369C2
:10220000A6615B192361A844A368002B01D02000BC
:102210009847C2452ED923696769BB4221D25246ED
:102220004146FB1A551A9D4200D91D00002DEBD0E6
:10223000009B43449946012D25D0A669BB1B9B46B4
:10224000E36898195D45D4D35A4649460CF0B0FE70
:102250004946F61B761959443200E0680CF0A8FE96
:10226000CDE701992000FFF7E9FC002802D167695A
:102270002369D4E762B6404603B03CBC9046994619
:10228000A246AB46F0BD19782000FFF7C9FE012336
:102290009C46E044B8E7C046012110B508304942E9
:1022A000FFF7F6FE10BDC046012210B5283052429D
:1022B000FFF764FF10BDC046012310B508305B4234
:1022C000FFF7FEFE10BDC046012310B528305B426B
:1022D000FFF780FF10BDC04610B500F0C9FC10BD6F
:1022E00070B515000A4A0B000260010001220400CB
:1022F0000271483108303F32FFF7A2FE2100200072
:102300002B00883128304022FFF79AFE70BDC0466E
:10231000C4F1000810B5040072B600F0D3FC02232B
:10232000237162B610BDC04630B59E25046B6D00AA
:10233000625983B013681978042902D121790229DE
:1023400001D003B030BD117901228A401B891342AC
:10235000F7D1200001A93C30FFF7A8FD021EF0D004
:10236000635919791868019B00F0CCF9E9E7C04678
:1023700070B59E256D004259040013681978042930
:1023800002D10179022901D0012070BD51790122C9
:102390008A405B891342F7D10830FFF77BFD021EAC
:1023A000F2D0635918685979402300F099F9002058
:1023B000EBE7C04610B5006BFFF7DAFF10BDC04673
:1023C000012110B508304942FFF718FD10BDC04685
:1023D0009E235B00C35810B51B681B78042B05D1E6
:1023E00001223C305242FFF7A1FD10BD02204042C5
:1023F000FBE7C046012310B508305B42FFF718FD2C
:1024000010BDC04603009E204000185810B500685B
:1024100004780020042C00D010BD3C3318000123A8
:102420005B42FFF7A3FDF7E77047C0460E4B10B5C0
:10243000036001230400010003710C4B82B0009380
:1024400070310830019401234022FFF781FC210004
:102450002000074BB43100933C300194022340220A
:10246000FFF776FC02B010BDE4F10008B5230008C8
:10247000292300080A6872B60B7909339B00D31828
:1024800058604B7911339B0098508B79002B03D007
:1024900009339B00D21850609E235B00C1503B3B28
:1024A000FF3B037162B6704710B504000830FFF7B8
:1024B00065FC20003C30FFF761FC10BD10B5040046
:1024C0000830FFF75BFC20003C30FFF757FC200092
:1024D000FFF74EFF10BDC0467423C15C143B0200E1
:1024E0000B400020202B00D070475533D35C202BAD
:1024F000FAD3212B05D8064B012093660723D36618
:10250000F2E7222BF0D19066D0660120ECE7C046BE
:102510000003002070B59E256D00425982B01368FB
:1025200004001978042902D10179022901D002B0EE
:1025300070BD117901228A401B891342F7D1060030
:102540003C363000FFF748FD0028F0D001A93000EC
:10255000FFF7ACFC6359020019791868019B00F081
:10256000D1F8E4E70B00F0B509339B00C3185C68B1
:1025700083B006000F00002C15D072B68D004519EF
:10258000EB683C345B691B68002B1BD101A9200060
:10259000FFF78CFC002808D00200019B39003000B6
:1025A00000F0B0F862B603B0F0BDEB685A691B8A60
:1025B00012689A42F6D1002300223900300000F060
:1025C000A1F8EFE72000FFF77BFCDFE7113189007E
:1025D00010B50C58002C11D072B69E235B00E35846
:1025E0001A685B7902339B00D3185B689B69596852
:1025F000002904D12000FFF7BBFE62B610BD200009
:102600000830FFF7C9FBF5E77047C04610B5040076
:10261000002100F0E7FD0021200000F0CFFD6368FD
:102620001B68002B02D00521200098476423062256
:10263000E25410BD762310B50400C25A0833C254C8
:1026400000F09EFB63681B68002B02D00121200074
:1026500098470323237010BD10B500F067FB10BD31
:1026600001230370002301004360030000222C3388
:1026700048311A60DA6104338B42FAD182607047C4
:1026800010B5040072B600234160C360036143616A
:102690008361C36103624362836200F04FFB0223E4
:1026A000237062B610BDC0468B1C9B0070B5C3186A
:1026B000050050690E0014005A60002803D00C2257
:1026C00000210CF07FFCA069002803D00C2200211F
:1026D0000CF078FC3100280000F05CFB70BDC046B7
:1026E00070B501258D4044892C4344818C1CA40085
:1026F00004196468A46923600023A260636000F089
:102700000BFC70BD70B501258D4004892C430481FC
:102710008C1CA40004196468646923600023A2600F
:10272000636000F00DFC70BD022310B564220370DD
:1027300000230400C3678360C36003614361836156
:10274000C361036243628362835400F089FB636860
:102750001B68002B02D000212000984710BDC04606
:1027600005230370436810B51B68002B01D00321BB
:10277000984710BD04230370436810B51B68002BF5
:1027800001D00421984710BD70B5642300250200D4
:102790000400C554743200F0A5FB636825679B688C
:1027A000002B1BD020009847002817D0E26E7A2318
:1027B000E35A934200D2E36672B67423E35C7F2B44
:1027C00030D8E36E002B39D0A26E00212000FFF735
:1027D00087FF64230422E25462B670BD7423E25C76
:1027E000143B13421AD17523E05C563B1340012B76
:1027F0003ED0002B36D0022B10D178220F21A55AC3
:10280000083229402A40012800D195E0002800D153
:1028100082E0032800D18FE00C2831D02000FFF7A0
:10282000F5FEDAE7E36E002B12D0A26E0021200045
:10283000FFF768FF64230122E254CDE70023002262
:1028400000212000FFF75EFF64230522E254C3E766
:102850000023002200212000FFF742FF642303220F
:10286000E254B9E70928D9D8464A8300D3589F468D
:102870000028D3D1444B0222A3660223E36696E7E5
:10288000414AE366A266022291E776237F22E35C57
:10289000A3545A1E93410333237063681B68002BB3
:1028A00002D00221200098470023A366E36683E755
:1028B00023007C33A36602230222E36677E723002A
:1028C0007F33A36601230122E36670E77623606805
:1028D000E15A0233CAB24568E35A090A2000A84700
:1028E00000289BD043680268A366E2665FE7002386
:1028F000A366E366254B23675EE77623E35A012B45
:102900008CD17C210222635A9343032801D0635265
:10291000CAE713436352C7E7C9B22000002A1CD09C
:1029200000F0D0FA01281BD0022800D076E7184B1F
:10293000E066A36602223AE77623E35A002B00D032
:102940006CE7002900D169E7C9B201280ED0200048
:10295000002A11D000F046FCA6E700F09FFAE1E75C
:102960000C4B0222A3660223E36620E72000002A24
:1029700005D000F065FC97E700F020FC94E700F03C
:1029800045FC91E704F2000850F2000835260008E3
:1029900048F200084CF20008642310B5C35C040040
:1029A000062B05D8184A9B00D3589F46FFF72EFEEA
:1029B00010BD7A23C06EE35A984205D2E368198AA3
:1029C000FDF792FC002913D072B6002300220021EB
:1029D0002000FFF785FE62B664230322E254E7E796
:1029E000036F002B00D0984764230022E254DFE7F6
:1029F00072B6002300222000FFF784FE62B6642333
:102A00000222E254D4E7C0462CF2000870B56425D7
:102A1000425D0400062A14D80123934067221A421B
:102A200010D1DA0611D41B070BD5C3689B695B680C
:102A3000002B06D1036F002B00D09847642300229F
:102A4000E25470BDFFF7E2FDFBE772B600230022FF
:102A50000021FFF757FE62B605236355F1E7C04634
:102A60000F4A70B594460322FF25C0260240D200CB
:102A700095408901914083089B006344B6009C59AE
:102A80001F22AC430C439C51012302409340C022BF
:102A900040098000604452008350036070BDC0460E
:102AA00000E100E00A4B01219A6A00224942996242
:102AB0009A62186919611A61D86806490143D96098
:102AC000DA608022D96952050A43DA617047C0464C
:102AD00000100240FFFFBFFF0121234A13680B4390
:102AE0001360013113681942FCD0032153688B43F2
:102AF00053605368093153601B4A53680B40FCD143
:102B0000F92110680140116053608023516B5B0212
:102B10000B4380215363144A8902536B0B42FCD050
:102B2000E523DB0453600023D36210331363802357
:102B300011685B040B43802113600B4A89041368FE
:102B40000B42FCD01121094B196053680F390B431C
:102B50005360054A0A3153680B40082BFBD1012111
:102B600093690B43936170470010024000200240BC
:102B70008023DB051A6910B57446920703D4200040
:102B8000FFF796F810BD00221A6172B6FEF752FEEA
:102B900062B6F4E701220E4910B5CB690F2013434A
:102BA000CB610C498B6813438B608023E021DB05EC
:102BB000FF319962E139FF39D96200219961596386
:102BC000D96059605A6102311A60FFF749FF10BDA0
:102BD00000100240005801408021024A13680B4354
:102BE0001360704700380140F8B5C823CE46474609
:102BF0001D4E80B5F458F0462768E569256272B627
:102C0000AB060BD5202399460836A18C3000C9B2FB
:102C1000FFF72CFA4B46E5692B42F6D180233B4265
:102C200013D02B4211D0114B8026994604E080B27C
:102C30002085E5692E4208D04846FFF7B9FA0028FA
:102C4000F5DA80233A009A43226040233B4203D0C6
:102C50002B4201D09F43276062B64046FFF728F819
:102C60000CBC90469946F8BDEC04002014050020E9
:102C700010B5084C084A20000021FFF731FBC8239B
:102C8000064A0221E250064A04331B20E250FFF7B5
:102C9000E7FE10BDEC040020D92B000800380140ED
:102CA000006CDC02C82370B50125C4582368AB430F
:102CB0002360CC23C058FDF791FAE06023682B43D2
:102CC000236070BDF8B5002922D0402601258B680D
:102CD0004A681E43CB6809681D432E23FF33134304
:102CE0000279012A0AD0C82284586660A560236050
:102CF000FFF7D8FF01235B422362F8BD084A9042E8
:102D0000F1D18022074CD201A7693A43A261EAE7D8
:102D100096212E230902FF330125034EE0E7C0462A
:102D2000EC040020001002404040000010B50248B2
:102D3000FFF796FC10BDC046BC050020037870B5B7
:102D40000400012B00D070BD0A4A904203D020003D
:102D5000FFF7EAFCF7E780220749084DC86912042B
:102D60000243CA611F202B640321FFF779FE002371
:102D70002B64ECE7BC05002000100240005C004022
:102D80007E238022C35C1343014AD3647047C0464C
:102D9000005C00408B1C9B00C318F0B55D68CE46FC
:102DA000474603232A6880B5134052D00022022BE5
:102DB0000AD9033B5A42534180225B42D2001A4057
:102DC00080239B009C466244234C244BA4461B6DED
:102DD000CE006344F4186B69002B11D0002363808C
:102DE0008033C65899462B8A0133984601234746BB
:102DF0009F43BB194F46C3512023B6B226801A43C6
:102E0000AB69002B12D06D8A3E2D1BD801356E08A0
:102E1000B602B6B2E680802601278359BD43ED187D
:102E20009BB28551A38080239B011A430B4B8800E2
:102E30009C46604403680A43036002600CBC9046F1
:102E40009946F0BD20236E1E76111E43B6B20135A1
:102E5000DEE780229200B7E700600040005C00409F
:102E600000230C4A10B51365536443688021DB6866
:102E7000D1645C4263419E242402A4465B425B020F
:102E80006344136440234350034B0021C360FFF7A6
:102E900081FF10BD005C004054F20008074B890020
:102EA000C858C0239B01184006D0054B9C4660447F
:102EB000431E9841013070470020FCE7005C004051
:102EC00000F0FFFF3020064B8900CB58184004D09B
:102ED0001038431E9841013070470020FCE7C0467F
:102EE000005C00400A480B4B844610B51B6DC900BE
:102EF0006344C91888881400614680B20834891A6E
:102F000083185B5A13800232A242F9D110BDC04629
:102F100000600040005C0040064B89009C46614414
:102F20000A68054B1A40C0239B015A40034B1343C8
:102F30000B607047005C00408FB7FFFF808000008F
:102F4000F0B5C6468B1C9B00C01800B54268556999
:102F5000148A68682B681B1A9C4200D91C00164F03
:102F6000164BBC461A6DCB0062449A181388A7B260
:102F7000AE685780621C9BB252080CD01B1A984650
:102F80004346371852006344D2199B1B3E88DE53D8
:102F900002379742FAD1094B89009C4661440B687D
:102FA000074A0019134030225340064A6860134311
:102FB0000B6004BC9046F0BD00600040005C004027
:102FC000BF87FFFF80800000F0B5DE464E465746C3
:102FD00045467346E0B58BB00893724B5E6CF24386
:102FE0005A64730500D5C3E0330500D5C7E0F30488
:102FF00004D56C4B9A6C120400D4CAE0B30506D514
:10300000694F7B68DB68002B01D03800984780232C
:103010001B021E4241D00F229146624A624F9046E7
:103020009A461AE01A6861480240504602431A6004
:1030300063695A681B689A4239D301228A403B89E6
:1030400093433B81A368002B02D0C9B23800984754
:1030500043465E6C53461E421FD04946514A31409A
:103060009446881C8B0082006344BA181D6854681B
:10307000F206D7D51A684D4E3240802632431A6088
:10308000CAB201922D0517D5636811003800984720
:1030900043465E6C53461E42DFD10898FEF708FE99
:1030A0000BB03CBC90469946A246AB46F0BDC9B2B7
:1030B0003800FFF745FFCBE7A2693D4E55689346C0
:1030C000AC460295926845466244B4462D6D039223
:1030D0006544CA00AA18958865440495D28895B2BB
:1030E000AA050595950D6A08069509920ED0560019
:1030F000039A049D9446AD1A66449C462B000792A1
:103100009D5A158002329642FAD16346059AD2073B
:1031100008D5099A049D5200AD5A039EB5545A46EB
:1031200052680292069E5D46B446029A62446A6004
:103130002D68AA4202D2628AB2420FD901228A4085
:103140007B898000934338187B814368DB68002BC0
:1031500000D17DE701993800984779E71968154A49
:103160001140C02292015140134A0A431A606FE78E
:103170000D4F3800FFF7D8FA330500D437E70821A0
:10318000084A094F136C38000B431364FFF7E8FA41
:103190002DE708211A6C044F8A431A643800FFF7A0
:1031A000E9FA2BE7005C0040BC0500200F07FFFF99
:1031B000006000408FB7FFFF80800000064B890051
:1031C0009C4661440A68054B1A4080235B015A40C3
:1031D000034B13430B607047005C00408FB7FFFF49
:1031E00080800000064B89009C4661440B68054ABC
:1031F000134010225340044A13430B607047C046EB
:10320000005C0040BF87FFFF80800000094BC022A8
:103210009C46890061440B6892011340934208D098
:103220000A68054B1A4080239B015A40034B134305
:103230000B607047005C00408FB7FFFF808000008C
:10324000084B89009C46302361440A681340302BA8
:1032500007D00B68044A134020225340034A13430B
:103260000B607047005C0040BF87FFFF808000005C
:10327000054B064A1A60BFF34F8F054B054ADA60CB
:10328000BFF34F8FC046FDE7F03F0020EFBEADDE3D
:1032900000ED00E00400FA0580B5164A164B1268EE
:1032A00000AF9A421AD0FC23144ADB0351690B4346
:1032B000536190230022DB055A60114ADA60114AFB
:1032C0005A61114A1A601A69520703D4FFF704FCC5
:1032D000BD4680BD042219690A42FCD162B60022B3
:1032E000044B1A60094B83F30888094B1B68984705
:1032F000FEE7C046F03F0020EFBEADDE001002400A
:10330000AA0101A8DFF9000000FCAA6A50220020EF
:1033100004C8FF1F7047C046F8B547461D008046E9
:103320000B23CE46434480B50800170099461C0085
:1033300039000600FCF7D8FF3023CAB2092900D9AA
:1033400007339B18013CDBB22370002D02D0013DF6
:10335000002DEDD1BE4209D339000600FCF7C4FFB1
:103360000025CAB230230929EBD9E9E74A46101BE8
:10337000002200E0A35C41468B5401329042F9D117
:1033800040440CBC90469946F8BDC046F8B5CE46C0
:103390004746814680B50E1C14001700092A00DD3F
:1033A00009271E4BBA00D358301C9846FDF710F978
:1033B0000500FEF78BF8011C301CFDF761FE061CB2
:1033C0004046FEF783F8011C301CFDF743FDFC214D
:1033D0008905FDF7E7F9FDF7FBF80600804502D8FF
:1033E00043460135C61A00230A2229004846FFF742
:1033F00093FF002C0ED00122094B441C9B8A310004
:103400001B06DB1793432E33037009323B00200069
:10341000FFF782FF0CBC90469946F8BD58F30008B0
:10342000080300200389012B06D943685A1C426017
:1034300019700389013B038100207047F0B5DE4617
:103440004E46574645460023E0B58FB002932033E1
:1034500089469B46049203904B4619785F1C0029CD
:103460000ED0252914D0B946039803689B68984765
:10347000029B013302934B4619785F1C0029F0D15F
:1034800002980FB03CBC90469946A246AB46F0BDB0
:1034900080203D7800264000802410210422022351
:1034A0002D2D0ED02B2D0FD0302D10D06A2D11D0F8
:1034B000202D12D0622D13D1064301373D782D2DDA
:1034C000F0D11E430137F9E716430137F6E70E4303
:1034D0000137F3E726430137F0E72E430137EDE7E5
:1034E00000240499220006E008C9DBB29400A41865
:1034F00064003D781A192B00303BDBB20137092BF1
:10350000F4D92A2DF0D0049114002E2D00D13EE1E3
:1035100040231E430023B9469A462B00443BDBB2AE
:10352000342B00D92EE1D54A9B00D3589F46082260
:1035300008AB9846049D002302CD4046FFF7ECFE01
:1035400042468246831A0495E41A6CD430239B4683
:10355000F30601D420239B46B30767D5D04500D39B
:10356000D2E14646029B039F01339D1B2B0055462B
:10357000A2461C003B6831789B6838009847A31925
:103580000136B542F6D854469846002C00D1C0E129
:1035900026005F46039D2B6839009B682800013E8A
:1035A0009847002EF7D123004344BB46029353E7CC
:1035B000049AF30500D514E1072307329A4303CA9E
:1035C0000492FEF715F8804600214046FCF78EFF76
:1035D000002800D00FE1730700D4B8E108AB1A004F
:1035E00005932B23944613702A3B634406933306BA
:1035F00004D56A23069A1370531C06930BF0D4FC6F
:103600004146FCF76DFF002800D185E11923069A99
:103610001370931C9A46202353705346059A9B1AA5
:103620009046E41A92D50024B30797D42C23334252
:1036300002D0F30600D5C4E0261E10D05F46039DDD
:103640002B6839009B682800013E9847002EF7D16F
:10365000029BBB469C46A444634600240293D0458B
:1036600000D27EE7F8E6049D02CD002900DAD2E020
:10367000730700D47BE108AB1A0005932B23501C81
:103680001370330602D56A230370013000230A2227
:10369000FFF742FE059A8246831A0495904653E747
:1036A00010233200049D9A4308CD9846002B00D188
:1036B000BBE01B78710600D461E1002B00D1BDE0B6
:1036C0006F494346464604E0F01A4018013000D1E5
:1036D00037E1013318780028F6D19A46B0469B1B93
:1036E0000495160030E7049B04CB07935346002B48
:1036F00073D055460E2B00DD0E25012304930023C5
:1037000008A98C4698460E3363449C4601236746BD
:103710009A46A44644465B4893085108C9180B09C9
:10372000C9180B0AC9180B0CC918C9088B005B18FB
:103730005B00D31A092B03D90A3B0131092BFBD8B3
:1037400030337A1EDBB2137000297BD0534603421C
:1037500003D02023BA1E13700134170040080A005A
:10376000DAE71023049D9E4308CD08AA13700123B5
:1037700004959046012242449246E5E61022D7E69F
:103780000A22D5E608AB1D7008AA0123F1E7002341
:10379000944618000C0006E008CCDBB20F00820053
:1037A0001218520098183D78791C2B00303BDBB280
:1037B000092BF3D92A2DEFD004948246644689461A
:1037C000ABE6434603985E1C19780368B0469B68D5
:1037D0009847029B013302932EE7033304930E258F
:1037E0008DE708CA0021984640460492FCF77EFE09
:1037F000002800D1EFE608231E4308AB1A0005930A
:103800002D23137080231B064344984694460123BE
:1038100063440693EBE608231E4308AB1A000593A6
:103820002D2349421370501C2BE7174B9846730603
:1038300000D545E75346591E00D342E7C24616005D
:10384000049587E6A046404610490127095C644676
:10385000069108A98C460E207F426744B846604412
:10386000801A80440120844640460193B046A24617
:103870000591049C019B060014E0C04670F200080C
:10388000FE7F00002449000050F3000844F30008C4
:10389000002F11D04F1C3A000B708E4215D039000A
:1038A000020003786746501C2740202BF0D1002FE0
:1038B00024D063469C432E236A1E002D52DB4F1CEE
:1038C00015000B703A008E42E9D1049446465446E6
:1038D000531C9A46049B9B0707D5069B202B04D0BC
:1038E00020231370931C52469A46069B0799137027
:1038F0005346059A04919B1A904625E602272742D3
:10390000DAD1901C5378D7E7029B9846002C00D060
:103910003EE6434602939FE5730634D5462D3FD0DD
:1039200009239A46524641460698FFF72FFD8246E4
:103930001023334200D08CE05346059A9B1A9046E0
:1039400002E69A46B0469B1B04951600FCE5202330
:10395000334221D008AA944613701F3B634405925A
:10396000069344E60494464654460A00B0E72023F2
:1039700033420DD008AA05921370501C81E6002B2B
:1039800000D057E75AE7462DCCD153461DB20AE086
:1039900008AB0593180074E608AB0593069326E67A
:1039A000032303259A4650494046FCF7BDFD0028F5
:1039B00071D040464D49FDF74DFA80464C4B9F1C57
:1039C00049494046FCF7B0FD002808D04046474929
:1039D000FDF740FA01373B788046002BF0D17B1E83
:1039E0001F78002F02D05546013D2DB24046FCF70E
:1039F000EFFD63284AD9023D2DB2002D3FDB2A009E
:103A000041460698FFF7C2FC8246002D18D00300FD
:103A1000013B1A78302A06D1013B591C013B5A78E8
:103A2000302AFAD08A460121324B9B8A1B06DB17CB
:103A30008B432E33D31A5A4253415246D31A9A46D5
:103A4000002F00D174E753461F7001239C46E244C7
:103A50006EE75E405346013B1B78302B07D1524640
:103A6000023A511C013A5378302BFAD08A462E2B59
:103A700000D061E701235B429C46E2445CE7002200
:103A800041460698FFF782FC8246D9E70928B4D957
:103A9000013D2DB2B1E7FE2140468905FCF726FD28
:103AA000002801D10027A1E740460F49FDF7D2F9D0
:103AB0008046114B5F1CFE2140468905FCF716FD30
:103AC000002808D040460849FDF7C4F901373B7883
:103AD0008046002BEFD105494046FCF71BFD00282E
:103AE00000D07CE7002781E700007A446F12833A18
:103AF00044F300080803002080F300080CB430B53C
:103B0000030085B00C000020002910DD0A4A01AD39
:103B10000192298109AA0899280002930092FFF7CF
:103B20008DFC00226B681A70844200DC601E05B0B8
:103B300030BC08BC02B018478CF3000810B572B650
:103B40000248FEF7E7FC62B610BDC0464C060020F6
:103B500010B5040072B6022906D0032902D1094823
:103B6000FEF7A2FC62B610BD074A0121FEF79CFDDC
:103B70002000064A0221FEF797FD0248FEF79EFC50
:103B8000F0E7C0464C0600208CFE0008A8FE0008A6
:103B9000184970B50E001F25174A184B1068184AAF
:103BA0001B68126818369B1803432C0030221C40F7
:103BB000092C00D9073212190A805B09C2060231AA
:103BC00013434009B142F0D1FE220E4B0E491201BF
:103BD00099521A210D4A99529818002242800C4994
:103BE000FE228C4612019A185A52120C63445A80D3
:103BF00070BDC046D63E0020B0F7FF1FACF7FF1FD8
:103C0000B4F7FF1FF42E00201A030000D80F0000A5
:103C1000DC0F000010B5022910D0032905D00129BE
:103C200001D0002010BD0A48FCE7032A08D000207C
:103C3000032AF7D80748D2008018F3E70648F1E7CF
:103C4000064B9B8ADB05F5D5FFF7A2FFEAE7C046E6
:103C500028FF00087CFF0008DCFE000808030020A5
:103C600070B5051C081C161CFCF79CFD311C041CBF
:103C7000281CFCF797FD011C201CFCF793FDFA2182
:103C80008905FDF7E7F870BD044B10B51B680A0005
:103C900019680C6801001800A04710BD982000208A
:103CA000F0B5DE4657464E464546E0B5564B87B022
:103CB00003905B8B0593002B00D18FE0D0229446BC
:103CC000FE22514B920063449446E42298464E4BA8
:103CD000D200634494469A464B4B544663441E00BC
:103CE000002345469B4635E0011CFE208005FDF77C
:103CF000C7F9011C0490381CFDF7ACF85146071CAD
:103D00004846FDF7BDF9009B191C9946FDF7A2F83E
:103D1000011C381CFDF7B4F90299071C4046FDF759
:103D2000AFF94946FDF796F8049981460198FDF7E9
:103D300091F8011C4846FCF735FD80464346736008
:103D400001239C46059BE344376008350834083658
:103D50009B4543DA33682A68181C111C029390466D
:103D6000FDF78EF97268071C92466A685046111C6E
:103D70009146FDF785F96368039A019000932068E6
:103D8000012AB1D0FE218905FCF70CFD011C8146FA
:103D9000381CFDF75FF8019B02900099181C9846AB
:103DA000FDF758F8494682464046FDF753F800991A
:103DB0008046381CFDF74EF8011C4046FCF7F2FC2B
:103DC000039B8046013318D102995046FDF758F9FC
:103DD00080231B064344071C9846AFE704220A4B86
:103DE0009B8C934340221343074A938407B03CBC07
:103DF00090469946A246AB46F0BD51460298FDF763
:103E00003FF9071C9AE7C046C0070020012110B502
:103E10000C00074A138B1C40844208D08B43034399
:103E20000A20138306F020F80022024B1A7710BDF7
:103E3000C007002008030020F0B545465746DE467F
:103E40004E46E0B5884687B0051E9246654C00DBBD
:103E5000A6E0E36801938B4200D3A0E0638C013BB2
:103E60009BB29B4623695D468B4200D898E00027B1
:103E7000019A9E1A881A00235A460021FCF77EFBFD
:103E800032003B00FCF75AFB050032003B00C11733
:103E90002800FCF773FB02900391594600234A085F
:103EA00002980399801859415A4604900591FCF7ED
:103EB00045FB814604980599019B801979414B4443
:103EC00002935A460023FCF739FB4946019A029BAC
:103ED0001618471A984563D0002F00D172E0424669
:103EE000D01AFDF7F3FA81463800FDF7EFFA011C0E
:103EF0004846FCF7D3FD8146029803F0EDF8070031
:103F0000300003F0E9F86B1CB8420FD0404603F0D4
:103F1000E3F8B84259D0AB4542DDFE214846890559
:103F2000FDF7AEF86E1CAB1C814635001A001A3244
:103F3000D200A418282256469246DB005B429846DF
:103F4000EB009B460433B24401934346E5185B46BD
:103F5000EF582068391CFDF793F84946FCF77AFFC3
:103F6000391CFCF71FFC019B3060ED586068291C70
:103F7000FDF786F84946FCF76DFF291CFCF712FC9B
:103F8000CA239B009C467060083664445645DCD1C9
:103F900007B03CBC90469946A246AB46F0BD002512
:103FA000534656461A35ED006419283322683260AC
:103FB00062687260CA229200944608366444B34232
:103FC000F4D1E5E70023994696E7002DE8DDFE21D0
:103FD00048468905FCF7E6FB6E1E2B00814635003E
:103FE000A4E7C046C0070020F0B5CE46474680B5DE
:103FF0004B6883B001AA0E680C00694698460AF027
:104000004FFD019F311C381CFCF724FF009D8146A9
:104010004146281CFCF71EFF011C4846FDF730F8FE
:1040200041462060381CFCF715FF311C071C281C7A
:10403000FCF710FF011C381CFCF7B4FB606003B0F8
:104040000CBC90469946F0BD10B5012800D010BDBB
:1040500008680B4902F028FE00280AD0012804D184
:104060004021084A13788B431370C62005F0FCFEEC
:10407000EDE74021034A13780B431370F5E7C04680
:10408000F8010108A803002070B50C0090B00028CA
:104090002AD0022828DC1C4B9B8A5B0724D40228E8
:1040A00024D01A4E24682000FDF754FB184D02005E
:1040B000210033002800FEF78DF82800330002228B
:1040C0001449FEF787F8203D134C05E023680200F1
:1040D0001B68694620009847330040226946280043
:1040E000FDF7EEFF0028F1D110B070BD486802F076
:1040F00031FD0A4BFA215843094B89009C46604424
:10410000FCF76CF80600CDE708030020204E000005
:1041100014050020840901084C060020A086010037
:10412000E703000070B50D00022807D001225242BB
:1041300014002100022009F069FB70BD086802F03C
:10414000EFFC04B2686802F0EBFC02B2F1E7C04693
:1041500070B50C00022800D070BD086802F0E0FCC9
:104160000500606802F0DCFC29B202B2012009F00F
:104170004DFBF1E710B508F0C3FF10BDF8B50E1CFC
:10418000051C111C301C171CFCF764FE291CFCF7D5
:1041900061FE400040080AF097FD391C041C301CE9
:1041A000FCF700FB291CFCF7FDFA0021FCF79EF947
:1041B000002803D080231B069C466444201CF8BDC5
:1041C00010B5094C628B002A0CD0CA239B005843BF
:1041D000D03000190023002401330160446008300E
:1041E0009342F9DB10BDC046C007002010B5031C88
:1041F000082800D90823034A0420137005F034FE70
:1042000010BDC046A4200020014B18787047C0465E
:10421000A42000200121024A13788B4313707047B9
:10422000A803002010B5FFF7F5FF10BD0121024AD9
:1042300013784B4013707047A8030020F8B5FE2197
:10424000CE464746890580B58146FCF7ABFA2C225D
:10425000FA2790460D4B061C1D1D98444C46BF0581
:1042600000E080CD4946201CFCF7F4FD391C041CFD
:10427000FCF7F0FD011C301CFCF794FA061CA84565
:10428000EFD10CBC90469946F8BDC0462C00010801
:1042900070B5002A12D04C1E231A58435043504385
:1042A000FDF714F9051C20006043FDF70FF9011C10
:1042B000281CFCF7F3FBFFF7C1FF70BDFE20800553
:1042C000FBE7C0460FB400B5074B83B01868002861
:1042D00008D005AA04990192FFF7B0F803B008BC12
:1042E00004B018470020F9E79820002070B5114D60
:1042F0000522290002F0F4FC0F4B80B2188005283B
:1043000013D800280FD00D4C0D4805E00A34608802
:1043100023880004184306D0296802F0C5FC002851
:10432000F4D1200070BD0024FBE70648FFF7CAFF68
:104330000024F6E73C20002094200020100701080C
:10434000040001080C000108F8B5CE4647460C00F1
:1043500080B5022826D02A48FFF7B4FF294BF8265B
:104360009946E0235B0100249846F827264D360441
:104370001E3541462B884846DA080A40590939401B
:104380000A43190431405B070A431B0C21001A43FE
:104390000134FFF797FF0235202CEAD10CBC904680
:1043A0009946F8BD086802F0D5FB83B205001F2BC3
:1043B000F4D8606802F0CEFB0600606802F0CAFB29
:1043C000E0224301F82012024001F60016400340AB
:1043D00060681E4302F0BEFBF823000C03406068D7
:1043E0001E4302F0B7FB0304E320074A2D04ED0B44
:1043F0005B0F551933434000EB8305F035FDCDE7E6
:10440000800101089C0101080803002010B5024941
:104410000248FFF757FF10BDFCFF0008080701081E
:1044200070B5074C2168002909D0064D04342800D6
:104430000434FFF747FF231F19680029F7D170BD27
:104440007C0300200807010870B50948FFF73AFF10
:10445000084C0949094D0A342800FFF733FF6188E9
:10446000238809041943F6D10548FFF72BFF70BDD7
:104470002002010810070108040001082C020108AD
:104480008409010810B5012806D0064B06495A6870
:104490000648FFF717FF10BD086802F05BFB014BF1
:1044A0005860F8E7080300200805010830050108F6
:1044B000F0B54F46D64646460500C0B50F00002869
:1044C00012D016DD2A4B002498462A4B2A4E9946D4
:1044D0009A46A300F858310002F0E6FB072804D8FA
:1044E000434680001B589F46234E31002348FFF768
:1044F000E9FE1CBC90469946A246F0BD53461822E0
:104500001B8B9343524613830134A542E1D1F0E75C
:104510001821184A138B8B4308210B431383F3E7AD
:104520000621144A138B8B431383EDE70621114AAE
:10453000138B8B4304210B431383E5E706210D4ABC
:10454000138B8B4302210B431383DDE70020FFF71E
:104550005DFCD9E70120FFF759FCD5E74B4618224F
:104560001B8B9343102213434A461383CCE7C04668
:104570009CFF0008C0070020400601082006010833
:1045800010B5012805D0064B0648198BFFF79AFE97
:1045900010BD086802F0C4FA014B1883F8E7C04662
:1045A000080300206803010870B50D000A4C0228BA
:1045B00004D021000948FFF785FE70BD210028685E
:1045C00002F072FB061EF4DB686802F0C3FAC1B2A7
:1045D000B0B208F0AFFEF0E7EC020108AC01010850
:1045E00010B5012806D0074B07491A780748FFF78E
:1045F00069FE10BD086802F0ADFAC0B2FFF7F6FD23
:10460000F7E7C046A420002088040108300501080F
:1046100010B501280BD108680B4902F045FB0028B2
:1046200005D10A48FFF74EFE08F06CFE10BD0848A1
:10463000FFF748FEBFF34F8F064B074ADA60BFF320
:104640004F8FC046FDE7C0468C0301089003010868
:10465000B003010800ED00E00400FA0510B50128E0
:1046600006D0064B06495A6E0648FFF72BFE10BDD2
:10467000086802F06FFA02F00BFDF8E7080300206B
:10468000EC0401083005010810B509F001FF010034
:104690000148FFF717FE10BD0007010810B5094CCF
:1046A000012804D021000848FFF70CFE10BD08685F
:1046B000210002F0F9FA0028F4DBC0B205F002FC98
:1046C000F4E7C046B40201089C02010810B50128B5
:1046D00005D0084A07210848FFF7F4FD10BD086817
:1046E00002F038FA0728F4D809F0AEFD042005F0EE
:1046F000BBFBF3E7C4030108CC03010810B50C4869
:1047000082B0FFF7DFFD08F0D9FC0A481022835E73
:104710000E21425E0C24015F1224005F00900648C7
:10472000FFF7D0FDE320400005F09EFB02B010BD76
:104730004C0501080803002078050108F0B547463C
:10474000CE4680B5E1B06A46294B2A4C1A60C02398
:10475000238027883FB2012841D0002002F074FE58
:104760008023DB055B6A244A0A331360234B244A07
:104770005B8B02339BB2138023881BB2002B04DDBA
:1047800030BF23881BB2002BFADC002F1CDD6B46E8
:104790000021595E1B4B002418009846FFF792FD3C
:1047A0006B469E1C184B013401259946A7420BDD30
:1047B0000023F15E40460135FFF784FD0C2D08D043
:1047C00002360134A742F3DC61B00CBC9046994636
:1047D000F0BD4846FFF776FD00250236F1E7086890
:1047E00002F09EF90138431E9841084B1880B4E747
:1047F0005C18002060180020B81E0020080300206C
:1048000048250020E80101088409010862180020F9
:1048100010B5012803D00A48FFF754FD10BD086801
:10482000084902F041FA002805D109F0A1FD064827
:10483000FFF748FDF2E70548FFF744FDEEE7C04605
:10484000D8000108000101081C0101080801010845
:1048500010B509F0B5FC0248FFF734FD10BDC046A5
:10486000E003010810B5012806D0064B06499A68F6
:104870000648FFF727FD10BD086802F051F902F065
:10488000EFFAF8E7080300202003010830050108CB
:1048900010B5012803D00848FFF714FD10BD0868C3
:1048A00002F058F90400FFF7B5FC044B2000D97F53
:1048B00002F02AFCF2E7C04600020108C00700200F
:1048C000F0B5CE46474680B583B0012823D0204BB3
:1048D000204C984643465B8B002B17D01E4B00257F
:1048E00099462068FCF732FE060060680F00FCF76E
:1048F0002DFE3B000090019132004846FFF7E2FC9C
:1049000043465B8B01350834AB42EADC03B00CBC98
:1049100090469946F0BD086802F002F906280AD8C8
:1049200001280CDDCA24831EA4005C43084BD0344C
:1049300098464444CEE70948FFF7C4FCE6E7CA249A
:10494000A4004443034BE418014B9846C2E7C04619
:10495000C007002064180020E0010108C801010818
:1049600010B50400042005F07FFA032C00D9FF24C1
:10497000064BDA7FA24204D0DC77054B1B78DB07BD
:1049800000D510BD200002F00FFDFAE7C00700209F
:10499000A803002010B5012805D0064B0648D97F92
:1049A000FFF790FC10BD086802F0BAF8C0B2FFF73C
:1049B000D7FFF7E7C007002040030108F0B5D6464F
:1049C00046464F460E244023C0B584B06C440821AF
:1049D0002E482380FFF758F920000221FFF754F9F1
:1049E0002B4D218828001E30FFF74EF900239846F2
:1049F000284B00249A463E2356465B425344994630
:104A00004136FF365346A022009300200123520076
:104A1000414609F03FF85746504623000C335B00EF
:104A2000EB183988DB888B4221D1E3B20370013067
:104A30000237B042F1D14846A022494652003E30EA
:104A400002F088F94B460100981E01800904090C08
:104A50000231FFF719F901239C46E0444346F02B4D
:104A6000D0D104B01CBC90469946A246F0BD2B00A4
:104A700000241E3303E001340233202C03D01A88B3
:104A80008A42F8D1D1E700230024CFE77809010852
:104A900008030020342F002030B583B0002813DC39
:104AA00000240B4DA022210002235200002000957B
:104AB00008F0F0FFA0212800C9000234FFF7E4F855
:104AC000F02CEFD103B030BDFFF778FFFAE7C04616
:104AD000F42E0020F8B5214D2B889BB2002B32D04C
:104AE00080221F49D205526A096891422BD8820759
:104AF0002FD41C4C1C4A528B01329A4224DA02F009
:104B0000B1FD1A4B00260020185E194B40002018FA
:104B100007009C461A681749C0370B881400002B01
:104B200019D00B880232013B1BB20B800026835F39
:104B3000043023800126B842EFD163461A602B88E7
:104B4000013B9BB22B80F8BD6021200002F0CEFC1F
:104B5000D7E7094CCEE7002EEFD1F0E7482500203B
:104B6000B81E0020BC1E0020080300206218002090
:104B70005C180020601800207C1F002010B5044B3A
:104B8000C005C00D5883034805F06EF910BDC0463E
:104B9000080300200202000010B5012824D00228DA
:104BA0000CD0FA20154B00015C8B611CFBF7A0FBBD
:104BB000210002001248FFF785FB10BD086801F0D4
:104BC000C9FFFA2283B2010012010020934208D8E3
:104BD000072B10D90904090C1000FBF789FB0138D9
:104BE00080B2FFF7CBFFDCE7086801F0B3FF80B2CB
:104BF000FFF7C4FFD5E70348F3E7C04608030020EA
:104C000078000108FF010000411CFA2010B50001E6
:104C1000FBF76EFB10BDC04610B50400084B1988A9
:104C2000084B18684B086043C018FBF7D7FA064BCF
:104C3000064A1B68126863439B18C01810BDC04623
:104C4000B8070020B4070020B0070020BC070020F0
:104C5000F0B557464E464546DE46E0B5B34B9DB0EF
:104C6000B34F049098465A8B3B8889469A4200D8A5
:104C7000F2E1002800D0F5E1049B3B808022AD4B9F
:104C800092059A61A8234246AB49D058FCF7E2F856
:104C90000AF060F90890112009F00CF943463888B1
:104CA0005C8B844200D8F6E103234A461A40019205
:104CB0004A46023B1A4093464A4601331A400023B3
:104CC00003930A330093002392464A4602934033EB
:104CD0001A404B460692D1469A4660E05B46002B4E
:104CE00071D14B46002B00D006E13B88642B28D8BD
:104CF0005A46002A0BD052460EAE520700D5F3E1B9
:104D00008E4A3168DB009950D31872685A604B465E
:104D1000002B16D053461B0700D5D9E15346109DF2
:104D2000119CDB0600D5C5E13A88844B1100653142
:104D3000D200C900CD509B18CB2292009446634408
:104D40001C607F4B1B78002B03D0049B002B00D0F2
:104D500092E143465D8B7B4B3C885B8B262B16D9BF
:104D6000A3001B191801C01A8000691EFBF7C0FAC6
:104D7000039B0600C21A002A09DD0F331800002128
:104D8000012308F069FF43463C885D8B03960023AE
:104D90000134A0B238800093A84200D36CE1FFF741
:104DA0003BFF019B0400002B98D04346D97F02F0C3
:104DB000ABF9069B0290002B00D059E13B8805938C
:104DC0005B46002B8DD0002002F03EFB8023009A32
:104DD000DB0594465B6A029A634494465A4A6344EC
:104DE0001360584B594E5B8B524602339BB2338053
:104DF00020231A40079200D083E13388002B00D192
:104E000095E130BF3388002BFBD10EAE300002F0AD
:104E1000DDFB0A230293079B002B00D161E712AD53
:104E200029680E98FCF72CF9696802900F98FCF736
:104E300027F9AB68EA68191C061C029809920A93C4
:104E4000FCF708F82969FBF7ADFC09990790301CBD
:104E5000FCF700F8011C0798FCF712F90999079074
:104E60000298FBF7F7FF0A990990301CFBF7F2FF55
:104E7000011C0998FBF796FC6969FBF793FC079BFB
:104E8000051C191C181CFBF7E5FF291C0990281CA0
:104E9000FBF7E0FF011C0998FBF784FC011CFE20D6
:104EA0008005FBF7FBFD099007990298FBF7D2FFFD
:104EB000291C0A90301CFBF7CDFF011C0A98FBF758
:104EC00071FC0999FBF7C6FF07990E90301CFBF7A0
:104ED000C1FF291C061C0298FBF7BCFF011C301CFB
:104EE000FCF7CEF80999FBF7B5FF0A2302934B466E
:104EF0000F90002B00D1F8E6012002F0A5FA8023E4
:104F0000009ADB0594465B6A029A634494460E4A13
:104F1000634413600B4B0D4E5B8B524602339BB2C6
:104F2000338021231340202B13D1F9E0C007002048
:104F3000B41E002000080048E3C8EB3D64180020C0
:104F4000E72E002008030020B81E0020482500207E
:104F500030BF3388002BFBD110A802F037FB53463B
:104F60009B0600D4C1E61A991098FCF789F812AD97
:104F7000061C696A1198FCF783F8AB690090191C4C
:104F8000301C0993FBF766FFEA690790111C009833
:104F90000A92FBF75FFF011C0B900798FCF770F873
:104FA00009990C9010900098FBF754FF0A99009013
:104FB000301CFBF74FFF011C0098FBF7F3FB424648
:104FC0001190938C061C5A0500D48EE6EA680F995E
:104FD000AD68101C0A9200950D91FBF73BFFFE2176
:104FE0008905FBF7DFFB0E9D0990291C0098FBF754
:104FF00031FF011C0998FCF743F8291C09900A9815
:10500000FBF728FF0099051C0D98FBF723FF011CF7
:10501000281CFBF7C7FB051C011C301CFBF71AFF03
:10502000099900900C98FBF715FF011C0098FBF7FD
:10503000B9FB079910900B98FCF722F8291CFBF795
:1050400009FF0999051C301CFBF704FF011C281CF3
:10505000FBF7A8FB119048E600233B80049B002B44
:1050600000D10BE64B46002B00D007E600201AE0EB
:1050700001235B42059331E6039B002B08D00220FD
:1050800008F018FF0123039A00210F2008F0E4FD27
:10509000434638885C8B8022201A44426041274B6B
:1050A00092019A61C0B21DB03CBC90469946A2469E
:1050B000AB46F0BD089E281C311CFBF7CBFE311C13
:1050C0001090051C201CFBF7C5FE041C11902BE65C
:1050D0002000FCF7FBF9A0234246D158FBF7BAFEAB
:1050E00010A9FEF781FF19E62000FCF7EFF99C23D9
:1050F0004246D158FBF7AEFE3100FEF775FF3B8804
:10510000FEE512AD2A0021000598FEF795FE3388D2
:10511000002B00D075E60EAE300002F057FA7FE6A5
:1051200012AD2A0021000598FEF786FE11E70EAEAB
:10513000300002F04BFA0A230293D2E5000800483F
:10514000F0B5DE4657464E464546E0B5D04B89B0F1
:105150009B8A5B0600D51EE208F06CFB06F0CAF8DD
:10516000CC4B9B46CC4B9A4604F040FC5B468022DD
:105170009B8C520013426ED10322104382B20192E3
:105180009B0503D54023019A1A4301929C235A465A
:105190000021D058FBF7A4F9002803D10423019A79
:1051A0001A430192A0235A460021D058FBF798F9E0
:1051B000002803D10823019A1A430192A8235A46D2
:1051C0000021D058FBF78CF9002803D11023019A55
:1051D0001A430192B14B1B789B0741D130BF002687
:1051E0005346AF4A1B68151D0024002B10D05346B0
:1051F000AC4A1B68108829000138984753460021A3
:10520000A9481C60FCF72EFD53461B68002BEED10D
:10521000A24B1A7880235B421343A04A137008F014
:10522000B5FA9E4B1A787F2313409C4A1370002EC8
:105230000BD09E4B1B78002B00D0D4E05B461A8B22
:10524000D30719D4012004F00FFE402004F00CFE17
:1052500004F04AFE88E72322104382B201928FE7CE
:1052600001990120FFF7F4FC02228C4B06001B7809
:1052700093438A4A1370B3E706275B4617405E8B59
:10528000022F00D122E1042F00D11FE10023079358
:10529000069318230296134000D121E1103B594296
:1052A0004B410D215B42194089461E231A40730170
:1052B00013437F4A9BB212889A422FD07C4A1380B4
:1052C000042F00D153E1002E00D162E1069B00259E
:1052D0009C46664432001C00029B4E469846B946E6
:1052E0001700320041462000FEF7D2FF011C281CA7
:1052F000FBF758FA0134051CA742F2D14F46B146DC
:10530000022F04D1291C281CFBF74CFA051CFE2097
:10531000291C8005FBF7C2FB664B1860664B019A9F
:1053200005934B4603930123134210D1CA229200E6
:105330009446019B614A5B080193059B6344059376
:105340009A4200D17EE70123019A1342EED05B46D8
:105350005B8B9946002B00D119E10026554B069F27
:105360001B68574D059C0493039A02993800FEF779
:105370008FFF0499FBF76EFD011C80462068FBF748
:1053800069FD414628606068FBF764FD013668608E
:105390000137083408354E45E6DB4A46FF2A0CDC67
:1053A0004749D3008C46634400211960596080212D
:1053B0000132083349008A42F6D1079B002B00D006
:1053C00091E001213E4809F0ADFA5B461A8B0623B5
:1053D0001340042B00D1B7E0CA2239499200059846
:1053E00009F0E6FDA2E72A4B364A9B8A91469B07C5
:1053F00001D4354B9946304B0393019B0593012310
:10540000059A134211D1CA2292009446059B2B4A59
:105410005B089BB20593039B634403939A4200D1BC
:105420000CE70123059A1342EDD001221F4B1B7894
:10543000013B9A400492002AE5DD002302935B467B
:10544000039A5B8B106857680832140001254E469A
:10545000022B16D92368A26898466368414699468C
:10546000B047E26820606168381CB0475B46606006
:105470005B8B0135013B083440464F469D42E9DBDA
:10548000B146029B049A013302939A42D7D1BAE7FC
:1054900008030020C007002050200020A80300209F
:1054A0003C200020942000209C200020A4200020EC
:1054B000A62000204C25002064180020B41E0020E7
:1054C000F42E0020613C00087D41000873009BB26F
:1054D00002930123079318230696134000D0DDE6BC
:1054E00006239946E1E64B46012B14DDFE212C4AAA
:1054F000C90013008C4601204C46634480252D06CC
:10550000AC461168013019605168083B6144D960AC
:105510000832A042F2DB0121224809F003FA5B467F
:10552000598B204B1A1D0023002900D14DE7002084
:105530000133106008328B42F9DB5B461A8B06237D
:105540001340042B00D047E75B465E8B012E00DC46
:1055500042E70125124C2300083B20681968FBF73D
:1055600021F9013520600834B542F4DB34E74846C0
:105570004043FBF761FFFA218905FBF76BFCFEF75F
:105580005DFE8721C905FBF765FC051CBFE600220F
:1055900006E70025B4E6012008F0F4FADCE5C04691
:1055A000FC2E0020F42E002070B5094D6B8B002BD3
:1055B0000CD00024074EA0B2FFF72EFB01003000F4
:1055C000FEF780FE6B8B0134A342F4DC70BDC04655
:1055D000C007002044050108F0B5DE4657464546A1
:1055E0004E46E0B5C24C87B0638B04AD2B80030000
:1055F000023B83460F00022B00D9DDE0086801F072
:10560000A9FA0600786801F0A5FA0290002E00D1F0
:10561000C8E0002800D1C5E0864200D9C2E05B4660
:10562000022B00D0CCE002AA94460A236344984699
:10563000002342461380628BAE4903922A880B787E
:105640009346013A92B2924603229146082293432E
:105650000B70A38CDB0507D543461B881A4203D188
:105660004A4620231A439146A023E758043B0021D1
:10567000E058FAF735FF002800D0D3E043461B88F6
:10568000DB060AD44A46042300211A43381C9146FB
:10569000FAF726FF002800D1D0E0A8230021E05827
:1056A000FAF71EFF002807D143461B889B0603D448
:1056B0004A4610231A439146E3689E4200D1C2E055
:1056C0004A4640231A4391465B46524663838A4BBF
:1056D00051461E60894B1A80029B981BFAF704FE04
:1056E000874B1860874B19604B469B0700D0B5E08D
:1056F000FEF790FD43461B88002B56D01A0600D5B6
:10570000B8E02A88002A50D07F4A002491467F4A78
:1057100092467F4A93460FE09A071AD45B072FD42C
:105720005046FEF7CFFD08239C462B880134E14408
:10573000A3423ADD43461B88DA07EDD5A0B2FFF756
:105740006BFA01007348FEF7BDFD43461B889A07BC
:10575000E4D54A46704BD058FBF7F8FE4A466F4BEB
:105760000600D0580F00FBF7F1FE3B0000900191BE
:1057700032005846FEF7A6FD43461B885B07CFD58F
:105780004B461868FBF7E2FE4B46060058680F00D0
:10579000FBF7DCFE3200009001913B005C48FEF715
:1057A00091FDBDE75E48FEF78DFD07B03CBC90461D
:1057B0009946A246AB46F0BD5A48FEF783FDF4E792
:1057C000B86801F0C7F983B203932B80013B9BB209
:1057D0009A46642B00D986E0039B02AA9446638311
:1057E0000A23634498460023424613805B46042BF9
:1057F00039D1F86801F0AEF943463E4980B21880CD
:105800000B781A0703D580221043424610804007C8
:10581000820F9146628B03922A889346013A92B294
:10582000924613E70021381CFAF75AFE002800D0F0
:1058300033E743461B88DB0600D52EE74A4608239C
:105840001A43914629E7029B2269934200D037E729
:10585000638C039A934200D032E735E74946002033
:10586000FFF7F6F944E7039A2249934603220B789F
:105870009146EBE602214046FEF706FA0221280097
:10588000FEF702FA2B88002B00D18EE701231E4E73
:1058900000249946022709E01F421CD15B0715D45A
:1058A0002B8801340836A34200DC7EE743464A4693
:1058B0001B881A42F0D0A0B2FFF7AEF90421059080
:1058C00005A8FEF7E1F943461B88E5E7082130000B
:1058D000FEF7DAF9E4E7104B0821F018FEF7D4F9E7
:1058E00043461B88DAE71048FEF7ECFC5DE7C0464C
:1058F000C0070020A8030020BC070020B807002034
:10590000B0070020B40700208C1B00208409010888
:10591000800401087C040108D8FCFFFFDCFCFFFFC9
:10592000380401080004010858040108082210B5D1
:10593000054C237813432370FFF74EFE082223788B
:105940009343237010BDC046A8030020014B186884
:105950007047C046B0070020F8B504000E00431C95
:1059600014D00B4D6B8B8B4210D98FB23800FFF7E0
:1059700053F90B34E4002C1960606088B04205D004
:1059800004F042F86780082004F06EFAF8BDC046C3
:10599000C0070020F0B5DE4657464E464546E0B506
:1059A000394C83B0A3686568678B5E1B9946374B9B
:1059B000013F1D60364BB9B219803000FAF794FCF4
:1059C000344BA2461860344B30001960FBF77EFD63
:1059D000011CFE208005FBF761F85A239B4600233B
:1059E0000090A34498460EE05B4619884046FFF7B6
:1059F000B3FF01239C460733E0449C464346E344FF
:105A0000E244082B1BD05346DE6D002EECD0002163
:105A1000B542EBD23900B145E8D93800FBF70CFDAF
:105A20000099FBF717FA0190701BFBF74FFD011C63
:105A30000198FBF70FFAFBF7DFFC0100D6E74946B8
:105A4000280003F0B7FDE3689D4211D0A38C8022AB
:105A5000920013431148A38404F006FA0022104B6D
:105A60001A8003B03CBC90469946A246AB46F0BDB6
:105A70002269A38C9145EAD1618B628C9142E6D177
:105A8000084A1340E6E7C046C0070020BC070020D4
:105A9000B8070020B0070020B407002087020000EC
:105AA000B41E0020FFFDFFFF10B508F03FFC04000E
:105AB000FFF770FF2123034AD05C04F003FA2000B3
:105AC00010BDC046C007002010B5012805D0094A06
:105AD00007210948FEF7F6FB10BD086801F03AF807
