:020000040800F2
:1000000000010020A10100086D0B0108492500082E
:100010006D0B01086D0B01086D0B01086D0B0108DC
:100020006D0B01086D0B01086D0B010805AA000896
:100030006D0B01086D0B01086D0B01086D0B0108BC
:100040006D0B01086D0B01086D0B01086D0B0108AC
:100050006D0B01086D0B01086D0B0108CD0F000839
:10006000B50F00089D0F00086D0B01086D0B01080E
:100070006D0B01086D0B0108E50F00086D0B010801
:100080006D0B01086D0B0108852600086D0B01083A
:100090006D0B01086D0B01086D0B01086D0B01085C
:1000A0006D0B01086D0B01086D0B01086D0B01084C
:1000B0003DFB00086D0B01086D0B01086D0B01087D
:1000C0006D0B01086D0B01086D0B01086D0B01082C
:1000D0006D0B01089DFA00086D0B01086D0B0108FE
:1000E0006D0B01086D0B01086D0B01086D0B01080C
:1000F0006D0B01086D0B01086D0B01086D0B0108FC
:100100006D0B01086D0B01086D0B01086D0B0108EB
:100110006D0B01086D0B01086D0B01086D0B0108DB
:100120006D0B01086D0B01086D0B01086D0B0108CB
:100130006D0B01086D0B01086D0B01086D0B0108BB
:100140006D0B01086D0B01086D0B01086D0B0108AB
:100150006D0B01086D0B01086D0B01086D0B01089B
:100160006D0B01086D0B01086D0B01089DF800086F
:100170006D0B01086D0B01086D0B01086D0B01087B
:100180006D0B01086D0B01086D0B01086D0B01086B
:100190006D0B01086D0B01086D0B01086D0B01085B
:1001A00072B6344880F3098840F20000CCF20000B7
:1001B0004EF63471CEF200010860BFF34F8FBFF3EB
:1001C0006F8F40F20000C0F2F0004EF68851CEF280
:1001D00000010860BFF34F8FBFF36F8F4FF0000037
:1001E000E1EE100A4EF63C71CEF2000108600620E6
:1001F00080F31488BFF36F8F10F0F2FC0FF06AFAEF
:100200004FF055301C491D4A91423CBF41F8040B48
:10021000FAE71B49174A91423CBF41F8040BFAE741
:100220001849194A194B9A423EBF51F8040B42F83B
:10023000040BF8E700201649164A91423CBF41F8EA
:10024000040BFAE710F094FC10F0C8FC124C134DAC
:10025000AC4203DA54F8041B8847F9E70FF050FF6B
:100260000F4C104DAC4203DA54F8041B8847F9E7F1
:1002700010F0B2BC000300200000002000010020AC
:10028000000100205C58010800030020A0030020AA
:10029000A0030020B4990020A0010008A0010008DC
:1002A000A0010008A00100082DE9F04F2DED108AF3
:1002B000C1F80CD0C3689D46BDEC108ABDE8F08F34
:1002C000002383F311882846A04700200FF062FE28
:1002D0000FF06CFE00DFFEE781F0004102E000BF9E
:1002E00083F0004330B54FEA41044FEA430594EAF6
:1002F000050F08BF90EA020F1FBF54EA000C55EA31
:10030000020C7FEA645C7FEA655C00F0E2804FEA01
:100310005454D4EB5555B8BF6D420CDD2C4480EAE3
:10032000020281EA030382EA000083EA010180EA13
:10033000020281EA0303362D88BF30BD11F0004F61
:100340004FEA01314FF4801C4CEA113102D0404297
:1003500061EB410113F0004F4FEA03334CEA1333D2
:1003600002D0524263EB430394EA050F00F0A780EA
:10037000A4F10104D5F1200E0DDB02FA0EFC22FAE5
:1003800005F2801841F1000103FA0EF2801843FAD9
:1003900005F359410EE0A5F120050EF1200E012ACA
:1003A00003FA0EFC28BF4CF0020C43FA05F3C01808
:1003B00051EBE37101F0004507D54FF0000EDCF181
:1003C000000C7EEB00006EEB0101B1F5801F1BD32A
:1003D000B1F5001F0CD349085FEA30004FEA3C0C2E
:1003E00004F101044FEA445212F5800F80F09A8024
:1003F000BCF1004F08BF5FEA500C50F1000041EB28
:10040000045141EA050130BD5FEA4C0C404141EB2B
:10041000010111F4801FA4F10104E9D191F0000F52
:1004200004BF01460020B1FA81F308BF2033A3F1D5
:100430000B03B3F120020CDA0C3208DD02F1140CCC
:10044000C2F10C0201FA0CF021FA02F10CE002F107
:100450001402D8BFC2F1200C01FA02F120FA0CFC00
:10046000DCBF41EA0C019040E41AA2BF01EB045149
:10047000294330BD6FEA04041F3C1CDA0C340EDC47
:1004800004F11404C4F1200220FA04F001FA02F38A
:1004900040EA030021FA04F345EA030130BDC4F148
:1004A0000C04C4F1200220FA02F001FA04F340EA3D
:1004B0000300294630BD21FA04F0294630BD94F0EE
:1004C000000F83F4801306BF81F480110134013DD5
:1004D0004EE77FEA645C18BF7FEA655C29D094EA46
:1004E000050F08BF90EA020F05D054EA000C04BFC4
:1004F0001946104630BD91EA030F1EBF00210020AF
:1005000030BD5FEA545C05D14000494128BF41F04D
:10051000004130BD14F580043CBF01F5801130BDB1
:1005200001F0004545F0FE4141F470014FF000003C
:1005300030BD7FEA645C1ABF194610467FEA655CED
:100540001CBF0B46024650EA013406BF52EA03358F
:1005500091EA030F41F4002130BD00BF90F0000F7D
:1005600004BF0021704730B54FF4806404F13204B9
:100570004FF000054FF0000150E700BF90F0000F72
:1005800004BF0021704730B54FF4806404F1320499
:1005900010F0004548BF40424FF000013EE700BF69
:1005A00042004FEAE2014FEA31014FEA02701FBFF9
:1005B00012F07F4393F07F4F81F06051704732F02B
:1005C0007F4208BF704793F07F4F04BF41F4002182
:1005D000704730B54FF4607401F0004521F00041E0
:1005E0001CE700BF50EA010208BF704730B54FF06A
:1005F00000050AE050EA010208BF704730B511F06B
:10060000004502D5404261EB41014FF4806404F1A2
:1006100032045FEA915C3FF4D8AE4FF003025FEA28
:10062000DC0C18BF03325FEADC0C18BF033202EBAC
:10063000DC02C2F1200300FA03FC20FA02F001FA06
:1006400003FE40EA0E0021FA02F11444BDE600BFA9
:100650004FEA4102B2F1E04324BFB3F5001CDCF1E4
:10066000FE5C0DD901F0004C4FEAC0024CEA50701C
:10067000B2F1004F40EB830008BF20F0010070474B
:1006800011F0804F21D113F13872BCBF01F000404E
:10069000704741F480114FEA5252C2F11802C2F180
:1006A000200C10FA0CF320FA02F018BF40F0010001
:1006B0004FEAC1234FEAD32303FA0CFC40EA0C00B3
:1006C00023FA02F34FEA4303CCE77FEA625307D1F0
:1006D00050EA01331EBF4FF0FE4040F44000704727
:1006E00001F0004040F0FE4040F40000704700BFC1
:1006F00080F0004002E000BF81F0004142001FBFD7
:100700005FEA410392EA030F7FEA226C7FEA236CDF
:100710006AD04FEA1262D2EB1363C1BFD2184140D4
:1007200048404140B8BF5B42192B88BF704710F06A
:10073000004F40F4000020F07F4018BF404211F00D
:10074000004F41F4000121F07F4118BF494292EA75
:10075000030F3FD0A2F1010241FA03FC10EB0C00A1
:10076000C3F1200301FA03F100F0004302D549422E
:1007700060EB4000B0F5000F13D3B0F1807F06D3DB
:1007800040084FEA310102F10102FE2A51D2B1F1D3
:10079000004F40EBC25008BF20F0010040EA0300C8
:1007A0007047490040EB000010F4000FA2F1010275
:1007B000EDD1B0FA80FCACF1080CB2EB0C0200FAFF
:1007C0000CF0AABF00EBC25052421843BCBFD0404D
:1007D0001843704792F0000F81F4000106BF80F4C7
:1007E00000000132013BB5E74FEA41037FEA226C8A
:1007F00018BF7FEA236C21D092EA030F04D092F055
:10080000000F08BF0846704790EA010F1CBF002088
:10081000704712F07F4F04D1400028BF40F00040E5
:10082000704712F100723CBF00F50000704700F005
:10083000004343F0FE4040F4000070477FEA22622C
:1008400016BF08467FEA23630146420206BF5FEAFD
:10085000412390EA010F40F4800070474FF00003FD
:1008600004E000BF10F0004348BF40425FEA000CC4
:1008700008BF704743F0964301464FF000001CE06C
:1008800050EA010208BF70474FF000030AE000BFC2
:1008900050EA010208BF704711F0004302D5404200
:1008A00061EB41015FEA010C02BF84460146002072
:1008B00043F0B64308BFA3F18053A3F50003BCFA8D
:1008C0008CF2083AA3EBC25310DB01FA02FC63443A
:1008D00000FA02FCC2F12002BCF1004F20FA02F241
:1008E00043EB020008BF20F00100704702F1200234
:1008F00001FA02FCC2F1200250EA4C0021FA02F295
:1009000043EB020008BF20EADC70704753B94AB9D4
:10091000002908BF00281CBF4FF0FF314FF0FF3007
:1009200000F074B9ADF1080C6DE904CE00F006F8E2
:10093000DDF804E0DDE9022304B070472DE9F0475B
:10094000089E04468846002B40F085808A42154662
:1009500048D9B2FA82F24AB1C2F1200701FA02F391
:1009600020FA07F7954047EA030894404FEA154EEE
:10097000230CB8FBFEF71FFA85FC0EFB178843EA31
:10098000084307FB0CF1994209D9EB1807F1FF3036
:1009900080F0E380994240F2E080023F2B445B1AF2
:1009A000A4B2B3FBFEF00EFB103344EA034400FB99
:1009B0000CFCA44509D92C1900F1FF3380F0CB8041
:1009C000A44540F2C88002382C4440EA0740A4EB1A
:1009D0000C0400271EB1D4400023C6E90043394669
:1009E000BDE8F087002A53D0B2FA82F2002A40F024
:1009F000B680491B4FEA154E1FFA85F80127B1FB57
:100A0000FEFC230C0EFB1C1143EA014308FB0CF116
:100A1000994207D9EB180CF1FF3002D2994200F24B
:100A2000EC808446591AA3B2B1FBFEF00EFB101401
:100A300043EA044408FB00F8A04507D92C1900F14B
:100A4000FF3302D2A04500F2DC801846A4EB080474
:100A500040EA0C40BEE78B4208D9002E78D0002730
:100A6000C6E9000138463946BDE8F087B3FA83F796
:100A70007FB98B4202D3824200F2BD80841A61EBBF
:100A8000030301209846002EA9D0C6E90048A6E736
:100A9000FFDEC7F12005BB4022FA05FC4CEA030C3F
:100AA00001FA07F420FA05F821FA05F34FEA1C4E83
:100AB00048EA0404B3FBFEF9210C0EFB19331FFABC
:100AC0008CF841EA034309FB08FA9A4502FA07F257
:100AD00000FA07F10BD91CEB030309F1FF3080F09A
:100AE00088809A4540F28580A9F102096344A3EB0E
:100AF0000A03A4B2B3FBFEF00EFB103344EA034436
:100B000000FB08F8A04508D91CEB040400F1FF33F2
:100B10006BD2A04569D90238644440EA0940A4EB8D
:100B20000804A0FB02894C45C6464B4654D351D01D
:100B3000002E69D0B1EB0E0264EB030404FA05F554
:100B400022FA07F3FC401D43C6E90054002746E79C
:100B50003746304643E7184637E707461FE7C2F1F6
:100B6000200320FA03F7954001FA02F021FA03F37B
:100B70004FEA154E3843010CB3FBFEF71FFA85F818
:100B80000EFB173341EA034107FB08F38B4204FADB
:100B900002F407D9691807F1FF3C28D28B4226D905
:100BA000023F2944CB1A81B2B3FBFEF00EFB103397
:100BB00041EA034100FB08F38B4207D9691800F1B1
:100BC000FF3C10D28B420ED902382944C91A40EAA0
:100BD000074714E74145ABD2B8EB020E69EB0C02B4
:100BE00001381346A4E76046F0E7184695E76746E4
:100BF000D8E781467BE7384645E7ACF1020C2B4449
:100C000010E702382C4421E73746E8E6704700BF7A
:100C1000034613F8012B002AFBD1181A013870473C
:100C200030B40D4C0D4BA26885000F21A94022EA7B
:100C30000102A2609968012202FA00F00143996062
:100C4000D968C2431140D9601968084318605968CF
:100C50000A405A6030BC7047000001400004014067
:100C60002DE9F047284B294FDFF8A4A02DED028B8A
:100C7000804600200D46002A08BF1F4688470126EF
:100C8000F0EE408A0024BAF81A309E4210DA1FFAB9
:100C900086F94846A847F0EE680AB0EE408AB847A1
:100CA000002818BFF0EE488A18BF4C460136EAE724
:100CB0001CB3013B9C4220DA601E80B2A8F80040C1
:100CC000A847601C80B2B0EE408AA847B4EE408AC4
:100CD000F1EE10FA11D0B0EE007A70EE487AA8EE7C
:100CE000C78A67EEA77A38EE008AB2EE000A28EECD
:100CF000008A87EE887A78EEC78AB0EE680ABDEC83
:100D0000028BBDE8F08700BF250D0008150D000817
:100D1000CC060020B4EEE00AF1EE10FACCBF0120C0
:100D200000207047B4EEE00AF1EE10FA4CBF01204B
:100D3000002070472DE9F74F424A536883427DD81F
:100D40009768B8427AD8548B013CA4B2FF1AC61AED
:100D500000224FF0000B8946A1B2CDE900125B469C
:100D60003A46A4FB0601FFF7D1FD6408A4B20025B2
:100D7000E7FB0045DDE90023804629462046FFF7D2
:100D8000C5FD824638194BEB0501DDE90023FFF76D
:100D9000BDFDB0EB0A000CD0A6EB0A0607EE100A68
:100DA00007EE906AF8EE476AF8EE677A87EEA67A61
:100DB00001E09FED257A254B08F1FF3203EBC801D6
:100DC00008F1010803EBC20203EBC80393ED005ADC
:100DD00092ED006AD1ED005A75EE467A36EE056A5C
:100DE000F6EE006AB0EE655A96EE265A012067EEDE
:100DF000A67A25EE076A67EE877AE7EE067A77EE3F
:100E0000A57AC9ED007A93ED015A92ED016AD1ED10
:100E1000015A75EE467A36EE056AB0EE655A96EEE0
:100E2000265A67EEA67A65EE076A67EE877AE7EEDE
:100E3000267A77EEA57AC9ED017A00E0002003B0AA
:100E4000BDE8F08FCC0600200000000034470020F1
:100E5000024A137843F00103137070474560002085
:100E600010EE103A10EE902A52EA030134D0F0EE60
:100E7000C07AF0EEE00AF4EEE70AF1EE10FACCBF29
:100E800087EEA07A80EEA77A9FED155ADFED155A0E
:100E90009FED156A9FED150A67EE076AF4EEE70A03
:100EA000E6EEC55AF1EE10FAA5EEA66A48BFDFEDF0
:100EB000107AA6EE260A20EE070A48BF37EEC00ACF
:100EC000002ABCBFDFED0B7A37EEC00A002B00DB37
:100ED0007047B1EE400A70479FED070A704700BFA8
:100EE000B7B01C3D4A76143EF11CA4BE36C77F3F06
:100EF000DB0FC93FDB0F49400000000010EE103A45
:100F00001A1E1ED0C2F3160343F07C5307EE103AAC
:100F1000DFED0F6ADFED0F4A9FED0F5A9FED0F0ACD
:100F2000DFED0F5A77EE266A07EE902A84EEA66A66
:100F3000F8EE677AA7EE850AA7EE650A30EE460A54
:100F4000704760EE007ABFEE007A87EE270A70479E
:100F5000F944B43EFE1F993F1872B1338A36ACC2D1
:100F6000D5E8843F0C4B10B4602280244FF480708D
:100F700083F807234FF40071C3F880411C6083F8A5
:100F80000823C3F88001186083F809235DF8044B37
:100F9000C3F880111960704700E100E0044A53690A
:100FA00003F00803536103B97047FFF751BF00BF57
:100FB00000040140044A536903F00403536103B978
:100FC0007047FFF745BF00BF00040140044A536962
:100FD00003F00203536103B97047FFF739BF00BF45
:100FE00000040140454A1368536013F4704F00D168
:100FF00070472DE9F04FDFF83091B9F8002092B238
:1010000083B0002A46D04FF080403D49406A0968CD
:1010100088423FD33B493C48498B13F4005F01F1C0
:101020000103A0F1C00118BF01469342019134DAD7
:10103000364D374C3748384900220023C5E9002394
:10104000C4E90023C0E90023C1E90023334B344E37
:10105000B3F90050019B3068324903EB45052A1D66
:101060000024C4350B881BB2002B43D00B8832F907
:10107000044C013B04321BB2AA420B8020F8024B05
:101080004FF00104EED13060B9F80030013B9BB263
:10109000A9F8003003B0BDE8F08FDFF890E0019BC5
:1010A000DFF868C01A4F1B4E1B4D0EF1C00AA3F1AA
:1010B00004085EF804BF58F8043FD645D6E900405E
:1010C000C3FBAB40D5E90012C3FBBB12C6E900402D
:1010D000C5E90012DCF80000DCF80440C3FB8B0417
:1010E000D7E90021C3FB9B21CCE90004C7E900211B
:1010F000DFD1ABE7002CC6D1C6E700BF000002403D
:1011000048600020040300201461002050060020E5
:1011100048060020600600205806002052460020A5
:101120004C4600205046002010920020EC61002028
:10113000074B08485B68084A00EA530002EAD302FA
:1011400003F00F33104423F070631844704700BF5E
:10115000002800401808780006021E00074B0848C7
:101160001B68084A00EA530002EAD30203F00F3377
:10117000104423F070631844704700BF00280040FB
:10118000383838000E0E0E0010B5FFF7E7FF0146A5
:10119000FFF7CEFF0304C1F34604CA0803F47F033C
:1011A000234302F4FF524909134301F4FF21420390
:1011B0001943C0F3074002F0FF531943143041EACA
:1011C000406010BD0368036070B40023961E01F0F8
:1011D0000F04436002EB440403621A460163C360D8
:1011E000334623F8022FA342FBD11025836843F036
:1011F00004038360324602E083685B0702D503681C
:101200005907F9D532F8021F036CA2420B44138030
:10121000F5D1013DEAD136F8023F1B09A6423380E1
:10122000F9D170BC704700BF24494A694FF0A04310
:1012300030B442F0805200244FF080504A619C60EC
:1012400098609A6842F000429A609A68002AFCDB33
:101250009A6842F001029A604FF0A0421368D907E1
:10126000FCD5174B174C4FF4FC4500204FF0805134
:1012700055619461986099609A6842F000429A6062
:101280009A68002AFCDB99680D4A41F001019960D7
:101290001368DB07FCD50C4B0A4D0C490C484FF486
:1012A000FC4454612024956183F812434FF480225A
:1012B000C3F8802130BC1A6088607047001002407B
:1012C000000100500000FC0700E100E000030050B6
:1012D0000000410106282FD8F0B4194F97F800C03C
:1012E00081034CFA00F301F1006213F0010302F5EF
:1012F0000E321AD11468134DAC4219D1124E0E445D
:10130000114601E04C6829460D1DB54204EBF3730C
:10131000F8D143F678715158994209D1012303FA63
:1013200000F040EA0C0C87F800C01046F0BC704793
:1013300000221046F0BC704700221046704700BFE4
:10134000BC060020544E4F4378770208074B084AEA
:1013500003EB400003EB410110B4064CC08BCB8B78
:10136000208013805DF8044B704700BF0403002009
:101370006806002066460020024A5368002BFCD114
:101380001360704730000240064A074900E00B78BE
:101390009368D807FBD493681B06F8D4024B1B78DC
:1013A000704700BF003001400C30014030B4084AA3
:1013B000084C01444FF0FF3525709368DB07FCD5DE
:1013C000237800F8013B8842F6D130BC704700BF5B
:1013D000003001400C300140044B054AFF211970D8
:1013E0009368DB07FCD5014B187870470C3001403F
:1013F0000030014089B14B1E9BB210B40133074A43
:10140000074CC11893689B07FCD510F8013B23706B
:101410008842F7D15DF8044B7047704700300140B7
:101420000C300140034A93689B07FCD5024B1870AF
:10143000704700BF003001400C30014010B5044639
:101440000846FFF7EFFF134B4FF4007041F2910194
:10145000DC601A46586019605368002BFCD1136099
:10146000FF20FFF7DFFFFF20FFF7DCFF6424FFF71B
:101470008BFF01E0013C0BD0FFF7AEFFFF28F9D056
:1014800000F01F00A0F10500B0FA80F0400910BD87
:10149000204610BD30000240024A137843F0020398
:1014A000137070474560002001230A2101FB03F2FD
:1014B000824201D21346F9E75A00824204D803EB74
:1014C0008303834288BF134618467047044B0020AD
:1014D00013F8012B1AB12E2A01D00130F8E770471A
:1014E00074460020074B1A78074B53F8223000202F
:1014F00033B19A7A0AB10A3300E01B690130F7E789
:10150000704700BF446000207C03002008B5FFF74F
:10151000E9FF0D4B93F90020002A02DAFF221A702E
:1015200004E08242A4BF00F1FF321A701028A8BF65
:101530001020082840F23113B8BF0820B3FBF0F0A8
:10154000024B188008BD00BF9003002078030020E4
:10155000054B1A78032A9CBF01321A701A78034B84
:1015600043F82200FFF7D2BF446000207C03002034
:10157000074B41B19B681B0245BF0123CB70054B54
:10158000054B4B6070479A6882F400029A6070477E
:1015900000280040DD220108DA2201080B4A92F8F7
:1015A0006C0031B10A4B0B4A002818BF13464B6040
:1015B000704700280CBF0123002382F86C30064AD4
:1015C000064B18BF1346064A1360704704030020F9
:1015D000441901084B190108F40C0108700C0108AA
:1015E0006C0600200A4A0B4B11880B4A1B88128894
:1015F00091424FF01E0008D1B3FBF0F200FB123015
:1016000080B213B1002808BF1E200330704700BF0E
:10161000C8060020644600204660002004280246D8
:101620000F4BA8BF0422F0B533F832600E8003EBF5
:10163000C20304285A889C884A808C809F79DB8862
:10164000CB800CDD04380A25B0FBF5F313FB0464F2
:1016500005FB130313FB07F313440C804B80F0BD11
:10166000300E010819B1034B9B684B60704702486C
:10167000FFF76EBF040300208C21010819B1034B52
:101680001B6E4B6070470248FFF762BF04030020E7
:1016900020240108034B93F82120034B53F8220028
:1016A000FFF756BFCC06002010210108054A138B16
:1016B00019B1C3F3C013CB70704783F08003138359
:1016C000704700BFCC060020094A137861B1094871
:1016D000094A13F0010F6FEA030308BF024603F043
:1016E00001034A60CB70704783F0010313707047A9
:1016F00091030020EC210108E621010819B1034BF8
:101700005B8B4B6070470248FFF722BFCC0600207E
:101710004825010841B1064B5B8B5A1C4FF47A6394
:10172000B3FBF2F34B6070470248FFF711BF00BFF5
:101730000403002054190108074A138B39B103F040
:10174000060398420CBF03230223CB70704723F09B
:101750000603034313837047CC06002030B50E4CBC
:10176000238B03F01805082D08D0102D09D0002D6B
:101770000A4D0B4A0CBF10202A4604E0094A0020FB
:1017800001E0094A082009B14A6003E023F0180388
:101790000343238330BD00BFCC060020461B010855
:1017A000862601087E26010876260108F0B51E4B24
:1017B0001E4CB3F9005024781D4BB3F9003014B11E
:1017C00005600B602FE01B4CB4F90C60B4F90E708F
:1017D000AD1B40F2BF126A43B4F91050AD1B92FB2F
:1017E000F5F2DD1B40F21F136B43B4F91250A48ACB
:1017F000103240F2DF16B242A5EB070593FBF5F37A
:1018000040F23F1503F11003A8BF3246AB42A8BF18
:101810002B4622EAE27223EAE373240644BFB21A9B
:10182000EB1A02600B60F0BD9A460020B4720020F3
:101830009C46002004030020094A1378D8070DD5E0
:1018400083F001031370074B9A68510706D59A6815
:1018500042F010029A609A68D206FCD4704700BF2A
:10186000B5720020000100500D4A137813F00101F9
:1018700015D183F0010313700A4B1A681A60802295
:101880005A604FF0FA621A624FF480721A63064A85
:10189000DA609A6842F004029A60044B197070474B
:1018A000B57200200001005000158000B4720020C5
:1018B0004FF090431869074B9B8A1B0600F00E00FF
:1018C00006D5C0F34003B3EBD00F18BF80F00A0079
:1018D000704700BF04030020184BB3F81AC0BCF1D6
:1018E000000F27D0164B2DE9F04140F2446404FB71
:1018F00002321FFA80FE89B202F1020800264FF47C
:1019000061774FF0FF3032F8263038F82650AEEBD2
:1019100003044D1B23B215FB05F503FB0353BB4228
:10192000B8BF304606F10106B8BF1F46B445EAD13C
:10193000BDE8F0814FF0FF30704700BFCC060020BB
:10194000B87200208842ACBF00200120704700BF61
:101950008842D4BF00200120704700BF024B03EB38
:10196000C00090ED010A704734470020024B03EBA2
:10197000C00090ED010A704734470020084B00F288
:10198000911203EBC20203EBC00303F68C4393ED09
:10199000000AD2ED007A20EE000AA7EEA70A7047EF
:1019A00034470020074B03EBC00200F2911002F60F
:1019B0008C4203EBC00392ED000AD3ED007A80EE77
:1019C000270A70473447002030EE000A002370EEEB
:1019D000007A21EE671AA0EEA01AB5EEC01AF1EE59
:1019E00010FA02D5436003607047B1EEC11A31EEC0
:1019F000607AF1EE600AC7EE007A30EEC11AC0EDEF
:101A0000007AC1EE007AC0ED017A70472DE9F0430B
:101A10005442A042079F39DD13EB01088C4635D4B0
:101A2000B8F1200FA8BF4FF02008002905DAD31D18
:101A3000DB1001FB137700218C46E04526DD144BBB
:101A4000144CB3F800E0D4F800900024CAB100EBC5
:101A50004C1C09EB4C0C00233D4613F0070F04BF50
:101A600015F8014B2F46650014F0800F00EB0306BC
:101A7000ECB203D01F2E98BF2CF813E001339A422A
:101A8000EAD1013109B241458C46DFDBBDE8F08384
:101A900066460020740600202DE9F04FB0F904508E
:101AA0001F2D8BB004DCB0F906C0BCF11F0F03DDA5
:101AB00000200BB0BDE8F08F163901EB810801EB77
:101AC0004801344B13F8019009F00709C9F10807E0
:101AD000BFB2FD42044603EB01084CD41CF10B0FCE
:101AE00049DB09F108034FF6FF7E4EFA03FE0EFABA
:101AF00003FE00260FFA8EFE02A9324608F1FF30DF
:101B000008F10A0A10F8013F0EEA03234FEA930B8B
:101B10004BEA530B43EA0B035BBA9BB243EA060B57
:101B20004BEA0202504521F8022B32461E46E9D10B
:101B3000194BDFF868A0ADF8206002A9C9F10A02CC
:101B4000009192B20CF1FF31B3F852E0BAF80060A4
:101B5000AAF800E0681E092A38BF092209B200B2BB
:101B60000D23ADF81EB0FFF751FFB4F90450B4F9DE
:101B700006C0AAF8006028463A46CDF800806146C3
:101B80000B23FFF743FFA38800201F44A7800BB05F
:101B9000BDE8F08FE4400108040300206646002001
:101BA000121A10B4541C0122A240013A994202FABE
:101BB00000F00BDC074C0133092904DC34F8112058
:101BC000024324F8112001319942F5D15DF8044B0C
:101BD000704700BFA046002009494B8BD1E9011294
:101BE000013B00FB03F307EE903A531A00EE103A64
:101BF000FAEEEB7AB8EE400A87EE800A704700BF33
:101C0000CC06002008B5FFF7E7FF074B9FED077AEA
:101C100093F8993007EE903AF8EEE77A67EE877A14
:101C200027EE800A08BD00BFCC06002092FAB64914
:101C300040095209904230B44FEA51114FEA531310
:101C40001CD005461DD9AD1A01350124AC40013C1C
:101C5000994204FA02F40DD81048A4B200EB4100F6
:101C6000028801318DB222439D4220F8022BF7D920
:101C700030BC70470A4619461346EDE7994203D037
:101C8000024615460246DEE7044A012332F81140B7
:101C90008340234322F81130EAE700BFA04600202A
:101CA0002DE9F0471A4E0C46318830F824C0904692
:101CB00049008AB24FEA8409C44505469A463280F3
:101CC00000EB09070ED042F0010232809307114E5B
:101CD00000D05CB93868306025F82480A7F802A0ED
:101CE000BDE8F0877B885345EDD1EFE77B887188AD
:101CF00030886246A9F10409FFF79AFF05EB090352
:101D000035F80900598842465346FFF791FFE1E74D
:101D10004A4600209446002070B51A4C628B051C80
:101D200018BF0125013A101AD4E901634FEA45743E
:101D300018BF0120641B01EBC40401EBC001D4ED0A
:101D4000017A91ED010AD4ED006A91ED007A60EE1E
:101D5000270A20EE660AE7EE260A9B1B2844A7EE18
:101D6000270A92FBF0F0B3FBF0F0FFF779F89FED54
:101D7000067A07EE900A20EE070AF8EE677A80EE00
:101D8000270A70BDCC06002083F9223E91ED017A2E
:101D9000D1ED007A67EE076AE7EEA76A77EEE67A9A
:101DA00087EE270AB0EEC00A704700BFD1ED017A76
:101DB000D1ED006A9FED0A0A67EEA77AB7EE007AC6
:101DC00037EE667AB0EE676AA7EE076AE6EEA67AA5
:101DD00086EE277AB1EEC77A27EE000A704700BF79
:101DE0000000C842D1ED017A91ED007ADFED056A7D
:101DF00027EEA70A67EEA67AA7EE070A87EE800A03
:101E0000704700BF0000C8C2D1ED017A91ED007AA1
:101E1000DFED066A67EEA77A27EE266AE7EE077A15
:101E200086EE270A30EE660A704700BF0000C842FF
:101E3000D1ED017AD1ED006A67EEA77AB7EE007AAC
:101E400037EE667AB0EE676AA7EE076AE6EEA67A24
:101E5000B3EE090A87EE867AB1EEC77A27EE000A5A
:101E6000704700BFD1ED006AD1ED017AB7EE007A7C
:101E700037EE667A27EEA70AF3EE096AA7EE070A9D
:101E800067EEA67A87EE800A704700BFD1ED006A40
:101E900091ED017AF7EE007A77EEE67A27EE077A8F
:101EA000F3EE096AA7EEA77A67EEA67A87EE870AAD
:101EB00030EE660A704700BFD1ED017A91ED007AED
:101EC000DFED076AB7EE006A37EE067A27EEA70A5B
:101ED00067EEA67AA7EE070A87EE800A704700BF72
:101EE0000AD723BD08B5FFF7E7FFFFEE007A87EEBC
:101EF000800A08BD91ED007AD1ED017ADFED0A6A22
:101F00009FED0A6AF7EE005A37EE257A67EEA77A58
:101F100067EE266AE7EE077A86EEA70A30EE460AF3
:101F2000B0EEC00A704700BF0AD7233D0AD7A33CD2
:101F300008B5FFF7DFFFF7EE007A87EE800A08BDED
:101F4000D1ED017A91ED006A27EEA77AF7EE006AEB
:101F5000A6EE067A77EEA77A36EEC77A87EE870A7C
:101F6000B0EEC00A704700BF91ED010AD1ED007AD2
:101F700060EE000AB7EE007AE7EEA70A08B577EE42
:101F8000600A30EE000AFEF76BFFDFED027A20EE0A
:101F9000270A08BDE02E654291ED007AD1ED017A65
:101FA0009FED0B0AB7EE006A76EE475A67EEA77A06
:101FB000F1EE006AE5EEA57A67EE266A86EEA77A6C
:101FC00077EE067AF1EEE77A27EE800A704700BFD7
:101FD0000000484208B5FFF7DFFFF7EE007A87EE12
:101FE000800A08BDD1ED017A91ED006ADFED076A44
:101FF000B7EE007A37EE467A27EEA70A67EEA67AA2
:10200000A7EE070A87EE800A704700BF0000C842AB
:10201000044908B501EBC001FFF7E4FFB0EEC00AC8
:1020200008BD00BF34470020D1ED005AD1ED017A40
:10203000DFED0A6A9FED0A6AB7EE007A37EE657A3D
:1020400067EEA77A67EE266AE7EE077A86EEA70ABA
:1020500030EE460AB0EEC00A704700BF0000C8422A
:102060000000484273B504460D46104669461646C0
:10207000FEF760FE034678B10C20094960430C1856
:102080000E5069462846FFF7CFFF694684ED010AE6
:10209000FFF7A8FF84ED020A184602B070BD00BF2A
:1020A000B446002091ED010A704700BF91ED000A8F
:1020B000704700BF08B5D1ED000A91ED010AFEF7A7
:1020C000CFFEDFED027A20EE270A08BDE02E654242
:1020D000D1ED017A91ED007A67EEA77AE7EE077A03
:1020E00017EE903A002B1ED0C3F3160242F07C523A
:1020F00007EE102ADFED0F6ADFED0F4A9FED0F5A52
:102100009FED0F0ADFED0F5A77EE266A07EE903A41
:1021100084EEA66AF8EE677AA7EE850AA7EE650A4E
:1021200030EE460A704767EEA77ABFEE007A87EE78
:10213000270A7047F944B43EDA40A640C1A8C0342B
:102140005AFABAC3FE4D9040034B00F2911103EBD3
:10215000C101FFF7BDBF00BF3447002091ED010A68
:10216000D1ED007A20EE000AA7EEA70AB1EEC00A70
:10217000704700BF08B5FFF7F1FFDFED097AB4EE55
:10218000E70AF1EE10FA08DCF7EE007A30EE277A73
:1021900077EEC07A87EE270A08BD9FED020A08BDD8
:1021A000A4707D3F0000807F37B5754B93F91D20EB
:1021B000072A00F2E3800B3203EBC20359680029BF
:1021C00000F0DC805D886F4C6F4A9FED704A1160B3
:1021D00004EBC50482ED014A21462846FFF724FF9F
:1021E000F6EE007AB4EEE70AF1EE10FAF0EE405A9D
:1021F000B0EE445A40F2B580FFF7BCFFDFED644A11
:10220000B4EEE40AF1EE10FA40F2AE80FFF7EAFE17
:1022100080EE257ADFED5F7AB4EEE77AF1EE10FA20
:10222000F0EE406A80F2A08065EEA44A0025F4EE4C
:10223000C44AF1EE10FA0EDDDFED577AF4EEE75AFC
:10224000F1EE10FA07D5F1EE406A15619560C2ED26
:10225000036A01238BE025EEA56AF4EEC55AF0EE81
:10226000464AF1EE10FAE6EEA64A76EEA63A06DA0D
:1022700065EE857AF4EEE74AF1EE10FA37DD68464E
:1022800024EE851A63EE850A35EE650AFFF79CFB9E
:10229000DDED007A956036EEA77AB0EE463A27EE8D
:1022A000A74AA7EE073A556124EE074AC2ED047A21
:1022B00084EE037AF4EEC55A37EE677ADDED017AE3
:1022C00082ED037A36EEA77A27EEA74AA7EE076AD1
:1022D00024EE074AF1EE10FA84EE067AC2ED077A90
:1022E00037EE677A82ED067A40DA022100E00021BB
:1022F000E5EEC54A4C006318284C6846B0EE641AF7
:10230000F0EE630AB7EE000A04EB8304FFF75CFB10
:102310009DED007AA56076EE877A84ED017A9FEDD7
:10232000207A656175EEC55A27EE875A67EEA77A5F
:102330008B1CE5EEA57A1BB285EE276ADDED017AEE
:1023400084ED006A76EEA76AC4ED047A26EE877AF9
:1023500066EEA66AE5EEA56AC7EE267AC4ED037AB4
:1023600005E04FF0FF3302E0002300E00223138773
:102370000221042307220020FFF712FC03B030BD26
:10238000CC06002034470020B4460020000048421C
:10239000CDCC8C3F0000C84200005C42BC4600200F
:1023A00000401CC501FB01F300FB003345F6D822B9
:1023B00093424ADC45F6A812934244DC002942D0FD
:1023C0000029B8BF494210B44FF4987298240028ED
:1023D00004FB01F102FB103220DB4B280FDDC1F5BD
:1023E000B5440C341444982C31D9E42404FB103443
:1023F00004F535540634002C2DDB4C2C27DDA2EBE4
:10240000410404F5B5445834B4F5987F1FD9982495
:1024100004FB10344C341ED4982C18DDA2EB81023E
:1024200002F5B6427032B2F5187F10D94C2202FB89
:102430001030A0F532502E38E4288CBF0020012047
:102440005DF8044B70470120704700207047012061
:102450005DF8044B70470020F2E700BF10B51F4B3A
:102460002DED048B0446D3E90001FEF711FA07EEC7
:10247000900AF7EE008A88EEA78A194BD3E900018B
:10248000FEF706FA174B07EE900AD3E9000127EE94
:10249000889AFEF7FDF9144B07EE900AD3E9000184
:1024A00067EE889AFEF7F4F907EE900A27EE888A1D
:1024B000B0EE697AF0EE687AA9EE087AE9EE097A68
:1024C000A9EE698AC7EE276A88EE277ABDEC048BED
:1024D000C4ED006A84ED017A10BD00BF48060020FB
:1024E0005006002058060020600600202DE9F04725
:1024F000134E0C68B44220D90368B3FBF4F24FF0DA
:1025000000080125B24604FB1233C6462E460BE0F6
:10251000B4FBF3F206FB0287574503FB1249B046B2
:102520001C4607D83E464B4605FB02ECAE466546C8
:10253000002BEDD1C0F800C00E60BDE8F08700BFF1
:10254000FFFF0F00FEE700BF08B5EFF30980FFF7BC
:10255000F9FF00BF10B50D4C0D48002323600BF0B0
:102560002DFF40B103891B0705D50A4A436810882F
:10257000094901389847094A094B918A094A11F0DB
:10258000040F08BF1346236010BD00BFEC6100209C
:10259000B4630020E8610020D8610020040300201B
:1025A000AC0300207C0400202DE9F047DFF8848094
:1025B0001E4F1F4E4FF0804AC1464FF47A70DAF832
:1025C0002440D8F800500DF0D9FCFFF771F93A8893
:1025D000651B4CF24F3182EA00038D429BB201D958
:1025E00041071DD413F004031CD1824204D038806B
:1025F000C9F80040184616E04CF250339D42DCD931
:102600003368A342D9D212F0020F0CBF0020602021
:1026100004F6B834130748BF40F05000346002E0BD
:10262000042000E00120BDE8F08700BF88460020BC
:10263000904600208C46002038B5104C4FF0804565
:10264000696A2368CB1AB3F5FA6F03D8C8200DF076
:1026500095FCF5E7FFF72CF9094A216013881080F3
:1026600020EA03039BB2C3F380001A0748BF40F07F
:1026700010009B0748BF40F0200038BD8C4600206A
:1026800088460020074A08B5136813601B0603D468
:10269000BDE808400DF0CCB8FEF7FEFEBDE80840EE
:1026A0000DF0C6B8000100500CB470B58AB00EAC85
:1026B0000D4654F8043BADF80C001946ADF8100077
:1026C0000023ADF80E50ADF81250094E0194224689
:1026D00006AD02A8CDE906330993ADF8143008968B
:1026E00002950BF013FB0AB0BDE8704002B07047D2
:1026F000315800080CB430B501F10B032A2B85B01A
:1027000001D81F2805DD002005B0BDE8304002B02B
:10271000704709AC084DADF80C000B4622460899ED
:10272000ADF80E3002A8CDE901450BF0EFFA05B087
:10273000BDE8304002B07047300F0108B5EEC00A66
:10274000F1EE10FA44BFBFEE007A87EE000A30B512
:1027500085B04CBF4623482315B20CB2029307EE56
:10276000900A9FED0A7AF8EE677A67EE877AC0EEF4
:10277000277A17EE900AFDF713FF054ACDE900010D
:1027800029462046FFF7B6FF05B030BDDB0FC94034
:10279000D21501082DE9FF470FFA80F81C4E1D4A9B
:1027A0000C46404609B2FFF7A5FF96F8483023B122
:1027B00035460027DFF8649009E004F10C01164A61
:1027C00009B2404604B0BDE8F047FFF793BF96F862
:1027D0004830BB4205F10C0517DD55F8040CFDF738
:1027E000DFFECDE9020155F8080CFDF7D9FECDE971
:1027F00000010C340FFA84FA55F80C3C4A46514655
:102800004046FFF777FF0137E1E704B0BDE8F08706
:10281000B446002063110108711101087B11010801
:102820002DE9F0412DED028B0FFA80F8304D314A41
:1028300084B00E46404609B2FFF75CFFD5ED007A42
:10284000F5EE407AF1EE10FA0CD017EE900AFDF793
:10285000A7FE0C3634B2CDE90001274A2146404696
:10286000FFF748FF95ED038AB5EE408A06F10C04A8
:10287000F1EE10FA27B211D0204B1868FDF790FE48
:10288000CDE9020118EE100AFDF78AFE1C4ACDE9D7
:10289000000139464046FFF72DFF17E0D5ED017ADC
:1028A000F5EE407AF1EE10FA0FD0164B17EE900AC3
:1028B00093F899300293FDF773FE134ACDE90001B6
:1028C00039464046FFF716FF00E03446A868FDF79A
:1028D00067FE0C3424B2CDE900010C4A2146404683
:1028E000FFF708FF04B0BDEC028BBDE8F08100BF2C
:1028F000B4460020141101081E1101084C6000208C
:1029000027110108CC0600204011010857110108C9
:10291000F7B505B216460C461A4609B22846FFF727
:10292000E9FED6ED007AF5EE407AF1EE10FA0DD020
:1029300017EE900AFDF734FE04F10C073FB2CDE923
:1029400000011E4A39462846FFF7D4FED6ED017A2B
:10295000F5EE407AF1EE10FA0DD017EE900AFDF781
:102960001FFE04F118073FB2CDE90001134A3946B2
:102970002846FFF7BFFED6ED047AF5EE407AF1EE79
:1029800010FA19D017EE900AFDF70AFE04F1240799
:102990003FB2CDE900010A4A39462846FFF7AAFEB0
:1029A0007069FDF7FDFD303424B2CDE90001054A20
:1029B00021462846FFF79EFE03B0F0BDA122010884
:1029C00089110108921101082DE9F0432DED028BC8
:1029D00005B2614C614A85B080460F46284609B26F
:1029E000FFF788FED4ED017A9FED5D7AF4EEC77AA9
:1029F000F1EE10FA00F1AB8094ED0E8A17EE900A1A
:102A0000FDF7CEFDB5EE408A07F10C06F1EE10FAA7
:102A10000FFA86F9CDE9020134D018EE100AFDF75D
:102A2000BFFD504ACDE9000149462846FFF762FE46
:102A3000E06BFDF7B5FD07F1180636B2CDE90001F0
:102A40000323494A31462846FFF754FE206CFDF720
:102A5000A7FD07F1240636B2CDE900010623424A5C
:102A600031462846FFF746FE606CFDF799FD07F1F9
:102A7000300637B2CDE900013C4A39462846FFF717
:102A800039FE09E02068FDF78BFD364ACDE90001EB
:102A900049462846FFF72EFED4ED027AF5EE407A3D
:102AA000F1EE10FA06D1D4ED087AF5EE407AF1EEA7
:102AB00010FA4CD006F10C07BEB206F10C0103234C
:102AC0002B4A09B22846FFF715FE06F11801062326
:102AD000274A09B22846FFF70DFE06F12401254AD0
:102AE00009B22846FFF706FED4ED087AF5EE407AE3
:102AF000F1EE10FA08F12A000FD0D4ED0E7A1E4A3A
:102B00001E4BF5EE407AF1EE10FA18BF1346394627
:102B10001B4AFFF7FDFE08F17E00D4ED027AF5EEC8
:102B2000407AF1EE10FA12D0D4ED0E7A154A164B17
:102B3000F5EE407AF1EE10FA18BF1346134A394603
:102B400005B0BDEC028BBDE8F043FFF7E1BE05B078
:102B5000BDEC028BBDE8F083B44600206A1001088A
:102B6000000048C27510010886100108991001087C
:102B70009F100108A7100108441001084D1001081A
:102B8000D44600205710010861100108BC460020FF
:102B90002DE9F041DFF8D88005B20F4686B0D8F8AD
:102BA000002009B22846FFF7A5FDD8F8043007F148
:102BB0000C0446465BB9D8F80830002B34D1264ABD
:102BC00021B2284606B0BDE8F041FFF793BD234A85
:102BD00021B22846FFF78EFDD8F81800FDF7E0FC7B
:102BE000CDE90401D8F81000FDF7DAFCCDE90201C7
:102BF000D8F80C00FDF7D4FC07F1180424B2CDE995
:102C00000001174A21462846FFF774FDD8F81C003A
:102C1000FDF7C6FC07F1240427B2CDE90001114AF3
:102C200039462846FFF766FDB36893B104F10C01FD
:102C30000D4A09B22846FFF75DFD7069FDF7B0FC4B
:102C4000183424B2CDE90001084A21462846FFF78E
:102C500051FD06B0BDE8F081711101089B1101081A
:102C6000A3110108BA110108C1110108C911010815
:102C7000B44600202DE9F347404E0FFA80F8054690
:102C800070680C460FB2FDF78BFC0C34CDE90001E7
:102C90003B4A39464046FFF72DFD1F2C6ADCB6F94A
:102CA0003830002B374626B201DA364A01E007D128
:102CB000354A3146404602B0BDE8F047FFF71ABD3D
:102CC0003146324A40461FFA85F8FFF713FD08F1F6
:102CD000460031462E4A00B2FFF70CFD08F18C0089
:102CE00031462C4A00B2FFF705FD3E464FF0000882
:102CF00005F1460A05F18C09B7F93830434539DD4D
:102D00000C341F2C36DC96ED020AB4EE400AF1EECC
:102D100010FA09D6B5EE400AF1EE10FA04D02246B8
:102D200029463868FFF70AFD96ED030AB4EE400A1B
:102D3000F1EE10FA09D6B5EE400AF1EE10FA04D021
:102D4000224651463868FFF7F9FC96ED040AB4EEC6
:102D5000400AF1EE10FA09D6B5EE400AF1EE10FA8B
:102D600004D0224649463868FFF7E8FC08F101081C
:102D70000C36C1E702B0BDE8F08700BFB4460020C2
:102D8000AD100108CE100108E3100108F810010889
:102D9000021101080911010838B5194B002403F18B
:102DA00030001D461A4692F828100C3201B1013449
:102DB0009042F8D11348002193F85820083302B10B
:102DC00001319842F8D18C42B8BF0C4608F0DAF9CC
:102DD000B5EE400AF1EE10FAD5ED2A7A08D10223B9
:102DE000234401335B1003EB830003EB400038BD49
:102DF000F5EE407AF1EE10FA0CBF02230423EFE760
:102E0000CC0600200C0700202DE9F047284E96F94B
:102E10001C506A1C4AD096F91D30013346D0254C0F
:102E2000254BA48A254A40F2446707FB0535244B0D
:102E300014F0080F05EB800714BF9046984644181D
:102E4000B7F802A032D4738BA3422FDD0F460235B0
:102E500007E035F824A03C44631C27D0738BA342C1
:102E600024DD35F824105046C0470028F1D0738B7C
:102E7000A342C8BF4FF0FF3907DC17E0728B35F86B
:102E800024A09342A14607D21C46514635F824009F
:102E9000C0473B190028F1D0B9F1FF3F06D04946A1
:102EA00096F91D00BDE8F04708F040BBBDE8F0878B
:102EB000CC06002004030020B87200204519000849
:102EC0005119000810B50A4C94F91D3004EBC303E6
:102ED000012808BF0121B3F95A0018BF4FF0FF3194
:102EE000FFF792FF238B23F08003238310BD00BFE5
:102EF000CC0600202DE9F8431B4E96F91C506A1CA5
:102F00002CD096F91D00431C28D0184B184C9F8AD2
:102F10001849194A738B17F0080F40F2446707FBF2
:102F2000054514BF88469046012B6F8818D9023595
:102F30004FF00009012435F824103846C04710B17D
:102F400035F82470A146738B0134A342F3DC96F963
:102F50001D004946BDE8F84308F0E8BABDE8F8832B
:102F60004FF00009F5E700BFCC0600200403002065
:102F7000B87200204519000851190008084651B1DF
:102F8000074BDB7FFF2B09D001335B00054A202173
:102F900008300CF07FBB0448FEF7DABA704700BF78
:102FA000CC06002030220108F4210108074B33F839
:102FB000100041B1064B5B8B486083420CBF03237A
:102FC0000223CB70704709F077B900BF902A01083F
:102FD000CC060020F8B505460C4601F1190621463D
:102FE00028460AF0CFF968BBA37E5BB3237BDB06E0
:102FF000F5D4324603465178571C31B1183A121BAA
:103000002E2908BF13463A46F5E7002BE7D02F6D6F
:103010001A332344013F13F8011BA1F14102192A7D
:1030200017F8012F98BF2031A2F1410C98BFC9B207
:10303000BCF1190F9CBF2032D2B28A42CFD1002AF4
:10304000E9D100E00420F8BD2DE9F743154E804694
:10305000002506F5807701AB4FF48072314640467B
:1030600009F008FEC8B9019BBBB104468146019A2C
:10307000A3B29A42EFD99B5D0D2B05D105F80790BD
:10308000FFF768FA002506E01F2B04D97F2D02D830
:103090006A1CEB5595B20134E9E7002003B0BDE8A6
:1030A000F08300BFB462002007B54FF4802201AB6B
:1030B0004FF0006109F0E6FF03B05DF804FB00008B
:1030C00007B543F67C7201AB024909F0DBFF03B0A0
:1030D0005DF804FBCC060020D3B5D1E900670023DE
:1030E00043F67C729F4208BF964201D00F481AE017
:1030F00001AB04226946044609F0BCFD0028F5D165
:103100000B4B009A9A42F1D1204601AB43F67872FC
:10311000084909F0AFFD04460028E7D14FF6FF70DB
:1031200009F0DCF8204602B0D0BD00BFDA15010876
:10313000544E4F43D006002061B3F0B585B005462C
:103140000C46FEF7C7F80746E0B1D0ED027AF8EE7C
:10315000677A04F1080617EE900AFDF721FACDE927
:103160000201786807EE900AF8EE677A17EE900A87
:10317000FDF716FA094ACDE90001202130460CF08E
:1031800089FA00E06560064B1B88AB4204D101233D
:10319000E37001E009F0A2B805B0F0BD9A22010881
:1031A0009E4600202DE9F0478AB0814609AB2A22CD
:1031B00021B92249224F09F065FF03E02149224F3E
:1031C00009F060FF214CDFF88C80214E0025B8F813
:1031D0001A30AB422EDD083460BBA8B208F08AF981
:1031E00004F6844382461868FDF7DAF9CDE9060152
:1031F00004F5486301351868FDF7D2F9CDE90401FB
:1032000054F8040CFDF7CCF9CDE9020154F8080C90
:10321000FDF7C6F95346CDE900013A468021304614
:103220000CF038FA09AB024609903146484609F0DD
:1032300029FFCCE70AB0BDE8F08700BFB82A010833
:10324000E42A0108F42A0108202B01083447002051
:10325000B4620020CC0600202DE9F0472DED048B50
:103260000488394F82B006462046F0EE409A8946DF
:10327000154698468847B4EEE90AF1EE10FAB0EE2A
:10328000408ACCBF4FF0010A4FF0000AF0EE408AAE
:103290007B8BA34216D92046C847F4EEC09AF1EEC4
:1032A00010FA4CBF012300235345B0EE409A06D1DB
:1032B0002C44B0EE688AA4B2F0EE408AE8E77B8B3B
:1032C000A34202D89FED210A39E0641BA4B2214633
:1032D0004046348008F02AF979EE480A38EE098A27
:1032E000F6EE007AB0EE680A98EE270A684638EEE5
:1032F000E91A60EEA70AFEF767FB9DED008AB5EEBE
:10330000C08AF1EE10FA06DDF7EE007AB4EEE78A35
:10331000F1EE10FA01D49DED018A0135204608BF77
:10332000B1EE488A08F0E6F8094B07EE100AD3ED33
:10333000007AB8EE470AF8EE677AA7EE880A02B07C
:10334000BDEC048BBDE8F087CC0600200000000037
:103350004006002030B52DED028BCB0783B03CD565
:103360000024234D9FED238AADF8064001224FF043
:10337000FF332946B0EE480A0DF10600FFF76CFF57
:10338000FCEEC07A17EE902A7AB1BDF806102046FE
:10339000FEF768FE00B10134BDF80630062C03F1DB
:1033A0000103ADF80630E1D114E09CB92246124980
:1033B000ADF806400DF10600FDF752FCBDF80650D1
:1033C00045B1284608F096F8294602462046FEF701
:1033D00049FE0446094B83F8484005230722022191
:1033E0000020FEF7DDFB03B0BDEC028B30BD00BF5B
:1033F0005D1900080000000011200008B4460020FC
:1034000030B5CC0785B00D4642D59FED320A324C1F
:10341000324984ED000A0023ADF806300DF10600B4
:103420004FF0FF33012284ED010A84ED030AFFF718
:1034300013FFFCEEC07A17EE900A48B3DFED286A5E
:10344000284BF8EE677A93F8993086EEA77A02A9AE
:10345000400807EE903AF8EEE77A234B67EE877A5A
:10346000C4ED017AD3ED007AF5EE407AF1EE10FA70
:103470001CBFC7EE876AC4ED036AFDF75BFC38B179
:1034800002A90020FEF7AEFDB0EEC00A84ED000AEE
:10349000A80716D0134B93F91D20511C11D003EB34
:1034A000C2031249B3F85A0001EBC001FEF710FE47
:1034B000094BF6EE007A20EE270AB0EEC00A83ED43
:1034C000020A0423072202210020FEF769FB05B04F
:1034D00030BD00BF00000000B44600206D19000898
:1034E00092FA3649CC0600204C6000203447002078
:1034F0002DE9F0432DED028B83B0284FDFF8A89023
:10350000ADF80610B0EE408A044690460646002507
:10351000B7EC010A38EE400A2DB9B8F1FF3F0CBFF5
:103520000123022301E04FF0FF33424649460DF1EB
:103530000600FFF791FE0135042DA6EC010AE7D144
:10354000D4ED023AF5EE403A0023F1EE10FA636151
:1035500023611ED094ED030AB5EE400AF1EE10FA95
:1035600017D0FDF7CBFCB0EE404AB0EE630AFDF792
:10357000C5FC9FED0B7A34EE400AB0EEC00AC7EEF0
:10358000007A9FED087AC4ED047AC7EE007AC4EDA4
:10359000057A03B0BDEC028BBDE8F0836012010830
:1035A000F234B8419ECEDD404921000837B50025F0
:1035B00001222E49ADF806500DF10600FDF750FB33
:1035C000DFED2B7A2B4CB4EEE70AF1EE10FA84ED26
:1035D000010A43DBBDF80610284607F0A7FFBDF837
:1035E0000650284607F086FF07EE900AF8EE677A45
:1035F000204617EE903A4FF0FF3240F8203B294624
:1036000094ED010AFFF774FF0122BDF8061094ED56
:10361000010A04F10800FFF76BFF94ED027AD4ED84
:10362000086A67EE267AF5EE407AF1EE10FAC4EDFC
:103630000E7A13D0F1EEE77A37EE667A94ED096AE6
:10364000D4ED036A84ED0F7A76EEC66AC4ED0E7A85
:10365000C4ED106AC7EE876AC4ED116A062307221B
:1036600002210020FEF79CFA03B030BD492100087A
:10367000000048C2B446002070B52DED028B3F4CCF
:103680003F4B4049236082B0002601220DF1060025
:10369000ADF80660FDF7E4FABDF80610002969D020
:1036A000B1EEC00AB7EE008A88EE007A364DD5ED4D
:1036B0001A7A37EE487A77EEA77A67EE877AF5EED0
:1036C000C07AF1EE10FAC4ED067A53D4304607F012
:1036D0002DFFBDF80630ADF80430B0EE480A0123E6
:1036E0004FF0FF32294901A8FFF7B6FDB5EE400AB9
:1036F000F1EE10FAB0EE408A3CD0BDF80630ADF8DD
:103700000430012202232149BFEE000A01A8FFF77D
:10371000A3FDB5EE400AF1EE10FA2BD0D4ED066A07
:1037200095ED1A7AF0EE007AF0EE665AE7EE275A37
:1037300030EE486A28EE008AB1EEC88AFCEEC87AFC
:10374000C4ED017ADFED127A26EE275A68EE277A69
:1037500085EE857A27EE888A67EE277A28EE258A15
:1037600084ED037AC6EE085A87EEA67AC4ED045AB1
:1037700084ED077A02B0BDEC028B70BDB446002028
:10378000650C01087D19000804030020A519000834
:10379000DB0FC94008B580B207F0ACFE07EE100A97
:1037A000DFED037AB8EE470A20EE270A08BD00BF16
:1037B000DB0FC9402DE9F04FDFF890C14FEA420E10
:1037C0002DED028B0EEB02090CEB890987B099F8FD
:1037D00029601D2E45D8044699F82A9056481F4660
:1037E00040F6884A4FEAC608544B0AFB09090D46C1
:1037F00012981146A8EB060203EB82020130D2F8C0
:1038000018A009EBC70B31D0BAF1000F3AD05946D6
:103810003846D2F808B0D047DFED497A474BB4EECE
:10382000E70AF1EE10FAB0EE408A07D8129B38464C
:1038300009EBC301D047414B38EE408AA8EB06069E
:1038400003EB860318EE100ADB680293FCF7A8FE70
:103850002DB224B2CDE900015A4629462046FEF792
:1038600049FF07B0BDEC028BBDE8F08FBAF1000F45
:1038700008D059463846D2F804B0D0472F4BB0EEA6
:10388000408ADBE7032E23D059463846FEF70EFC6C
:1038900010EE108AFEF706FC2A4EB0EE408A002396
:1038A00018EE100A0493FCF77BFECDE902014046B6
:1038B000FCF776FE2DB224B2CDE90001324629464E
:1038C0002046FEF717FF07B0BDEC028BBDE8F08F76
:1038D0008E440CEB8E0C9CF82B90B9F10C0FC0D8D9
:1038E000194A02EB0912D2E9023A5946384656689B
:1038F00098475946384610EE108AD04741F2505347
:1039000043FA09F313F00103B0EE408AC8D03846F9
:10391000FFF740FFB5EEC08AF1EE10FA03D488EE4F
:10392000008A4823BCE728EE000AFFEE007A87EE03
:10393000808A4623B4E700BF34470020283B0108B3
:10394000FFFF7F7F703E0108E0170108CC060020D2
:1039500008B52DED028BFEF7C5FAB0EE408AFFF7F1
:1039600019FF88EE000ABDEC028B08BD08B52DEDED
:10397000028BFEF7A1FAB0EE408AFFF70BFF88EE4C
:10398000000ABDEC028B08BD08B52DED028BFEF7D9
:1039900029FBB0EE408AFFF7FDFE88EE000ABDEC81
:1039A000028B08BD08B52DED028BFEF71BFBB0EEB8
:1039B000408AFFF7EFFE28EE000ABDEC028BFFEE17
:1039C000007A87EE800A08BD51B1074BDB7F834246
:1039D0000CBF0323022301304000CB7048607047C6
:1039E000C0B208F08BBC00BFCC06002073B5344DCC
:1039F00095F91C40661C61D020F080039BB2C0F397
:103A0000C01200293CD02E460C2505FB046595F814
:103A10002900984205D195F82A00904204BF012060
:103A2000C870032B26D10C2000FB046090F82B30CB
:103A30002AB940F2FF121A41D00705D43EE041F600
:103A400007621A41D20739D54FF4F0721A4112F0C9
:103A5000010F4FEA03131B4AD3581B4A0093084631
:103A60001A4B4FF0200118BF13460830184A0BF0CC
:103A700011FE23E01C225343164AD3584B601DE02D
:103A8000032B14D10C2101FB045191F829000328C8
:103A90000DD191F82A10914209D10F4B0F480029FE
:103AA00018BF184602B0BDE87040FDF751BD194679
:103AB000204602B0BDE8704007F0F0BB02B070BD18
:103AC000CC060020E0170108841E01088A1E0108A8
:103AD000901E0108283B0108801F01081C1F0108D7
:103AE00030B4154C0C2202FB0042034692F8282009
:103AF00091B172B1821D0A70104A92F9002082427F
:103B000004BF05220A7094F91C20824204BF0122DE
:103B1000CA704B6030BC704732B194F91C108142BE
:103B200002D030BC07F082BBB2FA82F149091846D4
:103B300030BC07F089BB00BFCC06002090030020FA
:103B40007FB51F4CA38C13F0FF0F36D00D4603F446
:103B5000007311B3002B14BF1723032305F8083B90
:103B6000D4ED047A668CF8EE677A17EE900AFCF7CB
:103B700017FDCDE90201E06807EE900AF8EE677ADA
:103B800017EE900AFCF70CFD3346CDE900010D4A13
:103B9000202128460BF07EFD0FE073B1E3686360DF
:103BA0002369A360638C638307F0E2FC94F8200030
:103BB00004B0BDE8704008F0A1BB04B070BD00BF08
:103BC000CC060020141A010838B505460A4C41B14C
:103BD0000A4A14F81030928C1A420BD00123CB7091
:103BE00008E0074B04EB4504198008F017FB054B70
:103BF00062781A7038BD00BF000F0108CC060020A3
:103C0000884600209003002070B5114D83682A6912
:103C1000916800268B42866103D8BDE870400CF0A5
:103C2000EFB9044610460CF0EBF901232C61237523
:103C3000EFF309830269643B9A4205D801462046A6
:103C4000BDE87040FCF730BB72B6024B6B62FEE71A
:103C500078060020400F01080368984207D01A68D0
:103C6000026000215060184699610CF0C9B9704794
:103C7000D0E90332934210B5044606D0A1691A1D5B
:103C80000B44C4E90923002010BD8268002AF5D046
:103C90004FF0FF310BF0A0FF0028F5D1E368EDE70E
:103CA000074AD2E932321968B2FBF0F021F0010183
:103CB0001960D8601A6842F001021A60704700BFAC
:103CC000AC030020074B53F82000074B39B11B6EA3
:103CD000486083420CBF03230223CB7070471866F1
:103CE000FFF7DEBF784001080403002070B5184CD0
:103CF000184B6168184A0025E56784F86450C96864
:103D0000A56002202070A9424FF040001D6508BF49
:103D10004FF41C415D6418BF4FF41E41C4F880008D
:103D20008020C4E90455C4E90655C4E90855A562D4
:103D3000D864196420462946E2600BF011FD6368DF
:103D40001B6823B129462046BDE87040184770BD66
:103D5000BC050020005C0040D41101087F2801D878
:103D600080B27047B0F5803F14D210B40B490023E5
:103D70004FF4826203E0802B0ED031F8022F904284
:103D80009CB203F10103F6D104F1800080B25DF82A
:103D9000044B7047002070470020F8E7803E010880
:103DA00001292DE9F041046801D8022042E0E369CD
:103DB00099420D46F9D280460F462946404608F002
:103DC000C5FE064638B92378042B4FF0000031D1E8
:103DD00088F807002EE00128E7D0431C29D023787B
:103DE000042B0BD1D4E90632023A93420ED20133AE
:103DF000A361237943F00103237107E000222946E0
:103E0000204608F0F9FD0028ECD013E06A1C964229
:103E10000AD02378042B06D10023D21B3946204632
:103E200008F0ACFD30B93746E3699E423546C4D34D
:103E3000C9E70120BDE8F0812DE9F843FF27D0F85C
:103E4000008005463C4604264FF6FF79A96B002901
:103E500077D0404608F068FB0646002875D1E86B2D
:103E60000378002B70D098F80020042A10D1852BFD
:103E70005FD12B6BEB64284609F0B0FE06460028A4
:103E800063D1D8F810301B7903F03F03AB715EE0CB
:103E9000C27AE52B02F03F02AA7149D02E2B47D0FF
:103EA00022F02001082943D00F2A36D1590605D522
:103EB00003F0BF042B6B477BEB6401E0A34237D1D7
:103EC000437BBB4234D1428B92BB0378D8F80C6061
:103ED000DFF880E023F040030D21013B4B4301213B
:103EE0001EF801CB30F80CC031B1162B20D826F8C3
:103EF00013C06146013301E0CC4519D101320D2ACE
:103F0000EED10278520605D521B1162B10D8002229
:103F100026F81320013CE4B20BE02CB908F096FA25
:103F2000B84201D1002612E04FF0FF33EB640EE0FF
:103F3000FF240021284609F09BF90646002885D079
:103F400003E0002EEED000E004260023AB633046F1
:103F5000BDE8F883580C01081FB5104B104A0293B6
:103F600003A80192039308F03FFA002811DB0D4BE0
:103F700053F820200AB100211170019A0AB10021E2
:103F8000117043F8202001A9002202A808F048FB84
:103F900000E00B2005B05DF804FB00BF461B0108E4
:103FA00078700020A403002013B5244B009304462E
:103FB000002201A9684608F033FB002835D1019B97
:103FC00023600099204609F0CBFB002830D194F9FA
:103FD0004B30002B1FDBA379DB0601D4052024E046
:103FE000019A117804290ED1A36823622369E1792B
:103FF000106923F0FF030B436362E36CA362214665
:1040000008F0ACF907E0E26B0329538B04BF928AF6
:1040100043EA0243A360019BDB88A3800021204682
:1040200008F0F4FE0428D9D028B10023236002E070
:104030000428D3D0F9E702B010BD00BF461B010829
:104040000C494A8BAAB140F2911303FB002310B430
:1040500040F68844002201EBC30304FB001080ED0E
:10406000340AC0F8D42008309842F8D15DF8044BE7
:1040700070477047CC060020F0EEC06AFCEEE67A8E
:104080009FED457AF8EE677A70B476EEE77A67EEE0
:10409000877ABCEEE77A17EE103A9BB207EE103A39
:1040A00003F1800292B2B8EEC77A12F4807FC2F3B5
:1040B000080437EEC77AC3F30805384A5CD102EB2F
:1040C000840696ED005AD6ED014ADB0544D402EB96
:1040D000850393ED006AD3ED017ADFED315A74EE7A
:1040E000C56A36EE274A76EEA63A76EE677AE4EEB1
:1040F000253A70BC75EE244A37EEA74AE6EE256AEB
:10410000A4EEA54AE5EE257AF0EE444A77EEA47ACD
:1041100076EEA36AB1EE474AE4EE247AE4EE236A2F
:1041200067EE877A66EE876AE5EE657AE6EE656A9F
:10413000F0EE454A67EE877AE7EE264AB5EEC00A0A
:10414000F1EE10FA54BF76EE677A77EEC67AC1EDDB
:10415000004AC0ED007A7047A5F58073FF3D02EB81
:10416000830302EB850293ED006AD2ED007AB1EE93
:10417000466AF1EE677AB0E7A4F58076FF3C02EB81
:10418000860602EB840496ED005AD4ED004AB1EEA7
:10419000455AF1EE644A98E700000044402B0108BC
:1041A000DB0F493C4368F0B401248C4023EA04034C
:1041B00043604C0003238568A340DB431D408560BA
:1041C000C668C2F341151E40A54001F007073543FC
:1041D00002F00306BF00A6400F24C2F3C312BC4086
:1041E000022EC56002FA07F24FEAE1016FEA040409
:1041F0000BD005682B40334300EB810103600B6A51
:104200001C4014430C62F0BC704700EB81010D6A46
:104210002C4014430C620268134043F00203036015
:10422000F0BC704770B50F4D002228460121FFF702
:10423000B9FF4FF09046402207214FF09040FFF722
:10424000B1FF01244023AC6122462846B36100211E
:10425000FFF7A8FF224630460621BDE87040FFF771
:10426000A1BF00BF00040048F7B5FDF7E5FA01AAB9
:104270004FF480713148324EFCF7A4FFBDF8043092
:10428000B3F5FA6F4AD92F4C4FF48033A36140F64F
:10429000030207214FF09040FFF784FF01AA4FF47B
:1042A00080712648FCF78EFF4FF090450223BDF841
:1042B0000470A36101224FF40003AB611146204654
:1042C000FFF770FF012207212846FFF76BFF00224E
:1042D00011462046FFF766FF40F6030206212846F6
:1042E000FFF760FF01AAC0211448FCF76BFFBDF87F
:1042F0000440FFF797FF01AA4FF480710F48FCF7C5
:1043000061FFBDF80430B3F5FA6F03D90E4B1C8082
:104310000E4B1F8000233370012003E03078431ED2
:10432000584258410A4B1A78824204D0002818702B
:104330000CBF0320022003B0F0BD00BF00010050FD
:10434000B4720020000400489A4600209C460020D9
:104350009846002008B5FFF787FF0328FBD108BD6A
:10436000114B124A014410B48842114C5C605A60EF
:1043700016D2DA68012AFCD01A6942F002021A61E8
:1043800058611A6942F040021A61DA68012AFCD0C9
:104390001A6900F5006022F0020281421A61E8D831
:1043A0005DF8044B704700BF00200240AB89EFCDA1
:1043B0002301674570B50C46164611460546FFF7C2
:1043C000CFFF21460C4B740801EB4404DA68012A44
:1043D000FCD01A6931F8020B42F001021A61288000
:1043E000DA68012AFCD01A69A14222F0010205F123
:1043F00002051A61EAD170BD002002400C4AD36860
:10440000DB0313D49FED0B7ADFED0B7AE0EE077A36
:10441000FDEEE77A17EE903AB3F5806F06D8C3F554
:10442000FF73013348F2FF110B40D363704700BFA5
:1044300000280040BD37863F00C0FF4310B50C4C3C
:10444000236A03F00303032B11D0236A43F01903FB
:10445000236244F620600BF091FD236A9A0706D48C
:10446000636A43F001036362636A9B07FCD510BD76
:1044700000100240074A0848D36843F08003D36025
:1044800001E0013804D0D3685B06FAD501207047FB
:10449000704700BF00280040FFFF030010B504462E
:1044A000FFF7E8FF10B1044B19605C60024AD36863
:1044B00023F08003D36010BD00280040002940F0A5
:1044C0008280414AF3B41368404C03F07F3323F0F9
:1044D000FE43009352683E4B13400193234614F869
:1044E000012BD2B10131303A062904F8012CF6D162
:1044F0001A785D7899785C7945EA0215DA7842EAAB
:104500000112197944EA0114EDB2D2B2E4B21828CA
:104510001D705A709C703BD104E05A540131062939
:10452000FBD1E5E712B901225A7003E0122A84BFD9
:1045300012225A705E7814B901229A7020E071003C
:10454000244A4FF03B0CC1F12007B1F1200022FAC0
:1045500001F20CFA07F758BF4CFA00F042EA0702E2
:1045600058BF024302F003021C320A21B2FBF1F0F1
:1045700001FB102242EA0012D2B2A24238BF9A7066
:104580009B788DF806508DF805608DF8043014E0A6
:10459000232D84BF23211970592A84BF59225A70B0
:1045A000592C84BF59229A701A788DF802205A78B3
:1045B0009B788DF801208DF80030DDE9001002B005
:1045C000F0BCFFF76BBF7047002800407446002026
:1045D0003F1FFF00CCEE0B0030B4124DAB691C0442
:1045E000FCD4130443EA400328680E4C43F00073E4
:1045F00043F4005340F0010028600A446B60A36953
:1046000013F0110FFBD0A369DB0607D411F8013BAF
:10461000A3629142F3D1012030BC7047002020609A
:1046200030BC704700540040F0B5C901D40185B0DA
:10463000A1F500712AD0B4FBF3F21E0B03FB124468
:10464000C4F3034506F0F006C4F3072CC3F3072EAA
:1046500011442E43E4B2DBB2C1F301474DBA8DF8E9
:104660000400092201A960208DF805E08DF80630CC
:104670008DF80A608DF80BC08DF80C408DF807702E
:10468000ADF80850FFF7A8FF05B0F0BDA4462646D8
:10469000A6460123E0E700BFF0B50E4C83B0646E80
:1046A0000899164604FB01F4054622463046194691
:1046B0000023FCF72BF96946064601A801920094F5
:1046C000FDF714FF3146E8B2DDE90032FFF7ACFF39
:1046D00003B0F0BD040300202DE9F04784B00429A5
:1046E000074614460C989DF834605DD0C901D4018A
:1046F000A1F500713BD1C1F30142C1F307285FFA74
:1047000081FC2546A146A6460123A2462C498DF8E8
:1047100005A0024311F807A08DF8072001A909227E
:1047200060208DF806308DF808808DF809C08DF86E
:104730000AE08DF80B908DF80C508DF804A0FFF76F
:104740004BFF74B346F00C061E4DEB5DB3420BD02D
:1047500007F110030222694660208DF801608DF890
:104760000030FFF739FFEE5504B0BDE8F087B4FB29
:10477000F3FC4FEA133E03FB1C456144C5F30342BF
:104780000EF0F00E4EEA020EC5F30729C3F3072A16
:10479000C1F30142C1F307285FFA81FCEDB2DBB23D
:1047A000B4E746F04C06CFE7002540F00C00A946E0
:1047B000AE46AC46A8462A46AA460123A6E700BF55
:1047C00090260108C00600202DE9F04C85B09246E5
:1047D0000C9C9DF838700546224650461946002329
:1047E000FCF794F802A9064603A803920294FDF789
:1047F0007DFE0D9B3146CDE900372846DDE90232CA
:10480000FFF76AFF05B0BDE8F08C00BF4FF08043B2
:104810001C4A596A13681C48CB1A834209D81B4B9F
:10482000B3F90000632827DD194B1B8B184400B235
:10483000704710B5174B116082B001AA16491C8849
:104840004FF0A040FCF7BEFCBDF804100F4BBDF8C4
:10485000062041F6C81000FB01F0000B04FB00F03D
:10486000B0FBF2F000B26328188008DD084B1B8B08
:10487000184400B202B010BD4FF0FF3070474FF047
:10488000FF30F7E7940300201FA107000E920020DD
:1048900004030020BAF7FF1F412401004FF6FF7206
:1048A00038B50A4D90422A800ED00446FCF712FD1E
:1048B00040B1014643F67C7205482C800CF092F919
:1048C000002038BD012038BD002038BD9E460020A4
:1048D000CC06002006281FD8114938B5114B124CC0
:1048E0000B600A46002501E052F8043FA24203EBA8
:1048F000F575F9D1044643F67873800300F1006042
:10490000CD5000F50E3043F67C720549FFF752FD9D
:10491000064B00201C8038BD4FF0FF30704700BFB1
:10492000CC060020544E4F43404600209E460020B7
:104930000B4B0C4A10B519461A6003F16C000024A9
:1049400001E051F8042F814202EBF474F9D1742292
:10495000034905481C67FFF72DFD002010BD00BF6F
:1049600004030020564E4F4300F8030870B54FF083
:1049700080440646656AFCF707FD03E0636A5B1B3B
:10498000B34204D2FCF728FDFF28F7D170BD002008
:1049900070BD00BF30B5020683B004460D462DD46D
:1049A0004CF25030FFF7E2FFFF2833D104F07F03D1
:1049B000280E290C2A0A402C8DF804508DF800305E
:1049C0008DF801008DF802108DF8032025D0482CB9
:1049D0002ED00123062168468DF80530FCF70AFD2C
:1049E0004C2C22D0FCF7D0FC642401E0013C03D025
:1049F000FCF7F2FC0306F9D403B030BD00217720A8
:104A0000FFF7C8FF0128F7D84CF25030FFF7AEFF90
:104A1000FF28CBD0FF2003B030BD95230621684688
:104A20008DF80530FCF7E6FCDCE7FCF7D5FCD9E7B0
:104A30008723062168468DF80530FCF7DBFCD1E7BB
:104A400010B5074CA3681B06FCD4064B4FF400625C
:104A50009A61FCF7C1FC236823F03803236010BD82
:104A60000030014000040048074A93681B06FCD44C
:104A7000064940238B61136823F0380303434FF04A
:104A800000601360886170470030014000040048F6
:104A9000F8B5002835D11C46224B1E78370630D594
:104AA00075062BD417460D46FFF7DEFF330758BFB8
:104AB0007F02012C394627D05920FFF76BFF80B1C8
:104AC000003418BF0124FFF7BBFF2046F8BD46F2B3
:104AD000A810FFF74BFFFF2809D1013C0AD005F5CC
:104AE0000075FC212846FCF7A9FC0028EFD1003412
:104AF00018BF0124FD20FCF795FCE4E702242046C2
:104B0000F8BD03242046F8BD5820FFF743FF0028D6
:104B1000D9D12846FE21FCF791FC80F00104E4B2D3
:104B2000D1E700BFA003002070B598B001A95A4892
:104B300007F02CFC002840F0AD80584991F8A43BC8
:104B400013F0400F0C4600F09E801B0611D5019813
:104B5000D1F8B82B4078012301F6C431FFF798FF54
:104B600008B1012096E094F8A43B03F07F0384F899
:104B7000A43BFCF709FB054601980378042B5AD1A6
:104B8000454807F0C9FF002840F084804FF0FF320D
:104B9000D4F8B41B404807F0A7FF00287AD1D4F816
:104BA000743B0293D4F8943B0493D4F8983B8DF86B
:104BB0000F3023F0FF03CDE906300990D4F89C1B99
:104BC000159102A808F022F9002863D102A809F083
:104BD00005F800285ED1019A11690B7943F0200392
:104BE0000B7194F87B3B116943F0010381F821308C
:104BF0001369D4F87C1B5963D4F8846BD4F8881BF0
:104C0000C3E90E61D4F8846BD4F8881B5875C3E9E6
:104C10000A61DD601369186102A808F0AFFF00287F
:104C200038D1019807F02EFC94F8A43B23F0400300
:104C300084F8A43B26E0D4F8BC1B07F075FC48BB05
:104C4000D4F8C03B0198DA7A42F02002DA72D4F844
:104C50007C2BD4F8741B5A830978032904BF120CE7
:104C60009A82D4F8842BDA610022C3F816505A8253
:104C70000123C37007F006FC94F8A43B23F0400323
:104C800084F8A43B30B902A9034807F07FFB08B9B8
:104C9000C4F8740B18B070BD286E0020B4620020F8
:104CA000002846D170B53C4B3C4E4022307082B05B
:104CB0009A610A24FCF790FB013CFBD13820FFF7F6
:104CC000D3FE21464020FFF765FE012804D0FFF700
:104CD000B7FE012002B070BD4FF4D5714820FFF738
:104CE00059FE0128054626D02146E920FFF752FE4D
:104CF000012894BFE9254125642405E0013C4FF4D7
:104D00007A7040D00BF03AF900212846FFF742FEB6
:104D10000028F3D14FF400715020FFF73BFE90BB09
:104D2000E92D0CBF82248124FFF78AFE3470002015
:104D3000D0E70120704704216846FCF737FB184B89
:104D4000009A9A42C3D1642405E0013C4FF47A7082
:104D500019D00BF013F94FF08041E920FFF71AFE4C
:104D60000028F2D101467A20FFF714FE58B9042139
:104D70000DEB0100FCF71AFB019B13F0400F14BF71
:104D80008C248424D0E7FFF75BFE3078B0FA80F003
:104D9000400902B070BD00BF00040048A00300201D
:104DA000000001AA70B40C4CA3681D06FCD40B4B88
:104DB0000B4D094C4FF480069E614FF400069E6136
:104DC0002870A3681B06FCD4044B80249C61104609
:104DD00070BCFCF70FBB00BF00300140000400486E
:104DE0000C30014038B5124DFCF7C6FA2B6843F081
:104DF000380302462B6001213620FFF7D3FFFCF772
:104E0000C3FAFCF7E9FA0402FCF7E6FA0443FCF7FC
:104E1000E3FA24020443FCF7DFFA064B40229A61CE
:104E20002B68240223F0380320432B6038BD00BFD9
:104E3000003001400004004805494B68002BFCD1BC
:104E4000044A0B605368002BFCD11360704700BF0D
:104E5000300002401C000240F0B54FF0804483B0A7
:104E60000746666A42F20F75FCF78EFA03E0636A42
:104E70009B1BAB421CD8FCF7AFFAFE28F7D10E4AB9
:104E80000E4B0F4CD7604FF4007141F2110041F20C
:104E9000810551601560DC6059601860FFF7CCFF38
:104EA0000DF106000221FCF781FA012003B0F0BDEC
:104EB000002003B0F0BD00BF1C00024030000240E3
:104EC000D0110108F8B5C8B91C461C4B1E78350630
:104ED00014D517460D46FFF7C7FD330758BF7F02AD
:104EE000012C39461ED05220FFF754FD68B1003422
:104EF00018BF0124FFF7A4FD2046F8BD0324204677
:104F0000F8BD013C09D005F500752846FFF7A4FF60
:104F10000028F6D1003418BF012400214C20FFF7EF
:104F200039FDE7E75120FFF735FD0028E2D128469B
:104F3000FFF792FF80F00104E4B2DBE7A00300205A
:104F40002DE9F04FB3B00A4601900E4601A803A91F
:104F500007F066FB0746002840F08A82039B019910
:104F6000069306A808F0FCFB20B99DF96330002BDE
:104F7000B8BF062016F01C0F00F02082002800F0B9
:104F8000A781042840F074829DF8634014F0A004C7
:104F900040F09C81069DEB6833F814200AB101347F
:104FA000FAE72B78042B40F099800E340F2306A8E3
:104FB000B4FBF3F4A11C08F07BFE002840F05882FB
:104FC000129B04F100640134A3EB44149DF81F30DC
:104FD00019945A0749D523F0040306A88DF81F3009
:104FE00007F09AFD002840F043824FF0FF321399FA
:104FF00006A807F079FD002840F03A82089B002BB4
:1050000033D0069B1C930E9B1E930F9B8DF877301D
:1050100023F0FF03CDE92030239010992F911CA895
:1050200007F0F4FE002840F023821CA808F0D6FD0B
:10503000002840F01D82DDE90A2368894FF40071E1
:10504000E1FB00232969CDE90A23C1E90E23C1E967
:105050000A239DF81F3043F0010381F821301CA87A
:1050600008F08CFD002840F00382D5E903040022FB
:1050700004F14001234603F8012B9942FBD185231B
:1050800000212370C02384F8203001250A464023E4
:105090004FF0C109884603F1010E04F8039004F8AB
:1050A0000E805FFA81FC023325B130F812500DB149
:1050B0000132D2B2E552023313F01F0FF4D130F8AF
:1050C00012E00131BEF1000FE5D10CF1020384F8CA
:1050D0002320637007F0A0F9A08403E10C2216A935
:1050E0001CA807F049F99DF87B30DB076DD54023FC
:1050F000DFF8A8838DF863304FF001090B221CA95B
:1051000016A8D5F80CA007F037F9B9F1050F14D996
:10511000AAF102024B4632F8021F79B1102001F0C9
:10512000010C0CEB430313F4803F18BF83EA080320
:1051300001384FEA5101F2D1EDE74B460DF117006E
:10514000072203F00F0C0CF13001392988BF0CF154
:105150003701013A4FEA131E00F8011903D00F2B53
:1051600001D97346EDE732AB13447E2103F8B81C36
:1051700016A900239A420FD011F8010B202803F141
:10518000010C09D06346F5E72021013306A8184435
:10519000072B80F83F1007D8072AF5D832A9114409
:1051A000013211F8B81CF0E706A808F0F5F928B9A3
:1051B00009F10109B9F1640FA0D158E1042840F0C8
:1051C0008E809DF87B308DF863309DF87B309B0797
:1051D00005D50C340D23B4FBF3F4013400E00124B5
:1051E000214606A808F064FD002840F04181013CFA
:1051F0000AD11499284607F097F9002840F0388121
:10520000159B03F120024FE0129906A8A1EB44116F
:1052100007F0FCFD002840F02B8116A807F016F9D6
:105220004FF6FF7980461499284607F07DF903462A
:10523000002840F01D81159AD5F80CE0DFF860A237
:1052400010734FF00F015FFA84FCD17250830CF1A0
:10525000FF310D20414382F80D801846484518BFA4
:105260003EF811001AF801BB03F1010318BF013128
:1052700022F80B00002808BF48460D2BEED1484508
:1052800002D03EF811300BB94CF0400C012382F8EB
:1052900000C00021EB7006A807F0EAFF002840F0EC
:1052A000E780013CBFD1A4E703F8010B9A42FBD190
:1052B0000B2216A9159807F05FF89DF86330159A30
:1052C00003F0180313730123EB700BE00620CFE00B
:1052D0009DF81E3013F0110F40F0C980CEE0002879
:1052E00040F0C68046F00806039B1A78042A3AD19B
:1052F000664C1869C4F8743B04F6743107F02EF854
:10530000039B1B6900219A1C203302F8011B934266
:10531000FBD1039B1B69002103F12602403302F8F5
:10532000011B9342FBD1039B1A69202111711D6956
:10533000FBF72AFF039BA8601B69012283F8212049
:1053400006A808F01BFC002840F09280D4F87C1BD3
:10535000002940D04E48FEF723FDD4F87C3B039A49
:10536000013B536135E0FBF70FFF159B039AC3F830
:105370000E00C3F8160011785C8B032904BF998ACC
:1053800044EA01442021D972159900234B831078F7
:10539000CB61032808BF8B820123D370DCB1214687
:1053A00006A8956BFEF7FCFC002861D129460398FE
:1053B00007F0BAF8039B013C5C610AE0002857D172
:1053C0009DF81E30DC0650D4B00704D5D9074ED462
:1053D00001E000284CD13207039A2C4C936BC4F89F
:1053E000BC3B159BC4F8C03B117848BF46F0400653
:1053F000042913D1089BC4F8943B0A9B9DF81F1005
:10540000106923F0FF030B43C4F8983B199BC4F8C1
:105410009C3B04F6743106F0A1FF0DE003295A8B82
:1054200004BF998A42EA0142C4F87C2BDB69C4F8C4
:10543000843B184B00225A60039B174AC4F8743B04
:10544000DB88A4F8783B0023C4F8AC3B84F8A46B59
:10545000536084F8A53BC4F8B83B18324FF4007190
:10546000013902F8013BFBD10BE0042000E00720EA
:10547000064B0022C3F8742B074602E03307AAD577
:1054800032E7384633B0BDE8F08F00BFB462002089
:10549000286E0020386E0020606E00202110010070
:1054A000580C0108F0B583B017460C461D46BDF8F0
:1054B0002060FFF7C1FC0744013F40EA074040BAC3
:1054C0002544691E44EA0144019064BA04210DEBAD
:1054D00001022A200094FFF765FC6A4604212B2074
:1054E000FFF760FC0022F0B21146FFF75BFC03B04F
:1054F000F0BD00BF70B582B0184D0C462E2301469A
:105500000093164623464FF4F0720020FFF7CAFFBF
:10551000FBF73AFF2B6823F0380343F008032B60B6
:10552000FBF75AFFC4EB04140D4A0E4BD660A401DE
:105530000D48A4B241F2110141F281065460166097
:10554000D8605C601960FFF777FC2B68074A23F08E
:10555000380340212B60916102B070BD00300140E2
:105560001C00024030000240D01101080004004835
:105570002DE9F04F824287B006469146CDE90313EC
:1055800006DA18460A46334603904E460492994678
:10559000049B0399DFF880B01E4CDFF880A05F1AEF
:1055A000A6EB09084ABFCF1A01234FF0FF3317EBD0
:1055B000080F4CBF08EBD87507EBD7756D10059336
:1055C0006D422C230093C6F5F072012303993046F7
:1055D000FFF768FFA3689B07FCD5BBF80030AAF86B
:1055E0000030B14508D04545C6BF0136EB1B2B4600
:1055F000AF4208DC1D46EDE7DDE903329342F2D10C
:1056000007B0BDE8F08FA3EB0805059A039B134490
:105610000393D6E700300140664600200C3001407D
:105620002DE9F04186B02C24009415461C46804696
:105630000F460C9EFFF736FF134B144ADE6004FB47
:1056400005F041F291515860196013785B0602D45D
:1056500006B0BDE8F0810E4BADF80E8093E8030074
:1056600015FB04F252000290ADF80C1092B23146D4
:1056700002A8ADF81070ADF81250ADF8144005F066
:105680005DFD06B0BDE8F0813000024091030020CE
:10569000000C010810B582B0054C0094FFF7C0FF64
:1056A000044A5368002BFCD1136002B010BD00BF48
:1056B000B46200203000024016382DE9F04F00EBB4
:1056C000800400EB4400304D304F2C5C304EB7F876
:1056D0000080B6F800E02F4E04F0070489B0C4F152
:1056E0000804A7B213FB03F4029607FB04F41EB2EE
:1056F0004FEA460CCDE9051262002844039207FBED
:105700000CF20092421E019200F10A0207960492E6
:10571000019ADDF808A012F801BF01924FF00009CC
:105720005C465646002514F0800F14BF7046404674
:105730003146002201329A4221F8020BFAD101359A
:105740006400BD42E4B26644EDD109F1010900995B
:1057500091458A44E4D1DDE902210A440292049988
:10576000019A8A42D4D1079C09FB05F504EB840316
:10577000DDE905012A4604EB4303FFF78BFF2846CA
:1057800009B0BDE8F08F00BFE440010868060020C2
:1057900066460020B4620020F8B50C46017869B175
:1057A000054617461E460846334621463A46FFF749
:1057B00083FF15F8011F04440029F4D1F8BD00BF90
:1057C0002DE9F04F174D184CB5F80080DDF824C0D6
:1057D000DFF858A0B4F800E04FF000094FEA420BA0
:1057E0004C4657460025664615F0070F08BF16F8C9
:1057F000014B05F1010508BFB44614F0800F14BF3A
:10580000764646466400AA42E4B227F8026BEAD123
:1058100009F101099945DA44E3D14B46BDE8F04F5F
:10582000FFF738BF6806002066460020B4620020FB
:1058300083892BBB082902D881810020704770B56D
:105840000A2982B0468923D0A1F1160303EB830114
:1058500003EB4103194AD55C05F00705C5F10805BE
:1058600004461344ADB2008900932A4631460B2307
:10587000FFF7A6FF238900201D44258102B070BDDB
:10588000012B0CD0022B11D0002383810020704704
:10589000838803810B364681002002B070BD084B1F
:1058A000084A03EB4101CB8B1380EDE7044B064A1A
:1058B00003EB4101CB8B1380E6E700BFE440010816
:1058C0000403002068060020664600202DE9F74FFB
:1058D0003B4C8B4601AB68222146814607F0CAF952
:1058E000002869D1228844F649139A4264D1638A18
:1058F000B3F5F07F60D1E38BB3F5A07F5CD1E28E8E
:1059000048F205039A4257D10546002601AB022210
:105910006946484607F0AEF99DF900709DF8011000
:10592000A155002F82463A4606F1010804EB060312
:1059300009DD01AB04EB0801484607F09BF907EBD2
:105940000806824607E00132012A02D003F8011F4F
:10595000F9E7A8EB0706B6F5B46FD7DB184E0022BF
:10596000304681784778174B490103EAC72301F491
:10597000F851194310F8033B23F0070343EA571388
:1059800001320B43B2F5F07F26F8023BE9D12946FC
:10599000012300200135FFF77DFEB5F5A07F02D081
:1059A000BAF1000FB1D00BF11A0240F21F11002022
:1059B000FCF77AFE002000E0034803B0BDE8F08F5A
:1059C000B462002000E0FFFFDA1501082DE9F34181
:1059D0001F4C0E4601AB7A222146074607F04AF9D2
:1059E00090BB638AB3F5F07F2ED1E38AB3F5A07F35
:1059F0002AD1A38B102B27D140F23F1501AB4FF4D6
:105A000070722146384607F035F9114B80464FF445
:105A1000F0701A88013852BA23F8022BF9D12946BE
:105A200001234FF4F072FFF735FE15F1FF3502D375
:105A3000B8F1000FE2D006F11A0240F21F11002067
:105A4000FCF732FE002000E0024802B0BDE8F08121
:105A5000B4620020DA1501082DE9F04186B02C244B
:105A6000009415461C4688460746FFF71BFD194A59
:105A7000194BD36004FB05F179B14FF6FF7E41F27B
:105A800011567145084628BF70465060166053682D
:105A9000002BFCD1091A1360F3D1104B1B785B0665
:105AA00002D406B0BDE8F0810D4BADF80E7093E85E
:105AB000030002220290ADF80C1002A80649ADF8CE
:105AC0001080ADF81250ADF8144005F037FB06B069
:105AD000BDE8F081300002406806002091030020FC
