:020000040800F2
:1000000000010020C1000008B91C00088D6B000829
:10001000ED170008ED170008ED170008ED170008B0
:10002000ED170008ED170008ED170008ED170008A0
:10003000ED170008ED170008ED170008ED17000890
:10004000ED170008ED170008ED170008ED17000880
:10005000ED17000871E7000891E70008ED170008A8
:10006000ED170008ED170008ED17000851E700082C
:10007000CDE20008ED170008ED1700088D2B0008F1
:10008000ED170008ED170008ED170008ED17000840
:10009000ED170008ED170008ED170008ED17000830
:1000A000ED170008ED170008ED170008052C0008F3
:1000B000ED170008ED170008ED170008E52F000800
:1000C00072B6224880F30988022080F31488BFF3B7
:1000D0006F8F01F055FB03F0EDF81D481D491E4AD6
:1000E000914202DA08600431FAE71C49174A91424A
:1000F00002DA08600431FAE719491A4A1A4B9A429F
:1001000004DA0868106004310432F8E70020174967
:10011000174A914202DA08600431FAE701F036FB2F
:1001200001F030FB134C144DAC4203DA21688847D0
:100130000434F9E706F088FB104C114DAC4203DAA9
:10014000216888470434F9E70E4908470003002076
:1001500055555555000000200001002000010020E9
:100160009C35010800030020F8030020F80300205C
:10017000F83E0020C0000008C0000008C0000008D1
:10018000C000000889170008F0B544464D465646A1
:100190005F46F0B46B46CB60C3689D46F0BCA0469A
:1001A000A946B246BB46F0BD62B6281CA047002057
:1001B00001F044FD01F0E2FC014A024B1360FEE74E
:1001C00004ED00E00000008002B4714649084900D7
:1001D000095C49008E4402BC7047C04600224308B7
:1001E0008B4274D303098B425FD3030A8B4244D3FF
:1001F000030B8B4228D3030C8B420DD3FF22090241
:1002000012BA030C8B4202D31212090265D0030BFF
:100210008B4219D300E0090AC30B8B4201D3CB03F5
:10022000C01A5241830B8B4201D38B03C01A524137
:10023000430B8B4201D34B03C01A5241030B8B4239
:1002400001D30B03C01A5241C30A8B4201D3CB0224
:10025000C01A5241830A8B4201D38B02C01A524109
:10026000430A8B4201D34B02C01A5241030A8B420C
:1002700001D30B02C01A5241CDD2C3098B4201D324
:10028000CB01C01A524183098B4201D38B01C01AA2
:10029000524143098B4201D34B01C01A5241030919
:1002A0008B4201D30B01C01A5241C3088B4201D3C8
:1002B000CB00C01A524183088B4201D38B00C01A75
:1002C000524143088B4201D34B00C01A5241411A9C
:1002D00000D20146524110467047FFE701B50020A9
:1002E00000F0F0F802BDC0460029F7D076E770476D
:1002F00003460B437FD4002243088B4274D3030987
:100300008B425FD3030A8B4244D3030B8B4228D327
:10031000030C8B420DD3FF22090212BA030C8B424D
:1003200002D31212090265D0030B8B4219D300E0ED
:10033000090AC30B8B4201D3CB03C01A5241830B72
:100340008B4201D38B03C01A5241430B8B4201D322
:100350004B03C01A5241030B8B4201D30B03C01A4B
:100360005241C30A8B4201D3CB02C01A5241830AC5
:100370008B4201D38B02C01A5241430A8B4201D3F4
:100380004B02C01A5241030A8B4201D30B02C01A1E
:100390005241CDD2C3098B4201D3CB01C01A524185
:1003A00083098B4201D38B01C01A524143098B420E
:1003B00001D34B01C01A524103098B4201D30B01F7
:1003C000C01A5241C3088B4201D3CB00C01A52411C
:1003D00083088B4201D38B00C01A524143088B42E1
:1003E00001D34B00C01A5241411A00D2014652417A
:1003F000104670475DE0CA0F00D04942031000D399
:100400004042534000229C4603098B422DD3030AED
:100410008B4212D3FC22890112BA030A8B420CD3FD
:10042000890192118B4208D3890192118B4204D326
:1004300089013AD0921100E08909C3098B4201D3A6
:10044000CB01C01A524183098B4201D38B01C01AE0
:10045000524143098B4201D34B01C01A5241030957
:100460008B4201D30B01C01A5241C3088B4201D306
:10047000CB00C01A524183088B4201D38B00C01AB3
:100480005241D9D243088B4201D34B00C01A52418A
:10049000411A00D20146634652415B10104601D317
:1004A0004042002B00D54942704763465B1000D3A1
:1004B000404201B5002000F005F802BD0029F8D047
:1004C00016E770477047C046D0400B1C1141203AD8
:1004D00003D49C4613411843634652429340184349
:1004E0007047C0468446081C6146FFE71FB500F010
:1004F00071FC002801D40021C8421FBD10B500F0D6
:10050000F3FB4042013010BD10B500F063FC002841
:1005100001DB002010BD012010BDC04610B500F069
:1005200059FC002801DD002010BD012010BDC0468F
:1005300010B500F001FC002801DC002010BD0120F6
:1005400010BDC04610B500F0F7FB002801DA00200E
:1005500010BD012010BDC046002B11D1002A0FD1C3
:10056000002900D1002802D00021C943081C07B48B
:10057000024802A14018029003BDC04649FFFFFF98
:1005800003B4684601B5029800F048F8019B9E4606
:1005900002B00CBC7047C046F0B5CE4647461504C5
:1005A0002D0C2E0080B50704140C3F0C9946030C4B
:1005B0007E435D43674363437F19340CE4199C46D3
:1005C000A54203D980235B029846C4444B4643436B
:1005D0005143250C36046544360C2404A4195B19D8
:1005E000591820000CBC90469946F0BD9E2110B5CC
:1005F000C905041CFFF7A6FF002803D1201C00F04A
:1006000009FF10BD9E21201CC90500F047FD00F028
:1006100001FF80231B069C466044F2E7F0B5574675
:100620004E464546DE46E0B5040083B00D009246D6
:1006300099468B4230D82DD04946504601F08CF86F
:1006400029000600200001F087F8331A9846203B65
:100650009B4633D45A465346934042461F00534666
:1006600093401E00AF423AD8AF4200D17BE05B46D8
:10067000A41BBD41002B00DA78E000220023009289
:10068000019301235A46934001930123424693402C
:10069000009328E08242CFD90022002300920193E8
:1006A0000C9B002B01D01C605D600098019903B089
:1006B0003CBC90469946A246AB46F0BD424620233C
:1006C0009B1A5246DA40414613004A468A401700B8
:1006D00042461F43534693401E00AF42C4D90022F6
:1006E0000023009201934346002BD9D0FB079C4680
:1006F000614672080A437B0846460EE0AB4201D1D0
:10070000A2420CD8A41A9D41012024196D41002158
:10071000013E24184D41002E06D0AB42EED9013ED9
:1007200024196D41002EF8D1009801995B460019FB
:100730006941002B25DB2B005A464446D3402A0052
:10074000E2401C005B461500002B2BDB26005F46B9
:10075000BE40330026004746BE403200801A994111
:10076000009001919CE7A342B9D880E7424620233C
:1007700000219B1A0022009101920122DA4001928D
:1007800083E7424620239B1A2A0046469A402300CC
:10079000F340444613432A00E2401C005B46150028
:1007A000002BD3DA2023424626009B1ADE402F007E
:1007B000B4464646B74066463B003343CAE7C046A8
:1007C000F8B54C02640A4746A0464C00C90FCE4615
:1007D00089464146430246005B0A360E240E80B528
:1007E000C50F9C463200D800C900371B4D4560D06C
:1007F000002F48DD002C00D17CE0FF2E00D183E0EB
:100800008023DB04194301231B2F07DC0B0020226C
:10081000FB40D71BB9404A1E91410B43C31A5A01F2
:1008200000D4A8E09B019C09200000F077FF053868
:100830008440864200DDADE0861B22002020013688
:10084000F240861BB44023005C1EA34100261343E4
:100850005A0704D00F221A40042A00D004335A0148
:1008600000D48BE00136F2B2FF2E00D18FE09B0165
:100870005B0A5B02D205580AED07104328430CBC03
:1008800090469946F8BD002F49D1FE24771C3C4282
:1008900000D086E0002E00D0DEE0002800D1D1E0BC
:1008A0000029E6D0431A5C0100D4F1E00B1A4D4652
:1008B000CEE7002F4ADD002C3FD0FF2E24D080232E
:1008C000DB04194301231B2F07DC0B002022FB4014
:1008D000D71BB9404A1E91410B431B185A014AD5F8
:1008E0000136FF2E53D0012271491A405B080B409C
:1008F0001343ADE7002943D0013F431A002F00D135
:100900008DE7FF2E00D07EE76346002B3FD080238B
:100910006246DB0313435B025B0AFF22A9E7A21BCB
:10092000002E60D1002878D0013A002A00D1B5E02D
:10093000FF2C5DD14D46C446E6E7002920D0013F9B
:100940004318002FCAD0FF2EBCD1DDE7002F32D1D3
:10095000FE24013634427AD1002A62D1002800D127
:10096000A0E0002900D184E7431800265A0102D5EF
:10097000504A013613405A0700D06BE7DB089C460B
:10098000FF2EC1D063465B025B0AF2B271E7FF2221
:1009900000236EE7474B361A23405A0700D059E729
:1009A000ECE7441A630161D4002C00D03CE7002539
:1009B000002200235DE7A21B002E28D100282DD0A5
:1009C000013A002A70D0FF2CB5D001231B2A07DC86
:1009D00003002026D340B21A9040421E90410343A8
:1009E0005B1826007AE7FF2CA4D08023DB04184391
:1009F00001231B2A07DC03002025D340AA1A9040BC
:100A0000421E90410343CB1A4D46260007E7FF2CB8
:100A100091D08023DB041843D7E74D46C446260017
:100A2000AEE7002887D0002900D16DE78023624619
:100A3000DB031A4200D167E742461A4200D063E75F
:100A4000C44661E7002926D04D46434611E7FF2EF4
:100A50009DD043185B088EE700280AD1002900D0FA
:100A600068E780230025DB03FF2202E70C1A4D46CE
:100A7000DAE6002900D147E780236246DB031A4209
:100A800000D141E742461A4200D03DE74D4652E7C9
:100A9000002B00D06FE700250023EAE60B1A4D4635
:100AA0002600BCE64346E4E64318260016E7C046A7
:100AB000FFFFFF7DFFFFFFFBF0B54F464646D646E2
:100AC00044024500C0B5640A0F1C2D0EC60F002D50
:100AD0004FD0FF2D55D08023E400DB041C430023BE
:100AE00099469A467F3D7B0278005B0A9846000E45
:100AF000FF0F002831D0FF2810D08022DB00D20465
:100B00001A43904600217F382D1A4B4632000B4382
:100B100071489B00C3587A40D2B29F46FF3D002BDC
:100B200054D102234946194332000B007A40033B5B
:100B3000D2B20C2B04D869499B00CB589F463A008F
:100B4000002000246402C305600AD2071843104342
:100B50001CBC90469946A246F0BD002B2BD1012328
:100B60004946320019438B005D497A40CB58D2B2D6
:100B70009F46002C13D104239946033B00259A4637
:100B8000B1E7002C05D108239946063BFF259A467C
:100B9000A9E70C239946093BFF259A46A3E72000C5
:100BA00000F0BCFD7625431F9C4000236D422D1AAA
:100BB00099469A4697E7180000F0B0FD4246431F59
:100BC0009A402D189046763500219EE703219CE738
:100BD00017003A00FF200024B4E780240022E40339
:100BE000FF20AFE732005346022BF1D0032B6CD02D
:100BF000012BA5D028007F30002846DD630704D0F4
:100C00000F232340042B00D00434230103D52800F4
:100C1000344B80301C40FE28DCDCA401640AC0B2E6
:100C200090E78023DB031C4227D042461A4224D19E
:100C300044461C436402640A3A00FF2082E73A00FB
:100C400044468A46CFE7414663014C01A34235D270
:100C50001B200021013D01271E0049005B00002EE2
:100C600001DB9C4201D81B1B394301380028F3D11A
:100C70001C00631E9C410C43BCE78023DB031C4328
:100C80006402640A3200FF205CE70123181A1B2863
:100C900000DD55E79E352300AC40C340611E8C410A
:100CA0001C43630704D00F232340042B00D00434DB
:100CB000630107D4A401640A002043E71B1B1A2028
:100CC0000121C8E7012000243CE78023DB031C430B
:100CD0006402640AFF2035E770EF0008B0EF0008F7
:100CE000E4EF0008FFFFFFF770B542004E024C0032
:100CF00045026D0A120EC30F760A240EC90FFF2A91
:100D00000FD0FF2C11D00120A24200D070BDB542FF
:100D1000FCD18B420DD0002AF8D12800451EA841F5
:100D2000F4E70120002DF1D1EBE70120002EEDD1F9
:100D3000E9E70020EAE7C04670B54A004E024502E6
:100D400044006D0A240EC30F760A120EC90FFF2C41
:100D500015D0FF2A0ED0002C15D1002A01D1002E6B
:100D60001CD0002D14D08B4227D00220013B18400C
:100D7000013870BD002EEED002204042F9E7002D70
:100D8000FAD1FF2A0ED0002A0ED1002EEDD00BE0B2
:100D900001230139994308000130EAE70020002DC2
:100DA000E7D0E2E7002EE7D18B42DED1944205DDA9
:100DB0000221581E08400138DBE70024A24204DC6F
:100DC000B542D2D80020B542D3D2581E0123984351
:100DD0000130CEE730B5420044024D02C30F480057
:100DE000640A120E6D0A000EC90FFF2A17D0FF28E1
:100DF00008D0002A17D1002808D1002D06D1002CD8
:100E000023D007E0002DF4D002201EE0002C17D0E4
:100E10008B421FD00220013B1840013815E0002C06
:100E2000F2D1FF2812D0002801D1002DF2D08B4240
:100E3000F0D182420FDD0221581E0840013804E043
:100E40000123013999430800013030BD002DEED057
:100E50000220FAE70022904204DCAC42DAD80020FB
:100E6000AC42F2D2581E012398430130EDE7C04650
:100E7000F0B54F464646D64644024500C0B58846C2
:100E8000640A2D0EC70F002D49D0FF2D4FD08023AF
:100E9000E400DB041C43002399469A467F3D434609
:100EA00042465E02D20F5B00760A1B0E904646D089
:100EB000FF2B12D080220020F600D2047F3B164385
:100EC000ED186A1C434694464A467B400F2A00D9D7
:100ED00074E0704992008A589746FF35002E54D12D
:100EE0004A4602231A4391460220EAE74346340069
:100EF00082465246022A2AD0032A00D1C3E0012AA0
:100F000000D082E0002200246402D205600ADB07E0
:100F1000104318431CBC90469946A246F0BD002CD5
:100F200027D104239946033B00259A46B7E7002CB6
:100F300019D108239946063BFF259A46AFE7002EB4
:100F400008D14A4601231A4391460120B9E7FF22FE
:100F50000024D9E7300000F0E1FB431F2D1A9E402A
:100F6000763D0020ADE70C239946093BFF259A46C4
:100F700095E7200000F0D2FB7625431F9C4000231C
:100F80006D422D1A99469A4689E74A4603231A4329
:100F90009146032095E73B00ABE780240023E40360
:100FA000FF22B1E78023DB031C4245D01E4243D120
:100FB00033435C02640A4346FF22A5E7200C240465
:100FC000210C0F00320C3604360C77435143464354
:100FD000504389193A0C5218964203D9802149028C
:100FE000884640443F0411043F0CC9198C01661E19
:100FF000B441890E2143140C2418A4010C4322018E
:101000003CD50122610814400C4360467F30002823
:101010001ADD620704D00F222240042A00D00434D3
:10102000220103D560461C4A80301440FE288EDC25
:10103000A401640AC2B267E78020C00304436402CB
:10104000640A3B00FF225FE70122101A1B2800DD23
:1010500058E762469E3221009440C140621E94418E
:101060000C43620704D00F222240042A00D004342B
:10107000620105D4A401640A002245E7AC46C4E736
:101080000122002440E78022D20314436402640A50
:10109000FF2239E71CF00008FFFFFFF7F8B5430215
:1010A0005B0ADA00DE4693464A02520A45469046FB
:1010B0004E4657464446E0B54A0047003F0EE4001E
:1010C000120EA1469C463E00C50FC90FBC1AFF2A4E
:1010D00000D177E001208246504641408D4200D148
:1010E00080E0002C51DD002A00D073E04B46002B3D
:1010F00000D1DDE0013C002C0FD0FF2F00D1A5E096
:1011000001231B2C09DC20224946121B91404B462F
:101110000A00E340511E8A4113435A46D31A5A012A
:1011200000D4C0E09B019C09200000F0F7FA2300E6
:1011300005388340864200DDC4E0861B1A0020206B
:101140000136F240861BB3405C1EA34100261343C8
:101150005A0704D00F221A40042A00D004335A013F
:1011600000D4A3E00136F7B2FF2E00D1A7E09B0127
:101170005B0A5802FF05400AED07384328433CBC90
:1011800090469946A246AB46F8BD002C4FD1FE24AE
:101190007A1C144200D09CE05A46002F00D003E194
:1011A000002A00D1F4E04A46002AE2D04B465A46D3
:1011B000D31A5A0100D405E14B465A460D009B1A3A
:1011C0000026C5E74846002800D183E78D4251D06C
:1011D000002CDADDFF2F39D080234A46DB041A4386
:1011E00091468DE7002C45DD002A3AD0FF2F2DD007
:1011F00080234A46DB041A43914601231B2C09DC59
:1012000020224946121B91404B460A00E340511EE2
:101210008A4113435B445A0145D50136FF2E4ED017
:1012200001226F491A405B080B40134390E7D41B1F
:101230000D00002F72D15B46002B00D192E0013CE3
:10124000002C00D1C5E0FF2A6FD1C4466346002BB5
:1012500035D080236246DB0313435B025B0AFF2722
:1012600087E74B46002B23D0013C002C77D0FF2F83
:10127000C3D1EBE7002C38D1FE227E1C324200D0D5
:101280008CE05A46002F70D1002A00D1A6E04A46D1
:10129000002A00D16DE75B464B4400265A0102D577
:1012A000504A013613405A0700D053E7DB089C46EA
:1012B000FF2ECBD063465B025B0AF7B259E7FF27EC
:1012C000002356E7474A361A13405A0700D041E731
:1012D000ECE74B465A46D41A63016FD4002C00D079
:1012E00022E700250027002343E7D11B002F2CD045
:1012F000FF2AAAD080235846DB04184383460123E3
:101300001B2908DC5B4620245846CB40611A8840E4
:10131000411E884103434B4416007CE7FF2A94D0CA
:1013200080235946DB0419438B4601231B2C08DC20
:1013300020215B465846E3400C1BA040411E8841DB
:10134000034349461600CB1AE9E65B46002B09D059
:1013500001390029DFD0FF2AD1D1C44676E75B46A8
:101360004B4458E7C4461600A2E7002A00D16CE7B8
:101370004A46002A00D169E78022D203134200D1F5
:1013800064E74346134200D060E70D00C4465DE7C2
:101390004B46002B1AD00D004346EAE6FF2E8ED0B6
:1013A0005B464B445B087EE7002AE1D14B46002BAD
:1013B000EBD180230025DB03FF27DAE64B460D0047
:1013C0009C1AB1E60026002B00D06CE70025002314
:1013D000CFE64B46594616005B1AA0E64346C8E6E0
:1013E000FFFFFF7DFFFFFFFB42024B024000490071
:1013F000520A5B0A090E000EFF2806D00020FF29C2
:1014000002D11800431E98417047FE38002AFBD1D4
:10141000F4E7C04641024200C30F490A120E002001
:101420007E2A03D99D2A02D9094A9818704780203C
:1014300000040143952A07DC9620821AD1404842D5
:10144000002BF3D10800F1E7963A9140F7E7C04648
:10145000FFFFFF7F70B5002812D0C317C5185D408D
:10146000C40F280000F05AF99E22121A962A11DCA5
:10147000D2B2082833DD083885406802400A02E00D
:101480000024002200204002D205400AE407104355
:10149000204370BD992A0BDD052329001B1AD94072
:1014A00003001B339D402B005D1EAB4119430D0013
:1014B000052801DD431F9D402B000A490B406E07A4
:1014C00009D00F263540042D05D004335D0102D527
:1014D0009F220B40121A9B01580AD2B2D3E768022E
:1014E000400AD0E7FFFFFFFB70B5041E0DD000F0EF
:1014F00015F99E22121A962A0EDCD2B208282EDD89
:10150000083884406002400A01E0002200204002C6
:10151000D205400A104370BD992A09DD030021005D
:101520001B3399404B1E994105231B1ADC400C4389
:10153000052801DD431F9C4023000A490B40650735
:1015400009D00F252C40042C05D004335C0102D5B2
:101550009F220B40121A9B01580AD2B2D7E76002B1
:10156000400AD4E7FFFFFFFB70B541004602C40FFD
:10157000FE20090E4B1C750A184214D0E0239B0074
:101580006D07360BCB1800210A0D280012051C4DE3
:1015900032435B052A405B0813435B00E4075B08AA
:1015A0002343190070BD002914D1002D1ED028003E
:1015B00000F0B4F80A281CDC0B232A001B1ADA40BE
:1015C000030015339D400F4B12031B1A5B05160BCE
:1015D0005B0DD8E7002D06D0320B802636036D0751
:1015E0001643094BCFE7084B0026CCE70023002623
:1015F000C9E703002A000B3B9A400025E3E7C046F9
:10160000FFFF0F8089030000FF0700004A00F0B5CC
:101610000B03520D3D4D5B0A470F561CC90F1F436C
:10162000C4002E4228D03A4BD518FE2D08DDFF22EB
:1016300000204002D205400AC90710430843F0BD0C
:10164000002D2DDD80010200501E8241FB00640F41
:10165000134323435A0757D00F221A40042A00D0BD
:1016600004338022D2041A404ED00135EAB2FF2D55
:10167000DDD09B01580ADCE73C43002A06D1002C50
:101680000BD005239B01580AD2B2D2E7002CCED052
:101690008020C0033843FF22CBE700220020C8E7A8
:1016A0002B00173322DB80231E261B043B43761BB3
:1016B0001F2E1DDD02204042451B1800E84005009A
:1016C000202E04D013488446624493401C432300D8
:1016D0005C1EA3412B4300255A07BDD18020C004C6
:1016E00018400122A842C4D10200CBE70022C8E77B
:1016F0000948101822008440250083406C1EA54133
:10170000F2402B431343E6E72A00BBE7FE07000045
:1017100080FCFFFFA2FCFFFF82FCFFFF1C210123D6
:101720001B04984201D3000C10391B0A984201D3C4
:10173000000A08391B09984201D30009043902A2A2
:10174000105C40187047C046040302020101010109
:10175000000000000000000010B5002903D1FFF7D1
:10176000DDFF203002E0081CFFF7D8FF10BDC046A7
:101770000023C25C0133002AFBD1581E70470000D1
:101780007047C0467047C046FEE7C0468022944678
:10179000F0B50025104E114C1149124B1248B444BB
:1017A00099420DD91A0080C880C29142FBD80139F4
:1017B000C91A8908013189005B189C4202D920C3EB
:1017C0009C42FCD81036664504D030687368B16816
:1017D000F468E5E7F0BDC0465CF00008F83E002084
:1017E000F83E0020F83E002094360108FEE7C0468F
:1017F000FEE7C04610B500F0EFF800F069F80B4CBA
:1018000080220B49200000F0BDF90A4B283C2061E2
:1018100003610123084A0375136A08490B401362E8
:1018200062B6074800F0CAF910BDC046D0040020D7
:10183000DCF000080001002000ED00E0FFFF00FFE9
:10184000E4F0000872B6014B5862FEE7A8040020DD
:10185000F8B58026CE4647461B4DF6056C69726A80
:10186000286AA36880B5111A99421DD32F0000225F
:10187000143790460AE062B62069C84772B66C69B0
:10188000726A286AA368111A8B420DD8E268C318DD
:10189000914642462B6223685F606B61E260BB4207
:1018A000E9D100F049FAE6E708498C4206D0181859
:1018B000801A022806D3801800F044FA0CBC904627
:1018C0009946F8BD0220F6E7A8040020BC040020D9
:1018D000054B1A0014325A619A6101225242DA61B0
:1018E00000221A627047C046A804002070B5036148
:1018F0008023DB050500C260586A022900D202215C
:10190000164E32007369143293421DD0326A0818A1
:10191000841A9A68A24203D911E01B68A41A9A6833
:10192000A242FAD35A682B606A6015605D60AC60B1
:101930009A68141B9C6001235B42F36170BD00F048
:1019400001FA73699A68EBE730627561B56108184E
:101950002B606B60A96000F0E7F9EFE7A8040020B6
:101960001C4B10B55969026881420ED0416814338E
:101970000A60026851600021C1609A4204D09168F7
:1019800083688C466344936010BD180000241430B3
:101990005A615060CC60824218D0886891681B6A96
:1019A0008C46604490608022D205526AD11A8842E7
:1019B000EAD99B1A1818022803D3801800F0C2F93C
:1019C000E2E70220801800F0BDF9DDE700F0B4F98D
:1019D000DAE7C046A80400200022024B1B605B60CF
:1019E0009A607047A8040020002382680375054BA5
:1019F0001B6899689142FBD25A680360426010608C
:101A000058607047A804002010B572B6037D032B00
:101A10000AD0042B0CD0002B04D001235B4283613D
:101A2000FFF7E2FF62B610BD002283691A60F4E797
:101A30004268036813605A60EFE7C046002382687B
:101A40000375054B1B6899689142FBD85A6803607F
:101A50004260106058607047A804002070B50C4CBC
:101A600025692875206803685C6023600123206174
:101A70000375EFF309832A69243B9A4203D82900AE
:101A8000FEF782FB70BD0348FFF7DCFE2069F6E736
:101A9000A804002004F1000830B5050087B04B1CF5
:101AA00012D00B4C0B4A236901A8FFF71FFF280037
:101AB000FFF7D4FF049B002B02D001A8FFF750FFD3
:101AC0002369986907B030BDFFF7C8FF004CF7E7FE
:101AD000A8040020091A000870B504000F4DA3687F
:101AE0002869A1618268934203D82000FFF77CFF38
:101AF00070BDFFF779FF012306002C612375EFF31A
:101B000009830269243B9A4204D831002000FEF781
:101B10003BFBEDE70248FFF795FEF6E7A80400203F
:101B200004F10008044B1A69196890688B689842A0
:101B3000804140427047C046A804002070B50D4C5B
:101B4000236820691A685460226001221A75236193
:101B5000FFF774FF0500EFF309830269243B9A4203
:101B600004D829002069FEF70FFB70BD0248FFF77B
:101B700069FEF6E7A804002004F1000810B5FFF79D
:101B8000DDFF10BD02238260838270478368416855
:101B90001A00203A11610169443BD360196141691F
:101BA000596105491962C3681000936002231375D7
:101BB000002353757047C046A90100084368826836
:101BC00010B5934204D25521197001339A42FBD1CA
:101BD00072B6FFF7DBFF00210400FFF77DFF62B65E
:101BE000200010BD70B54518A84205D20400552646
:101BF00026700134A542FBD172B620394418210069
:101C000024392061E1600B61049B20004B61054B8E
:101C10000B620223A260A3820021FFF75DFF62B680
:101C2000200070BDA901000810B5034B1B69986125
:101C30000F20FFF713FF10BDA804002010B572B6E7
:101C4000FFF7F2FF10BDC04610B5010072B60820C4
:101C5000FFF722FF62B610BD10B500290AD0074B6E
:101C600042681B6918605A60136043600420FFF7E4
:101C700013FF10BD01204042FBE7C046A80400202E
:101C8000036810B5984206D01A68026050609961E6
:101C90001800FFF7A9FE10BD70B5040000680D0024
:101CA000844208D0036823605C608561FFF79CFE76
:101CB00020688442F6D170BD80B500AFEFF3098390
:101CC000203383F3098862B6BD4680BDB0B500AF4E
:101CD0000F300ED072B6EFF30984203C84F30988EC
:101CE00080235B04E361FFF71DFF002803D0034B53
:101CF000A361BD46B0BD024BA361FAE7B501000880
:101D0000B801000810B500F0DBFE00F0F3FA00F0B7
:101D1000B1FC00F097FB01F00BFB00F001F810BDE7
:101D200010B500F045FF10BD80230022DB0558638D
:101D30001A610232DA60704780230022DB05DA6024
:101D40007047C0468023DB0558637047C36819603D
:101D50008268013282608269944642696344C3604A
:101D6000934201D3036AC3607047C04630B51D007B
:101D7000002404325543C361039B4D19C362049B85
:101D800045610060406084600161C1608261016200
:101D900044628462036330BD0023022110B5026AED
:101DA00083600261C260436283624942FFF774FF4D
:101DB00010BDC04610B50400FFF7C8FF0021200089
:101DC000FFF75EFF10BDC046836810B50400002B0E
:101DD00007D000202269131D126863629B18A3625A
:101DE00010BDFFF739FF0028FAD1F2E78269836856
:101DF0009446013B836003694269634410B5036103
:101E0000934201D3036A036100234362C36A002B38
:101E100000D0984710BDC04670B5040072B6436A42
:101E2000002B0CD0A26A1D7801336362934202D268
:101E300062B6280070BD2000FFF7D8FFF8E7FFF773
:101E4000C3FF051EF4D1636AECE7C046F8B5CE4681
:101E50004746040080B589461700984672B60025AB
:101E600015E0A36A7E1B5B1A9E4200D91E00320059
:101E700048460DF045F8636AA26A9B196362AD1982
:101E8000934202D32000FFF7B1FFAF420AD9616A43
:101E90000029E6D141462000FFF796FF002801D136
:101EA000616ADEE762B628000CBC90469946F8BD30
:101EB000C3680269934201D0181D704782680020F0
:101EC000002AFAD1F8E7C0468368002B03D00069E6
:101ED00008C80B6070470020FCE7C0468269836831
:101EE0009446013B836003694269634410B5036112
:101EF000934201D3036A03610021FFF7C1FE10BDC5
:101F0000C368026910B50400934207D01A1D6262CB
:101F1000A269002094466344A36210BD8268002A2F
:101F2000F4D0FFF799FE0028F7D1E368EEE7C0464A
:101F300010B50400FFF70AFF00236362E36A002B79
:101F400001D02000984710BD70B504000D0072B696
:101F5000436A002B0FD01D70636AA26A013363626B
:101F6000934202D262B6002070BDA3692000191FFF
:101F7000FFF7DEFFF6E71100FFF7C2FF002801D1EF
:101F8000636AE8E762B6EFE7F8B5CE464746040075
:101F900080B589461700984672B6002518E0A36AF6
:101FA0007E1B1B1A9E4200D91E004B463200591957
:101FB0000CF0A6FF636AA26A9B196362AD19934293
:101FC00004D3A3692000191FFFF7B2FFAF420AD95B
:101FD000606A0028E3D141462000FFF791FF002806
:101FE00001D1606ADBE762B628000CBC90469946D6
:101FF000F8BDC046836870B504000025002B06D1EB
:10200000416A002903D0C3680439C91A01D12800E4
:1020100070BDFFF79BFE65620135F8E703000269BA
:10202000C169013A02614A1CC261C068405C5969D9
:102030008A4201D30022DA617047C0460369013346
:10204000036183695A1C8261C268D1548369426901
:10205000934201D3002383617047C04610B500242A
:10206000006040600461C160C4618461426183605A
:1020700010BDC0460023022110B5C3618361036116
:102080004942FFF709FE10BD0369426910B504001B
:10209000934207D2FFF7D2FF20000021FFF7F0FDA7
:1020A000002010BD01204042FBE7C04670B504008F
:1020B00072B60369002B0BD02000FFF7AFFFA368B7
:1020C0000500002B01D02000984762B6280070BDA3
:1020D000FFF7C2FD051EF8D1EEE7C046F0B54E464B
:1020E000DE4657464546E0B583B004000091914670
:1020F000019372B6002711E02A0040460CF000FF61
:10210000E369EE182369E6615B1B23617F19A3680D
:10211000002B01D020009847B9452DD92369002B09
:1021200022D04A46D51B9D4200D91D00002DEED07D
:10213000009B9846B844012D27D06369E6699B4609
:102140009B1B9A46E36899195545D5D3524640469C
:102150000CF0D6FE5B464046F61A76195044320023
:10216000E1680CF0CDFECDE701992000FFF774FD8A
:10217000002801D12369D4E762B6380003B03CBC23
:1021800090469946A246AB46F0BD2000FFF746FFB9
:10219000434601371870BAE770B504000D0072B6F7
:1021A000036941698B420BD229002000FFF746FFEB
:1021B000A368002B01D020009847002062B670BDB4
:1021C0001100FFF749FD0028F8D1EDE7036970B56C
:1021D0000400002B08D0FFF721FF0021050020009C
:1021E000FFF74EFD280070BD01256D42FAE7C0469D
:1021F000F0B55746DE464E464546E0B583B004008E
:1022000000919246019372B60027B84611E02A0069
:1022100049460CF075FEA369EE182369A6615B19A7
:102220002361A844A368002B01D020009847C24531
:102230002ED923696769BB4221D252464146FB1A17
:10224000551A9D4200D91D00002DEBD0009B434440
:102250009946012D25D0A669BB1B9B46E3689819BA
:102260005D45D4D35A4649460CF04AFE4946F61B12
:10227000761959443200E0680CF042FECDE701992E
:102280002000FFF7E9FC002802D167692369D4E741
:1022900062B6404603B03CBC90469946A246AB4667
:1022A000F0BD19782000FFF7C9FE01239C46E044E9
:1022B000B8E7C046012110B508304942FFF7F6FEE5
:1022C00010BDC046012210B528305242FFF764FF0E
:1022D00010BDC046012310B508305B42FFF7FEFE7B
:1022E00010BDC046012310B528305B42FFF780FFC8
:1022F00010BDC04610B500F0C9FC10BD70B515008A
:102300000A4A0B00026001000122040002714831F8
:1023100008303F32FFF7A2FE210020002B00883159
:1023200028304022FFF79AFE70BDC04614F1000825
:1023300010B5040072B600F0D3FC0223237162B61C
:1023400010BDC04630B59E25046B6D00625983B048
:1023500013681978042902D12179022901D003B028
:1023600030BD117901228A401B891342F7D1200028
:1023700001A93C30FFF7A8FD021EF0D0635919797E
:102380001868019B00F0CCF9E9E7C04670B59E25BE
:102390006D004259040013681978042902D10179AB
:1023A000022901D0012070BD517901228A405B8948
:1023B0001342F7D10830FFF77BFD021EF2D06359BC
:1023C00018685979402300F099F90020EBE7C046DE
:1023D00010B5006BFFF7DAFF10BDC046012110B544
:1023E00008304942FFF718FD10BDC0469E235B0030
:1023F000C35810B51B681B78042B05D101223C3053
:102400005242FFF7A1FD10BD02204042FBE7C0464B
:10241000012310B508305B42FFF718FD10BDC04620
:1024200003009E204000185810B500680478002072
:10243000042C00D010BD3C33180001235B42FFF791
:10244000A3FDF7E77047C0460E4B10B503600123AC
:102450000400010003710C4B82B00093703108300E
:10246000019401234022FFF781FC21002000074B4B
:10247000B43100933C30019402234022FFF776FCF4
:1024800002B010BD34F10008D12300084523000834
:102490000A6872B60B7909339B00D31858604B79E0
:1024A00011339B0098508B79002B03D009339B008C
:1024B000D21850609E235B00C1503B3BFF3B037131
:1024C00062B6704710B504000830FFF765FC2000C5
:1024D0003C30FFF761FC10BD10B504000830FFF779
:1024E0005BFC20003C30FFF757FC2000FFF74EFF5D
:1024F00010BDC0467423C15C143B02000B40002099
:10250000202B00D070475533D35C202BFAD3212BDE
:1025100005D8064B012093660723D366F2E7222BEA
:10252000F0D19066D0660120ECE7C04600030020A1
:1025300070B59E256D00425982B013680400197869
:10254000042902D10179022901D002B070BD1179AC
:1025500001228A401B891342F7D106003C36300025
:10256000FFF748FD0028F0D001A93000FFF7ACFCD0
:102570006359020019791868019B00F0D1F8E4E76B
:102580000B00F0B509339B00C3185C6883B00600EC
:102590000F00002C15D072B68D004519EB683C3445
:1025A0005B691B68002B1BD101A92000FFF78CFC85
:1025B000002808D00200019B3900300000F0B0F87C
:1025C00062B603B0F0BDEB685A691B8A12689A4282
:1025D000F6D1002300223900300000F0A1F8EFE727
:1025E0002000FFF77BFCDFE71131890010B50C58A4
:1025F000002C11D072B69E235B00E3581A685B79F9
:1026000002339B00D3185B689B695968002904D189
:102610002000FFF7BBFE62B610BD20000830FFF7B8
:10262000C9FBF5E77047C04610B50400002100F073
:10263000E7FD0021200000F0CFFD63681B68002B40
:1026400002D005212000984764230622E25410BDE1
:10265000762310B50400C25A0833C25400F09EFB22
:1026600063681B68002B02D00121200098470323D8
:10267000237010BD10B500F067FB10BD012303707F
:10268000002301004360030000222C3348311A600C
:10269000DA6104338B42FAD18260704710B50400CE
:1026A00072B600234160C360036143618361C3610B
:1026B00003624362836200F04FFB0223237062B621
:1026C00010BDC0468B1C9B0070B5C3180500506937
:1026D0000E0014005A60002803D00C2200210CF0D8
:1026E00019FCA069002803D00C2200210CF012FC78
:1026F0003100280000F05CFB70BDC04670B50125BC
:102700008D4044892C4344818C1CA40004196468C6
:10271000A46923600023A260636000F00BFC70BD1D
:1027200070B501258D4004892C4304818C1CA400C4
:1027300004196468646923600023A260636000F088
:102740000DFC70BD022310B5642203700023040049
:10275000C3678360C360036143618361C3610362D4
:1027600043628362835400F089FB63681B68002B1B
:1027700002D000212000984710BDC04605230370F9
:10278000436810B51B68002B01D00321984710BD8A
:1027900004230370436810B51B68002B01D004218B
:1027A000984710BD70B56423002502000400C5548D
:1027B000743200F0A5FB636825679B68002B1BD073
:1027C00020009847002817D0E26E7A23E35A9342FC
:1027D00000D2E36672B67423E35C7F2B30D8E36EDD
:1027E000002B39D0A26E00212000FFF787FF642361
:1027F0000422E25462B670BD7423E25C143B1342BF
:102800001AD17523E05C563B1340012B3ED0002BC0
:1028100036D0022B10D178220F21A55A0832294038
:102820002A40012800D195E0002800D182E0032849
:1028300000D18FE00C2831D02000FFF7F5FEDAE759
:10284000E36E002B12D0A26E00212000FFF768FF7C
:1028500064230122E254CDE700230022002120005E
:10286000FFF75EFF64230522E254C3E70023002242
:1028700000212000FFF742FF64230322E254B9E75E
:102880000928D9D8464A8300D3589F460028D3D177
:10289000444B0222A3660223E36696E7414AE366BD
:1028A000A266022291E776237F22E35CA3545A1E9C
:1028B00093410333237063681B68002B02D002210D
:1028C000200098470023A366E36683E723007C3358
:1028D000A36602230222E36677E723007F33A36621
:1028E00001230122E36670E776236068E15A023330
:1028F000CAB24568E35A090A2000A84700289BD0BD
:1029000043680268A366E2665FE70023A366E366A6
:10291000254B23675EE77623E35A012B8CD17C217C
:102920000222635A9343032801D06352CAE7134338
:102930006352C7E7C9B22000002A1CD000F0D0FAC9
:1029400001281BD0022800D076E7184BE066A3666A
:1029500002223AE77623E35A002B00D06CE70029E5
:1029600000D169E7C9B201280ED02000002A11D099
:1029700000F046FCA6E700F09FFAE1E70C4B0222CC
:10298000A3660223E36620E72000002A05D000F0BA
:1029900065FC97E700F020FC94E700F045FC91E728
:1029A00054F10008A0F100085126000898F1000831
:1029B0009CF10008642310B5C35C0400062B05D805
:1029C000184A9B00D3589F46FFF72EFE10BD7A236E
:1029D000C06EE35A984205D2E368198AFDF784FC79
:1029E000002913D072B60023002200212000FFF737
:1029F00085FE62B664230322E254E7E7036F002BEF
:102A000000D0984764230022E254DFE772B6002327
:102A100000222000FFF784FE62B664230222E25403
:102A2000D4E7C0467CF1000870B56425425D04001F
:102A3000062A14D80123934067221A4210D1DA06DD
:102A400011D41B070BD5C3689B695B68002B06D1AB
:102A5000036F002B00D0984764230022E25470BD1E
:102A6000FFF7E2FDFBE772B6002300220021FFF72B
:102A700057FE62B605236355F1E7C0460F4A70B5AD
:102A800094460322FF25C0260240D20095408901CA
:102A9000914083089B006344B6009C591F22AC43BD
:102AA0000C439C51012302409340C0224009800006
:102AB000604452008350036070BDC04600E100E0F6
:102AC0000A4B01219A6A0022494299629A62186966
:102AD00019611A61D86806490143D960DA60802219
:102AE000D96952050A43DA617047C04600100240B6
:102AF000FFFFBFFF0121234A13680B43136001311D
:102B000013681942FCD0032153688B435360536808
:102B1000093153601B4A53680B40FCD1F9211068FE
:102B20000140116053608023516B5B020B43802195
:102B30005363144A8902536B0B42FCD0E523DB0438
:102B400053600023D36210331363802311685B0446
:102B50000B43802113600B4A890413680B42FCD09D
:102B60001121094B196053680F390B435360054A13
:102B70000A3153680B40082BFBD1012193690B43A9
:102B80009361704700100240002002408023DB0563
:102B90001A6910B57446920703D42000FFF796F81F
:102BA00010BD00221A6172B6FEF752FE62B6F4E75B
:102BB00001220E4910B5CB690F201343CB610C499C
:102BC0008B6813438B608023E021DB05FF31996222
:102BD000E139FF39D962002199615963D96059609F
:102BE0005A6102311A60FFF749FF10BD0010024020
:102BF000005801408021024A13680B43136070475C
:102C000000380140F8B5C823CE4647461D4E80B572
:102C1000F458F0462768E569256272B6AB060BD515
:102C2000202399460836A18C3000C9B2FFF72CFA50
:102C30004B46E5692B42F6D180233B4213D02B4211
:102C400011D0114B8026994604E080B22085E569B9
:102C50002E4208D04846FFF7B9FA0028F5DA80235B
:102C60003A009A43226040233B4203D02B4201D0DA
:102C70009F43276062B64046FFF728F80CBC904699
:102C80009946F8BDEC0400201405002010B5084C4E
:102C9000084A20000021FFF731FBC823064A022121
:102CA000E250064A04331B20E250FFF7E7FE10BD56
:102CB000EC040020F52B000800380140006CDC0219
:102CC000C82370B50125C4582368AB432360CC23C7
:102CD000C058FDF783FAE06023682B43236070BD82
:102CE000F8B5002922D0402601258B684A681E438A
:102CF000CB6809681D432E23FF3313430279012A51
:102D00000AD0C82284586660A5602360FFF7D8FF08
:102D100001235B422362F8BD084A9042F1D1802230
:102D2000074CD201A7693A43A261EAE796212E2314
:102D30000902FF330125034EE0E7C046EC04002002
:102D4000001002404040000010B50248FFF796FC1A
:102D500010BDC046BC050020037870B50400012BEF
:102D600000D070BD0A4A904203D02000FFF7EAFC71
:102D7000F7E780220749084DC86912040243CA6177
:102D80001F202B640321FFF779FE00232B64ECE75F
:102D9000BC05002000100240005C00407E23802221
:102DA000C35C1343014AD3647047C046005C0040D3
:102DB0008B1C9B00C318F0B55D68CE4647460323C5
:102DC0002A6880B5134052D00022022B0AD9033B57
:102DD0005A42534180225B42D2001A4080239B001A
:102DE0009C466244234C244BA4461B6DCE00634496
:102DF000F4186B69002B11D0002363808033C65810
:102E000099462B8A01339846012347469F43BB19B5
:102E10004F46C3512023B6B226801A43AB69002B1C
:102E200012D06D8A3E2D1BD801356E08B602B6B29F
:102E3000E680802601278359BD43ED189BB285515A
:102E4000A38080239B011A430B4B88009C4660445F
:102E500003680A43036002600CBC90469946F0BDCB
:102E600020236E1E76111E43B6B20135DEE78022A6
:102E70009200B7E700600040005C004000230C4A6D
:102E800010B51365536443688021DB68D1645C42EC
:102E900063419E242402A4465B425B0263441364A4
:102EA00040234350034B0021C360FFF781FF10BD57
:102EB000005C0040A4F10008074B8900C858C023FB
:102EC0009B01184006D0054B9C466044431E984128
:102ED000013070470020FCE7005C004000F0FFFF7D
:102EE0003020064B8900CB58184004D01038431EC0
:102EF0009841013070470020FCE7C046005C00406C
:102F00000A480B4B844610B51B6DC9006344C918B1
:102F100088881400614680B20834891A83185B5A85
:102F200013800232A242F9D110BDC04600600040B9
:102F3000005C0040064B89009C4661440A68054BD2
:102F40001A40C0239B015A40034B13430B60704748
:102F5000005C00408FB7FFFF80800000F0B5C646E0
:102F60008B1C9B00C01800B542685569148A6868BC
:102F70002B681B1A9C4200D91C00164F164BBC46EE
:102F80001A6DCB0062449A181388A7B2AE685780B6
:102F9000621C9BB252080CD01B1A98464346371845
:102FA00052006344D2199B1B3E88DE53023797427E
:102FB000FAD1094B89009C4661440B68074A001905
:102FC000134030225340064A686013430B6004BC30
:102FD0009046F0BD00600040005C0040BF87FFFFEE
:102FE00080800000F0B5DE464E46574645467346A3
:102FF000E0B58BB00893724B5E6CF2435A64730574
:1030000000D5C3E0330500D5C7E0F30404D56C4B0D
:103010009A6C120400D4CAE0B30506D5694F7B68E8
:10302000DB68002B01D03800984780231B021E422A
:1030300041D00F229146624A624F90469A461AE06A
:103040001A6861480240504602431A6063695A6830
:103050001B689A4239D301228A403B8993433B81C2
:10306000A368002B02D0C9B23800984743465E6C73
:1030700053461E421FD04946514A31409446881C4F
:103080008B0082006344BA181D685468F206D7D5D5
:103090001A684D4E3240802632431A60CAB20192FD
:1030A0002D0517D5636811003800984743465E6CBC
:1030B00053461E42DFD10898FEF708FE0BB03CBC19
:1030C00090469946A246AB46F0BDC9B23800FFF71C
:1030D00045FFCBE7A2693D4E55689346AC46029545
:1030E000926845466244B4462D6D03926544CA0019
:1030F000AA18958865440495D28895B2AA050595C5
:10310000950D6A08069509920ED05600039A049D03
:103110009446AD1A66449C462B0007929D5A158032
:1031200002329642FAD16346059AD20708D5099A27
:10313000049D5200AD5A039EB5545A4652680292FD
:10314000069E5D46B446029A62446A602D68AA42B1
:1031500002D2628AB2420FD901228A407B89800062
:10316000934338187B814368DB68002B00D17DE7EF
:1031700001993800984779E71968154A1140C0222B
:1031800092015140134A0A431A606FE70D4F38000D
:10319000FFF7D8FA330500D437E70821084A094F6A
:1031A000136C38000B431364FFF7E8FA2DE708218E
:1031B0001A6C044F8A431A643800FFF7E9FA2BE7C8
:1031C000005C0040BC0500200F07FFFF00600040CE
:1031D0008FB7FFFF80800000064B89009C4661444A
:1031E0000A68054B1A4080235B015A40034B134386
:1031F0000B607047005C00408FB7FFFF80800000CD
:10320000064B89009C4661440B68054A1340102216
:103210005340044A13430B607047C046005C0040B3
:10322000BF87FFFF80800000094BC0229C468900B9
:1032300061440B6892011340934208D00A68054B21
:103240001A4080239B015A40034B13430B60704785
:10325000005C00408FB7FFFF80800000084B8900B2
:103260009C46302361440A681340302B07D00B681A
:10327000044A134020225340034A13430B60704713
:10328000005C0040BF87FFFF80800000054B064ABE
:103290001A60BFF34F8F054B054ADA60BFF34F8FBB
:1032A000C046FDE7F03F0020EFBEADDE00ED00E0E0
:1032B0000400FA0580B5164A164B126800AF9A4210
:1032C0001AD0FC23144ADB0351690B43536190234A
:1032D0000022DB055A60114ADA60114A5A61114A2C
:1032E0001A601A69520703D4FFF704FCBD4680BD7B
:1032F000042219690A42FCD162B60022044B1A600A
:10330000094B83F30888094B1B689847FEE7C046C2
:10331000F03F0020EFBEADDE00100240AA0101A880
:10332000DFF9000000FCAA6A5022002004C8FF1F39
:103330007047C046F8B547461D0080460B23CE4671
:10334000434480B50800170099461C003900060068
:10335000FCF7CAFF3023CAB2092900D907339B18EA
:10336000013CDBB22370002D02D0013D002DEDD1D8
:10337000BE4209D339000600FCF7B6FF0025CAB2E9
:1033800030230929EBD9E9E74A46101B002200E067
:10339000A35C41468B5401329042F9D140440CBCAD
:1033A00090469946F8BDC046F8B5CE464746814698
:1033B00080B50E1C14001700092A00DD09271E4BDA
:1033C000BA00D358301C9846FDF710F90500FEF7F7
:1033D0008BF8011C301CFDF761FE061C4046FEF711
:1033E00083F8011C301CFDF743FDFC218905FDF726
:1033F000E7F9FDF7FBF80600804502D843460135A2
:10340000C61A00230A2229004846FFF793FF002C22
:103410000ED00122094B441C9B8A3100DB05DB17CF
:1034200093432E33037009323B002000FFF782FFE5
:103430000CBC90469946F8BDA8F20008080300208D
:103440000389012B06D943685A1C4260197003890D
:10345000013B038100207047F0B5DE4657464E46DB
:1034600045460023E0B58DB00093203399468B4646
:10347000CA46029201905B4619785F1C00290ED063
:10348000252914D0BB46019803689B689847009B88
:10349000013300935B4619785F1C0029F0D1009836
:1034A0000DB03CBC90469946A246AB46F0BD80208C
:1034B0003D780026400080241021042202232D2D77
:1034C0000ED02B2D0FD0302D10D06A2D11D0202DE5
:1034D00012D0622D13D1064301373D782D2DF0D146
:1034E0001E430137F9E716430137F6E70E4301376C
:1034F000F3E726430137F0E72E430137EDE70024D9
:103500000299220006E008C9DBB29400A418640006
:103510003D781A192B00303BDBB20137092BF4D967
:103520002A2DF0D0029114002E2D00D13BE1402332
:103530001E430023BB4699462B00443BDBB2342B91
:1035400000D92BE1D04A9B00D3589F46082206ABF6
:103550009846029D002302CD4046FFF7EBFE42460F
:103560008146831A0295E41A6BD430239A46F306F7
:1035700001D420239A46B30766D5C84500D3CAE1D3
:103580004646009B019F01339D1B2B004D46A146E3
:103590001C003B6831789B6838009847A3190136B6
:1035A000B542F6D84C469846002C00D1B8E126002A
:1035B0005746019D2B6839009B682800013E9847BB
:1035C000002EF7D123004344BA46009353E7029AF2
:1035D000F30500D512E1072307329A4303CA02928A
:1035E000FEF714F8804600214046FCF78DFF0028C6
:1035F00000D00DE1730700D4B0E106AB1A000393CD
:103600002B23944613702A3B63440493330604D55A
:103610006A23049A1370531C04939C494046FCF798
:1036200087FF002800D17EE11923049A1370931CB0
:103630009946202353704B46039A9B1A9046E41AEE
:1036400093D50024B30798D42C23334202D0F30639
:1036500000D5C2E0261E10D05746019D2B683900C8
:103660009B682800013E9847002EF7D1009BBA4680
:103670009C46A444634600240093C84500D27FE7DB
:10368000F9E6029D02CD002900DAD1E0730700D4EB
:1036900074E106AB1A0003932B23501C13703306FE
:1036A00002D56A230370013000230A22FFF742FE8D
:1036B000039A8146831A0295904654E710233200FC
:1036C000029D9A4308CD9846002B00D1BAE01B78A2
:1036D000710600D45AE1002B00D1BCE06C4943468E
:1036E000464604E0F01A4018013000D130E10133C1
:1036F00018780028F6D19946B0469B1B0295160013
:1037000031E7029B04CB05934B46002B71D00E2B67
:1037100001DD0E23994601230293002306A9884662
:103720009C460E3343441D00012367469846594882
:1037300093085108C9180B09C9180B0AC9180B0CB2
:10374000C918C9088B005B185B00D31A092B03D971
:103750000A3B0131092BFBD830336A1EDBB21370F0
:1037600000297CD04346034203D02023AA1E1370B5
:103770000137150040080A00DAE71023029D9E4336
:1037800008CD06AA137001230295904601224244F7
:103790009146E8E61022DAE60A22D8E606AB1D706A
:1037A00006AA0123F1E70023944618000C0006E066
:1037B00008CCDBB20F0082001218520098183D7836
:1037C000791C2B00303BDBB2092BF3D92A2DEFD02B
:1037D0000294814664468B46AEE6434601985E1CE1
:1037E00019780368B0469B689847009B01330093A3
:1037F00030E7033302930B3399468EE708CA002162
:10380000984640460292FCF77FFE002800D1F1E680
:1038100008231E4306AB1A0003932D231370802345
:103820001B06434498469446012363440493EDE603
:1038300008231E4306AB1A0003932D23494213703D
:10384000501C2CE7144B9846730600D546E74B46B0
:10385000591E00D343E7C1461600029589E60F4979
:103860000125C95D0E20049106A98C466D42654470
:103870006044AC46801AB04603914E468444A1464B
:103880000125029C16E0C046C0F10008FFFF7F7FC3
:10389000FE7F000024490000A0F2000894F2000816
:1038A000002F10D04F1C3A000B708C4514D03900FB
:1038B000020003782F00501C2740202BF0D1002F4E
:1038C00023D0AC430E33721E002E52DB4F1C160069
:1038D0000B703A008C45EAD1029446464C46531C84
:1038E0009946029B9B0707D5049B202B04D02023DD
:1038F0001370931C4A469946049B059913704B46D6
:10390000039A02919B1A90462DE602272742DAD1AC
:10391000901C5378D7E7009B9846002C00D046E6D1
:1039200043460093A7E5730634D5462D3FD00923BF
:1039300099464A4641460498FFF736FD81461023D2
:10394000334200D08CE04B46039A9B1A90460AE61D
:103950009946B0469B1B0295160004E6202333428D
:1039600021D006AA944613701F3B6344039204932C
:103970004CE6029446464C460A00B0E72023334208
:103980000DD006AA03921370501C88E6002B00D0BD
:103990005DE760E7462DCCD14B461DB20AE006AB91
:1039A000039318007BE606AB039304932EE60323F0
:1039B0000325994650494046FCF7C4FD002871D0C4
:1039C00040464E49FDF754FA80464D4B9F1C4A49EC
:1039D0004046FCF7B7FD002808D040464749FDF7B0
:1039E00047FA01373B788046002BF0D17B1E1F78C9
:1039F000002F02D04D46013D2DB24046FCF7F6FDAA
:103A000063284AD9023D2DB2002D3FDB2A004146F2
:103A10000498FFF7C9FC8146002D18D00300013B34
:103A20001A78302A06D1013B591C013B5A78302ABA
:103A3000FAD089460121334B9B8ADB05DB178B4388
:103A40002E33D31A5A4253414A46D31A9946002F6D
:103A500000D174E74B461F7001239C46E1446EE79A
:103A60005E404B46013B1B78302B07D14A46023A59
:103A7000511C013A5378302BFAD089462E2B00D0B6
:103A800061E701235B429C46E1445CE7002241463A
:103A90000498FFF789FC8146D9E70928B4D9013D8C
:103AA0002DB2B1E7FE2140468905FCF72DFD002827
:103AB00001D10027A1E740460F49FDF7D9F980461B
:103AC000114B5F1CFE2140468905FCF71DFD0028B7
:103AD00008D040460849FDF7CBF901373B788046CE
:103AE000002BEFD105494046FCF722FD002800D00D
:103AF0007CE7002781E7C04600007A446F12833AD2
:103B000094F2000808030020D0F200080CB430B58D
:103B1000030085B00C000020002910DD0A4A01AD29
:103B20000192298109AA0899280002930092FFF7BF
:103B300093FC00226B681A70844200DC601E05B0A2
:103B400030BC08BC02B01847DCF2000802290ED0D5
:103B5000032905D0012901D0002070470548FCE762
:103B60000020032AF9D80448D2008018F5E703485A
:103B7000F3E7C04678FE0008CCFE00082CFE0008E3
:103B800010B572B60248FEF7D3FC62B610BDC0464F
:103B90004C06002010B5040072B6022906D0032995
:103BA00002D10948FEF78EFC62B610BD074A01211A
:103BB000FEF788FD2000064A0221FEF783FD024839
:103BC000FEF78AFCF0E7C0464C060020DCFD00084A
:103BD000F8FD000870B5051C081C161CFCF7F0FD6C
:103BE000311C041C281CFCF7EBFD011C201CFCF7FD
:103BF000E7FDFA218905FDF73BF970BD044B10B5CF
:103C00001B680A0019680C6801001800A04710BD65
:103C100098200020F0B5DE4657464E464546E0B5B2
:103C2000564B87B003905B8B0593002B00D18FE040
:103C3000D0229446FE22514B920063449446E422E3
:103C400098464E4BD200634494469A464B4B54469A
:103C500063441E00002345469B4635E0011CFE20C0
:103C60008005FDF71BFA011C0490381CFDF700F9D4
:103C70005146071C4846FDF711FA009B191C99464E
:103C8000FDF7F6F8011C381CFDF708FA0299071C2D
:103C90004046FDF703FA4946FDF7EAF804998146E4
:103CA0000198FDF7E5F8011C4846FCF789FD8046C0
:103CB0004346736001239C46059BE3443760083507
:103CC000083408369B4543DA33682A68181C111CEF
:103CD00002939046FDF7E2F97268071C92466A6803
:103CE0005046111C9146FDF7D9F96368039A01907B
:103CF00000932068012AB1D0FE218905FCF760FD00
:103D0000011C8146381CFDF7B3F8019B0290009915
:103D1000181C9846FDF7ACF8494682464046FDF728
:103D2000A7F800998046381CFDF7A2F8011C404610
:103D3000FCF746FD039B8046013318D1029950469B
:103D4000FDF7ACF980231B064344071C9846AFE7F8
:103D500004220A4B9B8C934340221343074A9384CB
:103D600007B03CBC90469946A246AB46F0BD5146D2
:103D70000298FDF793F9071C9AE7C046C007002098
:103D8000012110B50C00074A138B1C40844208D057
:103D90008B4303430A20138305F034FF0022024BB8
:103DA0001A7710BDC007002008030020F0B5454673
:103DB0005746DE464E46E0B5884687B0051E924619
:103DC0006A4C00DBA0E0E36801938B4200D39AE0E9
:103DD000638C013B9BB29B4623695D468B4200D8B6
:103DE00092E00027019A9E1A881A00235A46002161
:103DF000FCF7D2FB32003B00FCF7AEFB05003200C3
:103E00003B00C1172800FCF7C7FB029003915946FD
:103E100000234A0802980399801859415A46049091
:103E20000591FCF799FB814604980599019B80193F
:103E300079414B4402935A460023FCF78DFB4946D7
:103E4000019A029B1618471A98455DD0002F6DD035
:103E50004246D01AFDF748FB81463800FDF744FB87
:103E6000011C4846FCF728FE8146029803F062F9DF
:103E70000700300003F05EF9B8425AD16F1CFE20F3
:103E800049468005FDF70AF93B001A33DB00E418C8
:103E900028235646FF009A4680467B424F460293AF
:103EA000EB009B460433B2440193029B4046E51865
:103EB0005B46E958FCF7DCFF21688146381CFCF7BB
:103EC000D7FF011C4846FCF77BFC019B3060E9589A
:103ED0004046FCF7CDFF6168051C381CFCF7C8FFA5
:103EE000011C281CFCF76CFCCA239B009C467060DC
:103EF000083664445645D8D107B03CBC9046994634
:103F0000A246AB46F0BD0025534656461A35ED0095
:103F1000641928332268326062687260CA22920093
:103F2000944608366444B342F4D1E5E70023994649
:103F30009BE7404603F0FEF8B8420BD0AB45E3DD0B
:103F4000FE2148468905FDF7A9F86E1CAF1C814685
:103F5000350094E7002DD7DDFE2148468905FCF7A2
:103F60002FFC6E1E2F008146350088E7C007002019
:103F7000F0B5CE46474680B54B6883B001AA0E68BF
:103F80000C00694698460AF037FD019F311C381C29
:103F9000FCF76EFF009D81464146281CFCF768FF38
:103FA000011C4846FDF77AF841462060381CFCF7B2
:103FB0005FFF311C071C281CFCF75AFF011C381C32
:103FC000FCF7FEFB606003B00CBC90469946F0BD68
:103FD00010B5012800D010BD08680B4902F0BEFEE4
:103FE00000280AD0012804D14021084A13788B43C5
:103FF0001370C62005F006FEEDE74021034A137852
:104000000B431370F5E7C04648010108A8030020E0
:1040100070B50C0090B000282AD0022828DC1C4B78
:104020009B8A5B0724D4022824D01A4E24682000DF
:10403000FDF79EFB184D0200210033002800FEF71B
:10404000D7F82800330002221449FEF7D1F8203DAA
:10405000134C05E0236802001B686946200098475E
:104060003300402269462800FEF738F80028F1D1D5
:1040700010B070BD486802F0AFFD0A4BFA215843FA
:10408000094B89009C466044FCF7A8F80600CDE780
:1040900008030020204E0000140500202C09010810
:1040A0004C060020A0860100E703000070B50D005B
:1040B000022807D00122524214002100022009F0F8
:1040C00071FA70BD086802F067FD04B2686802F01A
:1040D00063FD02B2F1E7C04670B50C00022800D0C3
:1040E00070BD086802F058FD0500606802F054FDDC
:1040F00029B202B2012009F055FAF1E770B50600C5
:1041000082B00D00002813DC0024174DA0222100EE
:10411000022352000020009509F028FCA02128006D
:10412000C9000234FFF76AFDF02CEFD102B070BD78
:104130000021012009F04EFD3403A41BA400341912
:10414000A4003419E734B600A4B2AE1904CD21B2EC
:1041500011200B3409F00AFEA4B2AE42F6D1802041
:1041600005F050FDD0E7C046F02E002010B508F055
:104170006DFE10BDF8B50E1C051C111C301C171C63
:10418000FCF776FE291CFCF773FE400040080AF09D
:1041900047FD391C041C301CFCF712FB291CFCF7E2
:1041A0000FFB0021FCF7B0F9002803D080231B0689
:1041B0009C466444201CF8BD10B5094C628B002A53
:1041C0000CD0CA239B005843D03000190023002490
:1041D00001330160446008309342F9DB10BDC046F2
:1041E000C007002010B5031C082800D90823034A83
:1041F0000420137005F006FD10BDC046A420002069
:10420000014B18787047C046A42000200121024AC3
:1042100013788B4313707047A803002010B5FFF785
:10422000F5FF10BD0121024A13784B40137070470F
:10423000A8030020F8B5FE21CE464746890580B583
:104240008146FCF7BDFA2C22FA2790460D4B061C3E
:104250001D1D98444C46BF0500E080CD4946201CFA
:10426000FCF706FE391C041CFCF702FE011C301C86
:10427000FCF7A6FA061CA845EFD10CBC904699465F
:10428000F8BDC0467CFF000870B5002A12D04C1E55
:10429000231A584350435043FDF726F9051C2000CC
:1042A0006043FDF721F9011C281CFCF705FCFFF712
:1042B000C1FF70BDFE208005FBE7C0460FB400B50E
:1042C000074B83B01868002808D005AA049901920A
:1042D000FFF7C2F803B008BC04B018470020F9E7A4
:1042E0009820002070B5114D0522290002F060FDD4
:1042F0000F4B80B21880052813D800280FD00D4C22
:104300000D4805E00A34608823880004184306D06D
:10431000296802F023FD0028F4D1200070BD00249C
:10432000FBE70648FFF7CAFF0024F6E73C20002021
:1043300094200020B006010854FF00085CFF00082C
:10434000F8B5CE4647460C0080B5022826D02A484C
:10435000FFF7B4FF294BF8269946E0235B010024C0
:104360009846F827264D36041E3541462B88484688
:10437000DA080A40590939400A43190431405B07F9
:104380000A431B0C21001A430134FFF797FF023543
:10439000202CEAD10CBC90469946F8BD086802F082
:1043A0001BFC83B205001F2BF4D8606802F014FCDC
:1043B0000600606802F010FCE0224301F8201202BF
:1043C0004001F6001640034060681E4302F004FC02
:1043D000F823000C034060681E4302F0FDFB030459
:1043E000E320074A2D04ED0B5B0F551933434000C2
:1043F000EB8305F007FCCDE7D0000108EC000108D5
:104400000803002010B502490248FFF757FF10BD0E
:104410004CFF0008A806010870B5074C2168002968
:1044200009D0064D043428000434FFF747FF231F4A
:1044300019680029F7D170BD7C030020A806010887
:1044400070B50948FFF73AFF084C0949094D0A348D
:104450002800FFF733FF6188238809041943F6D148
:104460000548FFF72BFF70BD70010108B006010879
:1044700054FF00087C0101082C09010810B501282F
:1044800006D0064B06495A680648FFF717FF10BDCD
:10449000086802F0A1FB014B5860F8E70803002010
:1044A0005004010878040108F0B54F46D646464648
:1044B0000500C0B50F00002812D016DD2A4B0024DD
:1044C00098462A4B2A4E99469A46A300F85831003E
:1044D00002F044FC072804D8434680001B589F463E
:1044E000234E31002348FFF7E9FE1CBC9046994655
:1044F000A246F0BD534618221B8B934352461383AA
:104500000134A542E1D1F0E71821184A138B8B43FF
:1045100008210B431383F3E70621144A138B8B43C3
:104520001383EDE70621114A138B8B4304210B43C0
:104530001383E5E706210D4A138B8B4302210B43BE
:104540001383DDE70020FFF71BFCD9E70120FFF70D
:1045500017FCD5E74B4618221B8B934310221343BD
:104560004A461383CCE7C046ECFE0008C007002093
:10457000E0050108C005010810B5012805D0064B6B
:104580000648198BFFF79AFE10BD086802F004FB7D
:10459000014B1883F8E7C04608030020B002010869
:1045A00070B50D000A4C022804D021000948FFF71D
:1045B00085FE70BD2100286802F0D0FB061EF4DBEA
:1045C000686802F009FBC1B2B0B208F073FDF0E711
:1045D00034020108FC00010810B5012806D0074B81
:1045E00007491A780748FFF769FE10BD086802F00E
:1045F000F3FAC0B2FFF7F6FDF7E7C046A4200020AB
:10460000D00301087804010810B501280BD108680F
:104610000B4902F0A3FB002805D10A48FFF74EFE24
:1046200008F030FD10BD0848FFF748FEBFF34F8F7C
:10463000064B074ADA60BFF34F8FC046FDE7C0461E
:10464000D4020108D8020108F802010800ED00E0D8
:104650000400FA0510B5012806D0064B06495A6E2B
:104660000648FFF72BFE10BD086802F0B5FA02F00D
:1046700039FDF8E708030020340401087804010834
:1046800010B509F0D3FD01000148FFF717FE10BD7A
:10469000A006010810B5094C012804D021000848E3
:1046A000FFF70CFE10BD0868210002F057FB002840
:1046B000F4DBC0B205F0D4FAF4E7C0460402010806
:1046C000EC01010810B5012805D0084A0721084867
:1046D000FFF7F4FD10BD086802F07EFA0728F4D851
:1046E00009F04AFC042005F08DFAF3E70C030108F9
:1046F0001403010810B50C4882B0FFF7DFFD08F085
:1047000083FB0A481022835E0E21425E0C24015F67
:104710001224005F00900648FFF7D0FDE320400020
:1047200005F070FA02B010BDEC0401080803002087
:1047300018050108F0B54746CE4680B5E1B06A4697
:10474000294B2A4C1A60C023238027883FB20128B6
:1047500041D0002002F09EFE8023DB055B6A244AE4
:104760000A331360234B244A5B8B02339BB21380C2
:1047700023881BB2002B04DD30BF23881BB2002B23
:10478000FADC002F1CDD6B460021595E1B4B002418
:1047900018009846FFF792FD6B469E1C184B01349B
:1047A00001259946A7420BDD0023F15E4046013505
:1047B000FFF784FD0C2D08D002360134A742F3DC4C
:1047C00061B00CBC90469946F0BD4846FFF776FDB7
:1047D00000250236F1E7086802F0DEF90138431ED1
:1047E0009841084B1880B4E75C180020601800203E
:1047F000B81E0020080300204825002038010108C9
:104800002C0901086218002010B5012803D00A48BD
:10481000FFF754FD10BD0868084902F09FFA002810
:1048200005D109F03DFC0648FFF748FDF2E70548D1
:10483000FFF744FDEEE7C0462800010850000108DC
:104840006C0001085800010810B509F051FB02483E
:10485000FFF734FD10BDC04628030108F0B54646F9
:104860004F46D646C0B5374B374D1E6886B03540EB
:1048700004955B68354C89461C409846059403288E
:1048800041D0334F022817D07F2042463F230640B5
:104890002804000E13402D0C22040190120E210C4E
:1048A0000397029600952B48FFF708FD06B01CBC45
:1048B00090469946A246F0BD4B463900186802F072
:1048C0004DFA8246062827D04B46586802F084F9F4
:1048D00053468146002BD7DB6328D5D852461E4B62
:1048E0000A219D5C04AB9C466544FBF777FC0A21DA
:1048F00004014846FBF7F8FC0C432C70049905981A
:1049000009F068FDD2E74B461449186802F026FA10
:10491000002808D00E4FB7E74B46586802F084F9DC
:1049200009F0D0FDC2E74B46586802F055F94B46F6
:104930000400986802F050F90100200009F04AFDD7
:10494000B4E7C046002800407F7F7F003F1FFF0084
:10495000540C010898040108D808010894040108BF
:1049600010B5012806D0064B06499A680648FFF79D
:10497000A5FC10BD086802F00FF902F09BFAF8E7F9
:1049800008030020680201087804010810B5012816
:1049900003D00848FFF792FC10BD086802F01CF92C
:1049A0000400FFF733FC044B2000D97F02F0DAFB50
:1049B000F2E7C04650010108C0070020F0B5CE461E
:1049C000474680B583B0012823D0204B204C984621
:1049D00043465B8B002B17D01E4B00259946206861
:1049E000FCF7C2FD060060680F00FCF7BDFD3B0050
:1049F0000090019132004846FFF760FC43465B8B14
:104A000001350834AB42EADC03B00CBC9046994651
:104A1000F0BD086802F0C0F806280AD801280CDDAD
:104A2000CA24831EA4005C43084BD03498464444F7
:104A3000CEE70948FFF742FCE6E7CA24A400444356
:104A4000034BE418014B9846C2E7C046C00700205C
:104A500064180020300101081801010810B5040095
:104A6000042005F0CFF8032C00D9FF24064BDA7F91
:104A7000A24204D0DC77054B1B78DB0700D510BDC4
:104A8000200002F0BFFCFAE7C0070020A8030020C6
:104A900010B5012805D0064B0648D97FFFF70EFC5C
:104AA00010BD086802F078F8C0B2FFF7D7FFF7E74B
:104AB000C00700208802010830B51148114C438B13
:104AC000628B1149DB050D88D2050F21920BDB0D9E
:104AD000134307222940257F89042A400B43617F25
:104AE000920549061343094A0B431365436853650E
:104AF000836893654369D365A38A136630BDC04656
:104B0000C007002008030020F23E002000280040DB
:104B1000F8B5214D2B889BB2002B32D080221F4943
:104B2000D205526A096891422BD882072FD41C4CB7
:104B30001C4A528B01329A4224DA02F0B9FD1A4B18
:104B400000260020185E194B4000201807009C46E4
:104B50001A681749C0370B881400002B19D00B882E
:104B60000232013B1BB20B800026835F043023809E
:104B70000126B842EFD163461A602B88013B9BB2F5
:104B80002B80F8BD6021200002F0D6FCD7E7094C4D
:104B9000CEE7002EEFD1F0E748250020B81E002018
:104BA000BC1E002008030020621800205C180020B2
:104BB000601800207C1F002010B5044BC005C00DFC
:104BC0005883034805F01EF810BDC04608030020B6
:104BD0000202000010B5012824D002280CD0FA20CF
:104BE000154B00015C8B611CFBF782FB210002006E
:104BF0001248FFF763FB10BD086801F0EDFFFA22D1
:104C000083B2010012010020934208D8072B10D96B
:104C10000904090C1000FBF76BFB013880B2FFF7A9
:104C2000CBFFDCE7086801F0D7FF80B2FFF7C4FFD5
:104C3000D5E70348F3E7C04608030020C8FF000893
:104C4000FF010000411CFA2010B50001FBF750FBEA
:104C500010BDC04610B50400084B1988084B1868F1
:104C60004B086043C018FBF7B9FA064B064A1B68AD
:104C7000126863439B18C01810BDC046B8070020D7
:104C8000B4070020B0070020BC070020F0B557464D
:104C90004E46DE464546E0B5B14B9DB0B14F04905F
:104CA00099465A8B3B888A469A4200D80EE10028E2
:104CB00000D011E1049B3B808022AB4B92059A61AE
:104CC000A8234A46A949D058FCF7D2F80AF0EEF8D2
:104CD0000A90112008F072FF4B4638885C8BA04286
:104CE00000D312E1032352461A4001925246023B7E
:104CF0001A409046524601331A40002393465246CA
:104D000003930A33009336331A4000215346069228
:104D1000C2460293884652E05346002B63D15B465D
:104D2000002B00D09CE03C88642C1BD85346002B01
:104D300006D08F4B0E99E200D1509B180F9A5A6003
:104D40005B46002B0ED02200894B10996532D200B1
:104D5000D150E2009B18CB2292009446119A6344F2
:104D600000911A60834B1B78002B03D0049B002B0F
:104D700000D0BBE04B465D8B7F4B5B8B262B16D95F
:104D8000A3001B191801C01A8000691EFBF7B0FAB6
:104D9000039B0600C21A002A09DD0F331800002108
:104DA000012308F025FD4B463C885D8B03960023CC
:104DB0000134A0B238800093A84200D396E0FFF7F8
:104DC00049FF019B0400002BA6D04B46D97F02F07F
:104DD000C9F9069B8046002B00D083E03B880593F1
:104DE0005346002B9BD0002002F054FB8023009AF6
:104DF000DB0594465B6A614A6344434413605E4B3F
:104E00005F4E5B8B029A02339BB2338020231A40A1
:104E1000904600D088E03388002B00D19BE130BF62
:104E20003388002BFBD10EAE300002F0F5FB434679
:104E3000002B00D01FE10A239846029B5B0700D499
:104E40006DE72000FCF750FB9C234A46D158FCF745
:104E50000FF83100FFF78CF85B46002B00D162E7BA
:104E6000012002F017FB8023009ADB0594465B6A61
:104E7000424A6344434413603F4B414E5B8B029A6A
:104E800002339BB2338021231340202B01D15BE1FD
:104E900030BF3388002BFBD110A802F0BDFB029B72
:104EA0009B0600D56EE0029B1B074CD4029BDB06E1
:104EB00000D438E70A9C1098211CFBF7D9FF211C6D
:104EC00010901198FBF7D4FF11902CE700233B8042
:104ED000049B002B00D1EFE65346002B00D0EBE6FD
:104EE00000201AE001235B42059315E7039B002B8A
:104EF00008D0022008F062FE0123039A00210F204F
:104F000008F076FC4B4638885C8B8022201A44429D
:104F10006041154B92019A61C0B21DB03CBC9046F5
:104F20009946A246AB46F0BD12AD2A002100059875
:104F3000FEF73CFF3388002B00D070E70EAE300048
:104F400002F06AFB98E02000FCF7CEFAA0234A4664
:104F5000D158FBF78DFF10A9FFF70AF8A6E7C04666
:104F6000C0070020B41E002000080048E3C8EB3D45
:104F700064180020E72E002008030020B81E00203F
:104F8000482500201A991098FCF788F812AD061CE5
:104F9000696A1198FCF782F8AB690090191C301C03
:104FA0000893FBF765FFEA690790111C00980992C6
:104FB000FBF75EFF011C0B900798FCF76FF8089950
:104FC0000C9010900098FBF753FF09990090301C4B
:104FD000FBF74EFF011C0098FBF7F2FB4A461190CD
:104FE000938C061C5A0500D45DE7EA680F99AD68FA
:104FF000101C099200950D91FBF73AFFFE218905DF
:10500000FBF7DEFB0E9D0890291C0098FBF730FF94
:10501000011C0898FCF742F8291C08900998FBF736
:1050200027FF0099051C0D98FBF722FF011C281C87
:10503000FBF7C6FB051C011C301CFBF719FF089988
:1050400000900C98FBF714FF011C0098FBF7B8FBCD
:10505000079910900B98FCF721F8291CFBF708FF23
:105060000899051C301CFBF703FF011C281CFBF7EB
:10507000A7FB119017E712AD29680E98FCF70EF800
:10508000804669680F98FCF709F8AB68EA68191C54
:105090000B9343460790404609920893FBF7E8FEBE
:1050A0002969FBF78DFB099980460798FBF7E0FE1D
:1050B000011C4046FBF7F2FF099980460898FBF770
:1050C000D7FE0B9909900798FBF7D2FE011C0998AF
:1050D000FBF776FB6969FBF773FB4146051C40460D
:1050E000FBF7C6FE291C0990281CFBF7C1FE011C1A
:1050F0000998FBF765FB011CFE208005FBF7DCFC33
:10510000414609900898FBF7B3FE291C0B900798BD
:10511000FBF7AEFE011C0B98FBF752FB0999FBF75E
:10512000A7FE41460E900798FBF7A2FE291C804679
:105130000898FBF79DFE011C4046FBF7AFFF09995D
:10514000FBF796FE0F9076E612AD2A002100059837
:10515000FEF72CFE9DE60EAE300002F05DFA6AE628
:10516000F0B5DE4657464E464546E0B5D04B89B0D1
:105170009B8A1B0600D51EE208F028FA05F090FF76
:10518000CC4B9B46CC4B9A4604F0FEFA5B46802201
:105190009B8C520013426ED10322104382B20192C3
:1051A0009B0503D54023019A1A4301929C235A463A
:1051B0000021D058FBF7A2F9002803D10423019A5B
:1051C0001A430192A0235A460021D058FBF796F9C2
:1051D000002803D10823019A1A430192A8235A46B2
:1051E0000021D058FBF78AF9002803D11023019A37
:1051F0001A430192B14B1B789B0741D130BF002667
:105200005346AF4A1B68151D0024002B10D053468F
:10521000AC4A1B6810882900013898475346002182
:10522000A9481C60FCF72CFD53461B68002BEED1EF
:10523000A24B1A7880235B421343A04A137008F0F4
:1052400071F99E4B1A787F2313409C4A1370002EED
:105250000BD09E4B1B78002B00D0D4E05B461A8B02
:10526000D30719D4012004F0CDFC402004F0CAFC7F
:1052700004F008FD88E72322104382B201928FE7F1
:1052800001990120FFF702FD02228C4B06001B78DA
:1052900093438A4A1370B3E706275B4617405E8B39
:1052A000022F00D122E1042F00D11FE10023079338
:1052B000069318230296134000D121E1103B594276
:1052C0004B410D215B42194089461E231A40730150
:1052D00013437F4A9BB212889A422FD07C4A138094
:1052E000042F00D153E1002E00D162E1069B00257E
:1052F0009C46664432001C00029B4E469846B946C6
:105300001700320041462000FEF7BEFF011C281C9A
:10531000FBF756FA0134051CA742F2D14F46B146BD
:10532000022F04D1291C281CFBF74AFA051CFE2079
:10533000291C8005FBF7C0FB664B1860664B019A81
:1053400005934B4603930123134210D1CA229200C6
:105350009446019B614A5B080193059B6344059356
:105360009A4200D17EE70123019A1342EED05B46B8
:105370005B8B9946002B00D119E10026554B069F07
:105380001B68574D059C0493039A02993800FEF759
:105390007BFF0499FBF76CFD011C80462068FBF73E
:1053A00067FD414628606068FBF762FD0136686072
:1053B0000137083408354E45E6DB4A46FF2A0CDC47
:1053C0004749D3008C46634400211960596080210D
:1053D0000132083349008A42F6D1079B002B00D0E6
:1053E00091E001213E4809F049FA5B461A8B0623F9
:1053F0001340042B00D1B7E0CA2239499200059826
:1054000009F07EFDA2E72A4B364A9B8A91469B070C
:1054100001D4354B9946304B0393019B05930123EF
:10542000059A134211D1CA2292009446059B2B4A39
:105430005B089BB20593039B634403939A4200D19C
:105440000CE70123059A1342EDD001221F4B1B7874
:10545000013B9A400492002AE5DD002302935B465B
:10546000039A5B8B106857680832140001254E467A
:10547000022B16D92368A26898466368414699466C
:10548000B047E26820606168381CB0475B466060E6
:105490005B8B0135013B083440464F469D42E9DBBA
:1054A000B146029B049A013302939A42D7D1BAE7DC
:1054B00008030020C007002050200020A80300207F
:1054C0003C200020942000209C200020A4200020CC
:1054D000A62000204C25002064180020B41E0020C7
:1054E000F02E0020D53B00087541000873009BB2E8
:1054F00002930123079318230696134000D0DDE69C
:1055000006239946E1E64B46012B14DDFE212C4A89
:10551000C90013008C4601204C46634480252D06AB
:10552000AC461168013019605168083B6144D9608C
:105530000832A042F2DB0121224809F09FF95B46C4
:10554000598B204B1A1D0023002900D14DE7002064
:105550000133106008328B42F9DB5B461A8B06235D
:105560001340042B00D047E75B465E8B012E00DC26
:1055700042E70125124C2300083B20681968FBF71D
:105580001FF9013520600834B542F4DB34E74846A2
:105590004043FBF75FFFFA218905FBF769FCFEF743
:1055A00049FE8721C905FBF763FC051CBFE6002205
:1055B00006E70025B4E6012008F020FBDCE5C04644
:1055C000F82E0020F02E002070B5094D6B8B002BBB
:1055D0000CD00024074EA0B2FFF73CFB01003000C6
:1055E000FEF76CFE6B8B0134A342F4DC70BDC04649
:1055F000C00700208C040108F0B5DE46574645463A
:105600004E46E0B5C24C87B0638B04AD2B800300DF
:10561000023B83460F00022B00D9DDE0086801F051
:10562000DBFA0600786801F0D7FA0290002E00D16C
:10563000C8E0002800D1C5E0864200D9C2E05B4640
:10564000022B00D0CCE002AA94460A236344984679
:10565000002342461380628BAE4903922A880B785E
:105660009346013A92B2924603229146082293430E
:105670000B70A38CDB0507D543461B881A4203D168
:105680004A4620231A439146A023E758043B0021B1
:10569000E058FAF733FF002800D0D3E043461B88D8
:1056A000DB060AD44A46042300211A43381C9146DB
:1056B000FAF724FF002800D1D0E0A8230021E05809
:1056C000FAF71CFF002807D143461B889B0603D42A
:1056D0004A4610231A439146E3689E4200D1C2E035
:1056E0004A4640231A4391465B46524663838A4B9F
:1056F00051461E60894B1A80029B981BFAF7F4FDF5
:10570000874B1860874B19604B469B0700D0B5E06C
:10571000FEF77CFD43461B88002B56D01A0600D5A9
:10572000B8E02A88002A50D07F4A002491467F4A58
:1057300092467F4A93460FE09A071AD45B072FD40C
:105740005046FEF7BBFD08239C462B880134E144FC
:10575000A3423ADD43461B88DA07EDD5A0B2FFF736
:1057600079FA01007348FEF7A9FD43461B889A07A2
:10577000E4D54A46704BD058FBF7F6FE4A466F4BCD
:105780000600D0580F00FBF7EFFE3B0000900191A0
:1057900032005846FEF792FD43461B885B07CFD583
:1057A0004B461868FBF7E0FE4B46060058680F00B2
:1057B000FBF7DAFE3200009001913B005C48FEF7F7
:1057C0007DFDBDE75E48FEF779FD07B03CBC904625
:1057D0009946A246AB46F0BD5A48FEF76FFDF4E786
:1057E000B86801F0F9F983B203932B80013B9BB2B7
:1057F0009A46642B00D986E0039B02AA94466383F1
:105800000A23634498460023424613805B46042BD8
:1058100039D1F86801F0E0F943463E4980B218807A
:105820000B781A0703D580221043424610804007A8
:10583000820F9146628B03922A889346013A92B274
:10584000924613E70021381CFAF758FE002800D0D2
:1058500033E743461B88DB0600D52EE74A4608237C
:105860001A43914629E7029B2269934200D037E709
:10587000638C039A934200D032E735E74946002013
:10588000FFF704FA44E7039A2249934603220B7870
:105890009146EBE602214046FEF7B0F902212800CE
:1058A000FEF7ACF92B88002B00D18EE701231E4EAA
:1058B00000249946022709E01F421CD15B0715D43A
:1058C0002B8801340836A34200DC7EE743464A4673
:1058D0001B881A42F0D0A0B2FFF7BCF90421059052
:1058E00005A8FEF78BF943461B88E5E70821300041
:1058F000FEF784F9E4E7104B0821F018FEF77EF973
:1059000043461B88DAE71048FEF7D8FC5DE7C0463F
:10591000C0070020A8030020BC070020B807002013
:10592000B0070020B40700208C1B00202C090108C0
:10593000C8030108C4030108D8FCFFFFDCFCFFFF1B
:105940008003010848030108A0030108082210B5DC
:10595000054C237813432370FFF74EFE082223786B
:105960009343237010BDC046A8030020014B186864
:105970007047C046B0070020F8B504000E00431C75
:1059800014D00B4D6B8B8B4210D98FB23800FFF7C0
:1059900061F90B34E4002C1960606088B04205D0D6
:1059A00003F000FF6780082004F02CF9F8BDC04622
:1059B000C0070020F0B5DE4657464E464546E0B5E6
:1059C000394C83B0A3686568678B5E1B9946374B7B
:1059D000013F1D60364BB9B219803000FAF784FCE4
:1059E000344BA2461860344B30001960FBF77CFD45
:1059F000011CFE208005FBF75FF85A239B4600231D
:105A00000090A34498460EE05B4619884046FFF795
:105A1000B3FF01239C460733E0449C464346E344DE
:105A2000E244082B1BD05346DE6D002EECD0002143
:105A3000B542EBD23900B145E8D93800FBF70AFD91
:105A40000099FBF715FA0190701BFBF74DFD011C47
:105A50000198FBF70DFAFBF7DDFC0100D6E749469C
:105A6000280003F0FBFDE3689D4211D0A38C802247
:105A7000920013431148A38404F0C4F80022104B91
:105A80001A8003B03CBC90469946A246AB46F0BD96
:105A90002269A38C9145EAD1618B628C9142E6D157
:105AA000084A1340E6E7C046C0070020BC070020B4
:105AB000B8070020B0070020B407002087020000CC
:105AC000B41E0020FFFDFFFF10B508F0C7FA040068
:105AD000FFF770FF2123034AD05C04F0C1F82000D7
