:020000040800F2
:1000000000010020C1000008CD1C0008A9850008DF
:10001000011800080118000801180008011800085C
:10002000011800080118000801180008011800084C
:10003000011800080118000801180008011800083C
:10004000011800080118000801180008011800082C
:1000500001180008E91A0108091B01080118000825
:10006000011800080118000801180008C91A010841
:10007000011601080118000801180008A12B00084A
:1000800001180008011800080118000801180008EC
:1000900001180008011800080118000801180008DC
:1000A000011800080118000801180008192C0008A0
:1000B000011800080118000801180008F92F0008AD
:1000C00072B6224880F30988022080F31488BFF3B7
:1000D0006F8F01F05FFB03F0F7F81D481D491E4AC2
:1000E000914202DA08600431FAE71C49174A91424A
:1000F00002DA08600431FAE719491A4A1A4B9A429F
:1001000004DA0868106004310432F8E70020174967
:10011000174A914202DA08600431FAE701F040FB25
:1001200001F03AFB134C144DAC4203DA21688847C6
:100130000434F9E708F086F8104C114DAC4203DAAC
:10014000216888470434F9E70E4908470003002076
:1001500055555555000000200001002000010020E9
:100160007870010800030020F8030020F803002045
:10017000143F0020C0000008C0000008C0000008B4
:10018000C00000089D170008F0B544464D4656468D
:100190005F46F0B46B46CB60C3689D46F0BCA0469A
:1001A000A946B246BB46F0BD62B6281CA047002057
:1001B00001F04EFD01F0ECFC014A024B1360FEE73A
:1001C00004ED00E00000008002B4714649084900D7
:1001D000095C49008E4402BC7047C04603B47146B6
:1001E000490840004900095A49008E4403BC704741
:1001F000002243088B4274D303098B425FD3030A66
:100200008B4244D3030B8B4228D3030C8B420DD378
:10021000FF22090212BA030C8B4202D31212090206
:1002200065D0030B8B4219D300E0090AC30B8B4244
:1002300001D3CB03C01A5241830B8B4201D38B03F2
:10024000C01A5241430B8B4201D34B03C01A524197
:10025000030B8B4201D30B03C01A5241C30A8B42DA
:1002600001D3CB02C01A5241830A8B4201D38B02C5
:10027000C01A5241430A8B4201D34B02C01A524169
:10028000030A8B4201D30B02C01A5241CDD2C309DB
:100290008B4201D3CB01C01A524183098B4201D357
:1002A0008B01C01A524143098B4201D34B01C01A42
:1002B000524103098B4201D30B01C01A5241C308BA
:1002C0008B4201D3CB00C01A524183088B4201D329
:1002D0008B00C01A524143088B4201D34B00C01A15
:1002E0005241411A00D20146524110467047FFE781
:1002F00001B5002000F0F0F802BDC0460029F7D09B
:1003000076E7704703460B437FD4002243088B42B5
:1003100074D303098B425FD3030A8B4244D3030B8C
:100320008B4228D3030C8B420DD3FF22090212BA51
:10033000030C8B4202D31212090265D0030B8B42CD
:1003400019D300E0090AC30B8B4201D3CB03C01AB7
:100350005241830B8B4201D38B03C01A5241430B92
:100360008B4201D34B03C01A5241030B8B4201D382
:100370000B03C01A5241C30A8B4201D3CB02C01AED
:100380005241830A8B4201D38B02C01A5241430A65
:100390008B4201D34B02C01A5241030A8B4201D354
:1003A0000B02C01A5241CDD2C3098B4201D3CB01FB
:1003B000C01A524183098B4201D38B01C01A5241AA
:1003C00043098B4201D34B01C01A524103098B42AE
:1003D00001D30B01C01A5241C3088B4201D3CB0099
:1003E000C01A524183088B4201D38B00C01A52417C
:1003F00043088B4201D34B00C01A5241411A00D22C
:1004000001465241104670475DE0CA0F00D0494294
:10041000031000D34042534000229C4603098B4204
:100420002DD3030A8B4212D3FC22890112BA030A8C
:100430008B420CD3890192118B4208D3890192110E
:100440008B4204D389013AD0921100E08909C30993
:100450008B4201D3CB01C01A524183098B4201D395
:100460008B01C01A524143098B4201D34B01C01A80
:10047000524103098B4201D30B01C01A5241C308F8
:100480008B4201D3CB00C01A524183088B4201D367
:100490008B00C01A5241D9D243088B4201D34B0082
:1004A000C01A5241411A00D20146634652415B10C4
:1004B000104601D34042002B00D5494270476346A5
:1004C0005B1000D3404201B5002000F005F802BDEA
:1004D0000029F8D016E770477047C046D0400B1C83
:1004E0001141203A03D49C461341184363465242BB
:1004F000934018437047C0468446081C6146FFE796
:100500001FB500F071FC002801D40021C8421FBDB6
:1005100010B500F0F3FB4042013010BD10B500F003
:1005200063FC002801DB002010BD012010BDC04687
:1005300010B500F059FC002801DD002010BD01209D
:1005400010BDC04610B500F001FC002801DC002001
:1005500010BD012010BDC04610B500F0F7FB00280B
:1005600001DA002010BD012010BDC046002B11D1C2
:10057000002A0FD1002900D1002802D00021C94350
:10058000081C07B4024802A14018029003BDC046EF
:1005900049FFFFFF03B4684601B5029800F048F830
:1005A000019B9E4602B00CBC7047C046F0B5CE46DB
:1005B000474615042D0C2E0080B50704140C3F0C83
:1005C0009946030C7E435D43674363437F19340CB4
:1005D000E4199C46A54203D980235B029846C44493
:1005E0004B4643435143250C36046544360C2404E2
:1005F000A4195B19591820000CBC90469946F0BD0F
:100600009E2110B5C905041CFFF7A6FF002803D1E1
:10061000201C00F009FF10BD9E21201CC90500F020
:1006200047FD00F001FF80231B069C466044F2E773
:10063000F0B557464E464546DE46E0B5040083B069
:100640000D00924699468B4230D82DD049465046EF
:1006500001F08CF829000600200001F087F8331A19
:100660009846203B9B4633D45A46534693404246D5
:100670001F00534693401E00AF423AD8AF4200D10C
:100680007BE05B46A41BBD41002B00DA78E0002232
:1006900000230092019301235A46934001930123C2
:1006A00042469340009328E08242CFD900220023A3
:1006B000009201930C9B002B01D01C605D600098A0
:1006C000019903B03CBC90469946A246AB46F0BDAA
:1006D000424620239B1A5246DA40414613004A46BE
:1006E0008A40170042461F43534693401E00AF42C4
:1006F000C4D900220023009201934346002BD9D095
:10070000FB079C46614672080A437B0846460EE09A
:10071000AB4201D1A2420CD8A41A9D410120241958
:100720006D410021013E24184D41002E06D0AB4200
:10073000EED9013E24196D41002EF8D1009801999F
:100740005B4600196941002B25DB2B005A464446C5
:10075000D3402A00E2401C005B461500002B2BDB37
:1007600026005F46BE40330026004746BE403200AA
:10077000801A9941009001919CE7A342B9D880E783
:100780004246202300219B1A00220091019201225F
:10079000DA40019283E7424620239B1A2A0046460C
:1007A0009A402300F340444613432A00E2401C00D1
:1007B0005B461500002BD3DA2023424626009B1A05
:1007C000DE402F00B4464646B74066463B00334302
:1007D000CAE7C046F8B54C02640A4746A0464C003A
:1007E000C90FCE4689464146430246005B0A360E93
:1007F000240E80B5C50F9C463200D800C900371BB7
:100800004D4560D0002F48DD002C00D17CE0FF2E4C
:1008100000D183E08023DB04194301231B2F07DC75
:100820000B002022FB40D71BB9404A1E91410B43CD
:10083000C31A5A0100D4A8E09B019C09200000F0D3
:1008400077FF05388440864200DDADE0861B22003C
:1008500020200136F240861BB44023005C1EA341D9
:10086000002613435A0704D00F221A40042A00D04E
:1008700004335A0100D48BE00136F2B2FF2E00D1CE
:100880008FE09B015B0A5B02D205580AED0710431B
:1008900028430CBC90469946F8BD002F49D1FE2450
:1008A000771C3C4200D086E0002E00D0DEE000281D
:1008B00000D1D1E00029E6D0431A5C0100D4F1E078
:1008C0000B1A4D46CEE7002F4ADD002C3FD0FF2EFD
:1008D00024D08023DB04194301231B2F07DC0B00EA
:1008E0002022FB40D71BB9404A1E91410B431B18E5
:1008F0005A014AD50136FF2E53D0012271491A40C0
:100900005B080B401343ADE7002943D0013F431A76
:10091000002F00D18DE7FF2E00D07EE76346002B2D
:100920003FD080236246DB0313435B025B0AFF2256
:10093000A9E7A21B002E60D1002878D0013A002A36
:1009400000D1B5E0FF2C5DD14D46C446E6E7002955
:1009500020D0013F4318002FCAD0FF2EBCD1DDE7C5
:10096000002F32D1FE24013634427AD1002A62D1DE
:10097000002800D1A0E0002900D184E74318002618
:100980005A0102D5504A013613405A0700D06BE78E
:10099000DB089C46FF2EC1D063465B025B0AF2B2C5
:1009A00071E7FF2200236EE7474B361A23405A07B0
:1009B00000D059E7ECE7441A630161D4002C00D061
:1009C0003CE70025002200235DE7A21B002E28D172
:1009D00000282DD0013A002A70D0FF2CB5D0012379
:1009E0001B2A07DC03002026D340B21A9040421E87
:1009F000904103435B1826007AE7FF2CA4D08023A4
:100A0000DB04184301231B2A07DC03002025D34005
:100A1000AA1A9040421E90410343CB1A4D4626002D
:100A200007E7FF2C91D08023DB041843D7E74D461E
:100A3000C4462600AEE7002887D0002900D16DE724
:100A400080236246DB031A4200D167E742461A421E
:100A500000D063E7C44661E7002926D04D464346EF
:100A600011E7FF2E9DD043185B088EE700280AD1BE
:100A7000002900D068E780230025DB03FF2202E77E
:100A80000C1A4D46DAE6002900D147E7802362467A
:100A9000DB031A4200D141E742461A4200D03DE74B
:100AA0004D4652E7002B00D06FE700250023EAE611
:100AB0000B1A4D462600BCE64346E4E643182600E2
:100AC00016E7C046FFFFFF7DFFFFFFFBF0B54F4677
:100AD0004646D64644024500C0B5640A0F1C2D0E9A
:100AE000C60F002D4FD0FF2D55D08023E400DB042E
:100AF0001C43002399469A467F3D7B0278005B0A9F
:100B00009846000EFF0F002831D0FF2810D0802219
:100B1000DB00D2041A43904600217F382D1A4B4641
:100B200032000B4371489B00C3587A40D2B29F46B3
:100B3000FF3D002B54D102234946194332000B00DC
:100B40007A40033BD2B20C2B04D869499B00CB58A6
:100B50009F463A00002000246402C305600AD207C1
:100B6000184310431CBC90469946A246F0BD002B8A
:100B70002BD101234946320019438B005D497A404D
:100B8000CB58D2B29F46002C13D104239946033B85
:100B900000259A46B1E7002C05D108239946063B6B
:100BA000FF259A46A9E70C239946093BFF259A465B
:100BB000A3E7200000F0BCFD7625431F9C400023E6
:100BC0006D422D1A99469A4697E7180000F0B0FD3D
:100BD0004246431F9A402D189046763500219EE7E5
:100BE00003219CE717003A00FF200024B4E780248B
:100BF0000022E403FF20AFE732005346022BF1D07E
:100C0000032B6CD0012BA5D028007F30002846DDB7
:100C1000630704D00F232340042B00D004342301A6
:100C200003D52800344B80301C40FE28DCDCA401B6
:100C3000640AC0B290E78023DB031C4227D04246FF
:100C40001A4224D144461C436402640A3A00FF203D
:100C500082E73A0044468A46CFE7414663014C01A9
:100C6000A34235D21B200021013D01271E0049006F
:100C70005B00002E01DB9C4201D81B1B394301386D
:100C80000028F3D11C00631E9C410C43BCE7802369
:100C9000DB031C436402640A3200FF205CE701238B
:100CA000181A1B2800DD55E79E352300AC40C340D1
:100CB000611E8C411C43630704D00F232340042B87
:100CC00000D00434630107D4A401640A002043E780
:100CD0001B1B1A200121C8E7012000243CE78023C8
:100CE000DB031C436402640AFF2035E73423010858
:100CF00074230108A8230108FFFFFFF770B5420025
:100D00004E024C0045026D0A120EC30F760A240EE5
:100D1000C90FFF2A0FD0FF2C11D00120A24200D012
:100D200070BDB542FCD18B420DD0002AF8D128000D
:100D3000451EA841F4E70120002DF1D1EBE7012089
:100D4000002EEDD1E9E70020EAE7C04670B54A0081
:100D50004E02450244006D0A240EC30F760A120E9D
:100D6000C90FFF2C15D0FF2A0ED0002C15D1002A58
:100D700001D1002E1CD0002D14D08B4227D0022090
:100D8000013B1840013870BD002EEED002204042D9
:100D9000F9E7002DFAD1FF2A0ED0002A0ED1002E3D
:100DA000EDD00BE001230139994308000130EAE757
:100DB0000020002DE7D0E2E7002EE7D18B42DED104
:100DC000944205DD0221581E08400138DBE700246B
:100DD000A24204DCB542D2D80020B542D3D2581E7C
:100DE000012398430130CEE730B5420044024D0262
:100DF000C30F4800640A120E6D0A000EC90FFF2AC5
:100E000017D0FF2808D0002A17D1002808D1002DBC
:100E100006D1002C23D007E0002DF4D002201EE0E4
:100E2000002C17D08B421FD00220013B1840013804
:100E300015E0002CF2D1FF2812D0002801D1002D9E
:100E4000F2D08B42F0D182420FDD0221581E0840C1
:100E5000013804E00123013999430800013030BD15
:100E6000002DEED00220FAE70022904204DCAC42D2
:100E7000DAD80020AC42F2D2581E01239843013048
:100E8000EDE7C046F0B54F464646D646440245001B
:100E9000C0B58846640A2D0EC70F002D49D0FF2D1E
:100EA0004FD08023E400DB041C43002399469A467C
:100EB0007F3D434642465E02D20F5B00760A1B0E20
:100EC000904646D0FF2B12D080220020F600D2049C
:100ED0007F3B1643ED186A1C434694464A467B40C6
:100EE0000F2A00D974E0704992008A589746FF355E
:100EF000002E54D14A4602231A4391460220EAE7C3
:100F00004346340082465246022A2AD0032A00D1A0
:100F1000C3E0012A00D082E0002200246402D2054E
:100F2000600ADB07104318431CBC90469946A24652
:100F3000F0BD002C27D104239946033B00259A4697
:100F4000B7E7002C19D108239946063BFF259A469E
:100F5000AFE7002E08D14A4601231A4391460120EB
:100F6000B9E7FF220024D9E7300000F0E1FB431F7E
:100F70002D1A9E40763D0020ADE70C239946093B93
:100F8000FF259A4695E7200000F0D2FB7625431F07
:100F90009C4000236D422D1A99469A4689E74A469D
:100FA00003231A439146032095E73B00ABE78024D7
:100FB0000023E403FF22B1E78023DB031C4245D07A
:100FC0001E4243D133435C02640A4346FF22A5E735
:100FD000200C2404210C0F00320C3604360C77430D
:100FE00051434643504389193A0C5218964203D94B
:100FF00080214902884640443F0411043F0CC9192E
:101000008C01661EB441890E2143140C2418A401DE
:101010000C4322013CD50122610814400C43604678
:101020007F3000281ADD620704D00F222240042AF4
:1010300000D00434220103D560461C4A803014409D
:10104000FE288EDCA401640AC2B267E78020C003D8
:1010500004436402640A3B00FF225FE70122101A86
:101060001B2800DD58E762469E3221009440C140B3
:10107000621E94410C43620704D00F222240042ACE
:1010800000D00434620105D4A401640A002245E7BB
:10109000AC46C4E70122002440E78022D203144377
:1010A0006402640AFF2239E7E0230108FFFFFFF72B
:1010B000F8B543025B0ADA00DE4693464A02520A5A
:1010C000454690464E4657464446E0B54A004700DE
:1010D0003F0EE400120EA1469C463E00C50FC90F0C
:1010E000BC1AFF2A00D177E00120824650464140D9
:1010F0008D4200D180E0002C51DD002A00D073E049
:101100004B46002B00D1DDE0013C002C0FD0FF2F1F
:1011100000D1A5E001231B2C09DC20224946121B2B
:1011200091404B460A00E340511E8A4113435A4600
:10113000D31A5A0100D4C0E09B019C09200000F0A2
:10114000F7FA230005388340864200DDC4E0861BA1
:101150001A0020200136F240861BB3405C1EA341DA
:10116000002613435A0704D00F221A40042A00D045
:1011700004335A0100D4A3E00136F7B2FF2E00D1A8
:10118000A7E09B015B0A5802FF05400AED073843C0
:1011900028433CBC90469946A246AB46F8BD002C7D
:1011A0004FD1FE247A1C144200D09CE05A46002FF6
:1011B00000D003E1002A00D1F4E04A46002AE2D040
:1011C0004B465A46D31A5A0100D405E14B465A46BB
:1011D0000D009B1A0026C5E74846002800D183E78A
:1011E0008D4251D0002CDADDFF2F39D080234A46C2
:1011F000DB041A4391468DE7002C45DD002A3AD0E6
:10120000FF2F2DD080234A46DB041A439146012349
:101210001B2C09DC20224946121B91404B460A0038
:10122000E340511E8A4113435B445A0145D50136C0
:10123000FF2E4ED001226F491A405B080B4013432A
:1012400090E7D41B0D00002F72D15B46002B00D11C
:1012500092E0013C002C00D1C5E0FF2A6FD1C446CA
:101260006346002B35D080236246DB0313435B02C9
:101270005B0AFF2787E74B46002B23D0013C002C5D
:1012800077D0FF2FC3D1EBE7002C38D1FE227E1C94
:10129000324200D08CE05A46002F70D1002A00D193
:1012A000A6E04A46002A00D16DE75B464B44002683
:1012B0005A0102D5504A013613405A0700D053E76D
:1012C000DB089C46FF2ECBD063465B025B0AF7B27D
:1012D00059E7FF27002356E7474A361A13405A07B3
:1012E00000D041E7ECE74B465A46D41A63016FD46D
:1012F000002C00D022E700250027002343E7D11B64
:10130000002F2CD0FF2AAAD080235846DB04184394
:10131000834601231B2908DC5B4620245846CB402A
:10132000611A8840411E884103434B4416007CE704
:10133000FF2A94D080235946DB0419438B460123AE
:101340001B2C08DC20215B465846E3400C1BA040C8
:10135000411E8841034349461600CB1AE9E65B4625
:10136000002B09D001390029DFD0FF2AD1D1C44692
:1013700076E75B464B4458E7C4461600A2E7002ACE
:1013800000D16CE74A46002A00D169E78022D203E7
:10139000134200D164E74346134200D060E70D00DA
:1013A000C4465DE74B46002B1AD00D004346EAE6E3
:1013B000FF2E8ED05B464B445B087EE7002AE1D1CE
:1013C0004B46002BEBD180230025DB03FF27DAE619
:1013D0004B460D009C1AB1E60026002B00D06CE7AE
:1013E00000250023CFE64B46594616005B1AA0E6BF
:1013F0004346C8E6FFFFFF7DFFFFFFFB42024B02B3
:1014000040004900520A5B0A090E000EFF2806D070
:101410000020FF2902D11800431E98417047FE3872
:10142000002AFBD1F4E7C04641024200C30F490A3B
:10143000120E00207E2A03D99D2A02D9094A981843
:101440007047802000040143952A07DC9620821A09
:10145000D1404842002BF3D10800F1E7963A914081
:10146000F7E7C046FFFFFF7F70B5002812D0C31713
:10147000C5185D40C40F280000F05AF99E22121AC8
:10148000962A11DCD2B2082833DD0838854068027C
:10149000400A02E00024002200204002D205400A57
:1014A000E4071043204370BD992A0BDD0523290072
:1014B0001B1AD94003001B339D402B005D1EAB411E
:1014C00019430D00052801DD431F9D402B000A49EB
:1014D0000B406E0709D00F263540042D05D004338C
:1014E0005D0102D59F220B40121A9B01580AD2B20D
:1014F000D3E76802400AD0E7FFFFFFFB70B5041E88
:101500000DD000F015F99E22121A962A0EDCD2B2E6
:1015100008282EDD083884406002400A01E00022DD
:1015200000204002D205400A104370BD992A09DD0F
:10153000030021001B3399404B1E994105231B1AC0
:10154000DC400C43052801DD431F9C4023000A4971
:101550000B40650709D00F252C40042C05D004331F
:101560005C0102D59F220B40121A9B01580AD2B28D
:10157000D7E76002400AD4E7FFFFFFFB70B54100E8
:101580004602C40FFE20090E4B1C750A184214D0E7
:10159000E0239B006D07360BCB1800210A0D2800B5
:1015A00012051C4D32435B052A405B0813435B0068
:1015B000E4075B082343190070BD002914D1002DF6
:1015C0001ED0280000F0B4F80A281CDC0B232A00E7
:1015D0001B1ADA40030015339D400F4B12031B1AF0
:1015E0005B05160B5B0DD8E7002D06D0320B80266D
:1015F00036036D071643094BCFE7084B0026CCE7AF
:1016000000230026C9E703002A000B3B9A4000256F
:10161000E3E7C046FFFF0F8089030000FF070000DB
:101620004A00F0B50B03520D3D4D5B0A470F561CA7
:10163000C90F1F43C4002E4228D03A4BD518FE2DA7
:1016400008DDFF2200204002D205400AC9071043EE
:101650000843F0BD002D2DDD80010200501E8241A7
:10166000FB00640F134323435A0757D00F221A403D
:10167000042A00D004338022D2041A404ED001350F
:10168000EAB2FF2DDDD09B01580ADCE73C43002A7B
:1016900006D1002C0BD005239B01580AD2B2D2E709
:1016A000002CCED08020C0033843FF22CBE700229D
:1016B0000020C8E72B00173322DB80231E261B04E3
:1016C0003B43761B1F2E1DDD02204042451B1800A8
:1016D000E8400500202E04D013488446624493401D
:1016E0001C4323005C1EA3412B4300255A07BDD198
:1016F0008020C00418400122A842C4D10200CBE7D8
:101700000022C8E7094810182200844025008340C1
:101710006C1EA541F2402B431343E6E72A00BBE7CA
:10172000FE07000080FCFFFFA2FCFFFF82FCFFFF22
:101730001C2101231B04984201D3000C10391B0A01
:10174000984201D3000A08391B09984201D30009C5
:10175000043902A2105C40187047C046040302021C
:1017600001010101000000000000000010B5002987
:1017700003D1FFF7DDFF203002E0081CFFF7D8FFA0
:1017800010BDC0460023C25C0133002AFBD1581EA5
:10179000704700007047C0467047C046FEE7C0462D
:1017A00080229446F0B50025104E114C1149124B81
:1017B0001248B44499420DD91A0080C880C291429F
:1017C000FBD80139C91A8908013189005B189C428C
:1017D00002D920C39C42FCD81036664504D030683C
:1017E0007368B168F468E5E7F0BDC04620240108DD
:1017F000143F0020143F0020143F002070710108A6
:10180000FEE7C046FEE7C04610B500F0EFF800F076
:1018100069F80B4C80220B49200000F0BDF90A4BFF
:10182000283C206103610123084A0375136A0849B3
:101830000B40136262B6074800F0CAF910BDC046FB
:10184000D0040020A02401080001002000ED00E0E9
:10185000FFFF00FFA824010872B6014B5862FEE7A3
:10186000A8040020F8B58026CE4647461B4DF60555
:101870006C69726A286AA36880B5111A99421DD3EF
:101880002F000022143790460AE062B62069C8474C
:1018900072B66C69726A286AA368111A8B420DD8F5
:1018A000E268C318914642462B6223685F606B6111
:1018B000E260BB42E9D100F049FAE6E708498C4210
:1018C00006D01818801A022806D3801800F044FAAF
:1018D0000CBC90469946F8BD0220F6E7A80400200B
:1018E000BC040020054B1A0014325A619A6101228F
:1018F0005242DA6100221A627047C046A8040020F2
:1019000070B503618023DB050500C260586A0229B7
:1019100000D20221164E32007369143293421DD058
:10192000326A0818841A9A68A24203D911E01B6827
:10193000A41A9A68A242FAD35A682B606A601560AA
:101940005D60AC609A68141B9C6001235B42F3618C
:1019500070BD00F001FA73699A68EBE73062756157
:10196000B56108182B606B60A96000F0E7F9EFE73C
:10197000A80400201C4B10B55969026881420ED0A2
:10198000416814330A60026851600021C1609A42C4
:1019900004D0916883688C466344936010BD18003E
:1019A000002414305A615060CC60824218D088689C
:1019B00091681B6A8C46604490608022D205526A0E
:1019C000D11A8842EAD99B1A1818022803D3801822
:1019D00000F0C2F9E2E70220801800F0BDF9DDE76F
:1019E00000F0B4F9DAE7C046A80400200022024B58
:1019F0001B605B609A607047A80400200023826827
:101A00000375054B1B6899689142FBD25A680360C5
:101A10004260106058607047A804002010B572B68C
:101A2000037D032B0AD0042B0CD0002B04D0012300
:101A30005B428361FFF7E2FF62B610BD002283695B
:101A40001A60F4E74268036813605A60EFE7C04623
:101A5000002382680375054B1B6899689142FBD887
:101A60005A6803604260106058607047A804002004
:101A700070B50C4C25692875206803685C6023608C
:101A8000012320610375EFF309832A69243B9A42FD
:101A900003D82900FEF778FB70BD0348FFF7DCFE92
:101AA0002069F6E7A8040020C824010830B5050025
:101AB00087B04B1C12D00B4C0B4A236901A8FFF7CF
:101AC0001FFF2800FFF7D4FF049B002B02D001A8C2
:101AD000FFF750FF2369986907B030BDFFF7C8FFD3
:101AE000004CF7E7A80400201D1A000870B5040098
:101AF0000F4DA3682869A1618268934203D8200032
:101B0000FFF77CFF70BDFFF779FF012306002C6112
:101B10002375EFF309830269243B9A4204D831000C
:101B20002000FEF731FBEDE70248FFF795FEF6E7F0
:101B3000A8040020C8240108044B1A691968906899
:101B40008B689842804140427047C046A8040020FC
:101B500070B50D4C236820691A6854602260012218
:101B60001A752361FFF774FF0500EFF3098302691B
:101B7000243B9A4204D829002069FEF705FB70BD7A
:101B80000248FFF769FEF6E7A8040020C824010810
:101B900010B5FFF7DDFF10BD02238260838270471E
:101BA000836841681A00203A11610169443BD3609F
:101BB00019614169596105491962C3681000936050
:101BC00002231375002353757047C046A90100080E
:101BD0004368826810B5934204D2552119700133CD
:101BE0009A42FBD172B6FFF7DBFF00210400FFF73A
:101BF0007DFF62B6200010BD70B54518A84205D221
:101C00000400552626700134A542FBD172B6203956
:101C10004418210024392061E1600B61049B2000FD
:101C20004B61054B0B620223A260A3820021FFF7E8
:101C30005DFF62B6200070BDA901000810B5034B1E
:101C40001B6998610F20FFF713FF10BDA804002047
:101C500010B572B6FFF7F2FF10BDC04610B5010017
:101C600072B60820FFF722FF62B610BD10B500293A
:101C70000AD0074B42681B6918605A6013604360C2
:101C80000420FFF713FF10BD01204042FBE7C046D0
:101C9000A8040020036810B5984206D01A680260B4
:101CA000506099611800FFF7A9FE10BD70B50400DF
:101CB00000680D00844208D0036823605C60856181
:101CC000FFF79CFE20688442F6D170BD80B500AF5E
:101CD000EFF30983203383F3098862B6BD4680BDE4
:101CE000B0B500AF0F300ED072B6EFF30984203CD0
:101CF00084F3098880235B04E361FFF71DFF00285C
:101D000003D0034BA361BD46B0BD024BA361FAE70C
:101D1000B5010008B801000810B500F0DBFE00F0C6
:101D2000F3FA00F0B1FC00F097FB01F00BFB00F0C0
:101D300001F810BD10B500F045FF10BD8023002252
:101D4000DB0558631A610232DA6070478023002293
:101D5000DB05DA607047C0468023DB0558637047B7
:101D6000C368196082680132826082699446426960
:101D70006344C360934201D3036AC3607047C046A3
:101D800030B51D00002404325543C361039B4D1937
:101D9000C362049B45610060406084600161C16072
:101DA0008261016244628462036330BD00230221C8
:101DB00010B5026A83600261C26043628362494275
:101DC000FFF774FF10BDC04610B50400FFF7C8FF51
:101DD00000212000FFF75EFF10BDC046836810B5EC
:101DE0000400002B07D000202269131D12686362D3
:101DF0009B18A36210BDFFF739FF0028FAD1F2E764
:101E0000826983689446013B836003694269634445
:101E100010B50361934201D3036A03610023436257
:101E2000C36A002B00D0984710BDC04670B50400AF
:101E300072B6436A002B0CD0A26A1D78013363622C
:101E4000934202D262B6280070BD2000FFF7D8FF8F
:101E5000F8E7FFF7C3FF051EF4D1636AECE7C0465D
:101E6000F8B5CE464746040080B589461700984627
:101E700072B6002515E0A36A7E1B5B1A9E4200D94C
:101E80001E003200484610F009FA636AA26A9B19E4
:101E90006362AD19934202D32000FFF7B1FFAF4256
:101EA0000AD9616A0029E6D141462000FFF796FF72
:101EB000002801D1616ADEE762B628000CBC9046BA
:101EC0009946F8BDC3680269934201D0181D704756
:101ED00082680020002AFAD1F8E7C0468368002B08
:101EE00003D0006908C80B6070470020FCE7C046BB
:101EF000826983689446013B836003694269634455
:101F000010B50361934201D3036A03610021FFF717
:101F1000C1FE10BDC368026910B50400934207D02A
:101F20001A1D6262A269002094466344A36210BD38
:101F30008268002AF4D0FFF799FE0028F7D1E36801
:101F4000EEE7C04610B50400FFF70AFF0023636206
:101F5000E36A002B01D02000984710BD70B5040043
:101F60000D0072B6436A002B0FD01D70636AA26A1F
:101F700001336362934202D262B6002070BDA3694E
:101F80002000191FFFF7DEFFF6E71100FFF7C2FF81
:101F9000002801D1636AE8E762B6EFE7F8B5CE46FC
:101FA0004746040080B589461700984672B600255A
:101FB00018E0A36A7E1B1B1A9E4200D91E004B46E6
:101FC0003200591910F06AF9636AA26A9B196362B8
:101FD000AD19934204D3A3692000191FFFF7B2FF84
:101FE000AF420AD9606A0028E3D141462000FFF7DA
:101FF00091FF002801D1606ADBE762B628000CBCC3
:1020000090469946F8BDC046836870B50400002527
:10201000002B06D1416A002903D0C3680439C91ACC
:1020200001D1280070BDFFF79BFE65620135F8E71E
:1020300003000269C169013A02614A1CC261C068B9
:10204000405C59698A4201D30022DA617047C04678
:1020500003690133036183695A1C8261C268D154E8
:1020600083694269934201D3002383617047C0466C
:1020700010B50024006040600461C160C4618461E7
:102080004261836010BDC0460023022110B5C361C8
:10209000836103614942FFF709FE10BD036942698C
:1020A00010B50400934207D2FFF7D2FF20000021B1
:1020B000FFF7F0FD002010BD01204042FBE7C046C5
:1020C00070B5040072B60369002B0BD02000FFF737
:1020D000AFFFA3680500002B01D02000984762B62F
:1020E000280070BDFFF7C2FD051EF8D1EEE7C0461F
:1020F000F0B54E46DE4657464546E0B583B004008F
:1021000000919146019372B6002711E02A004046E3
:1021100010F0C4F8E369EE182369E6615B1B2361E4
:102120007F19A368002B01D020009847B9452DD90D
:102130002369002B22D04A46D51B9D4200D91D00A1
:10214000002DEED0009B9846B844012D27D063693E
:10215000E6699B469B1B9A46E36899195545D5D37A
:102160005246404610F09AF85B464046F61A7619F9
:1021700050443200E16810F091F8CDE70199200059
:10218000FFF774FD002801D12369D4E762B6380057
:1021900003B03CBC90469946A246AB46F0BD200039
:1021A000FFF746FF434601371870BAE770B50400E1
:1021B0000D0072B6036941698B420BD229002000E1
:1021C000FFF746FFA368002B01D0200098470020AE
:1021D00062B670BD1100FFF749FD0028F8D1EDE7A8
:1021E000036970B50400002B08D0FFF721FF002120
:1021F00005002000FFF74EFD280070BD01256D424F
:10220000FAE7C046F0B55746DE464E464546E0B5CD
:1022100083B0040000919246019372B60027B8463D
:1022200011E02A00494610F039F8A369EE18236935
:10223000A6615B192361A844A368002B01D020008C
:102240009847C2452ED923696769BB4221D25246BD
:102250004146FB1A551A9D4200D91D00002DEBD0B6
:10226000009B43449946012D25D0A669BB1B9B4684
:10227000E36898195D45D4D35A46494610F00EF8E4
:102280004946F61B761959443200E06810F006F80A
:10229000CDE701992000FFF7E9FC002802D167692A
:1022A0002369D4E762B6404603B03CBC90469946E9
:1022B000A246AB46F0BD19782000FFF7C9FE012306
:1022C0009C46E044B8E7C046012110B508304942B9
:1022D000FFF7F6FE10BDC046012210B5283052426D
:1022E000FFF764FF10BDC046012310B508305B4204
:1022F000FFF7FEFE10BDC046012310B528305B423B
:10230000FFF780FF10BDC04610B500F0C9FC10BD3E
:1023100070B515000A4A0B0002600100012204009A
:102320000271483108303F32FFF7A2FE2100200041
:102330002B00883128304022FFF79AFE70BDC0463E
:10234000D824010810B5040072B600F0D3FC0223B3
:10235000237162B610BDC04630B59E25046B6D007A
:10236000625983B013681978042902D121790229AE
:1023700001D003B030BD117901228A401B8913427C
:10238000F7D1200001A93C30FFF7A8FD021EF0D0D4
:10239000635919791868019B00F0CCF9E9E7C04648
:1023A00070B59E256D004259040013681978042900
:1023B00002D10179022901D0012070BD5179012299
:1023C0008A405B891342F7D10830FFF77BFD021E7C
:1023D000F2D0635918685979402300F099F9002028
:1023E000EBE7C04610B5006BFFF7DAFF10BDC04643
:1023F000012110B508304942FFF718FD10BDC04655
:102400009E235B00C35810B51B681B78042B05D1B5
:1024100001223C305242FFF7A1FD10BD0220404294
:10242000FBE7C046012310B508305B42FFF718FDFB
:1024300010BDC04603009E204000185810B500682B
:1024400004780020042C00D010BD3C331800012378
:102450005B42FFF7A3FDF7E77047C0460E4B10B590
:10246000036001230400010003710C4B82B0009350
:1024700070310830019401234022FFF781FC2100D4
:102480002000074BB43100933C30019402234022DA
:10249000FFF776FC02B010BDF8240108E523000820
:1024A000592300080A6872B60B7909339B00D318C8
:1024B00058604B7911339B0098508B79002B03D0D7
:1024C00009339B00D21850609E235B00C1503B3BF8
:1024D000FF3B037162B6704710B504000830FFF788
:1024E00065FC20003C30FFF761FC10BD10B5040016
:1024F0000830FFF75BFC20003C30FFF757FC200062
:10250000FFF74EFF10BDC0467423C15C143B0200B0
:102510000B400020202B00D070475533D35C202B7C
:10252000FAD3212B05D8064B012093660723D366E7
:10253000F2E7222BF0D19066D0660120ECE7C0468E
:102540000003002070B59E256D00425982B01368CB
:1025500004001978042902D10179022901D002B0BE
:1025600070BD117901228A401B891342F7D1060000
:102570003C363000FFF748FD0028F0D001A93000BC
:10258000FFF7ACFC6359020019791868019B00F051
:10259000D1F8E4E70B00F0B509339B00C3185C6881
:1025A00083B006000F00002C15D072B68D004519BF
:1025B000EB683C345B691B68002B1BD101A9200030
:1025C000FFF78CFC002808D00200019B3900300086
:1025D00000F0B0F862B603B0F0BDEB685A691B8A30
:1025E00012689A42F6D1002300223900300000F030
:1025F000A1F8EFE72000FFF77BFCDFE7113189004E
:1026000010B50C58002C11D072B69E235B00E35815
:102610001A685B7902339B00D3185B689B69596821
:10262000002904D12000FFF7BBFE62B610BD2000D8
:102630000830FFF7C9FBF5E77047C04610B5040046
:10264000002100F0E7FD0021200000F0CFFD6368CD
:102650001B68002B02D00521200098476423062226
:10266000E25410BD762310B50400C25A0833C25498
:1026700000F09EFB63681B68002B02D00121200044
:1026800098470323237010BD10B500F067FB10BD01
:1026900001230370002301004360030000222C3358
:1026A00048311A60DA6104338B42FAD18260704794
:1026B00010B5040072B600234160C360036143613A
:1026C0008361C36103624362836200F04FFB0223B4
:1026D000237062B610BDC0468B1C9B0070B5C3183A
:1026E000050050690E0014005A60002803D00C2227
:1026F00000210FF0DDFDA069002803D00C2200218D
:102700000FF0D6FD3100280000F05CFB70BDC04624
:1027100070B501258D4044892C4344818C1CA40054
:1027200004196468A46923600023A260636000F058
:102730000BFC70BD70B501258D4004892C430481CC
:102740008C1CA40004196468646923600023A260DF
:10275000636000F00DFC70BD022310B564220370AD
:1027600000230400C3678360C36003614361836126
:10277000C361036243628362835400F089FB636830
:102780001B68002B02D000212000984710BDC046D6
:1027900005230370436810B51B68002B01D003218B
:1027A000984710BD04230370436810B51B68002BC5
:1027B00001D00421984710BD70B5642300250200A4
:1027C0000400C554743200F0A5FB636825679B685C
:1027D000002B1BD020009847002817D0E26E7A23E8
:1027E000E35A934200D2E36672B67423E35C7F2B14
:1027F00030D8E36E002B39D0A26E00212000FFF705
:1028000087FF64230422E25462B670BD7423E25C45
:10281000143B13421AD17523E05C563B1340012B45
:102820003ED0002B36D0022B10D178220F21A55A92
:10283000083229402A40012800D195E0002800D123
:1028400082E0032800D18FE00C2831D02000FFF770
:10285000F5FEDAE7E36E002B12D0A26E0021200015
:10286000FFF768FF64230122E254CDE70023002232
:1028700000212000FFF75EFF64230522E254C3E736
:102880000023002200212000FFF742FF64230322DF
:10289000E254B9E70928D9D8464A8300D3589F465D
:1028A0000028D3D1444B0222A3660223E36696E7B5
:1028B000414AE366A266022291E776237F22E35C27
:1028C000A3545A1E93410333237063681B68002B83
:1028D00002D00221200098470023A366E36683E725
:1028E00023007C33A36602230222E36677E72300FA
:1028F0007F33A36601230122E36670E776236068D5
:10290000E15A0233CAB24568E35A090A2000A847CF
:1029100000289BD043680268A366E2665FE7002355
:10292000A366E366254B23675EE77623E35A012B14
:102930008CD17C210222635A9343032801D0635235
:10294000CAE713436352C7E7C9B22000002A1CD06C
:1029500000F0D0FA01281BD0022800D076E7184BEF
:10296000E066A36602223AE77623E35A002B00D002
:102970006CE7002900D169E7C9B201280ED0200018
:10298000002A11D000F046FCA6E700F09FFAE1E72C
:102990000C4B0222A3660223E36620E72000002AF4
:1029A00005D000F065FC97E700F020FC94E700F00C
:1029B00045FC91E7182501086425010865260008F3
:1029C0005C25010860250108642310B5C35C040080
:1029D000062B05D8184A9B00D3589F46FFF72EFEBA
:1029E00010BD7A23C06EE35A984205D2E368198A73
:1029F000FDF784FC002913D072B6002300220021C9
:102A00002000FFF785FE62B664230322E254E7E765
:102A1000036F002B00D0984764230022E254DFE7C5
:102A200072B6002300222000FFF784FE62B6642302
:102A30000222E254D4E7C0464025010870B564255F
:102A4000425D0400062A14D80123934067221A42EB
:102A500010D1DA0611D41B070BD5C3689B695B68DC
:102A6000002B06D1036F002B00D09847642300226F
:102A7000E25470BDFFF7E2FDFBE772B600230022CF
:102A80000021FFF757FE62B605236355F1E7C04604
:102A90000F4A70B594460322FF25C0260240D2009B
:102AA00095408901914083089B006344B6009C597E
:102AB0001F22AC430C439C51012302409340C0228F
:102AC00040098000604452008350036070BDC046DE
:102AD00000E100E00A4B01219A6A00224942996212
:102AE0009A62186919611A61D86806490143D96068
:102AF000DA608022D96952050A43DA617047C0461C
:102B000000100240FFFFBFFF0121234A13680B435F
:102B10001360013113681942FCD0032153688B43C1
:102B200053605368093153601B4A53680B40FCD112
:102B3000F92110680140116053608023516B5B02E2
:102B40000B4380215363144A8902536B0B42FCD020
:102B5000E523DB0453600023D36210331363802327
:102B600011685B040B43802113600B4A89041368CE
:102B70000B42FCD01121094B196053680F390B43EC
:102B80005360054A0A3153680B40082BFBD10121E1
:102B900093690B439361704700100240002002408C
:102BA0008023DB051A6910B57446920703D4200010
:102BB000FFF796F810BD00221A6172B6FEF752FEBA
:102BC00062B6F4E701220E4910B5CB690F2013431A
:102BD000CB610C498B6813438B608023E021DB05BC
:102BE000FF319962E139FF39D96200219961596356
:102BF000D96059605A6102311A60FFF749FF10BD70
:102C000000100240005801408021024A13680B4323
:102C10001360704700380140F8B5C823CE464746D8
:102C20001D4E80B5F458F0462768E569256272B6F6
:102C3000AB060BD5202399460836A18C3000C9B2CB
:102C4000FFF72CFA4B46E5692B42F6D180233B4235
:102C500013D02B4211D0114B8026994604E080B24C
:102C60002085E5692E4208D04846FFF7B9FA0028CA
:102C7000F5DA80233A009A43226040233B4203D096
:102C80002B4201D09F43276062B64046FFF728F8E9
:102C90000CBC90469946F8BDEC04002014050020B9
:102CA00010B5084C084A20000021FFF731FBC8236B
:102CB000064A0221E250064A04331B20E250FFF785
:102CC000E7FE10BDEC040020092C0008003801408C
:102CD000006CDC02C82370B50125C4582368AB43DF
:102CE0002360CC23C058FDF783FAE06023682B43B0
:102CF000236070BDF8B5002922D0402601258B68DD
:102D00004A681E43CB6809681D432E23FF331343D3
:102D10000279012A0AD0C82284586660A56023601F
:102D2000FFF7D8FF01235B422362F8BD084A9042B7
:102D3000F1D18022074CD201A7693A43A261EAE7A8
:102D400096212E230902FF330125034EE0E7C046FA
:102D5000EC040020001002404040000010B5024882
:102D6000FFF796FC10BDC046BC050020037870B587
:102D70000400012B00D070BD0A4A904203D020000D
:102D8000FFF7EAFCF7E780220749084DC8691204FB
:102D90000243CA611F202B640321FFF779FE002341
:102DA0002B64ECE7BC05002000100240005C0040F2
:102DB0007E238022C35C1343014AD3647047C0461C
:102DC000005C00408B1C9B00C318F0B55D68CE46CC
:102DD000474603232A6880B5134052D00022022BB5
:102DE0000AD9033B5A42534180225B42D2001A4027
:102DF00080239B009C466244234C244BA4461B6DBD
:102E0000CE006344F4186B69002B11D0002363805B
:102E10008033C65899462B8A01339846012347468A
:102E20009F43BB194F46C3512023B6B226801A4395
:102E3000AB69002B12D06D8A3E2D1BD801356E0870
:102E4000B602B6B2E680802601278359BD43ED184D
:102E50009BB28551A38080239B011A430B4B8800B2
:102E60009C46604403680A43036002600CBC9046C1
:102E70009946F0BD20236E1E76111E43B6B2013571
:102E8000DEE780229200B7E700600040005C00406F
:102E900000230C4A10B51365536443688021DB6836
:102EA000D1645C4263419E242402A4465B425B02DF
:102EB0006344136440234350034B0021C360FFF776
:102EC00081FF10BD005C004068250108074B8900A8
:102ED000C858C0239B01184006D0054B9C4660444F
:102EE000431E9841013070470020FCE7005C004021
:102EF00000F0FFFF3020064B8900CB58184004D06B
:102F00001038431E9841013070470020FCE7C0464E
:102F1000005C00400A480B4B844610B51B6DC9008D
:102F20006344C91888881400614680B20834891A3D
:102F300083185B5A13800232A242F9D110BDC046F9
:102F400000600040005C0040064B89009C466144E4
:102F50000A68054B1A40C0239B015A40034B134398
:102F60000B607047005C00408FB7FFFF808000005F
:102F7000F0B5C6468B1C9B00C01800B54268556969
:102F8000148A68682B681B1A9C4200D91C00164FD3
:102F9000164BBC461A6DCB0062449A181388A7B230
:102FA000AE685780621C9BB252080CD01B1A984620
:102FB0004346371852006344D2199B1B3E88DE53A8
:102FC00002379742FAD1094B89009C4661440B684D
:102FD000074A0019134030225340064A68601343E1
:102FE0000B6004BC9046F0BD00600040005C0040F7
:102FF000BF87FFFF80800000F0B5DE464E46574693
:1030000045467346E0B58BB00893724B5E6CF24355
:103010005A64730500D5C3E0330500D5C7E0F30457
:1030200004D56C4B9A6C120400D4CAE0B30506D5E3
:10303000694F7B68DB68002B01D0380098478023FC
:103040001B021E4241D00F229146624A624F9046B7
:103050009A461AE01A6861480240504602431A60D4
:1030600063695A681B689A4239D301228A403B89B6
:1030700093433B81A368002B02D0C9B23800984724
:1030800043465E6C53461E421FD04946514A31406A
:103090009446881C8B0082006344BA181D685468EB
:1030A000F206D7D51A684D4E3240802632431A6058
:1030B000CAB201922D0517D56368110038009847F0
:1030C00043465E6C53461E42DFD10898FEF708FE69
:1030D0000BB03CBC90469946A246AB46F0BDC9B287
:1030E0003800FFF745FFCBE7A2693D4E5568934690
:1030F000AC460295926845466244B4462D6D0392F3
:103100006544CA00AA18958865440495D28895B28A
:10311000AA050595950D6A08069509920ED05600E8
:10312000039A049D9446AD1A66449C462B00079270
:103130009D5A158002329642FAD16346059AD2070B
:1031400008D5099A049D5200AD5A039EB5545A46BB
:1031500052680292069E5D46B446029A62446A60D4
:103160002D68AA4202D2628AB2420FD901228A4055
:103170007B898000934338187B814368DB68002B90
:1031800000D17DE701993800984779E71968154A19
:103190001140C02292015140134A0A431A606FE75E
:1031A0000D4F3800FFF7D8FA330500D437E7082170
:1031B000084A094F136C38000B431364FFF7E8FA11
:1031C0002DE708211A6C044F8A431A643800FFF770
:1031D000E9FA2BE7005C0040BC0500200F07FFFF69
:1031E000006000408FB7FFFF80800000064B890021
:1031F0009C4661440A68054B1A4080235B015A4093
:10320000034B13430B607047005C00408FB7FFFF18
:1032100080800000064B89009C4661440B68054A8B
:10322000134010225340044A13430B607047C046BA
:10323000005C0040BF87FFFF80800000094BC02278
:103240009C46890061440B6892011340934208D068
:103250000A68054B1A4080239B015A40034B1343D5
:103260000B607047005C00408FB7FFFF808000005C
:10327000084B89009C46302361440A681340302B78
:1032800007D00B68044A134020225340034A1343DB
:103290000B607047005C0040BF87FFFF808000002C
:1032A000054B064A1A60BFF34F8F054B054ADA609B
:1032B000BFF34F8FC046FDE7F03F0020EFBEADDE0D
:1032C00000ED00E00400FA0580B5164A164B1268BE
:1032D00000AF9A421AD0FC23144ADB0351690B4316
:1032E000536190230022DB055A60114ADA60114ACB
:1032F0005A61114A1A601A69520703D4FFF704FC95
:10330000BD4680BD042219690A42FCD162B6002282
:10331000044B1A60094B83F30888094B1B689847D4
:10332000FEE7C046F03F0020EFBEADDE00100240D9
:10333000AA0101A8DFF9000000FCAA6A50220020BF
:1033400004C8FF1F7047C046F8B547461D008046B9
:103350000B23CE46434480B50800170099461C0055
:1033600039000600FCF7CAFF3023CAB2092900D988
:1033700007339B18013CDBB22370002D02D0013DC6
:10338000002DEDD1BE4209D339000600FCF7B6FF8F
:103390000025CAB230230929EBD9E9E74A46101BB8
:1033A000002200E0A35C41468B5401329042F9D1E7
:1033B00040440CBC90469946F8BDC046F8B5CE4690
:1033C0004746814680B50E1C14001700092A00DD0F
:1033D00009271E4BBA00D358301C9846FDF710F948
:1033E0000500FEF78BF8011C301CFDF761FE061C82
:1033F0004046FEF783F8011C301CFDF743FDFC211D
:103400008905FDF7E7F9FDF7FBF80600804502D8CE
:1034100043460135C61A00230A2229004846FFF711
:1034200093FF002C0ED00122094B441C9B8A3100D3
:10343000DB05DB1793432E33037009323B0020007A
:10344000FFF782FF0CBC90469946F8BD6C26010838
:10345000080300200389012B06D943685A1C4260E7
:1034600019700389013B038100207047F0B5DE46E7
:103470004E46574645460023E0B58FB002932033B1
:1034800089469B46049203904B4619785F1C00299D
:103490000ED0252914D0B946039803689B68984735
:1034A000029B013302934B4619785F1C0029F0D12F
:1034B00002980FB03CBC90469946A246AB46F0BD80
:1034C00080203D7800264000802410210422022321
:1034D0002D2D0ED02B2D0FD0302D10D06A2D11D0C8
:1034E000202D12D0622D13D1064301373D782D2DAA
:1034F000F0D11E430137F9E716430137F6E70E43D3
:103500000137F3E726430137F0E72E430137EDE7B4
:1035100000240499220006E008C9DBB29400A41834
:1035200064003D781A192B00303BDBB20137092BC0
:10353000F4D92A2DF0D0049114002E2D00D13EE1B3
:1035400040231E430023B9469A462B00443BDBB27E
:10355000342B00D92EE1D54A9B00D3589F46082230
:1035600008AB9846049D002302CD4046FFF7ECFED1
:1035700042468246831A0495E41A6CD430239B4653
:10358000F30601D420239B46B30767D5D04500D36B
:10359000D2E14646029B039F01339D1B2B005546FB
:1035A000A2461C003B6831789B6838009847A319F5
:1035B0000136B542F6D854469846002C00D1C0E1F9
:1035C00026005F46039D2B6839009B682800013E5A
:1035D0009847002EF7D123004344BB46029353E79C
:1035E000049AF30500D514E1072307329A4303CA6E
:1035F0000492FEF715F8804600214046FCF78EFF46
:10360000002800D00FE1730700D4B8E108AB1A001E
:1036100005932B23944613702A3B63440693330689
:1036200004D56A23069A1370531C06930EF024FEE9
:103630004146FCF76DFF002800D185E11923069A69
:103640001370931C9A46202353705346059A9B1A75
:103650009046E41A92D50024B30797D42C23334222
:1036600002D0F30600D5C4E0261E10D05F46039DAD
:103670002B6839009B682800013E9847002EF7D13F
:10368000029BBB469C46A444634600240293D0455B
:1036900000D27EE7F8E6049D02CD002900DAD2E0F0
:1036A000730700D47BE108AB1A0005932B23501C51
:1036B0001370330602D56A230370013000230A22F7
:1036C000FFF742FE059A8246831A0495904653E717
:1036D00010233200049D9A4308CD9846002B00D158
:1036E000BBE01B78710600D461E1002B00D1BDE086
:1036F0006F494346464604E0F01A4018013000D1B5
:1037000037E1013318780028F6D19A46B0469B1B62
:103710000495160030E7049B04CB07935346002B17
:1037200073D055460E2B00DD0E2501230493002394
:1037300008A98C4698460E3363449C46012367468D
:103740009A46A44644465B4893085108C9180B0999
:10375000C9180B0AC9180B0CC918C9088B005B18CB
:103760005B00D31A092B03D90A3B0131092BFBD883
:1037700030337A1EDBB2137000297BD053460342EC
:1037800003D02023BA1E13700134170040080A002A
:10379000DAE71023049D9E4308CD08AA1370012385
:1037A00004959046012242449246E5E61022D7E66F
:1037B0000A22D5E608AB1D7008AA0123F1E7002311
:1037C000944618000C0006E008CCDBB20F00820023
:1037D0001218520098183D78791C2B00303BDBB250
:1037E000092BF3D92A2DEFD00494824664468946EA
:1037F000ABE6434603985E1C19780368B0469B68A5
:103800009847029B013302932EE7033304930E255E
:103810008DE708CA0021984640460492FCF77EFED8
:10382000002800D1EFE608231E4308AB1A000593D9
:103830002D23137080231B0643449846944601238E
:1038400063440693EBE608231E4308AB1A00059376
:103850002D2349421370501C2BE7174B98467306D3
:1038600000D545E75346591E00D342E7C24616002D
:10387000049587E6A046404610490127095C644646
:10388000069108A98C460E207F426744B8466044E2
:10389000801A80440120844640460193B046A246E7
:1038A0000591049C019B060014E0C0468425010894
:1038B000FE7F000024490000642601085826010804
:1038C000002F11D04F1C3A000B708E4215D03900DA
:1038D000020003786746501C2740202BF0D1002FB0
:1038E00024D063469C432E236A1E002D52DB4F1CBE
:1038F00015000B703A008E42E9D1049446465446B6
:10390000531C9A46049B9B0707D5069B202B04D08B
:1039100020231370931C52469A46069B07991370F6
:103920005346059A04919B1A904625E602272742A2
:10393000DAD1901C5378D7E7029B9846002C00D030
:103940003EE6434602939FE5730634D5462D3FD0AD
:1039500009239A46524641460698FFF72FFD8246B4
:103960001023334200D08CE05346059A9B1A9046B0
:1039700002E69A46B0469B1B04951600FCE5202300
:10398000334221D008AA944613701F3B634405922A
:10399000069344E60494464654460A00B0E72023C2
:1039A00033420DD008AA05921370501C81E6002BFB
:1039B00000D057E75AE7462DCCD153461DB20AE056
:1039C00008AB0593180074E608AB0593069326E64A
:1039D000032303259A4650494046FCF7BDFD0028C5
:1039E00071D040464D49FDF74DFA80464C4B9F1C27
:1039F00049494046FCF7B0FD002808D040464749F9
:103A0000FDF740FA01373B788046002BF0D17B1E52
:103A10001F78002F02D05546013D2DB24046FCF7DD
:103A2000EFFD63284AD9023D2DB2002D3FDB2A006D
:103A300041460698FFF7C2FC8246002D18D00300CD
:103A4000013B1A78302A06D1013B591C013B5A78B8
:103A5000302AFAD08A460121324B9B8ADB05DB17DC
:103A60008B432E33D31A5A4253415246D31A9A46A5
:103A7000002F00D174E753461F7001239C46E24497
:103A80006EE75E405346013B1B78302B07D1524610
:103A9000023A511C013A5378302BFAD08A462E2B29
:103AA00000D061E701235B429C46E2445CE70022D0
:103AB00041460698FFF782FC8246D9E70928B4D927
:103AC000013D2DB2B1E7FE2140468905FCF726FDF8
:103AD000002801D10027A1E740460F49FDF7D2F9A0
:103AE0008046114B5F1CFE2140468905FCF716FD00
:103AF000002808D040460849FDF7C4F901373B7853
:103B00008046002BEFD105494046FCF71BFD0028FD
:103B100000D07CE7002781E700007A446F12833AE7
:103B20005826010808030020942601080CB430B57B
:103B3000030085B00C000020002910DD0A4A01AD09
:103B40000192298109AA0899280002930092FFF79F
:103B50008DFC00226B681A70844200DC601E05B088
:103B600030BC08BC02B01847A0260108C378827890
:103B70001B02134342781B02134300781B021843B5
:103B8000704700000B0A017043700B0C090E837024
:103B9000C170704742690239023A030000208A422C
:103BA00003D958894143986A0818704703685A1C1A
:103BB000026018780300613B192B01D8203805E01A
:103BC0007F2803D9024B1818803800787047C04608
:103BD000B0260108F0B54746CE46060080B5140071
:103BE0001F00FF2585B001912C4208D001A8FFF7E6
:103BF000DDFF002801D1002045E0013CF4E73378E7
:103C0000002B03D1002C01D001203CE080235B007D
:103C10009846019B02960393029B1B783F2B01D091
:103C20002A2B1AD1002FE6D00022029B581C0290AA
:103C300019783F2901D1013201E041460A435B78FE
:103C40003F2BF2D02A2BF0D07B1E0399FFF7C2FF47
:103C50000028D9D1039B1D780DE002A8FFF7A6FF2D
:103C6000814603A8FFF7A2FF0500814503D14B461B
:103C7000002BD1D1C8E701A8FFF798FF002CBAD0DC
:103C8000002DC6D1B7E705B00CBC90469946F0BDF3
:103C9000026810B5002A10D0130019785C1C202986
:103CA00009D923003A29F8D1911CA14205D11278F3
:103CB000302A02D10360002001E00120404210BD03
:103CC00070B504000D00002802D10920002310E087
:103CD0000368002BF9D01A78002AF6D08188DA8898
:103CE0009142F2D158780DF0D5F901231840ECD16A
:103CF00023682B6070BD0000CA7E10B50400887E6A
:103D000012021043032C05D14A7D0B7D120213438E
:103D10001B04184310BD000093B21B0A8A76CB76B1
:103D20000378032B03D1120C0A75120A4A757047E7
:103D30000022F8B5C5690C0013002E26E520A95C09
:103D400020290AD0052900D10100082A02D1E7184C
:103D50007E720133E7187972013301320B2AEED1FA
:103D600000222800E3185A72EB7A3F321340237284
:103D70001C30FFF7FBFE2060EA7DAB7D120213438F
:103D8000E3806A7E2B7E12021343A380F8BD0000FD
:103D900070B506000400303640780123E26A310035
:103DA0000DF0D0F90125002810D1E26A236AA1693B
:103DB000E070D31A05008B4208D2A378022B05D1FC
:103DC00052186078013B31000DF0BCF9280070BD3D
:103DD00070B50400E36A0D0000208B4218D0E37830
:103DE00083420ED12100012360782A0030310DF08A
:103DF0005DF903000020834209D0012501306D42A6
:103E000005E02000FFF7C4FF002801D1EAE7E562E2
:103E100070BD0000002370B5C370013BC362040095
:103E2000FFF7D6FF0423002864D1334B334AE55C07
:103E3000334B2D02E05C230030331B780543EB2B22
:103E400003D01833DBB2012B4DD8954207D12000A7
:103E500008222C4982300EF013FA031E4AD02300A8
:103E60003C331A78013B1B781202134380221BB2A9
:103E70009200934237D123003D331B78002B32D080
:103E80005A1E13422FD123003F331A78013B1B786F
:103E90001202134327D0230040331B78013B012B30
:103EA00021D8230042331A78013B1B7812021343B6
:103EB00019D0230044331A78013B1B7812021343B4
:103EC0007F2B06D820005030FFF750FE0E4B984253
:103ED00009D9230047331B78463422781B021A4342
:103EE00000239A4206D1094B9C4665442800451E92
:103EF000A841831C180070BD2F02000055AA0000C5
:103F00002E02000030270108FFFF0000AB55FFFF25
:103F1000F8B557464E464546DE461400E0B5060065
:103F20000D000227012900D87DE043698B427AD930
:103F300003789B46BB4246D0032B58D0012B72D14D
:103F40004B08984688444346590A036A9C46614494
:103F5000FFF73EFF071E66D130239A462F3B4344AE
:103F6000994643465A46DB05B244DB0D154053449F
:103F7000E2B2002D08D00F21FF201A7800010A407C
:103F8000210101400A43D2B21A700123F3704B465B
:103F9000590A336A30009C466144FFF719FF071E37
:103FA00041D14B46DB05DB0D53441A00002D02D0F6
:103FB0002409E4B205E00F211B78240A8B430C404E
:103FC0001C4314702DE0036A090A9C466144FFF704
:103FD000FFFE071E27D1FF2233006D005200303351
:103FE00015405D192C70A4B2240A6C7019E0036AA4
:103FF000C9099C466144FFF7EBFE071E13D1FE2260
:1040000033005200AD00303315405D192800FFF732
:10401000ADFD2401010F2409090721432800FFF702
:10402000B1FD0123F37038003CBC90469946A2468E
:10403000AB46F8BDF0B5C646012600B504000D003C
:10404000B1425BD94369994258D20378022B2FD0F1
:10405000032B40D0B34251D1036A4F089C467F18CE
:10406000790A6144FFF7B4FE002802D001267642A7
:1040700044E07B1C590A9846236AFF059C46FF0DC5
:10408000E7193037614420003F78FFF7A1FE002890
:10409000ECD14346D805C00D2418303420780002F6
:1040A0000743354201D03E0928E03F053E0D25E09B
:1040B000036A090A9C466144FFF78AFE0028D5D1AD
:1040C000FF30FF306D000540303464196678207889
:1040D0003602064312E0036AC9099C466144FFF7B1
:1040E00077FE0028C2D12000FE24AD0064003030ED
:1040F00025404019FFF73AFD06013609300004BC9F
:104100009046F0BDF0B5C6460F0000B58046056884
:10411000002906D1EE68002E12D06B69B34210D888
:104120000EE02800FFF786FF0400012801D80124D3
:1041300062E0431C5ED06B693E00834201D95BE0C4
:1041400001262B69002B01D1002455E0BE4219D174
:104150006B69741CA34200D80224434621001868EE
:10416000FFF768FF0128E2D0431C43D0002807D0A6
:10417000EB68012B06D96A69934203D21E0001E065
:10418000002C15D134006B690134A34202D8012EF2
:10419000DAD90224434621001868FFF74BFF0028B4
:1041A00006D00128C3D0431C24D0B442EBD1CBE7C6
:1041B0000122210052422800FFF7AAFE002817D151
:1041C000002F08D16A692B69023AEC6093420AD841
:1041D000013B2B6107E0220039002800FFF798FE21
:1041E0000028EFD004E001232A7913432B7103E068
:1041F00001289CD101246442200004BC9046F0BDFB
:10420000F0B5C6460D0000B5070011000468012D89
:1042100030D96369AB422DD9002A02D101239846D7
:1042200020E0012220005242FFF772FE0028F5D064
:1042300023E001281ED0431C1ED0002229002000AC
:10424000FFF766FE002818D162692369911E8B4230
:1042500005D241460133236123790B432371350095
:10426000B24205D929003868FFF7E4FE061EE0D106
:10427000002002E0022000E0012004BC9046F0BDD6
:10428000F0B5DE4657464E4645460023E0B50B6086
:1042900087B00E001700FFF7FBFC0B23051E00DAAA
:1042A0004CE1AA4B8200D4580C23002C00D145E1EC
:1042B000346001262378B743002B0DD060780CF0D2
:1042C000E9FE064008D13B1E00D137E1330042072A
:1042D00000D433E10A2331E10023E8B22370607097
:1042E0000CF054FE0323C20700D527E1002F01D0B4
:1042F0004307EFD400212000FFF78CFD02281ED1D8
:10430000934B250002AE98463700F735FF35A044A1
:104310002800FFF72BFC103501C6A845F8D1002571
:104320000326AB00F9583000002904D02000FFF725
:1043300071FD01280BD90135042DF2D1FAE00123DA
:10434000042800D1FAE0984201D90D23F6E02300B9
:104350003C331A78013B1B781202134380221BB2B4
:1043600092009342F1D1230047331A78013B1B7826
:1043700012021343984604D120005430FFF7F6FB95
:104380008046E36A9A464346A361230040331E7881
:10439000731EA670012BD8D823003D331D78ABB215
:1043A0006381002BD1D06B1E1D42CED1230042333E
:1043B0001A78013B1B78120213431BB201936B4620
:1043C0009B889B4623811B07BFD1230022004433D7
:1043D0001B78433210781B02184303D12000503061
:1043E000FFF7C4FB23003F331F78013B1B783F02DC
:1043F0001F43AAD0434673430093009A5B469146FD
:104400001B09DB19994448459FD34B46C61A29001E
:104410003000FBF7EDFEAE4297D34E4B984294D856
:104420004D4B984200D87FE003265346E3614B464C
:10443000851C5744534465612762A362032E13D140
:1044400023005B331A78013B1B7812021343019A55
:104450001A4313B2002B00D077E720005C30FFF73F
:1044600085FBAD00606211E05B46002B00D16CE77C
:10447000009B9C4667446762022E01D16D0005E0F7
:104480000320012368431D4040084519334B9C46D7
:1044900065446D0A454500D957E701235B42236116
:1044A000E36081332371032E35D1230061331A7801
:1044B000013B1B7812021343012B2CD151462000E3
:1044C0000131FFF785FC002825D1254B2071E25CE6
:1044D000244B1202E35C1343234A1BB293421AD1CA
:1044E00020003030FFF742FB204B984213D1852348
:1044F0009B00E018FFF73AFB1D4B98420BD1862337
:104500009B00E018FFF732FB87239B002061E01837
:10451000FFF72CFBE060174A2670138801339BB22B
:104520001380E380002309E0134E8642B6417642B1
:1045300001367AE70123042800D006E7180007B007
:104540003CBC90469946A246AB46F0BD4C060020C6
:1045500036020000F5FFFF0FF5FF0000FF0100002D
:104560002F0200002E02000055AAFFFF52526141A7
:104570007272416150060020F50F0000002370B5F3
:1045800086680500046803619E420ED12378022BE1
:1045900002D9636A002B07D12389002B01D10220A5
:1045A00021E0636AAB6115E01E006389002B0CD12A
:1045B00031002868FFF73EFD0600431C12D0012899
:1045C000EDD963699842F3D3E9E731002000FFF7A2
:1045D000E1FAA861AB696E61002BE0D03034EC6188
:1045E000002000E0012070BD70B5C3780400002BEE
:1045F00003D12378032B41D104E0FFF7C9FB002846
:1046000044D1F6E72679012E38D1250080223035B5
:104610009200002128000DF04BFE55221C4B412139
:10462000E2541C4B9218E2542200DE3BFF3B313235
:104630002B70137023006122323385201A70597059
:1046400072238000235414482354144BE154144B18
:10465000E2540133E0182169FFF794FA87239B00A5
:10466000E018E168FFF78EFAE36960785A1CE262AD
:10467000330029000CF066FD0023237100226078CE
:1046800011000CF0B1FD431E9841C0B270BDC04690
:104690002E0200002F02000015020000160200008A
:1046A00017020000F0B5C64600B5C37804000D003F
:1046B000002B11D1290020002600FFF76BFA802281
:1046C0003036E06207009200002130000DF0F0FD6E
:1046D0000123002598460EE0FFF75AFB012300282E
:1046E00011D1E7E77A196078434631000CF02AFDD2
:1046F000002803D1013563899D42F3D363895B1B95
:10470000581E8341DBB2180004BC9046F0BD000087
:10471000F8B5CE46474680B507692B4B20370400D5
:10472000894605689F4201D900238361A36904205B
:10473000002B44D0FA05D20D90463BD1616901337C
:10474000A361002907D12A897B09934232D3002330
:104750000420A36133E06B897A0A013B1A4229D114
:104760002800FFF767FC0600012801D8022026E098
:10477000431C01D1012022E06B69834214D84B46CF
:10478000002BE4D061692000FFF7BCFC0600072085
:10479000002E14D0012EE9D0731CEBD0310028007C
:1047A000FFF780FF0028E5D1666131002800FFF7A0
:1047B000F1F9A0610020303545442761E5610CBC6A
:1047C00090469946F8BDC046FFFF1F00F0B557461A
:1047D0004E46DE464546E0B507000E00036885B04C
:1047E000029333782F2B01D10136FAE75C2BFBD0F3
:1047F0000023BB6033781F2B04D90B239A46033B5D
:10480000994640E03B0080222B331A703800FFF7B6
:10481000B5FE04009EE00133F25C2F2AFBD05C2A37
:10482000F9D0F618002D00D18CE07B1CDA7FE52A48
:1048300001D1E03ADA770423202C5DD83D002B35F6
:104840002B703B6838009B46FFF798FE041E07D18B
:104850003F239846B9695846FFF7BAFA041E50D06C
:104860002B78002C68D15B0774D4BB79DB0667D545
:104870003B690299DB05DB0D3031C918029B1878C2
:10488000FFF73AFAB86020239C46BC446346524680
:104890002021604601930DF00BFD0123B046002559
:1048A000CB469B1B0393039B34789B19202C21D967
:1048B0002F2C01D05C2C01D14646ADE72E2C43D0E5
:1048C000AB453FD963B2002B03DA7F231C40254B55
:1048D0001C5D210024480DF0F3FC002832D1230098
:1048E000613B192B01D8203CE4B2019B5C5501359A
:1048F0000136D8E7464694E73278202A9ED900232D
:104900009CE7F8690378002B14D04246C37A134021
:104910004A46BB71C37A134205D1524601990DF044
:10492000AFFC00289CD000213800FFF7F1FE041EE8
:1049300090D095E7042493E7042C0BD1234209D1AE
:10494000052407E0062405E05B460B2BFAD04D4614
:10495000D346CDE7200005B03CBC90469946A24620
:10496000AB46F0BDB026010839270108F8B50400B0
:1049700007683F2604202025A16900291DD03800A2
:10498000FFF726FA00281CD1E3691A78002A17D00D
:10499000DB7A3340A371E52A08D02E2A06D00F2BEC
:1049A00004D0AB43082B01D000200CE000212000F4
:1049B000FFF7AEFE0028DFD003E00028F4D000E0CF
:1049C00004200023A361F8BDF8B505000668FFF7D1
:1049D000D5FD041E26D10127A9693000FFF7F8F99B
:1049E000041E1FD1EB691B78E52B13D1A969300098
:1049F000FFF7EEF9041E18D101002022E8690DF03E
:104A000057FC2900E86920310B220DF047FC0123F7
:104A1000F3700AE0002BE9D039002800FFF778FE98
:104A2000041ED9D0042C00D103342000F8BD0000AE
:104A30001FB5019003A8009114000391FFF728F916
:104A400003000B20002B14DB0B499B005A58002A53
:104A500001D000201070019A002A01D000201070AF
:104A60000020CA50844204D0020001A96846FFF722
:104A700007FC04B010BDC0464C060020F0B54F4600
:104A80004646D646C0B590B004000191904609272D
:104A9000002800D1E0E03F261640320003A901A81B
:104AA000FFF7EEFB071E00D0D3E004AD039B019996
:104AB00028000493FFF78AFE002805D13B236B44AE
:104AC0001B787F2B00D906301C2342461A4256D051
:104AD00000280BD0042800D0BBE02800FFF774FFAB
:104AE000002800D0B5E008231E430CE01123AA796A
:104AF0001A4200D0ACE0434608205B0700D5A8E08E
:104B00004346034245D00CF03DFA8046E8694146F1
:104B10000E30FFF737F8E86941461630FFF732F8F4
:104B2000039B9946EB699A464B4651461878FFF726
:104B3000E3F82023CB7280460022E9694846FFF75C
:104B4000EBF800220121EB691A775A779A77DA7726
:104B5000039BD970414691421BD0DB6A28009946DD
:104B6000FFF74EFB002874D149460398FFF730F950
:104B70004146039B0139D96000280AD069E000282A
:104B800067D1AB79DA0661D44246920701D5DB07DB
:104B90005ED4330701D540231E43039BED699A463B
:104BA000DB6A65622362534629001878FFF7A4F890
:104BB000A060814628001C30FEF7D8FF5346E06015
:104BC0002360DB880021A380282398468022A0440C
:104BD000050026746174E1616161920040460DF048
:104BE00067FBB30638D5002D36D0534665615E8924
:104BF0007602AE420CD249462068FFF71BFAAD1B85
:104C000081460300012805D90133F2D1012002E0D9
:104C1000002000E002204B46A361002819D1EB05DB
:104C20001AD0039E49463000FEF7B4FF020002206E
:104C3000002A0ED06D0AAA18E2617078012341465D
:104C40000CF034FA002807D0012002E0042000E034
:104C50000720002307002360380010B01CBC9046DA
:104C60009946A246F0BD0000F0B5DE464E464546E8
:104C70009B4657460023E0B516005A4685B0894644
:104C8000136003A90400FFF71BF8051E00D09DE088
:104C9000657C002D00D099E0237CDB0700D494E0F4
:104CA000E36862699F1AB74200D9370028239C46FF
:104CB000A4446346AA460193002F00D183E06369B0
:104CC000DA0563D1039A55895A0A013D2A400092B8
:104CD00011D1002B01D1A06803E0A1692068FFF782
:104CE000A9F9012801D8022502E0431C02D10125BF
:104CF00065746BE0A061039BA16918009846FEF7FC
:104D000049FF0028EFD0009B1D18344B9F4221D94A
:104D10004346009A7E0A5B8992199A4201D9009A09
:104D20009E1A43462A005878494633000CF0BEF9D3
:104D30000028DCD1237C7F2B0AD9E369581BB042C1
:104D400006D2802240024844920001990DF0A6FA52
:104D500076022CE0E269AA4217D0237C7F2B0BD984
:104D600043460199587801230CF0ECF90028BED194
:104D70007F22237C13402374039B2A0058780199D7
:104D800001230CF093F90028B1D1E56163693E007D
:104D9000D9058023C90D9B005B1A9F4200D91E00D4
:104DA000019B32009C46484661440DF077FA5B4611
:104DB0005A461B68BF1B9B1913606369B1449C462C
:104DC0006644666178E7554600E00725280005B08F
:104DD0003CBC90469946A246AB46F0BDFF010000A0
:104DE000F0B5DE464E4645469B4657460023E0B5A5
:104DF00016005A4685B08946136003A90400FEF7E1
:104E00005FFF8046002800D0B9E0637C9846002B05
:104E100000D0B4E0237C9B0700D4AEE063699A190C
:104E200093424FD9DE434DE06369DA0500D08DE04F
:104E3000039A57895A0A013F3A40019245D0237C90
:104E40007F2B62D8039BA16918009A46FEF7A2FE49
:104E500000284DD0019B1F184D4B9E4264D95346EC
:104E6000019A750A5B8952199A4201D9019A9D1AD1
:104E700053463A00587849462B000CF063F9002855
:104E80003AD1E369D91BA9420BD280222000490202
:104E90009200494428300DF001FA7F22237C134010
:104EA00023746D025B465A461B68761B5B191360C0
:104EB0006369A9449C46E36865446561AB4200D2DE
:104EC0002B00E360002EAFD10BE0002B03D1A068D4
:104ED000011E0BD100E0A1692000FFF713F90028A3
:104EE00004D14023227C1343237448E0012801D1DC
:104EF000022302E0431C02D1012363743EE0A36855
:104F0000A061002B9BD1A06099E72100039BE2697F
:104F10005878283101230CF015F90028ECD17F22B4
:104F2000237C134023748DE7E369BB420DD0E36813
:104F30006269934209D95346210058783A00012307
:104F400028310CF0B3F80028D6D1E7616369350049
:104F5000D8058023C00D9B001B1A9E4200D91D005E
:104F60002300283318182A0049460DF097F98022AB
:104F7000237C52421343237494E707239846404608
:104F800005B03CBC90469946A246AB46F0BDC04633
:104F9000FF010000F7B501A90400FEF791FE051E10
:104FA0003DD1237C5A063AD55BB2002B0EDA2100A4
:104FB000019BE2695878283101230CF0C3F80135D0
:104FC00000282CD17F22237C134023740BF0DAFFBE
:104FD000216A07000198FEF7FBFE051E1FD1202362
:104FE000666AF27A31001343F372A2682068FEF712
:104FF00093FE3000E1681C30FEF7C4FD300039003C
:105000001630FEF7BFFD01230198B574F574C37027
:10501000FFF7EAFA40220500237C9343237428001B
:10502000FEBD000013B50400FFF7B4FF002806D151
:1050300001A92000FEF744FE002800D1206016BD23
:105040001FB5040001910920002C2ED0002203A9D5
:1050500001A8FFF715F9002821D1039B01992360CE
:105060002000FFF7B3FB00281CD123002B331B7853
:105070007F2B0AD8A379DB0601D405200FE0039B20
:10508000E1691878FEF738FEA060039B2000DB88FA
:10509000A380FFF773FA0428EFD0002805D000237F
:1050A000236002E00428E8D0F9E704B010BD000056
:1050B00013B501A90400FEF703FE002800D120600B
:1050C00016BD000037B50D0001A90400FEF7F8FD7C
:1050D000002819D12000002D02D1FFF74FFA13E06C
:1050E000FFF744FCFB2303400ED16B72A369002B36
:1050F00003D029002000FEF71BFE00212000FFF74F
:1051000007FB042800D100203EBD00000923F0B5B4
:10511000C646984606000C00042700B588442100C6
:105120003000FFF7CFFF051E0CD1002C0AD0637AA8
:10513000002B07D002003B004146F06AFEF74AFD13
:105140000028ECD0280004BC9046F0BDF0B59DB01E
:105150000190022203A901A8FFF792F8002844D188
:1051600004AC039B019920000493FFF72FFB002858
:105170003BD13B236B441B7806307F2B35D8A77976
:10518000FB0701D5072030E0039EE1693078FEF788
:10519000B3FD0500FB0607D4049EA1693000FEF7AD
:1051A00017FE00280FD020E0129010A81096FFF7ED
:1051B000E5F9002819D110A8FFF7D8FB0028E1D0A5
:1051C000042812D1E8E7E523E2691370E43BF370A9
:1051D000002D03D10398FFF707FA06E0020029002B
:1051E0002000FFF70DF80028F4D01DB0F0BD00003E
:1051F00010B572B60248FDF7A5F962B610BDC046FB
:105200005406002010B5040072B6022906D0032906
:1052100002D10948FDF760F962B610BD074A0121C5
:10522000FDF75AFA2000064A0221FDF755FA024816
:10523000FDF75CF9F0E7C04654060020383201085B
:1052400054320108184970B50E001F25174A184B33
:105250001068184A1B68126818369B1803432C0004
:1052600030221C40092C00D9073212190A805B0930
:10527000C206023113434009B142F0D1FE220E4B67
:105280000E49120199521A210D4A9952981800227A
:1052900042800C49FE228C4612019A185A52120C76
:1052A00063445A8070BDC046EE3E0020B0F7FF1F39
:1052B000ACF7FF1FB4F7FF1F0C2F00201A030000EC
:1052C000D80F0000DC0F000010B5022910D0032910
:1052D00005D0012901D0002010BD0A48FCE7032AAF
:1052E00008D00020032AF7D80748D2008018F3E737
:1052F0000648F1E7064B9B8A5B05F5D5FFF7A2FF51
:10530000EAE7C046D4320108283301088832010890
:105310000803002070B5051C081C161CFBF75AFA80
:10532000311C041C281CFBF755FA011C201CFBF740
:1053300051FAFA218905FBF7A5FD70BD044B10B5A4
:105340001B680A0019680C6801001800A04710BD0E
:10535000A0200020F0B5DE4657464E464546E0B553
:10536000564B87B003905B8B0593002B00D18FE0E9
:10537000D0229446FE22514B920063449446E4228C
:1053800098464E4BD200634494469A464B4B544643
:1053900063441E00002345469B4635E0011CFE2069
:1053A0008005FBF785FE011C0490381CFBF76AFDA5
:1053B0005146071C4846FBF77BFE009B191C99468B
:1053C000FBF760FD011C381CFBF772FE0299071CFD
:1053D0004046FBF76DFE4946FBF754FD04998146B4
:1053E0000198FBF74FFD011C4846FBF7F3F9804697
:1053F0004346736001239C46059BE34437600835B0
:10540000083408369B4543DA33682A68181C111C97
:1054100002939046FBF74CFE7268071C92466A683E
:105420005046111C9146FBF743FE6368039A0190B6
:1054300000932068012AB1D0FE218905FBF7CAF943
:10544000011C8146381CFBF71DFD019B0290009951
:10545000181C9846FBF716FD494682464046FBF766
:1054600011FD00998046381CFBF70CFD011C4046DD
:10547000FBF7B0F9039B8046013318D102995046DF
:10548000FBF716FE80231B064344071C9846AFE734
:1054900004220A4B9B8C934340221343074A938474
:1054A00007B03CBC90469946A246AB46F0BD51467B
:1054B0000298FBF7FDFD071C9AE7C046C8070020CD
:1054C000012110B50C00074A138B1C40844208D000
:1054D0008B4303430A20138306F036FA0022024B63
:1054E0001A7710BDC807002008030020F0B5454614
:1054F0005746DE464E46E0B5884687B0051E9246C2
:10550000654C00DBA6E0E36801938B4200D3A0E08A
:10551000638C013B9BB29B4623695D468B4200D85E
:1055200098E00027019A9E1A881A00235A46002103
:10553000FBF73CF832003B00FBF718F8050032009F
:105540003B00C1172800FBF731F802900391594640
:1055500000234A0802980399801859415A4604903A
:105560000591FBF703F8814604980599019B801982
:1055700079414B4402935A460023FAF7F7FF494614
:10558000019A029B1618471A984563D0002F00D144
:1055900072E04246D01AFBF7B1FF81463800FBF7B4
:1055A000ADFF011C4846FBF791FA8146029803F0D3
:1055B00003FB0700300003F0FFFA6B1CB8420FD06A
:1055C000404603F0F9FAB84259D0AB4542DDFE211E
:1055D00048468905FBF76CFD6E1CAB1C8146350007
:1055E0001A001A32D200A418282256469246DB002E
:1055F0005B429846EB009B460433B244019343461A
:10560000E5185B46EF582068391CFBF751FD494609
:10561000FBF738FC391CFBF7DDF8019B3060ED58D7
:105620006068291CFBF744FD4946FBF72BFC291C4D
:10563000FBF7D0F8CA239B009C4670600836644490
:105640005645DCD107B03CBC90469946A246AB46D5
:10565000F0BD0025534656461A35ED00641928332F
:105660002268326062687260CA22920094460836EC
:105670006444B342F4D1E5E70023994696E7002D50
:10568000E8DDFE2148468905FBF7A4F86E1E2B00D5
:1056900081463500A4E7C046C8070020F0B5CE46D5
:1056A000474680B54B6883B001AA0E680C00694676
:1056B00098460CF05DFB019F311C381CFBF7E2FBA8
:1056C000009D81464146281CFBF7DCFB011C484637
:1056D000FBF7EEFC41462060381CFBF7D3FB311C86
:1056E000071C281CFBF7CEFB011C381CFBF772F8CB
:1056F000606003B00CBC90469946F0BD10B501281F
:1057000000D010BD08680B4903F032F800280AD019
:10571000012804D14021084A13788B431370C62016
:1057200006F012F9EDE74021034A13780B4313709A
:10573000F5E7C046A4350108A803002070B50C00A9
:1057400090B000282AD0022828DC1C4B9B8A5B07DB
:1057500024D4022824D01A4E24682000FCF712F822
:10576000184D0200210033002800FCF74BFD2800F3
:10577000330002221449FCF745FD203D134C05E09F
:10578000236802001B6869462000984733004022C6
:1057900069462800FCF7ACFC0028F1D110B070BDC0
:1057A000486802F021FF0A4BFA215843094B89004F
:1057B0009C466044FAF71CFD0600CDE70803002074
:1057C000204E000014050020843E010854060020ED
:1057D000A0860100E703000070B50D00022807D085
:1057E000012252421400210002200AF0DBFD70BDAC
:1057F000086802F0DFFE04B2686802F0DBFE02B265
:10580000F1E7C04670B50C00022800D070BD0868F2
:1058100002F0D0FE0500606802F0CCFE29B202B2B0
:1058200001200AF0BFFDF1E710B50AF0C3F910BD81
:10583000F8B50E1C051C111C301C171CFBF722FBB5
:10584000291CFBF71FFB400040080CF0A5FB391C8E
:10585000041C301CFAF7BEFF291CFAF7BBFF00211D
:10586000FAF75CFE002803D080231B069C466444A4
:10587000201CF8BD10B5094C628B002A0CD0CA233D
:105880009B005843D03000190023002401330160ED
:10589000446008309342F9DB10BDC046C8070020C1
:1058A00010B5031C082800D90823034A04201370EC
:1058B00006F04AF810BDC046AC200020014B187815
:1058C0007047C046AC2000200121024A13788B4368
:1058D00013707047A803002010B5FFF7F5FF10BD47
:1058E0000121024A13784B4013707047A80300202F
:1058F000F8B5FE21CE464746890580B58146FAF7C0
:1059000069FF2C22FA2790460D4B061C1D1D98445A
:105910004C46BF0500E080CD4946201CFBF7B2FA9B
:10592000391C041CFBF7AEFA011C301CFAF752FFBD
:10593000061CA845EFD10CBC90469946F8BDC04660
:10594000D833010870B5002A12D04C1E231A5843D0
:1059500050435043FBF7D2FD051C20006043FBF78A
:10596000CDFD011C281CFBF7B1F8FFF7C1FF70BD8E
:10597000FE208005FBE7C0460FB400B5074B83B09F
:105980001868002808D005AA04990192FDF76EFD59
:1059900003B008BC04B018470020F9E7A02000209D
:1059A00070B5114D0522290002F0FEFE0F4B80B2AA
:1059B0001880052813D800280FD00D4C0D4805E09D
:1059C0000A34608823880004184306D0296802F04E
:1059D000CFFE0028F4D1200070BD0024FBE706486C
:1059E000FFF7CAFF0024F6E7442000209C20002097
:1059F000D83B0108B0330108B8330108F8B5CE46EA
:105A000047460C0080B5022826D02A48FFF7B4FF8D
:105A1000294BF8269946E0235B0100249846F82795
:105A2000264D36041E3541462B884846DA080A4082
:105A3000590939400A43190431405B070A431B0CDA
:105A400021001A430134FFF797FF0235202CEAD1D9
:105A50000CBC90469946F8BD086802F0C5FD83B2BB
:105A600005001F2BF4D8606802F0BEFD06006068D8
:105A700002F0BAFDE0224301F82012024001F600D4
:105A80001640034060681E4302F0AEFDF823000C90
:105A9000034060681E4302F0A7FD0304E320074AA9
:105AA0002D04ED0B5B0F551933434000EB8305F0DC
:105AB0004BFFCDE72C3501084835010808030020CD
:105AC00010B502490248FFF757FF10BDA83301087F
:105AD000D03B010870B5074C2168002909D0064D5C
