:020000040800F2
:1000000000010020C1000008A1BB00083137000832
:10001000C5160108C5160108C5160108C516010850
:10002000C5160108C5160108C5160108C516010840
:10003000C5160108C5160108C5160108C516010830
:10004000C5160108C5160108C5160108C516010820
:10005000C5160108011C0008D91B0008C5160108B7
:10006000C5160108C5160108C51601081D1C0008A3
:1000700089380008C5160108C5160108A50701083A
:10008000C5160108C5160108C5160108C5160108E0
:10009000C5160108C5160108C5160108C5160108D0
:1000A000C5160108C5160108C5160108D9060108BC
:1000B000C5160108C5160108C5160108CD040108BA
:1000C00072B6224880F30988022080F31488BFF3B7
:1000D0006F8F11F02DFB10F0B3F81D481D491E4A1B
:1000E000914202DA08600431FAE71C49174A91424A
:1000F00002DA08600431FAE719491A4A1A4B9A429F
:1001000004DA0868106004310432F8E70020174967
:10011000174A914202DA08600431FAE711F0D4FA82
:1001200011F004FB134C144DAC4203DA21688847EC
:100130000434F9E710F00CFE104C114DAC4203DA18
:10014000216888470434F9E70E4908470003002076
:1001500055555555000000200001002000010020E9
:100160006C64010800030020A8030020A8030020FD
:10017000CC3E0020C0000008C0000008C0000008FD
:10018000C000000829170108F0B544464D46564600
:100190005F46F0B46B46CB60C3689D46F0BCA0469A
:1001A000A946B246BB46F0BD62B6281CA047002057
:1001B00010F022FD10F02CFD014A024B1360FEE707
:1001C00004ED00E00000008002B4714649084900D7
:1001D000095C49008E4402BC7047C04600224308B7
:1001E0008B4274D303098B425FD3030A8B4244D3FF
:1001F000030B8B4228D3030C8B420DD3FF22090241
:1002000012BA030C8B4202D31212090265D0030BFF
:100210008B4219D300E0090AC30B8B4201D3CB03F5
:10022000C01A5241830B8B4201D38B03C01A524137
:10023000430B8B4201D34B03C01A5241030B8B4239
:1002400001D30B03C01A5241C30A8B4201D3CB0224
:10025000C01A5241830A8B4201D38B02C01A524109
:10026000430A8B4201D34B02C01A5241030A8B420C
:1002700001D30B02C01A5241CDD2C3098B4201D324
:10028000CB01C01A524183098B4201D38B01C01AA2
:10029000524143098B4201D34B01C01A5241030919
:1002A0008B4201D30B01C01A5241C3088B4201D3C8
:1002B000CB00C01A524183088B4201D38B00C01A75
:1002C000524143088B4201D34B00C01A5241411A9C
:1002D00000D20146524110467047FFE701B50020A9
:1002E00000F0F0F802BDC0460029F7D076E770476D
:1002F00003460B437FD4002243088B4274D3030987
:100300008B425FD3030A8B4244D3030B8B4228D327
:10031000030C8B420DD3FF22090212BA030C8B424D
:1003200002D31212090265D0030B8B4219D300E0ED
:10033000090AC30B8B4201D3CB03C01A5241830B72
:100340008B4201D38B03C01A5241430B8B4201D322
:100350004B03C01A5241030B8B4201D30B03C01A4B
:100360005241C30A8B4201D3CB02C01A5241830AC5
:100370008B4201D38B02C01A5241430A8B4201D3F4
:100380004B02C01A5241030A8B4201D30B02C01A1E
:100390005241CDD2C3098B4201D3CB01C01A524185
:1003A00083098B4201D38B01C01A524143098B420E
:1003B00001D34B01C01A524103098B4201D30B01F7
:1003C000C01A5241C3088B4201D3CB00C01A52411C
:1003D00083088B4201D38B00C01A524143088B42E1
:1003E00001D34B00C01A5241411A00D2014652417A
:1003F000104670475DE0CA0F00D04942031000D399
:100400004042534000229C4603098B422DD3030AED
:100410008B4212D3FC22890112BA030A8B420CD3FD
:10042000890192118B4208D3890192118B4204D326
:1004300089013AD0921100E08909C3098B4201D3A6
:10044000CB01C01A524183098B4201D38B01C01AE0
:10045000524143098B4201D34B01C01A5241030957
:100460008B4201D30B01C01A5241C3088B4201D306
:10047000CB00C01A524183088B4201D38B00C01AB3
:100480005241D9D243088B4201D34B00C01A52418A
:10049000411A00D20146634652415B10104601D317
:1004A0004042002B00D54942704763465B1000D3A1
:1004B000404201B5002000F005F802BD0029F8D047
:1004C00016E770477047C046D0400B1C1141203AD8
:1004D00003D49C4613411843634652429340184349
:1004E0007047C0468446081C6146FFE71FB500F010
:1004F00071FC002801D40021C8421FBD10B500F0D6
:10050000F3FB4042013010BD10B500F063FC002841
:1005100001DB002010BD012010BDC04610B500F069
:1005200059FC002801DD002010BD012010BDC0468F
:1005300010B500F001FC002801DC002010BD0120F6
:1005400010BDC04610B500F0F7FB002801DA00200E
:1005500010BD012010BDC046002B11D1002A0FD1C3
:10056000002900D1002802D00021C943081C07B48B
:10057000024802A14018029003BDC04649FFFFFF98
:1005800003B4684601B5029800F048F8019B9E4606
:1005900002B00CBC7047C046F0B5CE4647461504C5
:1005A0002D0C2E0080B50704140C3F0C9946030C4B
:1005B0007E435D43674363437F19340CE4199C46D3
:1005C000A54203D980235B029846C4444B4643436B
:1005D0005143250C36046544360C2404A4195B19D8
:1005E000591820000CBC90469946F0BD9E2110B5CC
:1005F000C905041CFFF7A6FF002803D1201C00F04A
:1006000009FF10BD9E21201CC90500F047FD00F028
:1006100001FF80231B069C466044F2E7F0B5574675
:100620004E464546DE46E0B5040083B00D009246D6
:1006300099468B4230D82DD04946504601F08CF86F
:1006400029000600200001F087F8331A9846203B65
:100650009B4633D45A465346934042461F00534666
:1006600093401E00AF423AD8AF4200D17BE05B46D8
:10067000A41BBD41002B00DA78E000220023009289
:10068000019301235A46934001930123424693402C
:10069000009328E08242CFD90022002300920193E8
:1006A0000C9B002B01D01C605D600098019903B089
:1006B0003CBC90469946A246AB46F0BD424620233C
:1006C0009B1A5246DA40414613004A468A401700B8
:1006D00042461F43534693401E00AF42C4D90022F6
:1006E0000023009201934346002BD9D0FB079C4680
:1006F000614672080A437B0846460EE0AB4201D1D0
:10070000A2420CD8A41A9D41012024196D41002158
:10071000013E24184D41002E06D0AB42EED9013ED9
:1007200024196D41002EF8D1009801995B460019FB
:100730006941002B25DB2B005A464446D3402A0052
:10074000E2401C005B461500002B2BDB26005F46B9
:10075000BE40330026004746BE403200801A994111
:10076000009001919CE7A342B9D880E7424620233C
:1007700000219B1A0022009101920122DA4001928D
:1007800083E7424620239B1A2A0046469A402300CC
:10079000F340444613432A00E2401C005B46150028
:1007A000002BD3DA2023424626009B1ADE402F007E
:1007B000B4464646B74066463B003343CAE7C046A8
:1007C000F8B54C02640A4746A0464C00C90FCE4615
:1007D00089464146430246005B0A360E240E80B528
:1007E000C50F9C463200D800C900371B4D4560D06C
:1007F000002F48DD002C00D17CE0FF2E00D183E0EB
:100800008023DB04194301231B2F07DC0B0020226C
:10081000FB40D71BB9404A1E91410B43C31A5A01F2
:1008200000D4A8E09B019C09200000F077FF053868
:100830008440864200DDADE0861B22002020013688
:10084000F240861BB44023005C1EA34100261343E4
:100850005A0704D00F221A40042A00D004335A0148
:1008600000D48BE00136F2B2FF2E00D18FE09B0165
:100870005B0A5B02D205580AED07104328430CBC03
:1008800090469946F8BD002F49D1FE24771C3C4282
:1008900000D086E0002E00D0DEE0002800D1D1E0BC
:1008A0000029E6D0431A5C0100D4F1E00B1A4D4652
:1008B000CEE7002F4ADD002C3FD0FF2E24D080232E
:1008C000DB04194301231B2F07DC0B002022FB4014
:1008D000D71BB9404A1E91410B431B185A014AD5F8
:1008E0000136FF2E53D0012271491A405B080B409C
:1008F0001343ADE7002943D0013F431A002F00D135
:100900008DE7FF2E00D07EE76346002B3FD080238B
:100910006246DB0313435B025B0AFF22A9E7A21BCB
:10092000002E60D1002878D0013A002A00D1B5E02D
:10093000FF2C5DD14D46C446E6E7002920D0013F9B
:100940004318002FCAD0FF2EBCD1DDE7002F32D1D3
:10095000FE24013634427AD1002A62D1002800D127
:10096000A0E0002900D184E7431800265A0102D5EF
:10097000504A013613405A0700D06BE7DB089C460B
:10098000FF2EC1D063465B025B0AF2B271E7FF2221
:1009900000236EE7474B361A23405A0700D059E729
:1009A000ECE7441A630161D4002C00D03CE7002539
:1009B000002200235DE7A21B002E28D100282DD0A5
:1009C000013A002A70D0FF2CB5D001231B2A07DC86
:1009D00003002026D340B21A9040421E90410343A8
:1009E0005B1826007AE7FF2CA4D08023DB04184391
:1009F00001231B2A07DC03002025D340AA1A9040BC
:100A0000421E90410343CB1A4D46260007E7FF2CB8
:100A100091D08023DB041843D7E74D46C446260017
:100A2000AEE7002887D0002900D16DE78023624619
:100A3000DB031A4200D167E742461A4200D063E75F
:100A4000C44661E7002926D04D46434611E7FF2EF4
:100A50009DD043185B088EE700280AD1002900D0FA
:100A600068E780230025DB03FF2202E70C1A4D46CE
:100A7000DAE6002900D147E780236246DB031A4209
:100A800000D141E742461A4200D03DE74D4652E7C9
:100A9000002B00D06FE700250023EAE60B1A4D4635
:100AA0002600BCE64346E4E64318260016E7C046A7
:100AB000FFFFFF7DFFFFFFFBF0B54F464646D646E2
:100AC00044024500C0B5640A0F1C2D0EC60F002D50
:100AD0004FD0FF2D55D08023E400DB041C430023BE
:100AE00099469A467F3D7B0278005B0A9846000E45
:100AF000FF0F002831D0FF2810D08022DB00D20465
:100B00001A43904600217F382D1A4B4632000B4382
:100B100071489B00C3587A40D2B29F46FF3D002BDC
:100B200054D102234946194332000B007A40033B5B
:100B3000D2B20C2B04D869499B00CB589F463A008F
:100B4000002000246402C305600AD2071843104342
:100B50001CBC90469946A246F0BD002B2BD1012328
:100B60004946320019438B005D497A40CB58D2B2D6
:100B70009F46002C13D104239946033B00259A4637
:100B8000B1E7002C05D108239946063BFF259A467C
:100B9000A9E70C239946093BFF259A46A3E72000C5
:100BA00000F0BCFD7625431F9C4000236D422D1AAA
:100BB00099469A4697E7180000F0B0FD4246431F59
:100BC0009A402D189046763500219EE703219CE738
:100BD00017003A00FF200024B4E780240022E40339
:100BE000FF20AFE732005346022BF1D0032B6CD02D
:100BF000012BA5D028007F30002846DD630704D0F4
:100C00000F232340042B00D00434230103D52800F4
:100C1000344B80301C40FE28DCDCA401640AC0B2E6
:100C200090E78023DB031C4227D042461A4224D19E
:100C300044461C436402640A3A00FF2082E73A00FB
:100C400044468A46CFE7414663014C01A34235D270
:100C50001B200021013D01271E0049005B00002EE2
:100C600001DB9C4201D81B1B394301380028F3D11A
:100C70001C00631E9C410C43BCE78023DB031C4328
:100C80006402640A3200FF205CE70123181A1B2863
:100C900000DD55E79E352300AC40C340611E8C410A
:100CA0001C43630704D00F232340042B00D00434DB
:100CB000630107D4A401640A002043E71B1B1A2028
:100CC0000121C8E7012000243CE78023DB031C430B
:100CD0006402640AFF2035E7E817010828180108B4
:100CE0005C180108FFFFFFF770B542004E024C0090
:100CF00045026D0A120EC30F760A240EC90FFF2A91
:100D00000FD0FF2C11D00120A24200D070BDB542FF
:100D1000FCD18B420DD0002AF8D12800451EA841F5
:100D2000F4E70120002DF1D1EBE70120002EEDD1F9
:100D3000E9E70020EAE7C04670B54A004E024502E6
:100D400044006D0A240EC30F760A120EC90FFF2C41
:100D500015D0FF2A0ED0002C15D1002A01D1002E6B
:100D60001CD0002D14D08B4227D00220013B18400C
:100D7000013870BD002EEED002204042F9E7002D70
:100D8000FAD1FF2A0ED0002A0ED1002EEDD00BE0B2
:100D900001230139994308000130EAE70020002DC2
:100DA000E7D0E2E7002EE7D18B42DED1944205DDA9
:100DB0000221581E08400138DBE70024A24204DC6F
:100DC000B542D2D80020B542D3D2581E0123984351
:100DD0000130CEE730B5420044024D02C30F480057
:100DE000640A120E6D0A000EC90FFF2A17D0FF28E1
:100DF00008D0002A17D1002808D1002D06D1002CD8
:100E000023D007E0002DF4D002201EE0002C17D0E4
:100E10008B421FD00220013B1840013815E0002C06
:100E2000F2D1FF2812D0002801D1002DF2D08B4240
:100E3000F0D182420FDD0221581E0840013804E043
:100E40000123013999430800013030BD002DEED057
:100E50000220FAE70022904204DCAC42DAD80020FB
:100E6000AC42F2D2581E012398430130EDE7C04650
:100E7000F0B54F464646D64644024500C0B58846C2
:100E8000640A2D0EC70F002D49D0FF2D4FD08023AF
:100E9000E400DB041C43002399469A467F3D434609
:100EA00042465E02D20F5B00760A1B0E904646D089
:100EB000FF2B12D080220020F600D2047F3B164385
:100EC000ED186A1C434694464A467B400F2A00D9D7
:100ED00074E0704992008A589746FF35002E54D12D
:100EE0004A4602231A4391460220EAE74346340069
:100EF00082465246022A2AD0032A00D1C3E0012AA0
:100F000000D082E0002200246402D205600ADB07E0
:100F1000104318431CBC90469946A246F0BD002CD5
:100F200027D104239946033B00259A46B7E7002CB6
:100F300019D108239946063BFF259A46AFE7002EB4
:100F400008D14A4601231A4391460120B9E7FF22FE
:100F50000024D9E7300000F0E1FB431F2D1A9E402A
:100F6000763D0020ADE70C239946093BFF259A46C4
:100F700095E7200000F0D2FB7625431F9C4000231C
:100F80006D422D1A99469A4689E74A4603231A4329
:100F90009146032095E73B00ABE780240023E40360
:100FA000FF22B1E78023DB031C4245D01E4243D120
:100FB00033435C02640A4346FF22A5E7200C240465
:100FC000210C0F00320C3604360C77435143464354
:100FD000504389193A0C5218964203D9802149028C
:100FE000884640443F0411043F0CC9198C01661E19
:100FF000B441890E2143140C2418A4010C4322018E
:101000003CD50122610814400C4360467F30002823
:101010001ADD620704D00F222240042A00D00434D3
:10102000220103D560461C4A80301440FE288EDC25
:10103000A401640AC2B267E78020C00304436402CB
:10104000640A3B00FF225FE70122101A1B2800DD23
:1010500058E762469E3221009440C140621E94418E
:101060000C43620704D00F222240042A00D004342B
:10107000620105D4A401640A002245E7AC46C4E736
:101080000122002440E78022D20314436402640A50
:10109000FF2239E794180108FFFFFFF7F8B5430274
:1010A0005B0ADA00DE4693464A02520A45469046FB
:1010B0004E4657464446E0B54A0047003F0EE4001E
:1010C000120EA1469C463E00C50FC90FBC1AFF2A4E
:1010D00000D177E001208246504641408D4200D148
:1010E00080E0002C51DD002A00D073E04B46002B3D
:1010F00000D1DDE0013C002C0FD0FF2F00D1A5E096
:1011000001231B2C09DC20224946121B91404B462F
:101110000A00E340511E8A4113435A46D31A5A012A
:1011200000D4C0E09B019C09200000F0F7FA2300E6
:1011300005388340864200DDC4E0861B1A0020206B
:101140000136F240861BB3405C1EA34100261343C8
:101150005A0704D00F221A40042A00D004335A013F
:1011600000D4A3E00136F7B2FF2E00D1A7E09B0127
:101170005B0A5802FF05400AED07384328433CBC90
:1011800090469946A246AB46F8BD002C4FD1FE24AE
:101190007A1C144200D09CE05A46002F00D003E194
:1011A000002A00D1F4E04A46002AE2D04B465A46D3
:1011B000D31A5A0100D405E14B465A460D009B1A3A
:1011C0000026C5E74846002800D183E78D4251D06C
:1011D000002CDADDFF2F39D080234A46DB041A4386
:1011E00091468DE7002C45DD002A3AD0FF2F2DD007
:1011F00080234A46DB041A43914601231B2C09DC59
:1012000020224946121B91404B460A00E340511EE2
:101210008A4113435B445A0145D50136FF2E4ED017
:1012200001226F491A405B080B40134390E7D41B1F
:101230000D00002F72D15B46002B00D192E0013CE3
:10124000002C00D1C5E0FF2A6FD1C4466346002BB5
:1012500035D080236246DB0313435B025B0AFF2722
:1012600087E74B46002B23D0013C002C77D0FF2F83
:10127000C3D1EBE7002C38D1FE227E1C324200D0D5
:101280008CE05A46002F70D1002A00D1A6E04A46D1
:10129000002A00D16DE75B464B4400265A0102D577
:1012A000504A013613405A0700D053E7DB089C46EA
:1012B000FF2ECBD063465B025B0AF7B259E7FF27EC
:1012C000002356E7474A361A13405A0700D041E731
:1012D000ECE74B465A46D41A63016FD4002C00D079
:1012E00022E700250027002343E7D11B002F2CD045
:1012F000FF2AAAD080235846DB04184383460123E3
:101300001B2908DC5B4620245846CB40611A8840E4
:10131000411E884103434B4416007CE7FF2A94D0CA
:1013200080235946DB0419438B4601231B2C08DC20
:1013300020215B465846E3400C1BA040411E8841DB
:10134000034349461600CB1AE9E65B46002B09D059
:1013500001390029DFD0FF2AD1D1C44676E75B46A8
:101360004B4458E7C4461600A2E7002A00D16CE7B8
:101370004A46002A00D169E78022D203134200D1F5
:1013800064E74346134200D060E70D00C4465DE7C2
:101390004B46002B1AD00D004346EAE6FF2E8ED0B6
:1013A0005B464B445B087EE7002AE1D14B46002BAD
:1013B000EBD180230025DB03FF27DAE64B460D0047
:1013C0009C1AB1E60026002B00D06CE70025002314
:1013D000CFE64B46594616005B1AA0E64346C8E6E0
:1013E000FFFFFF7DFFFFFFFB42024B024000490071
:1013F000520A5B0A090E000EFF2806D00020FF29C2
:1014000002D11800431E98417047FE38002AFBD1D4
:10141000F4E7C04641024200C30F490A120E002001
:101420007E2A03D99D2A02D9094A9818704780203C
:1014300000040143952A07DC9620821AD1404842D5
:10144000002BF3D10800F1E7963A9140F7E7C04648
:10145000FFFFFF7F70B5002812D0C317C5185D408D
:10146000C40F280000F05AF99E22121A962A11DCA5
:10147000D2B2082833DD083885406802400A02E00D
:101480000024002200204002D205400AE407104355
:10149000204370BD992A0BDD052329001B1AD94072
:1014A00003001B339D402B005D1EAB4119430D0013
:1014B000052801DD431F9D402B000A490B406E07A4
:1014C00009D00F263540042D05D004335D0102D527
:1014D0009F220B40121A9B01580AD2B2D3E768022E
:1014E000400AD0E7FFFFFFFB70B5041E0DD000F0EF
:1014F00015F99E22121A962A0EDCD2B208282EDD89
:10150000083884406002400A01E0002200204002C6
:10151000D205400A104370BD992A09DD030021005D
:101520001B3399404B1E994105231B1ADC400C4389
:10153000052801DD431F9C4023000A490B40650735
:1015400009D00F252C40042C05D004335C0102D5B2
:101550009F220B40121A9B01580AD2B2D7E76002B1
:10156000400AD4E7FFFFFFFB70B541004602C40FFD
:10157000FE20090E4B1C750A184214D0E0239B0074
:101580006D07360BCB1800210A0D280012051C4DE3
:1015900032435B052A405B0813435B00E4075B08AA
:1015A0002343190070BD002914D1002D1ED028003E
:1015B00000F0B4F80A281CDC0B232A001B1ADA40BE
:1015C000030015339D400F4B12031B1A5B05160BCE
:1015D0005B0DD8E7002D06D0320B802636036D0751
:1015E0001643094BCFE7084B0026CCE70023002623
:1015F000C9E703002A000B3B9A400025E3E7C046F9
:10160000FFFF0F8089030000FF0700004A00F0B5CC
:101610000B03520D3D4D5B0A470F561CC90F1F436C
:10162000C4002E4228D03A4BD518FE2D08DDFF22EB
:1016300000204002D205400AC90710430843F0BD0C
:10164000002D2DDD80010200501E8241FB00640F41
:10165000134323435A0757D00F221A40042A00D0BD
:1016600004338022D2041A404ED00135EAB2FF2D55
:10167000DDD09B01580ADCE73C43002A06D1002C50
:101680000BD005239B01580AD2B2D2E7002CCED052
:101690008020C0033843FF22CBE700220020C8E7A8
:1016A0002B00173322DB80231E261B043B43761BB3
:1016B0001F2E1DDD02204042451B1800E84005009A
:1016C000202E04D013488446624493401C432300D8
:1016D0005C1EA3412B4300255A07BDD18020C004C6
:1016E00018400122A842C4D10200CBE70022C8E77B
:1016F0000948101822008440250083406C1EA54133
:10170000F2402B431343E6E72A00BBE7FE07000045
:1017100080FCFFFFA2FCFFFF82FCFFFF1C210123D6
:101720001B04984201D3000C10391B0A984201D3C4
:10173000000A08391B09984201D30009043902A2A2
:10174000105C40187047C046040302020101010109
:10175000000000000000000010B5002903D1FFF7D1
:10176000DDFF203002E0081CFFF7D8FF10BDC046A7
:101770000023C25C0133002AFBD1581E70470000D1
:1017800001220F21824080008140D04310B5094CD6
:10179000A3688B43A360084B996811439960D9688B
:1017A0000140D96019680A431A605A6802405A60B9
:1017B00010BDC0460000014000040140F8B5DE46FF
:1017C0004E46454657462D4BE0B583460E0098469B
:1017D000002A01D12A4B98460020B0470127002457
:1017E000051C284B5B8B9F420CDABBB21800994654
:1017F000B047291C8246C047002801D055464C46B8
:101800000137EEE7002C32D0013B9C422FDA5B46D9
:10181000601E1C8080B2B0470134071CA0B2B047E4
:10182000041C011C381CFEF769FE00281FD1391C5E
:10183000201CFFF733FC011CFFF71AFB291C061CB8
:10184000281CFEF7BDFF011C381CFFF727FC211CDC
:10185000FEF7B6FF8221C905FFF70AFB011C301C09
:10186000FFF72AF9011C281CFFF718FC051C281C8F
:101870003CBC90469946A246AB46F8BD8918000884
:1018800095180008C006002010B5FEF751FE431E53
:10189000984110BD10B5FEF737FE431E984110BDAC
:1018A000F0B55746DE464E464546E0B58A465B49AA
:1018B00083B04A680023824200D9A6E08C68A04227
:1018C00000D9A2E04B8B0027013B9BB29846831ABC
:1018D0000093A61A3B00424600983900FEF75CFED2
:1018E00032003B00FEF738FE32003B0039008146F3
:1018F000FEF752FE43463D005C0824184D41424627
:101900003B0020002900FEF727FE29008346200027
:101910003B00801979414246FEF71EFE5B460025DA
:10192000C41ABC420DD05A46009B981AFFF7DCFD42
:10193000051C2000FFF7D8FD011C281CFFF7BCF890
:10194000051C4B46364C5E1EF6003359A6199B46C5
:101950004B46DB001F5900934B460133DB00994691
:101960001B595846191C9846FEF72AFFFC21890589
:10197000FFF77EFA391CFFF791FB291CFFF778FA75
:10198000291CFFF775FA594601904046FFF786FB80
:10199000FC218905FFF76CFA291CFFF769FA011C85
:1019A0000198FEF70DFF391CFEF70AFF5346186039
:1019B000009B7668E3184C446468301C211C5F6807
:1019C000FEF7FEFEFC218905FFF752FA391CFFF7EE
:1019D00065FB291CFFF74CFA291CFFF749FA311C5B
:1019E0008046201CFFF75AFBFC218905FFF740FACF
:1019F000291CFFF73DFA011C4046FEF7E1FE391CA9
:101A0000FEF7DEFE534658600123180003B03CBCCD
:101A100090469946A246AB46F0BDC046C00600209F
:101A2000441800200123024A11780B4313707047B9
:101A3000951E0020F8B54746CE46030080B5804687
:101A40000F000B434ED0490040004D084408291CAC
:101A5000201CFEF759FD00283ED1211C281CFFF751
:101A60002BF8061C311C301CFFF702FA1E49814678
:101A7000FFF7FEF9011C1D48FFF710FB4946FFF771
:101A8000F7F91B49FFF70AFB4946FFF7F1F9194936
:101A9000FEF796FE311CFFF7EBF9291C061C201CF3
:101AA000FEF746FD002804D0311C1348FFF7F6FA74
:101AB000061C002F04DA311C1048FFF7EFFA061C51
:101AC0004346002B03DA80231B069C466644301CE9
:101AD0000CBC90469946F8BD291C201CFEF7ECFF73
:101AE000061CBFE70026F2E7B7B01C3D4A76143E5D
:101AF000F11CA43E36C77F3FDB0FC93FDB0F4940D7
:101B000070B5002823D0FC2443025B0AA4051C43C3
:101B1000FFF7EAFC1249FFF7ABF91249FFF7BEFAEB
:101B20001149051C201CFFF7A3F9011C281CFFF715
:101B3000B5FA0E49051C201CFEF742FE011C0C489C
:101B4000FEF7BAFF011C281CFFF7A8FA70BD011CA4
:101B5000FFF78EF9011C0748FEF7AEFFF6E7C04617
:101B60001872B1338A36AC42D5E8843FF944B43EAA
:101B7000FE1F993F000080BF70B5002829D0802348
:101B80000122C6157F3E4002400A32401B04034337
:101B90000132934080227010192100260025520442
:101BA000AC189C4202DCA5181B1BB61801395B005F
:101BB00052080029F4D1002B07D1FC239B059C4639
:101BC00076106644C005801970BD012301369E431E
:101BD000F3E70020F8E7C0460C23084A10B5546923
:101BE00023405361630702D4230704D410BDFFF7D9
:101BF00019FF2307FAD5FFF715FFF7E700040140A7
:101C00000323054910B54A6913404B61930700D47B
:101C100010BDFFF707FFFBE700040140F0B5DE460B
:101C200057464E4645465C4AE0B5136883B053605C
:101C3000F0221202134206D103B03CBC90469946F2
:101C4000A246AB46F0BD554A9046128892B2002A91
:101C5000F2D08021C905486A514909688842EBD30E
:101C60009B0400D592E04F4B01934F4B5B8B0133AC
:101C700093422DDA00234D4A13604D4A13604D4ABA
:101C800013604D4A13604D4B002500229A5E019B64
:101C900052009C4662441600494F4A483968C03693
:101CA00003880C00002B74D003880231013B1BB267
:101CB00003800025535F043223800125B242EFD117
:101CC0003960434642461B88013B9BB21380B3E711
:101CD000019B00259C4600236146002600270F201B
:101CE000AC46394C00930023E25E0225635F043466
:101CF000994602254B5F009D9A4653439B46DB174E
:101D000003405B44AB461B119B445B464D4600932E
:101D100053466B439A46DB17034053441B11FF188D
:101D200000254B5F04315A439246D2170240524479
:101D30001211B6184A465A43D31703409B181B1179
:101D40009C44224BA342CED11A4C58466546FFF71D
:101D500081FB2168FEF734FD2060174C3800FFF747
:101D600079FB2168FEF72CFD2060104C3000FFF756
:101D700071FB2168FEF724FD20600D4C2800FFF761
:101D800069FB2168FEF71CFD20607CE7104B019386
:101D90006BE7002D94D194E700000240F03800205A
:101DA000981E0020A41E00200403002050060020DE
:101DB0004C0600205806002054060020661700201C
:101DC0006017002064170020402000200021002020
:101DD000641F0020F0B501268E40032344684F00A5
:101DE000B44344601C00BC401D00E443154052094C
:101DF0001340BB408668890026408660C668BD40A7
:101E000026403343C3600F238B40DB43022D07D0B2
:101E10000268144025430560026A13400362F0BD66
:101E2000026A1340036203681C4025430560F6E71D
:101E3000064B074A5B68074958081040DA080A4011
:101E40008018054A1340C0187047C046002800405B
:101E50001808780006021E000F0F0F00064B074AF5
:101E60001B68074958081040DA080A408018054ADC
:101E70001340C0187047C04600280040383838006A
:101E80000E0E0E000F0F0F0010B5FFF7E7FF040056
:101E9000FFF7CEFFFF22FF210304120413402206A6
:101EA000520E13434901E2080A401343FF2264091A
:101EB000D2021440FF221C43430300025205000ECD
:101EC000134014301C434006204310BD054A93685C
:101ED0005B0706D5102193680B4393609368194202
:101EE000FCD1704700240140084BFA211A68C9044C
:101EF0001A6080225A601962002159619A62044A6C
:101F00000431DA609A680A439A60704700240140FD
:101F1000C00480000E4A10B5136807211360002327
:101F20000824536013625161D3609062002003392A
:101F300093680B43936093681942FCD1136C013C86
:101F4000C018A4B280B2002CF2D1C00810BDC046A7
:101F500000240140F0B5C646010000B504282AD887
:101F600043001B18154A164FDB0298183A7894461E
:101F70000A41D2071CD40568124A95421BD1124A65
:101F80001F269046040043440022B04601E06568E5
:101F900034004646F241261DAA189E42F7D10B4B4B
:101FA000C358934207D1012362468B4013433B70D1
:101FB00004BC9046F0BD0020FAE7C046008001084E
:101FC000B0060020544E4F4398900108981000002E
:101FD00010B58389002B08D1082904D90E4B1B6842
:101FE0009847002010BD8181FBE7012B04D0022B14
:101FF0000AD000238381F4E7084B0C3149005918BB
:10200000CA88074B1A80F4E7044B0C314900591871
:10201000CA88044B1A80ECE79403002004030020D4
:102020005C0600207A170020064B0C304000181880
:102030000C31054AC088490059181080034BCA88E2
:102040001A807047040300207A1700205C060020E5
:10205000024A5368002BFCD11360704730000240E5
:1020600010B501218024064A06489368194202D11E
:1020700093681C4201D00378F7E7024B1B7810BD30
:10208000003001400C300140FF23012270B541189F
:10209000074D084C1E1C89B22E70A3681A42FCD052
:1020A0002B780370013083B29942F5D170BDC046E0
:1020B0000C30014000300140FF22054B05491A70E9
:1020C000FE3A8B681A42FCD0014B1878C0B27047B8
:1020D0000C3001400030014030B500290DD0022203
:1020E0004118064C064D89B2A3681A42FCD0037809
:1020F00001302B7083B29942F6D130BD00300140DF
:102100000C300140022203498B681A42FCD0024B7A
:1021100018707047003001400C30014010B50400C9
:102120000800FFF7EFFF8023114A9B00D460536043
:10213000104B13605368002BFCD11360FF20FFF796
:10214000E1FFFF20FFF7DEFF6424FFF789FF02E0D5
:10215000013C002C0AD0FFF7AFFFFF28F8D01F2367
:102160001840053843425841C0B210BD0020FCE77A
:1021700030000240911000000223024A11780B4304
:1021800013707047951E002001230A210A005A434C
:10219000824201D21300F9E75A00824204D8052195
:1021A0004B43834200D91300180070470020044AB3
:1021B000835C002B03D02E2B01D00130F8E7704751
:1021C0008817002000200D4B0D4A1B789B009B5860
:1021D000002B12D019009B7A0A31002B01D00B0082
:1021E00009E0CA798B7912021A430B7A1B041A434D
:1021F0004B7A1B0613430130EAE77047941E002018
:102200007C03002010B5FFF7DDFF00220B4B9A5630
:10221000002A02DAFF221A7003E0824201DB421E2A
:102220001A700100102800DD1021082900DA0821A9
:10223000E920FEF75DF8024B188010BD98030020DE
:102240007803002010B5064A1378032B01D8013318
:1022500013701378034A9B009850FFF7D3FF10BD0B
:10226000941E00207C0300208023094A1B040029BF
:102270000AD092681A4204D00123CB70054B4B6000
:1022800005E0054B4B6002E091684B40936070475E
:1022900000280040C22E0108C52E01080A4B6C33ED
:1022A0001A78002905D0094B002A00D0084B4B6052
:1022B00008E0514251411970064B002A00D0064BEC
:1022C000064A13607047C0460403002074250108C5
:1022D0007B250108A0190108E0180108600600200C
:1022E0000A4B10B51C880A4B14211A88094B1B880D
:1022F0009A4208D12000FDF7F7FF89B2002C02D0E6
:10230000002900D11431C81C10BDC0467817002028
:10231000BC060020961E0020F8B5CE4647460C00AD
:1023200080B50200042800DD0422134BD200D75AE6
:102330009B189A885E8891469A79278090464A46EB
:102340006680A280DB88E380042810DD051F0A2157
:102350002800FDF7CDFF4B465843381820800A214E
:102360002800FEF7ABF843465943711861800CBC56
:1023700090469946F8BDC046A01A010810B500293C
:1023800003D0044B9B684B6002E00348FFF75AFF01
:1023900010BDC04604030020882D010810B5002997
:1023A00003D0044B1B6E4B6002E00348FFF74AFF6B
:1023B00010BDC04604030020F42F010810B5044BE3
:1023C000044A0233DB7F9B009858FFF73BFF10BDA8
:1023D000C00600200C2D01080548038B002903D0FE
:1023E0001B06DB0FCB7002E0802253400383704753
:1023F000C0060020084801230278002908D00748B9
:102400001A4200D10648012393434860CB7001E093
:10241000534003707047C04699030020E22D010825
:10242000E82D010810B5002903D0044B5B8B4B60ED
:1024300002E00348FFF706FF10BDC046C0060020BB
:102440001C31010810B50C1E08D0FA20054B000104
:10245000598B0131FDF74CFF606002E00248FFF745
:10246000F1FE10BD040300208425010810B5084AC0
:102470000624138B002906D02340C31A5842434137
:102480000233CB7002E0A3430343138310BDC04665
:10249000C0060020182210B50D4C238B1A40082AC4
:1024A00005D0102A06D0002A07D00A4A07E00A4AB7
:1024B000002004E0094A082001E01020084A002911
:1024C00001D04A6003E0182293430343238310BDE5
:1024D000C006002040270108323201082A320108D4
:1024E0003A320108F8B54746CE46254B80460020D3
:1024F000185E244B80B500229B5E0F009946224B4C
:102500001B78002B04D0434618604B460B6032E02A
:102510001E4D40260C23EA5E2023801AFF335843C9
:102520001023E95EFF36891AFDF7E2FE1030040041
:10253000B04201DD340002E0C043C01704400E2366
:10254000EA5E4B46981ACF2358431223E95E891A54
:10255000FDF7CEFE1030EF2801DDEF2002E0C3438F
:10256000DB171840AB8A1B0602D5EF23341B181A61
:1025700043461C6038600CBC90469946F8BDC04686
:10258000AE170020B0170020043100200403002003
:10259000012310B5044A1178194203D04B4013703F
:1025A000FFF794FC10BDC0460531002010B5064A67
:1025B000012311780C001C4005D14B401370FFF72C
:1025C00093FC024B1C7010BD05310020043100202B
:1025D00070B590240D4EE405300000220121FFF774
:1025E000F9FB200040220721FFF7F4FB01254023DF
:1025F000B5612A003000A3610021FFF7EBFB2A0040
:1026000006212000FFF7E6FB70BDC046000400482D
:10261000F0B5C64600B5FFF7BBFF8020FFF77AFC98
:10262000FA27274EFF00B8423BD980239024254D3E
:10263000E4055B02AB61244A07212000FFF7CAFBD7
:102640008020FFF767FC0223AB61802301221B047B
:10265000A361110080462800FFF7BCFB2000012287
:102660000721FFF7B7FB002228001100FFF7B2FB9C
:10267000154A06212000FFF7ADFB4020FFF74AFC7A
:102680000400FFF7A5FF8020FFF744FCB84204D9FF
:1026900042460E4B1C800E4B1A80002301203370E3
:1026A00003E030780138434258410A4B1A7882429D
:1026B00003D0187043425841023004BC9046F0BD2C
:1026C000043100200004004803080000AE17002079
:1026D000B0170020AC17002010B5FFF799FF0328B2
:1026E000FBD110BD9023DB0518690E231840064B63
:1026F0009B8A1B0606D54308C2085340DB0701D559
:102700000A2358407047C04604030020F0B5144C1B
:102710000700608B00281FD0CA235B005A43114B6F
:10272000C826D21801235B4200259C46BFB289B25D
:10273000760013885488FB1A0C1B1BB224B25B432F
:1027400064431B19B34201DA1E00AC460135043262
:10275000A842EEDC6046F0BD01235B429C46F9E7EF
:10276000C0060020083100200123884200DB00233E
:10277000D8B270470123884200DC0023D8B27047EA
:10278000C3000248C01840687047C0464418002083
:10279000C3000248C01840687047C0464418002073
:1027A00002000D4B6532D20070B5D558CB22920095
:1027B0009446C0001B186344291C281C1C68FEF7A3
:1027C00057FB211C051C201CFEF752FB011C281C7A
:1027D000FDF7F6FF70BDC04644180020CB218900EC
:1027E0008C46064A10B5C300D31865306344C00058
:1027F00081581868FEF760F910BDC04644180020E3
:10280000F0B5C6460C1C00B5011C90461D00FDF736
:10281000D7FF211C061C201CFEF72AFB311C071CBD
:10282000301CFDF7CDFF4146FEF722FB011C381C92
:102830000027FEF733FC391C8046FDF765FE0028B3
:1028400002D06F602F6014E04046FFF795F9211C1D
:10285000071CFEF723FC311CFEF72EF980231B0614
:102860002860391CE018FEF719FC311CFEF724F92A
:10287000686004BC9046F0BD10B50422835E1F2B37
:1028800006DC0622835E1F2B02DC024B1B68984786
:10289000002010BD90030020F0B55746DE464E469E
:1028A00045468446E0B5504283B001910C9F844573
:1028B0003FDD0E005B183CD49946202B01DD202320
:1028C00099460199002906DAD31DDB1059430023EC
:1028D00000267F1A0193B1452BDD194B1B689A46E0
:1028E000184B1B8898460023760166447600310019
:1028F00065460024514400910721214201D13B78D3
:1029000001375EB2002E07DA1F2D05D86600B346E8
:1029100040465946009E70525B000134DBB20135DF
:10292000A242E9DC0199013109B201910E00494549
:10293000DADB03B03CBC90469946A246AB46F0BDFC
:10294000680600207A170020F0B557464E464546E7
:10295000DE46E0B589468BB0804692461900D042EB
:102960004BD44B46CB4248D410239B1A274A9BB2E8
:102970001A419A4013B29B46002200270026DC46EB
:1029800002AB64461498805D0136000220400400CA
:102990004008A5082843204340BA80B204001443ED
:1029A00027431F80170002330200B142E9DC2500F3
:1029B00008206C464B002418E5526C464B1C5B000B
:1029C0002018C2525223124A124CD35A5246023194
:1029D0000232258823808BB2111C92B2092A13D3AC
:1029E00046468AB24946013E02A8013936B20090F5
:1029F00009B23000FFF750FF25800BB03CBC904679
:102A00009946A246AB46F0BD0921E9E7FFFF000069
:102A1000040300207A17002070B507241639CD0072
:102A20006D1A104906004B5D82B023400824E41A59
:102A30006D18A4B20623C15E22000423C05E0723E2
:102A40000095FFF781FF0623F15E0423F05E22006C
:102A500000950723FFF720FFB388E418B48002B085
:102A600070BDC046884B010870B5072416398D002B
:102A70006D1810496D004B5D060023400824E41AD0
:102A800082B06D18A4B20623C15E22000423C05E8A
:102A90000A230095FFF758FF0623F15E0423F05E3A
:102AA000220000950A23FFF7F7FEB388E418B480EC
:102AB00002B070BD684E010810B50124121A01322F
:102AC0009440013C844099420CDC074A48001218AB
:102AD0000133072902DC10882043108001310232C3
:102AE0009942F6D110BDC046B417002070B50A4C0B
:102AF000638B013B5843FEF7ADFCEE218905FEF7E1
:102B0000B7F96368051CA068C01AFEF7EDFC011C4C
:102B1000281CFDF7D1FF70BDC006002010B5FFF7DF
:102B2000E5FF9923054A041CD05CFEF793FC044999
:102B3000FEF79EF9211CFEF79BF910BDC006002090
:102B400092FAB649400910B5520949095B090400D7
:102B5000904219D01BD9A01A012401308440013CB5
:102B6000944099420CD8134A4800A4B21218108815
:102B70000131204389B2108002329942F7D910BD49
:102B80000A0019001300EEE799420BD0020014006E
:102B90000200A01A012401308440013C9440994273
:102BA000EED8E0E701228240024C49000B5B134360
:102BB0000B53E4E7B4170020F0B54646D6464F461F
:102BC000C0B506001D4815001F008A000388B41810
:102BD0005B00904622889BB203809246AA4216D0A0
:102BE000012294466246134303809B0701D00029CB
:102BF00011D1134B99464846042221000EF0A8FD3E
:102C0000258067801CBC90469946A246F0BD62882C
:102C1000BA42E5D1E9E70A4A6388518810889146AB
:102C20005246FFF78FFF4346043BF6187188308801
:102C30003B002A00FFF786FFDDE7C0465E17002055
:102C4000A8170020F8B5CE464746020080B5070019
:102C5000264B0D00588B791E8F410138821A541E65
:102C6000A241FFB2D4B29E685B68E119F61AFDF783
:102C70003FFB01003000FDF7B1FA7B07DB1BE400EE
:102C8000DB00EB182D192F681C685B680600211CFF
:102C9000381C9846FEF7ECF86D6841468146281CC2
:102CA000FEF7E6F8011C4846FDF78AFD41468146DD
:102CB000381CFEF7DDF8291C071C201CFEF7D8F88D
:102CC000011C381CFEF7EAF94946FEF7B3FE084935
:102CD000FEF7CEF8041C3000FEF706FC011C201C99
:102CE000FDF7EAFE0CBC90469946F8BDC0060020F0
:102CF00083F9223E70B50D684C68281C291CFEF72C
:102D0000B7F8211C061C201CFEF7B2F8011C301C71
:102D1000FDF756FD011C281CFEF7C0F9011C201C04
:102D2000FDF7CAFE4000400870BDC046486870B557
:102D30000C68011CFEF79CF8051CFE20211C800578
:102D4000FEF7ACF9011CFEF793F8291CFDF738FDDE
:102D5000211C061C201CFEF78BF8291CFDF730FDFA
:102D6000011C301CFDF7A8FEFEF706FF0149FEF727
:102D70007FF870BD0000C84270B54C680D68201C1B
:102D80000A49FEF775F8291C061C281CFEF770F886
:102D9000211C051C201CFEF76BF8011C281CFDF7EC
:102DA0000FFD011C301CFDF787FE70BD0000C8C27E
:102DB00070B50C684D68201C0C49FEF759F8211CB1
:102DC000061C201CFEF754F8291C041C281CFEF7C6
:102DD0004FF8011C201CFDF7F3FC011C301CFDF713
:102DE0006BFE0249FEF75AF970BDC0460000C842AA
:102DF000486870B50C68011CFEF73AF8051CFE2007
:102E0000211C8005FEF74AF9211C061C201CFEF738
:102E10002FF8291CFDF7D4FC311C041C301CFEF7D4
:102E200027F8291CFDF7CCFC011C201CFDF744FEF3
:102E3000FEF7A2FE0149FEF71BF870BD0000C84175
:102E4000FE2070B50C0080050968FEF727F964685C
:102E5000051C0B49201CFEF70BF8291C061C281C1E
:102E6000FEF706F8211C051C201CFEF701F8011CCA
:102E7000281CFDF7A5FC011C301CFDF71DFE70BDD4
:102E80000000C841FE2070B580050D000968FEF7FE
:102E900005F90D49041CFDF7EBFF211C061C201C45
:102EA000FDF7E6FF6D68041C291C281CFDF7E0FFF8
:102EB000011C201CFDF784FC011C301CFDF7FCFDEF
:102EC0000149FEF7EBF870BD0000C84170B50C0079
:102ED000FE2120688905FDF773FC6468051C0B4919
:102EE000201CFDF7C5FF291C061C281CFDF7C0FF90
:102EF000211C051C201CFDF7BBFF011C281CFDF735
:102F00005FFC011C301CFDF7D7FD70BD0AD723BD47
:102F100010B5FFF7DBFF011C0148FDF7CDFD10BD2B
:102F2000000080BF70B50D00FE2128688905FDF7FF
:102F300047FC0E49041CFDF79BFF211C061C201CAE
:102F4000FDF796FF6D68041C291C281CFDF790FFF7
:102F5000011C201CFDF734FC011C301CFDF7ACFDEE
:102F60000349FEF79BF84000400870BD0AD7233D97
:102F70000AD7A33C10B5FFF7D5FF011CFE20800542
:102F8000FDF79AFD10BDC04670B54C680D68201C59
:102F9000211CFDF715FC291C061C281CFDF768FFE9
:102FA000211C051C201CFDF763FF011C281CFDF7DC
:102FB00007FC011CFE208005FEF770F8011C301C88
:102FC000FDF77AFD4000400870BDC046086870B546
:102FD0004C68011CFDF74CFF211C051C201CFDF753
:102FE00047FF011C281CFDF7EBFB011CFE208005A0
:102FF000FEF754F8211C051C201CFDF7E1FB291CE1
:10300000FEF718FD0149FDF733FF70BDE02E654264
:10301000FE2070B50E680C008005311CFEF73EF8EE
:103020008121051CC905301CFDF722FF291C061C47
:10303000281CFDF71DFF6468051C211C201CFDF7E2
:1030400017FF011C281CFDF7BBFB011C301CFDF702
:1030500033FDFE218905FDF7B3FBFEF78DFD024927
:10306000FDF706FF70BDC0460000484210B5FFF7EF
:10307000CFFF011CFE208005FDF71EFD10BDC046E0
:10308000FE2070B50C0080050968FEF707F864683B
:10309000051C0B49201CFDF7EBFE291C061C281CF7
:1030A000FDF7E6FE211C051C201CFDF7E1FE011CBE
:1030B000281CFDF785FB011C301CFDF7FDFC70BDD5
:1030C0000000C842044BC10010B5C918FFF7D8FF73
:1030D0004000400810BDC04644180020FE2070B5D6
:1030E00080050D000968FDF7D9FF0E49041CFDF7A6
:1030F000BFFE211C061C201CFDF7BAFE6D68041CD7
:10310000291C281CFDF7B4FE011C201CFDF758FBF0
:10311000011C301CFDF7D0FC0349FDF7BFFF400048
:10312000400870BD0000C84200004842F0B5CE46DD
:10313000474680B583B081460F001000694690462F
:10314000FEF7AEFB061E10D04B460C255D434346F2
:10315000094C69462B513800FFF7C0FF64196060C5
:1031600069463800FFF78CFFA060300003B00CBC4C
:1031700090469946F0BDC046C41700204868704785
:10318000086870470B0010B509685868FEF752FCD4
:103190000149FDF76DFE10BDE02E6542086870B56F
:1031A0004C68011CFDF764FE211C051C201CFDF76A
:1031B0005FFE011C281CFDF703FB002823D0FC2424
:1031C00043025B0AA4051C43FEF78EF91249FDF782
:1031D0004FFE1249FDF762FF1149051C201CFDF747
:1031E00047FE011C281CFDF759FF0E49051C201C39
:1031F000FDF7E6FA011C0C48FDF75EFC011C281CDB
:10320000FDF74CFF70BD011CFDF732FE011C0748A5
:10321000FDF752FCF6E7C046C1A8C0345AFABA43DB
:10322000FE4D9040F944B43EDA40A640000080BF15
:10323000010010B5034B6531C900C918FFF7AEFF97
:1032400010BDC04644180020086870B54C68011CC9
:10325000FDF70EFE211C051C201CFDF709FE011CBC
:10326000281CFDF7ADFAFEF787FC70BD70B5FFF7BF
:10327000EBFF0C49041CFDF75BF900280FD1FE2180
:10328000201C8905FDF79CFA051CFE20211C8005E9
:10329000FDF704FF011C281CFDF70EFC70BDFF208C
:1032A000C005FBE7A4707D3FF0B5DE4657464E46AD
:1032B00045461D23E0B5A24A85B0D356072B00D959
:1032C00037E10B33DB00D3185A68002A00D130E114
:1032D0005B889C499A46DF009B4B9C4DFF186960B8
:1032E0002A60884650463900FFF7F8FEFC21890520
:1032F000061CFDF713F9041E00D011E139005046F9
:10330000FFF7B4FF9249FDF709F923008146002831
:1033100000D007E139005046FFF7B2FE311C041C13
:10332000FDF7CAFB8B49FDF70DF94B46002800D08D
:10333000F8E08749301CFDF79BFD4146FDF7F8F8A2
:10334000002700280ED08449301CFDF7DDF8002846
:1033500008D080231B069C4664442F61AF60EC605C
:103360000123DFE0311C301CFDF782FD8246211C69
:10337000201CFDF77DFD5146FDF722FA714981467B
:10338000301CFDF7DFF8002809D16E49301CFDF72D
:103390006FFD011C4846FDF7CBF8002860D0694955
:1033A0004846FDF765FD211C8346201CFDF708FA01
:1033B0006449FDF75DFD8046311C6248FDF76EFEF5
:1033C0005A46414602ABFFF71BFA029B201C191C10
:1033D0009846FDF7F5F9834641464046FDF748FD1E
:1033E0005946FDF745FD594601905846FDF740FD09
:1033F0005146FDF7E5F9011C0198FDF75DFB4146DB
:10340000FDF74CFE43462B61039BE860191CAF603F
:10341000201C9846FDF7D4F9834641464046FDF707
:1034200027FD5946FDF724FD594601905846FDF702
:103430001FFD5146FDF7C4F9011C0198FDF73CFB47
:103440004146FDF72BFE4346A861EB616F613D49A4
:10345000301CFDF777F802239846002801D061E080
:10346000804642460C2353439A463C4A3549301C19
:103470009244FDF7FDFC011C4846FDF70FFE211CA0
:103480008146201CFDF79CF9011CFE204A4602AB38
:103490008005FFF7B5F9029B201C191C9B46FDF720
:1034A0008FF928498146301CFDF7F8FD5A465346EE
:1034B000011C5A60FDF7DCFC2949061C4846FDF753
:1034C000D7FC494683464846FDF7D2FC311CFDF740
:1034D00077F9011C5846FDF7EFFA534618609F60D4
:1034E000039B201C9946191CFDF76AF953464A466E
:1034F0001B491A61041CFDF7BBFC211C8146201CE2
:10350000FDF7B6FC311CFDF75BF9011C4846FDF7E1
:10351000D3FA5346D8605F61434602331BB201E0E1
:1035200001235B422B870522042302210020FFF7A1
:10353000C3FA05B03CBC90469946A246AB46F0BDE6
:10354000C00600200000484244180020C417002094
:10355000CDCC8C3F0000C84200005C42CC1700205C
:1035600000401CC503000A0043434A439B18254AF8
:1035700030B5934243DC244A93423EDC00293CD0E0
:10358000E824CA17891851407422444351431A1B36
:1035900000281DDB39280DDD1C4D541AAC4664444F
:1035A000742C2AD9AE244443194D1C1B641926D40B
:1035B0003A2C22DD134D4C00AC46141B6444E82C1D
:1035C0001BD9742444431C1B3A3418D4742C14DDC6
:1035D0008900521A0F498C46E821624449008A4208
:1035E0000BD93A2250430C4A1B1A94460020AE22B3
:1035F00063449A424041C0B200E0012030BD002047
:10360000FCE7C046043500001C340000CA3400004A
:10361000651A0000783500000FE6FFFFF0B5C646DA
:103620000600FE201F4B00B519688005FDF744FA1F
:103630001D4B051C1968FDF71BFC1C4B041C19686D
:10364000281CFDF715FC1A4B80461968281CFDF74D
:103650000FFC211C071C201CFDF70AFCFE2189051C
:10366000FDF7AEF8011CFE208005FDF725FA391C98
:10367000051C201CFDF7FCFB4146FDF7A1F8291CA9
:10368000FDF7F6FB41463060201CFDF7F1FB011C05
:10369000381CFDF703FD291CFDF7EAFB706004BC34
:1036A0009046F0BD4C060020500600205406002035
:1036B00058060020F0B55746DE464E464546E0B572
:1036C000194B0F6883B001908B469A469F4223D9CD
:1036D00039000068FCF708FE00230C00994601261B
:1036E000002201250EE038002100FCF7FDFD2B0033
:1036F00043434B44320027004646A946534506D86B
:103700001D000C00704380469044002CEBD14246D3
:10371000019B1A605B461D6003B03CBC9046994615
:10372000A246AB46F0BDC046FFFF0F00FEE7C04615
:1037300010B5EFF30980FFF7F9FFC046002370B51D
:103740000F4C104823600BF0C9FB002802D00389FE
:103750001B0708D40C4B9B8A5B0702D40B4B2360DE
:1037600070BD0B4BFBE70B4B85881A88C3880A4951
:10377000013A1B042B43043110009847EAE7C04686
:103780003C200020042200200403002084040020A8
:10379000B40300203820002024200020F8B5802326
:1037A000DB05CE469946FA2347469B0080B59846EE
:1037B00004274B461A4E5C6A33684046E51A0DF002
:1037C00013FAFEF78FFF174902000B8818009C467A
:1037D000154B504080B29D4201D93A4219D1384030
:1037E00019D1944502D00A80346015E00F4B9D42F8
:1037F000DFD90F4B1968A142DBD2910700D56020B9
:10380000120701D5502210430A4A944664441C60B2
:1038100002E0042000E001200CBC90469946F8BD6F
:10382000A01700209C1700204FC3000050C30000C9
:10383000A4170020B80B0000F8B58027FA26104C1A
:10384000FF05F6007D6A2368EB1AB34203D8C8204F
:103850000DF0CAF9F6E7FEF745FF0100094A2560B9
:103860001388108099438BB25807C00F1A0701D5EF
:10387000102210439B0701D520231843F8BDC046F2
:10388000A01700209C170020064A10B51368744644
:1038900013601B0603D420000CF0F6FD10BDFEF7EC
:1038A0006BFCF8E7002401408023194A9B009169D2
:1038B00010B50B43936103210C200CF0C7FD0022CF
:1038C000144BDA60996819605A609A68D20708D573
:1038D0000322996852420A4301219A609A68114270
:1038E000FCD180230B4A1B0691680B4393609368BD
:1038F000002BFCDB012193680B43936001220549F7
:103900000B681A42FCD0A022034B52041A6010BD6F
:103910000010024000240140082701400CB470B59B
:1039200000248AB00EAA0C4B40CA089302AB9880C0
:10393000D9801881598106AD31001800069407948A
:10394000099402959C8101920AF05AFF0AB070BC5A
:1039500008BC02B01847C046D11F00080CB40B00C9
:1039600000B50A33020085B00020292B01D81F2A98
:1039700003DD05B008BC02B0184702A8044B8280E2
:10398000C18007AA0699029301920AF039FFF0E775
:10399000A01B0108F0B50C1C85B007000021201CFD
:1039A0001E001500FCF7B0FD4823002805D0211C9F
:1039B0000E48FDF781F84623041C38000293FDF7FA
:1039C00093FD0B49FDF754FA011C201CFDF774F818
:1039D000FDF7CAFD36B22DB200900191054A3100C3
:1039E0002800FFF7BBFF05B0F0BDC046000080BF58
:1039F000DB0FC9404A220108F0B5D6464F4646467D
:103A0000C0B506B21D4A84B00C00300009B2FFF701
:103A1000A5FF1B4D2F0048373A78002A04D0002319
:103A20009846184B994607E021000C3109B2164A16
:103A30003000FFF793FF1AE03B78434517DD0C3465
:103A4000A86823B29A46FDF78FFD0290039168683B
:103A5000FDF78AFD009001914A462B6851463000DF
:103A6000FFF77CFF01239C460C35E044E4E704B0FB
:103A70001CBC90469946A246F0BDC046DB1D01081D
:103A8000C4170020F31D0108E91D0108F0B5CE465A
:103A9000474680B504B285B00E00304A09B2200016
:103AA000FFF75CFF2E4F00213D68281CFCF726FD28
:103AB00000280CD10C3633B2281C9846FDF754FD73
:103AC000284A0090019141462000FFF747FFFB681C
:103AD000350099460C352BB2002148469846FCF734
:103AE0000DFD002810D1204B1868FDF73DFD029018
:103AF00003914846FDF738FD1C4A0090019141466C
:103B00002000FFF72BFF17E07B680021181C994667
:103B1000FCF7F4FC00280ED1154B484699331B786E
:103B20000293FDF721FD134A0090019141462000C8
:103B3000FFF714FF00E03500B868FDF715FD0C3500
:103B40002DB2009001910C4A29002000FFF706FFDA
:103B500005B00CBC90469946F0BDC0468C1D0108CE
:103B6000C4170020961D01089C1E00209F1D0108FF
:103B7000C0060020B81D0108CF1D0108F0B5C646DB
:103B8000160000B505B282B01A000C00280009B278
:103B9000FFF7E4FE33680021181C9846FCF7AEFCE2
:103BA00000280CD127004046FDF7DEFC0C373FB261
:103BB000009001911F4A39002800FFF7CFFE73687B
:103BC0000021181C9846FCF799FC00280CD127000E
:103BD0004046FDF7C9FC18373FB200900191154AE5
:103BE00039002800FFF7BAFE33690021181C9846F7
:103BF000FCF784FC002818D127004046FDF7B4FCF0
:103C000024373FB2009001910B4A39002800FFF79A
:103C1000A5FE7069FDF7A8FC303424B20090019134
:103C2000064A21002800FFF799FE02B004BC904626
:103C3000F0BDC046892E0108011E01080A1E0108B8
:103C4000F0B54E46DE4657464546E0B505B287B06C
:103C5000824689465D4A09B22800FFF77FFE5C4C28
:103C60005C496668301CFCF74FFC002800D0A6E0D9
:103C70000C234B449846A36B301C059343461BB260
:103C80009B46FDF771FC06000F0005980021FCF72C
:103C900035FC02960397002835D10598FDF764FCA2
:103CA0004E46009001914C4A59462800FFF756FEB7
:103CB000E06BFDF759FC494F183636B20090019180
:103CC0003A000323310028004E46FFF747FE206CE0
:103CD000FDF74AFC243636B2009001913A003100DB
:103CE00006232800FFF73AFE3023606C4B441EB2D7
:103CF0009846FDF739FC3A4A0090019131002800BE
:103D0000FFF72CFE09E02068FDF72EFC324A0090F8
:103D1000019159462800FFF721FE0021A068FCF719
:103D2000EDFB002805D00021206AFCF7E7FB002806
:103D300045D147460C37BEB22A4B310098460C316C
:103D400009B2032342462800FFF708FE310018316C
:103D500009B2062342462800FFF700FE3100280082
:103D60005546243109B2204AFFF7F8FD0021206AA8
:103D70002435FCF7C3FB00280ED10021A06BFCF713
:103D8000BDFB1A4B002800D0194B2800194A3900F6
:103D90005546FFF7F3FE6C350021A068FCF7AEFB3B
:103DA00000280CD10021A06BFCF7A8FB124B0028C7
:103DB00000D0124B124A39002800FFF7DFFE07B08F
:103DC0003CBC90469946A246AB46F0BDE21C0108B9
:103DD000C4170020000048C2ED1C0108FE1C0108A9
:103DE000111D0108171D01081F1D0108BC1C010839
:103DF000C51C0108E4170020CF1C0108D91C0108CC
:103E0000CC170020F0B50F003C002B4E05B287B058
:103E100009B232682800FFF7A1FD73680C34002B4B
:103E200008D1B368002B2ED121B2244A2800FFF715
:103E300095FD3EE0224A21B22800FFF78FFDB069D0
:103E4000FDF792FB049005913069FDF78DFB029020
:103E500003913C00F068FDF787FB183424B2009012
:103E60000191184A210028003C00FFF777FDF06916
:103E7000FDF77AFB243427B200900191124A3900F1
:103E80002800FFF76BFDB368002B12D021000C3126
:103E90000E4A09B22800FFF761FD7069FDF764FB67
:103EA000183424B200900191094A21002800FFF73C
:103EB00055FD07B0F0BDC046C4170020E91D01083C
:103EC000131E01081B1E0108321E0108391E0108BD
:103ED000411E0108F0B5DE46454657464E46E0B560
:103EE000494D83B00BB206B20700686898460C00D3
:103EF000FDF73AFB0C3400900191444A41463000F2
:103F0000FFF72CFD1F2C78DC3822AB5E22B29046E6
:103F1000002B05DA3E4A41463000FFF71FFD6CE0FA
:103F2000002B05D13B4A41463000FFF717FD64E006
:103F3000394A41463000BEB2FFF710FD30003C3038
:103F4000364A414600B2FFF709FD3000783000B232
:103F5000334A4146FFF702FD002399463C339B4616
:103F60003C339A462E00BB44BA443822AB5E4B45E4
:103F700043DD0C341F2C40DCB368191C181C984618
:103F8000FDF732FA00280BD100214046FCF7B6FAC3
:103F9000002805D123003A0041462868FFF7FAFCC3
:103FA000F368191C181C9846FDF71EFA00280BD15F
:103FB00000214046FCF7A2FA002805D123005A460A
:103FC00041462868FFF7E6FC3369191C181C98461F
:103FD000FDF70AFA00280BD100214046FCF78EFAC3
:103FE000002805D12300524641462868FFF7D2FC3D
:103FF00001239C460C36E144B7E703B03CBC904635
:104000009946A246AB46F0BDC4170020251D010805
:10401000461D01085B1D0108701D01087A1D01087D
:10402000811D01081C4B70B519001C000020283CA4
:1040300030311A780C33551EAA4180188B42F8D1C2
:104040000021164B98341A780833551EAA41891856
:10405000A342F8D10400884200DA0C0008F064F9A9
:10406000A8230F4A0021D558FCF748FA002808D0A9
:10407000022000190130401083001B185B00181843
:1040800070BD0021281CFCF739FA434258414342D5
:10409000022018400230ECE7E80600201807002054
:1040A000C0060020F8B545464E46DE465746E0B508
:1040B0001C252F4B89465D5798466B1C4FD04346B5
:1040C0005B7F5BB201334AD0CA235B005D43294B5F
:1040D000ED18294B9B8A1B0747D4284B9A4683002F
:1040E000EB185F884B46C41839D443465B8BA34218
:1040F00035DD4B46A6009B0002369B46AE1908E014
:104100004C443788631C2AD043465B8B5E44A342F1
:1041100025DD31883800D0470028F1D043465B8B3D
:10412000A3421CDD0126A3000233ED18764209E00C
:1041300042464B46528B1B192F8826005D44934202
:1041400005D21C0028883900D0470028F0D0731C05
:1041500005D043461D203100185608F035FB3CBC05
:1041600090469946A246AB46F8BD054B9A46B6E73F
:10417000C006002008310020040300207527000835
:10418000692700081D23020010B5094C1100E356F1
:104190000B33DB00E3180220185E012A01D0012155
:1041A0004942FFF77FFF8022238B9343238310BD77
:1041B000C0060020F8B5CE4647461C2380B51B4EEE
:1041C000F3565A1C27D01D203056421C23D0CA2437
:1041D00064005C43164BE418164B9B8A1B071ED4E5
:1041E000154B9846738B6788012B1BD9002301253B
:1041F0009946063421883800C047002801D0A946D6
:104200002788738B01350434AB42F3DC1D20305614
:10421000494608F0D9FA0CBC90469946F8BD074BC0
:104220009846DFE700239946F2E7C046C006002023
:1042300008310020040300207527000869270008C2
:1042400010B500290CD0084BDB7FFF2B0BD00831B9
:1042500001335B000800054A20210BF0D5FF02E086
:104260000348FDF7EFFF10BDC00600202C2E01080B
:10427000F02D0108084B400010B5C05A002908D0A5
:10428000064B5B8B48601B1A5A4253410233CB707A
:1042900001E009F025FA10BD44360108C0060020EF
:1042A000F0B5C646082580460C0000B56D426D1A73
:1042B000210040460AF014F9002831D1637A002B1E
:1042C0002CD0237ADB06F3D422000932130001003C
:1042D0001F78002F05D0EE182E2F00D131000133AA
:1042E000F6E70029E4D04346DF6A521811780B0044
:1042F000413B192B01D82031C9B241267642B44640
:104300003B789C446646192E01D82033DBB28B42A1
:10431000CED101320137002BE8D102E0043000E0B9
:10432000042004BC9046F0BDF0B54746CE460025BB
:1043300080B580462F0083B08022164E01AB52001C
:104340003100404609F092FB00281DD1019B002B53
:104350001AD0114B04009946019B9C42ECD2335D6C
:104360000D2B06D10C4BED182F70FFF7E7F9002548
:1043700007E01F2B05D97F2D03D849466A1C4B55F2
:1043800095B20134A4B2E7E7002003B00CBC90461C
:104390009946F0BD042100200422002007B58022A8
:1043A000110001AB9202090509F02CFF0EBD0000BF
:1043B00007B5034A01AB034909F024FF0EBDC0460F
:1043C0009C100000C00600200F4B0A6813B50400C3
:1043D0009A4201D00D4816E001AB0422694609F06B
:1043E00045FB0028F6D10A4B009A9A42F2D12000F0
:1043F00001AB084A084909F039FB041EEAD1074815
:1044000009F082F9200016BD9C100000522201081C
:10441000544E4F4398100000C4060020FFFF0000D8
:104420007FB504000D1E20D0FDF794FD061E14D0AC
:104430008068FDF759F8FDF797F8029003917068CE
:10444000FDF752F8FDF790F8009001912800084A16
:10445000202108300BF0D8FE00E06C60054B1B8873
:10446000A34204D10123EB7001E009F04DF97FBDB7
:10447000822E0108B2170020F0B54E46DE465746A0
:104480004546E0B58BB0060009AB2A22002904D1CD
:10449000244909F0B7FE244F03E0244909F0B2FE95
:1044A000234F244B00259A46CB239B009946224C50
:1044B00053465B8BAB422EDD00282CD1A8B208F00E
:1044C00067F91E4B834698464B46E058FDF74CF87B
:1044D000CA23069007919B00E058FDF745F8049029
:1044E00005916068FDF740F8029003912068FDF7A0
:1044F0003BF85B46009001913A00802140460BF06A
:1045000083FE09AB020009904146300009F07AFEB3
:1045100001350834CCE70BB03CBC90469946A24626
:10452000AB46F0BD6836010894360108A436010890
:10453000D0360108C00600204418002004210020C5
:10454000F0B5DE464E4645465746E0B585B0048890
:1045500098460EAB934600229B5E89468246200019
:104560000193D8474946051CFBF7E2FF0300581E9C
:1045700083412E1C0093394B5B8BA34214D920003E
:10458000D847011C071C4846FBF7BEFF431E984155
:10459000009B984204D14444351CA4B23E1CEAE777
:1045A0002E4B5B8BA34201D800204FE04346E41A18
:1045B0005346A4B21C802100019808F005F9494631
:1045C000301CFCF76BFD291C8246381CFCF766FD8D
:1045D000FC218905FCF74CFC391C8146281CFCF7A2
:1045E000EFF8FC218905FCF743FC311CFCF756FD74
:1045F000494602AB5246FEF703F9029D0021281CF2
:10460000FBF796FF002806D0FE21281C8905FBF742
:104610007BFF002800D1039D4346013303D1802353
:104620001B069C466544200008F0B2F80C4B0600BF
:104630001868FCF759FF291CFCF71AFC041C300011
:10464000FCF752FF011C201CFCF7BAF805B03CBC7B
:1046500090469946A246AB46F0BDC046C006002033
:1046600048060020F0B585B0CB0735D50E250024CF
:1046700001266D441C4F2C8076423A000123002114
:1046800000962800FFF75CFFFBF7B0FF021E0CD07E
:1046900020002988FEF74AFD431E98412B882418E4
:1046A00001332B80062CE8D113E0002C11D1280017
:1046B00022000E492C80FDF781F82D88002D08D0AE
:1046C000280008F065F8290002002000FEF72EFD02
:1046D0000400074B48331C70052302211A000020F8
:1046E000FEF7EAF905B0F0BD81270008C5300008E3
:1046F000C4170020F0B54746CE46012380B50F0011
:1047000087B019423DD00E20002200262E4C68446E
:104710000280013A26606660E660311C00922B4AF6
:10472000FFF70EFFFBF762FF051E2AD0FCF7DCFE49
:10473000011C2748FCF7C0F98146264B99331878AD
:10474000FCF788FE4946FCF793FB234B60601B682F
:10475000311C181C9846FBF7D1FE002804D14946AD
:104760004046FCF7A9F9E060680804A9FDF798F84D
:10477000002806D004A90020FEF782FC4000400873
:104780002060BB0715D01D23124AD356591C10D0E8
:104790000B33DB00D3185888104BC100C918FEF743
:1047A000FDFCFC218905FCF763FB074B400040083A
:1047B00098600423052202210020FEF77DF907B04E
:1047C0000CBC90469946F0BDC41700209127000804
:1047D00092FA3649C00600209C1E00204418002092
:1047E000F0B54F464646D646C0B51F000E2384B0EE
:1047F0006B447D1C98461A806B1E9D4181460C00BF
:1048000000260135B3009A465246224B4846D158FD
:10481000FCF744FC2B00011C002E01D001235B425D
:1048200000931D4A3B004046FFF78AFE534601367F
:10483000E050042EE6D10025A66865612561291C9B
:10484000301CFBF75BFE00281DD1E768291C381CD3
:10485000FBF754FE002816D1381CFDF751F9051C52
:10486000301CFDF74DF9011C281CFCF717FC450016
:104870006D08291C0948FCF71FF9291C206108480C
:10488000FCF71AF9606104B01CBC90469946A24638
:10489000F0BDC046D81E010831320008F234B841DC
:1048A0009ECEDD40F7B56B4600269D1D25490122B1
:1048B0002800DE80FCF782FF234C24496060FBF770
:1048C00041FEB04237D02988300007F07DFF2E88A6
:1048D000300007F05DFFFCF707FE01233200206087
:1048E0005B421B496068FFF77BFF2A880123194957
:1048F0006068FFF775FFA668276A301C391CFCF753
:10490000B7FA0021A063051CFBF7F8FD002812D1BF
:10491000391C301CFCF7C2FB616A061CE063E068CE
:10492000FCF7BCFB2064281CFDF726F9311CA063B2
:10493000FCF7C2F860640623052202210020FEF77E
:10494000BBF8F7BD31320008C4170020000048C290
:10495000E4170020CC170020F0B5D64646464F4657
:104960000E250023C0B584B06D442B80494C4A4BC2
:104970000122236049492800FCF720FF2E88002EE1
:1049800000D180E0FDF7F8F8454B8146996E9846D6
:10499000081CFBF715FF071CFE2049468005FCF7A5
:1049A0008BF8FE218905FCF779FB011C381CFCF70C
:1049B0005FFA0021A061FBF7A7FD002863D1310059
:1049C00007F002FF2B8803AE3380364BFE21994659
:1049D0000123890500939A464A46023B3000FFF7BF
:1049E000AFFD0021071CFBF789FD00284BD12B8868
:1049F0002D49338002234A46009330005346FFF787
:104A00009FFD0021051CFBF779FD00283BD1391CD7
:104A1000281CFCF743FB291C8146381CFCF728FAAC
:104A2000FDF7AAF84346051C986EA669011CFBF722
:104A3000C7FE311CFBF7C4FE8246281CFBF7D6FDDF
:104A40001A4960604846FCF713FA011C5046FCF70F
:104A500033F81649071CE060281CFCF709FA291CEA
:104A60008046FCF705FA5146FCF702FA011C48465D
:104A7000FCF722F841462061381CFCF7F9F9311C9B
:104A8000FCF71AF8E06104B01CBC90469946A246B7
:104A9000F0BDC046C4170020D4180108A1270008A3
:104AA00004030020DD270008000080BFDB0FC940A1
:104AB00010B580B207F06CFEFCF716FD0149FCF75B
:104AC000D7F910BDDB0FC940F0B545464E46DE466E
:104AD0005746E0B505005E480E00844651009846F2
:104AE0008B189B0063441C002934247889B01D2C4A
:104AF00043D82A331F78CA239B007B43554FDB19C9
:104B00009C460793544B47469B46E3009A461B1B23
:104B10009B005B449869FF0081461298674401300E
:104B200032D04846002839D09B6839004046069369
:104B3000C8474A49071CFBF7F1FC00280BD0129B21
:104B40004046D900079B9C466144C847011C381C5D
:104B5000FCF7A4FA071C53461C1BA4005C44E36842
:104B6000381C0293FCF700FD36B22DB20090019183
:104B7000069A31002800FEF7F1FE09B03CBC9046D1
:104B80009946A246AB46F0BD4846002806D05B6871
:104B9000390040460693C847071CDCE7032C1ED0AB
:104BA00039004046FEF7ECFA390081464046FEF7F0
:104BB000E5FA00232A4C071C381C0493FCF7D4FCAC
:104BC000029003914846FCF7CFFC36B22DB200901C
:104BD0000191220031002800FEF7C0FECDE71C4BFA
:104BE0008A18920098182B3003789A460C2BC4D858
:104BF0001A011C4B39009B18DA685C6840469B68B8
:104C000093469847390081464046D8475346164A4E
:104C1000071C1A4101231340CED04046FFF748FF3E
:104C200000218046381CFBF76FFC4146002805D167
:104C3000381CFBF741FF4823071CBDE7381CFCF775
:104C400017F9011C0948FBF737FF4623071CB3E798
:104C5000C006002044180020D4460108FFFF7F7FD3
:104C60001C4A01081024010850150000000080BFF4
:104C700070B50400FEF74CF9051C2000FFF718FF83
:104C8000011C281CFBF718FF70BDC04670B504005E
:104C9000FEF71CF9051C2000FFF70AFF011C281C69
:104CA000FBF70AFF70BDC04670B50400FEF7E8F9D7
:104CB000051C2000FFF7FCFE011C281CFBF7FCFE76
:104CC00070BDC04670B50400FEF7DAF9051C20007F
:104CD000FFF7EEFE011C281CFCF7CAF8011C024875
:104CE000FBF7EAFE70BDC046000080BF10B500298A
:104CF0000AD0074BDB7F1B1A5A4253410130023363
:104D00004000CB70486002E0C0B208F00DFD10BD5D
:104D1000C0060020F7B51C262E4B0D009E57721CB6
:104D200057D0802201009143C21101200240002D82
:104D300037D00C2474431C19270029373F788F4241
:104D400004D12A342478944200D1E870032922D176
:104D50000C2474431B192B3319780120002A04D129
:104D60001D4B0B41034204D133E01C4B0B4103426A
:104D70002FD0F022520028000A410830184BD207E9
:104D800000D4184B184A09018A5820210092174A6A
:104D90000BF03AFA1DE01C235943154BCB586B60BE
:104DA00017E0032912D10C2070431B18180029307A
:104DB000007803280AD12A331B78934206D10D4884
:104DC000002B00D00C48FDF73DFA02E0300007F060
:104DD00035FBF7BDC0060020FF010000071E0000E4
:104DE000802A0108862A0108102401088C2A01085B
:104DF000D4460108182B01087C2B01080C234343DF
:104E0000144A10B5D31828331B78002912D0002B70
:104E10000ED0831D0B70104B1B785BB2834201D107
:104E200005230B701C23D356834201D10123CB7081
:104E300048600DE0002B06D0127F52B2824202D0B1
:104E400007F0C0FA04E059425941C9B207F0C8FA64
:104E500010BDC046C0060020980300207FB51B4C43
:104E6000A38CDAB2002A30D08022920013400029AD
:104E70001DD0EA3AFF3A002B00D1143A0A7020699B
:104E800008310D00FCF730FBFCF76EFB668C0290DE
:104E90000391E068FCF728FBFCF766FB3300009009
:104EA00001910B4A202128000BF0AEF90DE0002BF8
:104EB0000BD0E36863602369A360638C6383013470
:104EC00007F0A0FCE07F08F02FFC7FBDC0060020AB
:104ED0001C26010870B50A4C4500002907D0094B73
:104EE000625D9B8C1A420AD00123CB7007E0064B0F
:104EF0006419198008F0A0FB6278044B1A7070BD29
:104F0000701B0108C00600209C1700209803002099
:104F100070B5002304000F4DA3612869A36882685F
:104F2000934203D820000BF09DFE70BD0BF09AFE5B
:104F300001232C612375EFF309830269243B9A4214
:104F400004D801002000FBF71FF9EEE772B6024B10
:104F50006B62FEE76C060020B01B0108036810B509
:104F6000984207D01A6802605060002218009A61C7
:104F70000BF078FE10BDC046C368026910B504008E
:104F8000934207D01A1D6262A269002094466344CE
:104F9000A36210BD8268002AF4D0012149420BF0BF
:104FA00051FC0028F5D1E368ECE7C046C82370B592
:104FB0000125074A0100D4582368AB432360CC2362
:104FC000D058FBF70BF9E06023682B43236070BDDA
:104FD000B4030020094B8000C05810B5084B0029CD
:104FE00007D01B6E48601B1A5A4253410233CB70E4
:104FF00002E01866FFF7DAFF10BDC0461C4B01083F
:1050000004030020022310B5164C642223700023F1
:10501000A354154AE367A36023616361A361E3615D
:1050200023626362A3621365536463688021DB6853
:10503000D164584243419E20000284465B425B0299
:105040006344136440236350084B00212000E36055
:105050000BF07AF963681B68002B02D00021200056
:10506000984710BDC4050020005C00404C1E01089C
:10507000002370B586680500046803619E420ED166
:105080002378022B02D9636A002B07D12389002BD6
:1050900001D1022021E0636AAB6115E01E00638943
:1050A000002B0CD13100286808F078FC0600431C66
:1050B00012D00128EDD963699842F3D3E9E73100B2
:1050C000200008F0B7FBA861AB696E61002BE0D04F
:1050D0003034EC61002000E0012070BDF0B5C64620
:1050E000070000B50D000468012926D963699942BB
:1050F00023D2012398462900386808F04FFC061E89
:1051000001D100201CE0012817D0431C17D0002239
:105110002900200008F060FF002811D1626923698E
:10512000911E8B4205D241460133236123790B4303
:10513000237135009642DED3E3E7022000E0012030
:1051400004BC9046F0BD0000F8B5040007683F2697
:1051500004202025A16900291DD0380008F076FB25
:1051600000281CD1E3691A78002A17D0DB7A334073
:10517000A371E52A08D02E2A06D00F2B04D0AB430A
:10518000082B01D000200CE00021200009F01AF9C2
:105190000028DFD003E00028F4D000E00420002342
:1051A000A361F8BD1FB5104B104A03A802930393E7
:1051B000019208F023FB03000B20002B11DB0C49AC
:1051C0009B005A58002A01D000201070019A002A32
:1051D00001D000201070CA5002A8002201A908F0D6
:1051E00081FD05B000BDC04640270108D42E002037
:1051F000AC03002013B5194B0400002201A9684636
:10520000009308F06FFD002821D1019B00992360D5
:10521000200009F0D5F900281CD123002B331B787E
:105220007F2B0AD8A379DB0601D405200FE0019B70
:10523000E169187808F0A8FAA060019B2000DB88DB
:10524000A380FFF715FF0428EFD0002805D0002326
:10525000236002E00428E8D0F9E716BD40270108E2
:1052600010B5094C628B002A0CD0CA239B0058430E
:10527000D03000190023002401330160446008305D
:105280009342F9DB10BDC046C0060020F0B5DE46F3
:105290004E4645465746E0B5440085B06408029046
:1052A000201C93468946FBF7A1F9FCF71DF9011C68
:1052B000201CFBF7F3FE8821C905FBF7D9FD041C70
:1052C000FBF794F985B22800FCF7C4F82E00011C06
:1052D000201CFBF7E3FE8036B6B2EB05F205041C9A
:1052E000DB0DD20DF10500D59AE05849900001324E
:1052F00092008A580E580092EA0500D583E09A0081
:1053000001339B008D58CF58311C0098FBF7C6FE27
:10531000391C8046281CFBF753FA4D49FBF7A8FDC2
:10532000414682464046FBF74BFA011C5046FBF7CC
:1053300047FA47490190281CFBF79AFD01998246DC
:10534000201CFBF795FD414603905046FBF738FAC9
:105350000199FBF735FA0399FBF7A0FE211CFBF737
:1053600087FD5146FBF79AFE211CFBF781FD311C9E
:10537000FBF726FA5B46391C1860281CFBF78EFEEB
:105380000099071C301CFBF71BFA3149FBF770FD35
:10539000391C8046381CFBF713FA011C4046FBF70A
:1053A0000FFA2B498046301CFBF762FD4146061C74
:1053B000201CFBF75DFD8246391C301CFBF700FA10
:1053C0004146FBF7FDF95146FBF768FE211CFBF750
:1053D0004FFD311CFBF762FE211CFBF749FD00214C
:1053E000041C0298FBF790F8002828D1211C281CE7
:1053F000FBF754FE4B46186005B03CBC90469946FE
:10540000A246AB46F0BD5A1EFF3A92008D5880224C
:1054100012069446FF3B9B00CF586544674473E7F0
:10542000501E0A49FF3880000E588020000684462E
:10543000FF3A92008A586644624400925CE7291C55
:10544000201CFBF72BFE4B461860D5E7F036010811
:10545000DB0F493C104B114A30B55A60104A09180D
:105460005A60884217D202244025DA68012AFCD00B
:105470001A6922431A6158611A692A431A61DA6863
:10548000012AFCD01A69A2431A61802212019446B3
:1054900060448142E9D830BD0020024023016745C5
:1054A000AB89EFCDF8B514000F0011000600002500
:1054B000FFF7D0FF01210B4B6208DC68012CFCD008
:1054C0001869084318616800385A3080DC68012C7C
:1054D000FCD01C6901358C431C6102369542ECD32B
:1054E000F8BDC0460020024010B50B4CE368DB035A
:1054F00010D40A49FBF7BCFC0949FBF761F9FBF73B
:1055000089FF8023DB00984204D8064B1B1A06480B
:105510000340E36310BDC04600280040BD37863F0E
:1055200000C0FF43FF010000FF81000010B50C4CDC
:10553000236ADB439B0711D01923226A09481343CE
:1055400023620BF051FB0222236A134206D101238E
:10555000616A0B436362636A1A42FCD010BDC046A5
:1055600000100240204E0000802208494020CB68F5
:105570001343CB60064B02E0013B002B04D0CA680A
:105580001042F9D0012070470020FCE700280040BD
:10559000FFFF030070B504000D00FFF7E5FF0028D2
:1055A00002D0044B1D605C608021024AD3688B43AB
:1055B000D36070BD00280040F0B5CE46474680B5A8
:1055C00083B0002975D13D4A3D4C136823400093B8
:1055D00053683C4A13403C4A019314001378002B53
:1055E0001AD0303B0131137001320629F6D12678EA
:1055F000637836011E43A378E2781B0125791343B3
:1056000062792D011543F6B2DBB2EDB226706370FC
:10561000A570182836D104E0635401310629FBD166
:10562000E5E7002B02D10133637003E0122B01D9AF
:105630001223637063789846002D02D10123A37072
:1056400018E05A0021483B21FAF73EFF0323184097
:105650001933994681440A214846FAF7BFFD0A21C9
:10566000C7B24846FAF740FE3F010F43FFB2AF42D0
:1056700000D2A7706B4642465A716A469E71A37863
:10568000137112E0232E01D923222270592B01D944
:1056900059236370592D01D95923A3706A46237881
:1056A000937063785370A378137000990198FFF793
:1056B00071FF03B00CBC90469946F0BD0028004035
:1056C0007F7F7F003F1FFF0088170020CCEE0B007C
:1056D00030B58025114C2D02A3692B42FCD1012548
:1056E000236840002B432360130418430C4B0F35F1
:1056F00018436060112409488A1883691C42FCD051
:1057000083691D4206D10B78013183629142F4D145
:10571000012002E000230360002030BD005400405F
:1057200000200002F0B51D00184BC901060085B02D
:10573000D001CC18002822D02900FAF7D5FD0F237C
:105740002A0A2418EFB2080C2D0B9D4303401D4379
:10575000080AD2B2EDB2C0B2CBB201A94A70A2031C
:10576000920F64BACA70C8718C80092260200E70D2
:105770008F708D710B72FFF7ABFF05B0F0BD00238A
:105780000020002501270022E7E7C04600FEFFFFBA
:1057900070B519000C4B82B05C6E069B05005C4333
:1057A000100000232200FAF7D7FE0600694601A880
:1057B00001920094FDF77EFFE8B2009B019A310050
:1057C000FFF7B0FF02B070BD04030020F0B55746EC
:1057D0004E464546DE46E0B589B01C0012AB1600C9
:1057E00004CB07001B7890460393042969D03C4BF7
:1057F000C901F601CD18002E41D1AB039B0F0193D7
:10580000002302939C4601339A46002300249946C4
:10581000280AC0B2EDB2334B05A9DB5D019A0B70CB
:105820004B464B7053468B7043461A436346CB71CD
:10583000029BCA700871092260204D718C710B7235
:10584000FFF746FF002E37D00C24039B23431C0098
:10585000254DEB5DA3420BD03B0004AA103313701F
:1058600013005470190002226020FFF731FFEC553D
:1058700009B03CBC90469946A246AB46F0BD21001B
:105880003000FAF731FD0F22230ADBB245199946A1
:10589000E3B29A46AB039B0F0193240B0B0C94438A
:1058A0001A4014430A0AD3B2280A9C46CBB2C0B2AB
:1058B000EDB2E4B20293AEE74C24039B23431C00F9
:1058C000C6E70C231A43002302939C46019301333D
:1058D0009A460023904600240025002099469AE726
:1058E00000FEFFFF44320108B406002070B584B00A
:1058F00019000AAB1E78040000231000089AFAF77A
:105900002BFE0500089B02A903A803920293FDF752
:10591000D1FE099B01960093039A029B2900200067
:10592000FFF754FF04B070BD8023204ADB05596A9D
:105930001F48136870B5CB1A834230D91D4B1160D4
:105940001C881D4B9B685B071AD480208002FCF7E3
:10595000E1FA05008020C002FCF7DCFA06001748D7
:1059600029007043000B6043FAF738FC144A03B275
:105970001380632B17DD134A108BC01800B270BD63
:10598000FCF7A4FA80208002FCF7C4FA050080200E
:10599000C002FCF7BFFA0600FCF7A6FADFE7084BE7
:1059A00000229B5EE5E701204042E8E79C030020DF
:1059B0001FA10700BAF7FF1F00240140C81900000B
:1059C000EE38002004030020012370B50B4D5B422C
:1059D0002B800B4B040098420DD0FCF7BBFA00283B
:1059E00007D00100074A08482C800BF0B1FE0020C8
:1059F00070BD0120FCE70020FAE7C046B217002086
:105A0000FFFF00009C100000C006002070B50400DD
:105A100004281DD8104B114811491D181960002287
:105A20001F2000E01968C24104335218AB42F9D17B
:105A30000C491A6059180C4B60009C460019C002B2
:105A400060440A4AFFF72EFD0020094B1C8070BD00
:105A500001204042FBE7C046C0060020981000002D
:105A6000544E4F4368EFFFFF008001089C10000078
:105A7000B21700200B4970B50C000B4A08000A60F1
:105A800000231F25703400E00268EB4104309B18AE
:105A9000A042F9D1742205480B67FFF703FD0020EF
:105AA00070BDC04604030020564E4F4300F8010865
:105AB00070B58024E4050600656AFCF7D1FA03E0BE
:105AC000636A5B1BB34204D2FCF7F6FAFF28F7D1F6
:105AD00070BD0020FCE7C04630B543B283B004007F
